{
	"contracts/AbstractInterfaces.sol": {
		"Car": {
			"abi": [
				{
					"inputs": [
						{
							"internalType": "uint256",
							"name": "_fuelTankSize",
							"type": "uint256"
						},
						{
							"internalType": "uint256",
							"name": "_kilometersPerLitre",
							"type": "uint256"
						}
					],
					"stateMutability": "nonpayable",
					"type": "constructor"
				},
				{
					"inputs": [
						{
							"internalType": "uint256",
							"name": "kilometers",
							"type": "uint256"
						}
					],
					"name": "drive",
					"outputs": [],
					"stateMutability": "nonpayable",
					"type": "function"
				},
				{
					"inputs": [
						{
							"internalType": "uint256",
							"name": "litres",
							"type": "uint256"
						}
					],
					"name": "fuelUp",
					"outputs": [],
					"stateMutability": "nonpayable",
					"type": "function"
				},
				{
					"inputs": [],
					"name": "getFuelCapacity",
					"outputs": [
						{
							"internalType": "uint256",
							"name": "",
							"type": "uint256"
						}
					],
					"stateMutability": "view",
					"type": "function"
				},
				{
					"inputs": [],
					"name": "getKilometersPerLitre",
					"outputs": [
						{
							"internalType": "uint256",
							"name": "",
							"type": "uint256"
						}
					],
					"stateMutability": "view",
					"type": "function"
				},
				{
					"inputs": [],
					"name": "kilometersRemaining",
					"outputs": [
						{
							"internalType": "uint256",
							"name": "",
							"type": "uint256"
						}
					],
					"stateMutability": "view",
					"type": "function"
				},
				{
					"inputs": [],
					"name": "startEngine",
					"outputs": [],
					"stateMutability": "nonpayable",
					"type": "function"
				},
				{
					"inputs": [],
					"name": "stopEngine",
					"outputs": [],
					"stateMutability": "nonpayable",
					"type": "function"
				}
			],
			"devdoc": {
				"kind": "dev",
				"methods": {},
				"version": 1
			},
			"evm": {
				"assembly": "    /* \"contracts/AbstractInterfaces.sol\":1755:2264  contract Car is GasVehicle {... */\n  mstore(0x40, 0x80)\n    /* \"contracts/AbstractInterfaces.sol\":1875:2034  constructor(uint256 _fuelTankSize, uint256 _kilometersPerLitre) {... */\n  callvalue\n  dup1\n  iszero\n  tag_1\n  jumpi\n  0x00\n  dup1\n  revert\ntag_1:\n  pop\n  mload(0x40)\n  sub(codesize, bytecodeSize)\n  dup1\n  bytecodeSize\n  dup4\n  codecopy\n  dup2\n  dup2\n  add\n  0x40\n  mstore\n  dup2\n  add\n  swap1\n  tag_2\n  swap2\n  swap1\n  tag_3\n  jump\t// in\ntag_2:\n    /* \"contracts/AbstractInterfaces.sol\":1964:1977  _fuelTankSize */\n  dup2\n    /* \"contracts/AbstractInterfaces.sol\":1949:1961  fuelTankSize */\n  0x02\n    /* \"contracts/AbstractInterfaces.sol\":1949:1977  fuelTankSize = _fuelTankSize */\n  dup2\n  swap1\n  sstore\n  pop\n    /* \"contracts/AbstractInterfaces.sol\":2008:2027  _kilometersPerLitre */\n  dup1\n    /* \"contracts/AbstractInterfaces.sol\":1987:2005  kilometersPerLitre */\n  0x03\n    /* \"contracts/AbstractInterfaces.sol\":1987:2027  kilometersPerLitre = _kilometersPerLitre */\n  dup2\n  swap1\n  sstore\n  pop\n    /* \"contracts/AbstractInterfaces.sol\":1875:2034  constructor(uint256 _fuelTankSize, uint256 _kilometersPerLitre) {... */\n  pop\n  pop\n    /* \"contracts/AbstractInterfaces.sol\":1755:2264  contract Car is GasVehicle {... */\n  jump(tag_6)\n    /* \"#utility.yul\":7:150   */\ntag_8:\n    /* \"#utility.yul\":64:69   */\n  0x00\n    /* \"#utility.yul\":95:101   */\n  dup2\n    /* \"#utility.yul\":89:102   */\n  mload\n    /* \"#utility.yul\":80:102   */\n  swap1\n  pop\n    /* \"#utility.yul\":111:144   */\n  tag_10\n    /* \"#utility.yul\":138:143   */\n  dup2\n    /* \"#utility.yul\":111:144   */\n  tag_11\n  jump\t// in\ntag_10:\n    /* \"#utility.yul\":7:150   */\n  swap3\n  swap2\n  pop\n  pop\n  jump\t// out\n    /* \"#utility.yul\":156:663   */\ntag_3:\n    /* \"#utility.yul\":235:241   */\n  0x00\n    /* \"#utility.yul\":243:249   */\n  dup1\n    /* \"#utility.yul\":292:294   */\n  0x40\n    /* \"#utility.yul\":280:289   */\n  dup4\n    /* \"#utility.yul\":271:278   */\n  dup6\n    /* \"#utility.yul\":267:290   */\n  sub\n    /* \"#utility.yul\":263:295   */\n  slt\n    /* \"#utility.yul\":260:379   */\n  iszero\n  tag_13\n  jumpi\n    /* \"#utility.yul\":298:377   */\n  tag_14\n  tag_15\n  jump\t// in\ntag_14:\n    /* \"#utility.yul\":260:379   */\ntag_13:\n    /* \"#utility.yul\":418:419   */\n  0x00\n    /* \"#utility.yul\":443:507   */\n  tag_16\n    /* \"#utility.yul\":499:506   */\n  dup6\n    /* \"#utility.yul\":490:496   */\n  dup3\n    /* \"#utility.yul\":479:488   */\n  dup7\n    /* \"#utility.yul\":475:497   */\n  add\n    /* \"#utility.yul\":443:507   */\n  tag_8\n  jump\t// in\ntag_16:\n    /* \"#utility.yul\":433:507   */\n  swap3\n  pop\n    /* \"#utility.yul\":389:517   */\n  pop\n    /* \"#utility.yul\":556:558   */\n  0x20\n    /* \"#utility.yul\":582:646   */\n  tag_17\n    /* \"#utility.yul\":638:645   */\n  dup6\n    /* \"#utility.yul\":629:635   */\n  dup3\n    /* \"#utility.yul\":618:627   */\n  dup7\n    /* \"#utility.yul\":614:636   */\n  add\n    /* \"#utility.yul\":582:646   */\n  tag_8\n  jump\t// in\ntag_17:\n    /* \"#utility.yul\":572:646   */\n  swap2\n  pop\n    /* \"#utility.yul\":527:656   */\n  pop\n    /* \"#utility.yul\":156:663   */\n  swap3\n  pop\n  swap3\n  swap1\n  pop\n  jump\t// out\n    /* \"#utility.yul\":750:827   */\ntag_20:\n    /* \"#utility.yul\":787:794   */\n  0x00\n    /* \"#utility.yul\":816:821   */\n  dup2\n    /* \"#utility.yul\":805:821   */\n  swap1\n  pop\n    /* \"#utility.yul\":750:827   */\n  swap2\n  swap1\n  pop\n  jump\t// out\n    /* \"#utility.yul\":956:1073   */\ntag_15:\n    /* \"#utility.yul\":1065:1066   */\n  0x00\n    /* \"#utility.yul\":1062:1063   */\n  dup1\n    /* \"#utility.yul\":1055:1067   */\n  revert\n    /* \"#utility.yul\":1079:1201   */\ntag_11:\n    /* \"#utility.yul\":1152:1176   */\n  tag_26\n    /* \"#utility.yul\":1170:1175   */\n  dup2\n    /* \"#utility.yul\":1152:1176   */\n  tag_20\n  jump\t// in\ntag_26:\n    /* \"#utility.yul\":1145:1150   */\n  dup2\n    /* \"#utility.yul\":1142:1177   */\n  eq\n    /* \"#utility.yul\":1132:1195   */\n  tag_27\n  jumpi\n    /* \"#utility.yul\":1191:1192   */\n  0x00\n    /* \"#utility.yul\":1188:1189   */\n  dup1\n    /* \"#utility.yul\":1181:1193   */\n  revert\n    /* \"#utility.yul\":1132:1195   */\ntag_27:\n    /* \"#utility.yul\":1079:1201   */\n  pop\n  jump\t// out\n    /* \"contracts/AbstractInterfaces.sol\":1755:2264  contract Car is GasVehicle {... */\ntag_6:\n  dataSize(sub_0)\n  dup1\n  dataOffset(sub_0)\n  0x00\n  codecopy\n  0x00\n  return\nstop\n\nsub_0: assembly {\n        /* \"contracts/AbstractInterfaces.sol\":1755:2264  contract Car is GasVehicle {... */\n      mstore(0x40, 0x80)\n      callvalue\n      dup1\n      iszero\n      tag_1\n      jumpi\n      0x00\n      dup1\n      revert\n    tag_1:\n      pop\n      jumpi(tag_2, lt(calldatasize, 0x04))\n      shr(0xe0, calldataload(0x00))\n      dup1\n      0x81fb4963\n      gt\n      tag_10\n      jumpi\n      dup1\n      0x81fb4963\n      eq\n      tag_6\n      jumpi\n      dup1\n      0x84d4e4eb\n      eq\n      tag_7\n      jumpi\n      dup1\n      0xaba1db5b\n      eq\n      tag_8\n      jumpi\n      dup1\n      0xf1094586\n      eq\n      tag_9\n      jumpi\n      jump(tag_2)\n    tag_10:\n      dup1\n      0x1ba7cc2a\n      eq\n      tag_3\n      jumpi\n      dup1\n      0x3e965804\n      eq\n      tag_4\n      jumpi\n      dup1\n      0x7c45bdd9\n      eq\n      tag_5\n      jumpi\n    tag_2:\n      0x00\n      dup1\n      revert\n        /* \"contracts/AbstractInterfaces.sol\":2040:2154  function getKilometersPerLitre() public view override returns (uint256) {... */\n    tag_3:\n      tag_11\n      tag_12\n      jump\t// in\n    tag_11:\n      mload(0x40)\n      tag_13\n      swap2\n      swap1\n      tag_14\n      jump\t// in\n    tag_13:\n      mload(0x40)\n      dup1\n      swap2\n      sub\n      swap1\n      return\n        /* \"contracts/AbstractInterfaces.sol\":1149:1279  function fuelUp(uint256 litres) external override sufficientTankSize(litres) notStarted {... */\n    tag_4:\n      tag_15\n      0x04\n      dup1\n      calldatasize\n      sub\n      dup2\n      add\n      swap1\n      tag_16\n      swap2\n      swap1\n      tag_17\n      jump\t// in\n    tag_16:\n      tag_18\n      jump\t// in\n    tag_15:\n      stop\n        /* \"contracts/AbstractInterfaces.sol\":2160:2262  function getFuelCapacity() public view override returns (uint256) {... */\n    tag_5:\n      tag_19\n      tag_20\n      jump\t// in\n    tag_19:\n      mload(0x40)\n      tag_21\n      swap2\n      swap1\n      tag_14\n      jump\t// in\n    tag_21:\n      mload(0x40)\n      dup1\n      swap2\n      sub\n      swap1\n      return\n        /* \"contracts/AbstractInterfaces.sol\":972:1055  function startEngine() external override notStarted {... */\n    tag_6:\n      tag_22\n      tag_23\n      jump\t// in\n    tag_22:\n      stop\n        /* \"contracts/AbstractInterfaces.sol\":1061:1143  function stopEngine() external override isStarted {... */\n    tag_7:\n      tag_24\n      tag_25\n      jump\t// in\n    tag_24:\n      stop\n        /* \"contracts/AbstractInterfaces.sol\":1468:1603  function kilometersRemaining() public view override returns (uint256) {... */\n    tag_8:\n      tag_26\n      tag_27\n      jump\t// in\n    tag_26:\n      mload(0x40)\n      tag_28\n      swap2\n      swap1\n      tag_14\n      jump\t// in\n    tag_28:\n      mload(0x40)\n      dup1\n      swap2\n      sub\n      swap1\n      return\n        /* \"contracts/AbstractInterfaces.sol\":1285:1462  function drive(uint256 kilometers) external override isStarted sufficientKilometersRemaining(kilometers) {... */\n    tag_9:\n      tag_29\n      0x04\n      dup1\n      calldatasize\n      sub\n      dup2\n      add\n      swap1\n      tag_30\n      swap2\n      swap1\n      tag_17\n      jump\t// in\n    tag_30:\n      tag_31\n      jump\t// in\n    tag_29:\n      stop\n        /* \"contracts/AbstractInterfaces.sol\":2040:2154  function getKilometersPerLitre() public view override returns (uint256) {... */\n    tag_12:\n        /* \"contracts/AbstractInterfaces.sol\":2103:2110  uint256 */\n      0x00\n        /* \"contracts/AbstractInterfaces.sol\":2129:2147  kilometersPerLitre */\n      sload(0x03)\n        /* \"contracts/AbstractInterfaces.sol\":2122:2147  return kilometersPerLitre */\n      swap1\n      pop\n        /* \"contracts/AbstractInterfaces.sol\":2040:2154  function getKilometersPerLitre() public view override returns (uint256) {... */\n      swap1\n      jump\t// out\n        /* \"contracts/AbstractInterfaces.sol\":1149:1279  function fuelUp(uint256 litres) external override sufficientTankSize(litres) notStarted {... */\n    tag_18:\n        /* \"contracts/AbstractInterfaces.sol\":1218:1224  litres */\n      dup1\n        /* \"contracts/AbstractInterfaces.sol\":543:560  getFuelCapacity() */\n      tag_34\n        /* \"contracts/AbstractInterfaces.sol\":543:558  getFuelCapacity */\n      tag_20\n        /* \"contracts/AbstractInterfaces.sol\":543:560  getFuelCapacity() */\n      jump\t// in\n    tag_34:\n        /* \"contracts/AbstractInterfaces.sol\":533:539  litres */\n      dup2\n        /* \"contracts/AbstractInterfaces.sol\":515:530  litresRemaining */\n      sload(0x00)\n        /* \"contracts/AbstractInterfaces.sol\":515:539  litresRemaining + litres */\n      tag_35\n      swap2\n      swap1\n      tag_36\n      jump\t// in\n    tag_35:\n        /* \"contracts/AbstractInterfaces.sol\":515:560  litresRemaining + litres <= getFuelCapacity() */\n      gt\n      iszero\n        /* \"contracts/AbstractInterfaces.sol\":507:582  require(litresRemaining + litres <= getFuelCapacity(), \"Insufficient fuel\") */\n      tag_37\n      jumpi\n      mload(0x40)\n      0x08c379a000000000000000000000000000000000000000000000000000000000\n      dup2\n      mstore\n      0x04\n      add\n      tag_38\n      swap1\n      tag_39\n      jump\t// in\n    tag_38:\n      mload(0x40)\n      dup1\n      swap2\n      sub\n      swap1\n      revert\n    tag_37:\n        /* \"contracts/AbstractInterfaces.sol\":816:823  started */\n      0x01\n      0x00\n      swap1\n      sload\n      swap1\n      0x0100\n      exp\n      swap1\n      div\n      0xff\n      and\n        /* \"contracts/AbstractInterfaces.sol\":815:823  !started */\n      iszero\n        /* \"contracts/AbstractInterfaces.sol\":807:851  require(!started, \"Vehicle already started\") */\n      tag_41\n      jumpi\n      mload(0x40)\n      0x08c379a000000000000000000000000000000000000000000000000000000000\n      dup2\n      mstore\n      0x04\n      add\n      tag_42\n      swap1\n      tag_43\n      jump\t// in\n    tag_42:\n      mload(0x40)\n      dup1\n      swap2\n      sub\n      swap1\n      revert\n    tag_41:\n        /* \"contracts/AbstractInterfaces.sol\":1266:1272  litres */\n      dup2\n        /* \"contracts/AbstractInterfaces.sol\":1247:1262  litresRemaining */\n      0x00\n      dup1\n        /* \"contracts/AbstractInterfaces.sol\":1247:1272  litresRemaining += litres */\n      dup3\n      dup3\n      sload\n      tag_45\n      swap2\n      swap1\n      tag_36\n      jump\t// in\n    tag_45:\n      swap3\n      pop\n      pop\n      dup2\n      swap1\n      sstore\n      pop\n        /* \"contracts/AbstractInterfaces.sol\":1149:1279  function fuelUp(uint256 litres) external override sufficientTankSize(litres) notStarted {... */\n      pop\n      pop\n      jump\t// out\n        /* \"contracts/AbstractInterfaces.sol\":2160:2262  function getFuelCapacity() public view override returns (uint256) {... */\n    tag_20:\n        /* \"contracts/AbstractInterfaces.sol\":2217:2224  uint256 */\n      0x00\n        /* \"contracts/AbstractInterfaces.sol\":2243:2255  fuelTankSize */\n      sload(0x02)\n        /* \"contracts/AbstractInterfaces.sol\":2236:2255  return fuelTankSize */\n      swap1\n      pop\n        /* \"contracts/AbstractInterfaces.sol\":2160:2262  function getFuelCapacity() public view override returns (uint256) {... */\n      swap1\n      jump\t// out\n        /* \"contracts/AbstractInterfaces.sol\":972:1055  function startEngine() external override notStarted {... */\n    tag_23:\n        /* \"contracts/AbstractInterfaces.sol\":816:823  started */\n      0x01\n      0x00\n      swap1\n      sload\n      swap1\n      0x0100\n      exp\n      swap1\n      div\n      0xff\n      and\n        /* \"contracts/AbstractInterfaces.sol\":815:823  !started */\n      iszero\n        /* \"contracts/AbstractInterfaces.sol\":807:851  require(!started, \"Vehicle already started\") */\n      tag_48\n      jumpi\n      mload(0x40)\n      0x08c379a000000000000000000000000000000000000000000000000000000000\n      dup2\n      mstore\n      0x04\n      add\n      tag_49\n      swap1\n      tag_43\n      jump\t// in\n    tag_49:\n      mload(0x40)\n      dup1\n      swap2\n      sub\n      swap1\n      revert\n    tag_48:\n        /* \"contracts/AbstractInterfaces.sol\":1044:1048  true */\n      0x01\n        /* \"contracts/AbstractInterfaces.sol\":1034:1041  started */\n      dup1\n      0x00\n        /* \"contracts/AbstractInterfaces.sol\":1034:1048  started = true */\n      0x0100\n      exp\n      dup2\n      sload\n      dup2\n      0xff\n      mul\n      not\n      and\n      swap1\n      dup4\n      iszero\n      iszero\n      mul\n      or\n      swap1\n      sstore\n      pop\n        /* \"contracts/AbstractInterfaces.sol\":972:1055  function startEngine() external override notStarted {... */\n      jump\t// out\n        /* \"contracts/AbstractInterfaces.sol\":1061:1143  function stopEngine() external override isStarted {... */\n    tag_25:\n        /* \"contracts/AbstractInterfaces.sol\":914:921  started */\n      0x01\n      0x00\n      swap1\n      sload\n      swap1\n      0x0100\n      exp\n      swap1\n      div\n      0xff\n      and\n        /* \"contracts/AbstractInterfaces.sol\":906:948  require(started, \"Vehicle is not started\") */\n      tag_52\n      jumpi\n      mload(0x40)\n      0x08c379a000000000000000000000000000000000000000000000000000000000\n      dup2\n      mstore\n      0x04\n      add\n      tag_53\n      swap1\n      tag_54\n      jump\t// in\n    tag_53:\n      mload(0x40)\n      dup1\n      swap2\n      sub\n      swap1\n      revert\n    tag_52:\n        /* \"contracts/AbstractInterfaces.sol\":1131:1136  false */\n      0x00\n        /* \"contracts/AbstractInterfaces.sol\":1121:1128  started */\n      0x01\n      0x00\n        /* \"contracts/AbstractInterfaces.sol\":1121:1136  started = false */\n      0x0100\n      exp\n      dup2\n      sload\n      dup2\n      0xff\n      mul\n      not\n      and\n      swap1\n      dup4\n      iszero\n      iszero\n      mul\n      or\n      swap1\n      sstore\n      pop\n        /* \"contracts/AbstractInterfaces.sol\":1061:1143  function stopEngine() external override isStarted {... */\n      jump\t// out\n        /* \"contracts/AbstractInterfaces.sol\":1468:1603  function kilometersRemaining() public view override returns (uint256) {... */\n    tag_27:\n        /* \"contracts/AbstractInterfaces.sol\":1529:1536  uint256 */\n      0x00\n        /* \"contracts/AbstractInterfaces.sol\":1573:1596  getKilometersPerLitre() */\n      tag_57\n        /* \"contracts/AbstractInterfaces.sol\":1573:1594  getKilometersPerLitre */\n      tag_12\n        /* \"contracts/AbstractInterfaces.sol\":1573:1596  getKilometersPerLitre() */\n      jump\t// in\n    tag_57:\n        /* \"contracts/AbstractInterfaces.sol\":1555:1570  litresRemaining */\n      sload(0x00)\n        /* \"contracts/AbstractInterfaces.sol\":1555:1596  litresRemaining * getKilometersPerLitre() */\n      tag_58\n      swap2\n      swap1\n      tag_59\n      jump\t// in\n    tag_58:\n        /* \"contracts/AbstractInterfaces.sol\":1548:1596  return litresRemaining * getKilometersPerLitre() */\n      swap1\n      pop\n        /* \"contracts/AbstractInterfaces.sol\":1468:1603  function kilometersRemaining() public view override returns (uint256) {... */\n      swap1\n      jump\t// out\n        /* \"contracts/AbstractInterfaces.sol\":1285:1462  function drive(uint256 kilometers) external override isStarted sufficientKilometersRemaining(kilometers) {... */\n    tag_31:\n        /* \"contracts/AbstractInterfaces.sol\":914:921  started */\n      0x01\n      0x00\n      swap1\n      sload\n      swap1\n      0x0100\n      exp\n      swap1\n      div\n      0xff\n      and\n        /* \"contracts/AbstractInterfaces.sol\":906:948  require(started, \"Vehicle is not started\") */\n      tag_61\n      jumpi\n      mload(0x40)\n      0x08c379a000000000000000000000000000000000000000000000000000000000\n      dup2\n      mstore\n      0x04\n      add\n      tag_62\n      swap1\n      tag_54\n      jump\t// in\n    tag_62:\n      mload(0x40)\n      dup1\n      swap2\n      sub\n      swap1\n      revert\n    tag_61:\n        /* \"contracts/AbstractInterfaces.sol\":1378:1388  kilometers */\n      dup1\n        /* \"contracts/AbstractInterfaces.sol\":708:723  litresRemaining */\n      sload(0x00)\n        /* \"contracts/AbstractInterfaces.sol\":683:704  kilometersRemaining() */\n      tag_64\n        /* \"contracts/AbstractInterfaces.sol\":683:702  kilometersRemaining */\n      tag_27\n        /* \"contracts/AbstractInterfaces.sol\":683:704  kilometersRemaining() */\n      jump\t// in\n    tag_64:\n        /* \"contracts/AbstractInterfaces.sol\":683:723  kilometersRemaining() >= litresRemaining */\n      lt\n      iszero\n        /* \"contracts/AbstractInterfaces.sol\":675:751  require(kilometersRemaining() >= litresRemaining, \"Insufficient kilometers\") */\n      tag_65\n      jumpi\n      mload(0x40)\n      0x08c379a000000000000000000000000000000000000000000000000000000000\n      dup2\n      mstore\n      0x04\n      add\n      tag_66\n      swap1\n      tag_67\n      jump\t// in\n    tag_66:\n      mload(0x40)\n      dup1\n      swap2\n      sub\n      swap1\n      revert\n    tag_65:\n        /* \"contracts/AbstractInterfaces.sol\":1432:1455  getKilometersPerLitre() */\n      tag_69\n        /* \"contracts/AbstractInterfaces.sol\":1432:1453  getKilometersPerLitre */\n      tag_12\n        /* \"contracts/AbstractInterfaces.sol\":1432:1455  getKilometersPerLitre() */\n      jump\t// in\n    tag_69:\n        /* \"contracts/AbstractInterfaces.sol\":1419:1429  kilometers */\n      dup3\n        /* \"contracts/AbstractInterfaces.sol\":1419:1455  kilometers / getKilometersPerLitre() */\n      tag_70\n      swap2\n      swap1\n      tag_71\n      jump\t// in\n    tag_70:\n        /* \"contracts/AbstractInterfaces.sol\":1400:1415  litresRemaining */\n      0x00\n      dup1\n        /* \"contracts/AbstractInterfaces.sol\":1400:1455  litresRemaining -= kilometers / getKilometersPerLitre() */\n      dup3\n      dup3\n      sload\n      tag_72\n      swap2\n      swap1\n      tag_73\n      jump\t// in\n    tag_72:\n      swap3\n      pop\n      pop\n      dup2\n      swap1\n      sstore\n      pop\n        /* \"contracts/AbstractInterfaces.sol\":958:959  _ */\n      pop\n        /* \"contracts/AbstractInterfaces.sol\":1285:1462  function drive(uint256 kilometers) external override isStarted sufficientKilometersRemaining(kilometers) {... */\n      pop\n      jump\t// out\n        /* \"#utility.yul\":7:146   */\n    tag_75:\n        /* \"#utility.yul\":53:58   */\n      0x00\n        /* \"#utility.yul\":91:97   */\n      dup2\n        /* \"#utility.yul\":78:98   */\n      calldataload\n        /* \"#utility.yul\":69:98   */\n      swap1\n      pop\n        /* \"#utility.yul\":107:140   */\n      tag_77\n        /* \"#utility.yul\":134:139   */\n      dup2\n        /* \"#utility.yul\":107:140   */\n      tag_78\n      jump\t// in\n    tag_77:\n        /* \"#utility.yul\":7:146   */\n      swap3\n      swap2\n      pop\n      pop\n      jump\t// out\n        /* \"#utility.yul\":152:481   */\n    tag_17:\n        /* \"#utility.yul\":211:217   */\n      0x00\n        /* \"#utility.yul\":260:262   */\n      0x20\n        /* \"#utility.yul\":248:257   */\n      dup3\n        /* \"#utility.yul\":239:246   */\n      dup5\n        /* \"#utility.yul\":235:258   */\n      sub\n        /* \"#utility.yul\":231:263   */\n      slt\n        /* \"#utility.yul\":228:347   */\n      iszero\n      tag_80\n      jumpi\n        /* \"#utility.yul\":266:345   */\n      tag_81\n      tag_82\n      jump\t// in\n    tag_81:\n        /* \"#utility.yul\":228:347   */\n    tag_80:\n        /* \"#utility.yul\":386:387   */\n      0x00\n        /* \"#utility.yul\":411:464   */\n      tag_83\n        /* \"#utility.yul\":456:463   */\n      dup5\n        /* \"#utility.yul\":447:453   */\n      dup3\n        /* \"#utility.yul\":436:445   */\n      dup6\n        /* \"#utility.yul\":432:454   */\n      add\n        /* \"#utility.yul\":411:464   */\n      tag_75\n      jump\t// in\n    tag_83:\n        /* \"#utility.yul\":401:464   */\n      swap2\n      pop\n        /* \"#utility.yul\":357:474   */\n      pop\n        /* \"#utility.yul\":152:481   */\n      swap3\n      swap2\n      pop\n      pop\n      jump\t// out\n        /* \"#utility.yul\":487:853   */\n    tag_84:\n        /* \"#utility.yul\":629:632   */\n      0x00\n        /* \"#utility.yul\":650:717   */\n      tag_86\n        /* \"#utility.yul\":714:716   */\n      0x17\n        /* \"#utility.yul\":709:712   */\n      dup4\n        /* \"#utility.yul\":650:717   */\n      tag_87\n      jump\t// in\n    tag_86:\n        /* \"#utility.yul\":643:717   */\n      swap2\n      pop\n        /* \"#utility.yul\":726:819   */\n      tag_88\n        /* \"#utility.yul\":815:818   */\n      dup3\n        /* \"#utility.yul\":726:819   */\n      tag_89\n      jump\t// in\n    tag_88:\n        /* \"#utility.yul\":844:846   */\n      0x20\n        /* \"#utility.yul\":839:842   */\n      dup3\n        /* \"#utility.yul\":835:847   */\n      add\n        /* \"#utility.yul\":828:847   */\n      swap1\n      pop\n        /* \"#utility.yul\":487:853   */\n      swap2\n      swap1\n      pop\n      jump\t// out\n        /* \"#utility.yul\":859:1225   */\n    tag_90:\n        /* \"#utility.yul\":1001:1004   */\n      0x00\n        /* \"#utility.yul\":1022:1089   */\n      tag_92\n        /* \"#utility.yul\":1086:1088   */\n      0x16\n        /* \"#utility.yul\":1081:1084   */\n      dup4\n        /* \"#utility.yul\":1022:1089   */\n      tag_87\n      jump\t// in\n    tag_92:\n        /* \"#utility.yul\":1015:1089   */\n      swap2\n      pop\n        /* \"#utility.yul\":1098:1191   */\n      tag_93\n        /* \"#utility.yul\":1187:1190   */\n      dup3\n        /* \"#utility.yul\":1098:1191   */\n      tag_94\n      jump\t// in\n    tag_93:\n        /* \"#utility.yul\":1216:1218   */\n      0x20\n        /* \"#utility.yul\":1211:1214   */\n      dup3\n        /* \"#utility.yul\":1207:1219   */\n      add\n        /* \"#utility.yul\":1200:1219   */\n      swap1\n      pop\n        /* \"#utility.yul\":859:1225   */\n      swap2\n      swap1\n      pop\n      jump\t// out\n        /* \"#utility.yul\":1231:1597   */\n    tag_95:\n        /* \"#utility.yul\":1373:1376   */\n      0x00\n        /* \"#utility.yul\":1394:1461   */\n      tag_97\n        /* \"#utility.yul\":1458:1460   */\n      0x17\n        /* \"#utility.yul\":1453:1456   */\n      dup4\n        /* \"#utility.yul\":1394:1461   */\n      tag_87\n      jump\t// in\n    tag_97:\n        /* \"#utility.yul\":1387:1461   */\n      swap2\n      pop\n        /* \"#utility.yul\":1470:1563   */\n      tag_98\n        /* \"#utility.yul\":1559:1562   */\n      dup3\n        /* \"#utility.yul\":1470:1563   */\n      tag_99\n      jump\t// in\n    tag_98:\n        /* \"#utility.yul\":1588:1590   */\n      0x20\n        /* \"#utility.yul\":1583:1586   */\n      dup3\n        /* \"#utility.yul\":1579:1591   */\n      add\n        /* \"#utility.yul\":1572:1591   */\n      swap1\n      pop\n        /* \"#utility.yul\":1231:1597   */\n      swap2\n      swap1\n      pop\n      jump\t// out\n        /* \"#utility.yul\":1603:1969   */\n    tag_100:\n        /* \"#utility.yul\":1745:1748   */\n      0x00\n        /* \"#utility.yul\":1766:1833   */\n      tag_102\n        /* \"#utility.yul\":1830:1832   */\n      0x11\n        /* \"#utility.yul\":1825:1828   */\n      dup4\n        /* \"#utility.yul\":1766:1833   */\n      tag_87\n      jump\t// in\n    tag_102:\n        /* \"#utility.yul\":1759:1833   */\n      swap2\n      pop\n        /* \"#utility.yul\":1842:1935   */\n      tag_103\n        /* \"#utility.yul\":1931:1934   */\n      dup3\n        /* \"#utility.yul\":1842:1935   */\n      tag_104\n      jump\t// in\n    tag_103:\n        /* \"#utility.yul\":1960:1962   */\n      0x20\n        /* \"#utility.yul\":1955:1958   */\n      dup3\n        /* \"#utility.yul\":1951:1963   */\n      add\n        /* \"#utility.yul\":1944:1963   */\n      swap1\n      pop\n        /* \"#utility.yul\":1603:1969   */\n      swap2\n      swap1\n      pop\n      jump\t// out\n        /* \"#utility.yul\":1975:2093   */\n    tag_105:\n        /* \"#utility.yul\":2062:2086   */\n      tag_107\n        /* \"#utility.yul\":2080:2085   */\n      dup2\n        /* \"#utility.yul\":2062:2086   */\n      tag_108\n      jump\t// in\n    tag_107:\n        /* \"#utility.yul\":2057:2060   */\n      dup3\n        /* \"#utility.yul\":2050:2087   */\n      mstore\n        /* \"#utility.yul\":1975:2093   */\n      pop\n      pop\n      jump\t// out\n        /* \"#utility.yul\":2099:2518   */\n    tag_67:\n        /* \"#utility.yul\":2265:2269   */\n      0x00\n        /* \"#utility.yul\":2303:2305   */\n      0x20\n        /* \"#utility.yul\":2292:2301   */\n      dup3\n        /* \"#utility.yul\":2288:2306   */\n      add\n        /* \"#utility.yul\":2280:2306   */\n      swap1\n      pop\n        /* \"#utility.yul\":2352:2361   */\n      dup2\n        /* \"#utility.yul\":2346:2350   */\n      dup2\n        /* \"#utility.yul\":2342:2362   */\n      sub\n        /* \"#utility.yul\":2338:2339   */\n      0x00\n        /* \"#utility.yul\":2327:2336   */\n      dup4\n        /* \"#utility.yul\":2323:2340   */\n      add\n        /* \"#utility.yul\":2316:2363   */\n      mstore\n        /* \"#utility.yul\":2380:2511   */\n      tag_110\n        /* \"#utility.yul\":2506:2510   */\n      dup2\n        /* \"#utility.yul\":2380:2511   */\n      tag_84\n      jump\t// in\n    tag_110:\n        /* \"#utility.yul\":2372:2511   */\n      swap1\n      pop\n        /* \"#utility.yul\":2099:2518   */\n      swap2\n      swap1\n      pop\n      jump\t// out\n        /* \"#utility.yul\":2524:2943   */\n    tag_54:\n        /* \"#utility.yul\":2690:2694   */\n      0x00\n        /* \"#utility.yul\":2728:2730   */\n      0x20\n        /* \"#utility.yul\":2717:2726   */\n      dup3\n        /* \"#utility.yul\":2713:2731   */\n      add\n        /* \"#utility.yul\":2705:2731   */\n      swap1\n      pop\n        /* \"#utility.yul\":2777:2786   */\n      dup2\n        /* \"#utility.yul\":2771:2775   */\n      dup2\n        /* \"#utility.yul\":2767:2787   */\n      sub\n        /* \"#utility.yul\":2763:2764   */\n      0x00\n        /* \"#utility.yul\":2752:2761   */\n      dup4\n        /* \"#utility.yul\":2748:2765   */\n      add\n        /* \"#utility.yul\":2741:2788   */\n      mstore\n        /* \"#utility.yul\":2805:2936   */\n      tag_112\n        /* \"#utility.yul\":2931:2935   */\n      dup2\n        /* \"#utility.yul\":2805:2936   */\n      tag_90\n      jump\t// in\n    tag_112:\n        /* \"#utility.yul\":2797:2936   */\n      swap1\n      pop\n        /* \"#utility.yul\":2524:2943   */\n      swap2\n      swap1\n      pop\n      jump\t// out\n        /* \"#utility.yul\":2949:3368   */\n    tag_43:\n        /* \"#utility.yul\":3115:3119   */\n      0x00\n        /* \"#utility.yul\":3153:3155   */\n      0x20\n        /* \"#utility.yul\":3142:3151   */\n      dup3\n        /* \"#utility.yul\":3138:3156   */\n      add\n        /* \"#utility.yul\":3130:3156   */\n      swap1\n      pop\n        /* \"#utility.yul\":3202:3211   */\n      dup2\n        /* \"#utility.yul\":3196:3200   */\n      dup2\n        /* \"#utility.yul\":3192:3212   */\n      sub\n        /* \"#utility.yul\":3188:3189   */\n      0x00\n        /* \"#utility.yul\":3177:3186   */\n      dup4\n        /* \"#utility.yul\":3173:3190   */\n      add\n        /* \"#utility.yul\":3166:3213   */\n      mstore\n        /* \"#utility.yul\":3230:3361   */\n      tag_114\n        /* \"#utility.yul\":3356:3360   */\n      dup2\n        /* \"#utility.yul\":3230:3361   */\n      tag_95\n      jump\t// in\n    tag_114:\n        /* \"#utility.yul\":3222:3361   */\n      swap1\n      pop\n        /* \"#utility.yul\":2949:3368   */\n      swap2\n      swap1\n      pop\n      jump\t// out\n        /* \"#utility.yul\":3374:3793   */\n    tag_39:\n        /* \"#utility.yul\":3540:3544   */\n      0x00\n        /* \"#utility.yul\":3578:3580   */\n      0x20\n        /* \"#utility.yul\":3567:3576   */\n      dup3\n        /* \"#utility.yul\":3563:3581   */\n      add\n        /* \"#utility.yul\":3555:3581   */\n      swap1\n      pop\n        /* \"#utility.yul\":3627:3636   */\n      dup2\n        /* \"#utility.yul\":3621:3625   */\n      dup2\n        /* \"#utility.yul\":3617:3637   */\n      sub\n        /* \"#utility.yul\":3613:3614   */\n      0x00\n        /* \"#utility.yul\":3602:3611   */\n      dup4\n        /* \"#utility.yul\":3598:3615   */\n      add\n        /* \"#utility.yul\":3591:3638   */\n      mstore\n        /* \"#utility.yul\":3655:3786   */\n      tag_116\n        /* \"#utility.yul\":3781:3785   */\n      dup2\n        /* \"#utility.yul\":3655:3786   */\n      tag_100\n      jump\t// in\n    tag_116:\n        /* \"#utility.yul\":3647:3786   */\n      swap1\n      pop\n        /* \"#utility.yul\":3374:3793   */\n      swap2\n      swap1\n      pop\n      jump\t// out\n        /* \"#utility.yul\":3799:4021   */\n    tag_14:\n        /* \"#utility.yul\":3892:3896   */\n      0x00\n        /* \"#utility.yul\":3930:3932   */\n      0x20\n        /* \"#utility.yul\":3919:3928   */\n      dup3\n        /* \"#utility.yul\":3915:3933   */\n      add\n        /* \"#utility.yul\":3907:3933   */\n      swap1\n      pop\n        /* \"#utility.yul\":3943:4014   */\n      tag_118\n        /* \"#utility.yul\":4011:4012   */\n      0x00\n        /* \"#utility.yul\":4000:4009   */\n      dup4\n        /* \"#utility.yul\":3996:4013   */\n      add\n        /* \"#utility.yul\":3987:3993   */\n      dup5\n        /* \"#utility.yul\":3943:4014   */\n      tag_105\n      jump\t// in\n    tag_118:\n        /* \"#utility.yul\":3799:4021   */\n      swap3\n      swap2\n      pop\n      pop\n      jump\t// out\n        /* \"#utility.yul\":4108:4277   */\n    tag_87:\n        /* \"#utility.yul\":4192:4203   */\n      0x00\n        /* \"#utility.yul\":4226:4232   */\n      dup3\n        /* \"#utility.yul\":4221:4224   */\n      dup3\n        /* \"#utility.yul\":4214:4233   */\n      mstore\n        /* \"#utility.yul\":4266:4270   */\n      0x20\n        /* \"#utility.yul\":4261:4264   */\n      dup3\n        /* \"#utility.yul\":4257:4271   */\n      add\n        /* \"#utility.yul\":4242:4271   */\n      swap1\n      pop\n        /* \"#utility.yul\":4108:4277   */\n      swap3\n      swap2\n      pop\n      pop\n      jump\t// out\n        /* \"#utility.yul\":4283:4588   */\n    tag_36:\n        /* \"#utility.yul\":4323:4326   */\n      0x00\n        /* \"#utility.yul\":4342:4362   */\n      tag_123\n        /* \"#utility.yul\":4360:4361   */\n      dup3\n        /* \"#utility.yul\":4342:4362   */\n      tag_108\n      jump\t// in\n    tag_123:\n        /* \"#utility.yul\":4337:4362   */\n      swap2\n      pop\n        /* \"#utility.yul\":4376:4396   */\n      tag_124\n        /* \"#utility.yul\":4394:4395   */\n      dup4\n        /* \"#utility.yul\":4376:4396   */\n      tag_108\n      jump\t// in\n    tag_124:\n        /* \"#utility.yul\":4371:4396   */\n      swap3\n      pop\n        /* \"#utility.yul\":4530:4531   */\n      dup3\n        /* \"#utility.yul\":4462:4528   */\n      0xffffffffffffffffffffffffffffffffffffffffffffffffffffffffffffffff\n        /* \"#utility.yul\":4458:4532   */\n      sub\n        /* \"#utility.yul\":4455:4456   */\n      dup3\n        /* \"#utility.yul\":4452:4533   */\n      gt\n        /* \"#utility.yul\":4449:4556   */\n      iszero\n      tag_125\n      jumpi\n        /* \"#utility.yul\":4536:4554   */\n      tag_126\n      tag_127\n      jump\t// in\n    tag_126:\n        /* \"#utility.yul\":4449:4556   */\n    tag_125:\n        /* \"#utility.yul\":4580:4581   */\n      dup3\n        /* \"#utility.yul\":4577:4578   */\n      dup3\n        /* \"#utility.yul\":4573:4582   */\n      add\n        /* \"#utility.yul\":4566:4582   */\n      swap1\n      pop\n        /* \"#utility.yul\":4283:4588   */\n      swap3\n      swap2\n      pop\n      pop\n      jump\t// out\n        /* \"#utility.yul\":4594:4779   */\n    tag_71:\n        /* \"#utility.yul\":4634:4635   */\n      0x00\n        /* \"#utility.yul\":4651:4671   */\n      tag_129\n        /* \"#utility.yul\":4669:4670   */\n      dup3\n        /* \"#utility.yul\":4651:4671   */\n      tag_108\n      jump\t// in\n    tag_129:\n        /* \"#utility.yul\":4646:4671   */\n      swap2\n      pop\n        /* \"#utility.yul\":4685:4705   */\n      tag_130\n        /* \"#utility.yul\":4703:4704   */\n      dup4\n        /* \"#utility.yul\":4685:4705   */\n      tag_108\n      jump\t// in\n    tag_130:\n        /* \"#utility.yul\":4680:4705   */\n      swap3\n      pop\n        /* \"#utility.yul\":4724:4725   */\n      dup3\n        /* \"#utility.yul\":4714:4749   */\n      tag_131\n      jumpi\n        /* \"#utility.yul\":4729:4747   */\n      tag_132\n      tag_133\n      jump\t// in\n    tag_132:\n        /* \"#utility.yul\":4714:4749   */\n    tag_131:\n        /* \"#utility.yul\":4771:4772   */\n      dup3\n        /* \"#utility.yul\":4768:4769   */\n      dup3\n        /* \"#utility.yul\":4764:4773   */\n      div\n        /* \"#utility.yul\":4759:4773   */\n      swap1\n      pop\n        /* \"#utility.yul\":4594:4779   */\n      swap3\n      swap2\n      pop\n      pop\n      jump\t// out\n        /* \"#utility.yul\":4785:5133   */\n    tag_59:\n        /* \"#utility.yul\":4825:4832   */\n      0x00\n        /* \"#utility.yul\":4848:4868   */\n      tag_135\n        /* \"#utility.yul\":4866:4867   */\n      dup3\n        /* \"#utility.yul\":4848:4868   */\n      tag_108\n      jump\t// in\n    tag_135:\n        /* \"#utility.yul\":4843:4868   */\n      swap2\n      pop\n        /* \"#utility.yul\":4882:4902   */\n      tag_136\n        /* \"#utility.yul\":4900:4901   */\n      dup4\n        /* \"#utility.yul\":4882:4902   */\n      tag_108\n      jump\t// in\n    tag_136:\n        /* \"#utility.yul\":4877:4902   */\n      swap3\n      pop\n        /* \"#utility.yul\":5070:5071   */\n      dup2\n        /* \"#utility.yul\":5002:5068   */\n      0xffffffffffffffffffffffffffffffffffffffffffffffffffffffffffffffff\n        /* \"#utility.yul\":4998:5072   */\n      div\n        /* \"#utility.yul\":4995:4996   */\n      dup4\n        /* \"#utility.yul\":4992:5073   */\n      gt\n        /* \"#utility.yul\":4987:4988   */\n      dup3\n        /* \"#utility.yul\":4980:4989   */\n      iszero\n        /* \"#utility.yul\":4973:4990   */\n      iszero\n        /* \"#utility.yul\":4969:5074   */\n      and\n        /* \"#utility.yul\":4966:5097   */\n      iszero\n      tag_137\n      jumpi\n        /* \"#utility.yul\":5077:5095   */\n      tag_138\n      tag_127\n      jump\t// in\n    tag_138:\n        /* \"#utility.yul\":4966:5097   */\n    tag_137:\n        /* \"#utility.yul\":5125:5126   */\n      dup3\n        /* \"#utility.yul\":5122:5123   */\n      dup3\n        /* \"#utility.yul\":5118:5127   */\n      mul\n        /* \"#utility.yul\":5107:5127   */\n      swap1\n      pop\n        /* \"#utility.yul\":4785:5133   */\n      swap3\n      swap2\n      pop\n      pop\n      jump\t// out\n        /* \"#utility.yul\":5139:5330   */\n    tag_73:\n        /* \"#utility.yul\":5179:5183   */\n      0x00\n        /* \"#utility.yul\":5199:5219   */\n      tag_140\n        /* \"#utility.yul\":5217:5218   */\n      dup3\n        /* \"#utility.yul\":5199:5219   */\n      tag_108\n      jump\t// in\n    tag_140:\n        /* \"#utility.yul\":5194:5219   */\n      swap2\n      pop\n        /* \"#utility.yul\":5233:5253   */\n      tag_141\n        /* \"#utility.yul\":5251:5252   */\n      dup4\n        /* \"#utility.yul\":5233:5253   */\n      tag_108\n      jump\t// in\n    tag_141:\n        /* \"#utility.yul\":5228:5253   */\n      swap3\n      pop\n        /* \"#utility.yul\":5272:5273   */\n      dup3\n        /* \"#utility.yul\":5269:5270   */\n      dup3\n        /* \"#utility.yul\":5266:5274   */\n      lt\n        /* \"#utility.yul\":5263:5297   */\n      iszero\n      tag_142\n      jumpi\n        /* \"#utility.yul\":5277:5295   */\n      tag_143\n      tag_127\n      jump\t// in\n    tag_143:\n        /* \"#utility.yul\":5263:5297   */\n    tag_142:\n        /* \"#utility.yul\":5322:5323   */\n      dup3\n        /* \"#utility.yul\":5319:5320   */\n      dup3\n        /* \"#utility.yul\":5315:5324   */\n      sub\n        /* \"#utility.yul\":5307:5324   */\n      swap1\n      pop\n        /* \"#utility.yul\":5139:5330   */\n      swap3\n      swap2\n      pop\n      pop\n      jump\t// out\n        /* \"#utility.yul\":5336:5413   */\n    tag_108:\n        /* \"#utility.yul\":5373:5380   */\n      0x00\n        /* \"#utility.yul\":5402:5407   */\n      dup2\n        /* \"#utility.yul\":5391:5407   */\n      swap1\n      pop\n        /* \"#utility.yul\":5336:5413   */\n      swap2\n      swap1\n      pop\n      jump\t// out\n        /* \"#utility.yul\":5419:5599   */\n    tag_127:\n        /* \"#utility.yul\":5467:5544   */\n      0x4e487b7100000000000000000000000000000000000000000000000000000000\n        /* \"#utility.yul\":5464:5465   */\n      0x00\n        /* \"#utility.yul\":5457:5545   */\n      mstore\n        /* \"#utility.yul\":5564:5568   */\n      0x11\n        /* \"#utility.yul\":5561:5562   */\n      0x04\n        /* \"#utility.yul\":5554:5569   */\n      mstore\n        /* \"#utility.yul\":5588:5592   */\n      0x24\n        /* \"#utility.yul\":5585:5586   */\n      0x00\n        /* \"#utility.yul\":5578:5593   */\n      revert\n        /* \"#utility.yul\":5605:5785   */\n    tag_133:\n        /* \"#utility.yul\":5653:5730   */\n      0x4e487b7100000000000000000000000000000000000000000000000000000000\n        /* \"#utility.yul\":5650:5651   */\n      0x00\n        /* \"#utility.yul\":5643:5731   */\n      mstore\n        /* \"#utility.yul\":5750:5754   */\n      0x12\n        /* \"#utility.yul\":5747:5748   */\n      0x04\n        /* \"#utility.yul\":5740:5755   */\n      mstore\n        /* \"#utility.yul\":5774:5778   */\n      0x24\n        /* \"#utility.yul\":5771:5772   */\n      0x00\n        /* \"#utility.yul\":5764:5779   */\n      revert\n        /* \"#utility.yul\":5914:6031   */\n    tag_82:\n        /* \"#utility.yul\":6023:6024   */\n      0x00\n        /* \"#utility.yul\":6020:6021   */\n      dup1\n        /* \"#utility.yul\":6013:6025   */\n      revert\n        /* \"#utility.yul\":6037:6210   */\n    tag_89:\n        /* \"#utility.yul\":6177:6202   */\n      0x496e73756666696369656e74206b696c6f6d6574657273000000000000000000\n        /* \"#utility.yul\":6173:6174   */\n      0x00\n        /* \"#utility.yul\":6165:6171   */\n      dup3\n        /* \"#utility.yul\":6161:6175   */\n      add\n        /* \"#utility.yul\":6154:6203   */\n      mstore\n        /* \"#utility.yul\":6037:6210   */\n      pop\n      jump\t// out\n        /* \"#utility.yul\":6216:6388   */\n    tag_94:\n        /* \"#utility.yul\":6356:6380   */\n      0x56656869636c65206973206e6f74207374617274656400000000000000000000\n        /* \"#utility.yul\":6352:6353   */\n      0x00\n        /* \"#utility.yul\":6344:6350   */\n      dup3\n        /* \"#utility.yul\":6340:6354   */\n      add\n        /* \"#utility.yul\":6333:6381   */\n      mstore\n        /* \"#utility.yul\":6216:6388   */\n      pop\n      jump\t// out\n        /* \"#utility.yul\":6394:6567   */\n    tag_99:\n        /* \"#utility.yul\":6534:6559   */\n      0x56656869636c6520616c72656164792073746172746564000000000000000000\n        /* \"#utility.yul\":6530:6531   */\n      0x00\n        /* \"#utility.yul\":6522:6528   */\n      dup3\n        /* \"#utility.yul\":6518:6532   */\n      add\n        /* \"#utility.yul\":6511:6560   */\n      mstore\n        /* \"#utility.yul\":6394:6567   */\n      pop\n      jump\t// out\n        /* \"#utility.yul\":6573:6740   */\n    tag_104:\n        /* \"#utility.yul\":6713:6732   */\n      0x496e73756666696369656e74206675656c000000000000000000000000000000\n        /* \"#utility.yul\":6709:6710   */\n      0x00\n        /* \"#utility.yul\":6701:6707   */\n      dup3\n        /* \"#utility.yul\":6697:6711   */\n      add\n        /* \"#utility.yul\":6690:6733   */\n      mstore\n        /* \"#utility.yul\":6573:6740   */\n      pop\n      jump\t// out\n        /* \"#utility.yul\":6746:6868   */\n    tag_78:\n        /* \"#utility.yul\":6819:6843   */\n      tag_155\n        /* \"#utility.yul\":6837:6842   */\n      dup2\n        /* \"#utility.yul\":6819:6843   */\n      tag_108\n      jump\t// in\n    tag_155:\n        /* \"#utility.yul\":6812:6817   */\n      dup2\n        /* \"#utility.yul\":6809:6844   */\n      eq\n        /* \"#utility.yul\":6799:6862   */\n      tag_156\n      jumpi\n        /* \"#utility.yul\":6858:6859   */\n      0x00\n        /* \"#utility.yul\":6855:6856   */\n      dup1\n        /* \"#utility.yul\":6848:6860   */\n      revert\n        /* \"#utility.yul\":6799:6862   */\n    tag_156:\n        /* \"#utility.yul\":6746:6868   */\n      pop\n      jump\t// out\n\n    auxdata: 0xa26469706673582212201a980ba793aa64a3892229cc828cface24ca9262a8c2bf6bb631b28793e7fa6364736f6c63430008070033\n}\n",
				"bytecode": {
					"linkReferences": {},
					"object": "608060405234801561001057600080fd5b5060405161088b38038061088b8339818101604052810190610032919061005c565b816002819055508060038190555050506100c2565b600081519050610056816100ab565b92915050565b60008060408385031215610073576100726100a6565b5b600061008185828601610047565b925050602061009285828601610047565b9150509250929050565b6000819050919050565b600080fd5b6100b48161009c565b81146100bf57600080fd5b50565b6107ba806100d16000396000f3fe608060405234801561001057600080fd5b506004361061007d5760003560e01c806381fb49631161005b57806381fb4963146100da57806384d4e4eb146100e4578063aba1db5b146100ee578063f10945861461010c5761007d565b80631ba7cc2a146100825780633e965804146100a05780637c45bdd9146100bc575b600080fd5b61008a610128565b604051610097919061051b565b60405180910390f35b6100ba60048036038101906100b591906103d3565b610132565b005b6100c46101f6565b6040516100d1919061051b565b60405180910390f35b6100e2610200565b005b6100ec61026c565b005b6100f66102d8565b604051610103919061051b565b60405180910390f35b610126600480360381019061012191906103d3565b6102f4565b005b6000600354905090565b8061013b6101f6565b816000546101499190610547565b111561018a576040517f08c379a0000000000000000000000000000000000000000000000000000000008152600401610181906104fb565b60405180910390fd5b600160009054906101000a900460ff16156101da576040517f08c379a00000000000000000000000000000000000000000000000000000000081526004016101d1906104db565b60405180910390fd5b816000808282546101eb9190610547565b925050819055505050565b6000600254905090565b600160009054906101000a900460ff1615610250576040517f08c379a0000000000000000000000000000000000000000000000000000000008152600401610247906104db565b60405180910390fd5b60018060006101000a81548160ff021916908315150217905550565b600160009054906101000a900460ff166102bb576040517f08c379a00000000000000000000000000000000000000000000000000000000081526004016102b2906104bb565b60405180910390fd5b6000600160006101000a81548160ff021916908315150217905550565b60006102e2610128565b6000546102ef91906105ce565b905090565b600160009054906101000a900460ff16610343576040517f08c379a000000000000000000000000000000000000000000000000000000000815260040161033a906104bb565b60405180910390fd5b8060005461034f6102d8565b1015610390576040517f08c379a00000000000000000000000000000000000000000000000000000000081526004016103879061049b565b60405180910390fd5b610398610128565b826103a3919061059d565b6000808282546103b39190610628565b925050819055505050565b6000813590506103cd8161076d565b92915050565b6000602082840312156103e9576103e86106c4565b5b60006103f7848285016103be565b91505092915050565b600061040d601783610536565b9150610418826106c9565b602082019050919050565b6000610430601683610536565b915061043b826106f2565b602082019050919050565b6000610453601783610536565b915061045e8261071b565b602082019050919050565b6000610476601183610536565b915061048182610744565b602082019050919050565b6104958161065c565b82525050565b600060208201905081810360008301526104b481610400565b9050919050565b600060208201905081810360008301526104d481610423565b9050919050565b600060208201905081810360008301526104f481610446565b9050919050565b6000602082019050818103600083015261051481610469565b9050919050565b6000602082019050610530600083018461048c565b92915050565b600082825260208201905092915050565b60006105528261065c565b915061055d8361065c565b9250827fffffffffffffffffffffffffffffffffffffffffffffffffffffffffffffffff0382111561059257610591610666565b5b828201905092915050565b60006105a88261065c565b91506105b38361065c565b9250826105c3576105c2610695565b5b828204905092915050565b60006105d98261065c565b91506105e48361065c565b9250817fffffffffffffffffffffffffffffffffffffffffffffffffffffffffffffffff048311821515161561061d5761061c610666565b5b828202905092915050565b60006106338261065c565b915061063e8361065c565b92508282101561065157610650610666565b5b828203905092915050565b6000819050919050565b7f4e487b7100000000000000000000000000000000000000000000000000000000600052601160045260246000fd5b7f4e487b7100000000000000000000000000000000000000000000000000000000600052601260045260246000fd5b600080fd5b7f496e73756666696369656e74206b696c6f6d6574657273000000000000000000600082015250565b7f56656869636c65206973206e6f74207374617274656400000000000000000000600082015250565b7f56656869636c6520616c72656164792073746172746564000000000000000000600082015250565b7f496e73756666696369656e74206675656c000000000000000000000000000000600082015250565b6107768161065c565b811461078157600080fd5b5056fea26469706673582212201a980ba793aa64a3892229cc828cface24ca9262a8c2bf6bb631b28793e7fa6364736f6c63430008070033",
					"opcodes": "PUSH1 0x80 PUSH1 0x40 MSTORE CALLVALUE DUP1 ISZERO PUSH2 0x10 JUMPI PUSH1 0x0 DUP1 REVERT JUMPDEST POP PUSH1 0x40 MLOAD PUSH2 0x88B CODESIZE SUB DUP1 PUSH2 0x88B DUP4 CODECOPY DUP2 DUP2 ADD PUSH1 0x40 MSTORE DUP2 ADD SWAP1 PUSH2 0x32 SWAP2 SWAP1 PUSH2 0x5C JUMP JUMPDEST DUP2 PUSH1 0x2 DUP2 SWAP1 SSTORE POP DUP1 PUSH1 0x3 DUP2 SWAP1 SSTORE POP POP POP PUSH2 0xC2 JUMP JUMPDEST PUSH1 0x0 DUP2 MLOAD SWAP1 POP PUSH2 0x56 DUP2 PUSH2 0xAB JUMP JUMPDEST SWAP3 SWAP2 POP POP JUMP JUMPDEST PUSH1 0x0 DUP1 PUSH1 0x40 DUP4 DUP6 SUB SLT ISZERO PUSH2 0x73 JUMPI PUSH2 0x72 PUSH2 0xA6 JUMP JUMPDEST JUMPDEST PUSH1 0x0 PUSH2 0x81 DUP6 DUP3 DUP7 ADD PUSH2 0x47 JUMP JUMPDEST SWAP3 POP POP PUSH1 0x20 PUSH2 0x92 DUP6 DUP3 DUP7 ADD PUSH2 0x47 JUMP JUMPDEST SWAP2 POP POP SWAP3 POP SWAP3 SWAP1 POP JUMP JUMPDEST PUSH1 0x0 DUP2 SWAP1 POP SWAP2 SWAP1 POP JUMP JUMPDEST PUSH1 0x0 DUP1 REVERT JUMPDEST PUSH2 0xB4 DUP2 PUSH2 0x9C JUMP JUMPDEST DUP2 EQ PUSH2 0xBF JUMPI PUSH1 0x0 DUP1 REVERT JUMPDEST POP JUMP JUMPDEST PUSH2 0x7BA DUP1 PUSH2 0xD1 PUSH1 0x0 CODECOPY PUSH1 0x0 RETURN INVALID PUSH1 0x80 PUSH1 0x40 MSTORE CALLVALUE DUP1 ISZERO PUSH2 0x10 JUMPI PUSH1 0x0 DUP1 REVERT JUMPDEST POP PUSH1 0x4 CALLDATASIZE LT PUSH2 0x7D JUMPI PUSH1 0x0 CALLDATALOAD PUSH1 0xE0 SHR DUP1 PUSH4 0x81FB4963 GT PUSH2 0x5B JUMPI DUP1 PUSH4 0x81FB4963 EQ PUSH2 0xDA JUMPI DUP1 PUSH4 0x84D4E4EB EQ PUSH2 0xE4 JUMPI DUP1 PUSH4 0xABA1DB5B EQ PUSH2 0xEE JUMPI DUP1 PUSH4 0xF1094586 EQ PUSH2 0x10C JUMPI PUSH2 0x7D JUMP JUMPDEST DUP1 PUSH4 0x1BA7CC2A EQ PUSH2 0x82 JUMPI DUP1 PUSH4 0x3E965804 EQ PUSH2 0xA0 JUMPI DUP1 PUSH4 0x7C45BDD9 EQ PUSH2 0xBC JUMPI JUMPDEST PUSH1 0x0 DUP1 REVERT JUMPDEST PUSH2 0x8A PUSH2 0x128 JUMP JUMPDEST PUSH1 0x40 MLOAD PUSH2 0x97 SWAP2 SWAP1 PUSH2 0x51B JUMP JUMPDEST PUSH1 0x40 MLOAD DUP1 SWAP2 SUB SWAP1 RETURN JUMPDEST PUSH2 0xBA PUSH1 0x4 DUP1 CALLDATASIZE SUB DUP2 ADD SWAP1 PUSH2 0xB5 SWAP2 SWAP1 PUSH2 0x3D3 JUMP JUMPDEST PUSH2 0x132 JUMP JUMPDEST STOP JUMPDEST PUSH2 0xC4 PUSH2 0x1F6 JUMP JUMPDEST PUSH1 0x40 MLOAD PUSH2 0xD1 SWAP2 SWAP1 PUSH2 0x51B JUMP JUMPDEST PUSH1 0x40 MLOAD DUP1 SWAP2 SUB SWAP1 RETURN JUMPDEST PUSH2 0xE2 PUSH2 0x200 JUMP JUMPDEST STOP JUMPDEST PUSH2 0xEC PUSH2 0x26C JUMP JUMPDEST STOP JUMPDEST PUSH2 0xF6 PUSH2 0x2D8 JUMP JUMPDEST PUSH1 0x40 MLOAD PUSH2 0x103 SWAP2 SWAP1 PUSH2 0x51B JUMP JUMPDEST PUSH1 0x40 MLOAD DUP1 SWAP2 SUB SWAP1 RETURN JUMPDEST PUSH2 0x126 PUSH1 0x4 DUP1 CALLDATASIZE SUB DUP2 ADD SWAP1 PUSH2 0x121 SWAP2 SWAP1 PUSH2 0x3D3 JUMP JUMPDEST PUSH2 0x2F4 JUMP JUMPDEST STOP JUMPDEST PUSH1 0x0 PUSH1 0x3 SLOAD SWAP1 POP SWAP1 JUMP JUMPDEST DUP1 PUSH2 0x13B PUSH2 0x1F6 JUMP JUMPDEST DUP2 PUSH1 0x0 SLOAD PUSH2 0x149 SWAP2 SWAP1 PUSH2 0x547 JUMP JUMPDEST GT ISZERO PUSH2 0x18A JUMPI PUSH1 0x40 MLOAD PUSH32 0x8C379A000000000000000000000000000000000000000000000000000000000 DUP2 MSTORE PUSH1 0x4 ADD PUSH2 0x181 SWAP1 PUSH2 0x4FB JUMP JUMPDEST PUSH1 0x40 MLOAD DUP1 SWAP2 SUB SWAP1 REVERT JUMPDEST PUSH1 0x1 PUSH1 0x0 SWAP1 SLOAD SWAP1 PUSH2 0x100 EXP SWAP1 DIV PUSH1 0xFF AND ISZERO PUSH2 0x1DA JUMPI PUSH1 0x40 MLOAD PUSH32 0x8C379A000000000000000000000000000000000000000000000000000000000 DUP2 MSTORE PUSH1 0x4 ADD PUSH2 0x1D1 SWAP1 PUSH2 0x4DB JUMP JUMPDEST PUSH1 0x40 MLOAD DUP1 SWAP2 SUB SWAP1 REVERT JUMPDEST DUP2 PUSH1 0x0 DUP1 DUP3 DUP3 SLOAD PUSH2 0x1EB SWAP2 SWAP1 PUSH2 0x547 JUMP JUMPDEST SWAP3 POP POP DUP2 SWAP1 SSTORE POP POP POP JUMP JUMPDEST PUSH1 0x0 PUSH1 0x2 SLOAD SWAP1 POP SWAP1 JUMP JUMPDEST PUSH1 0x1 PUSH1 0x0 SWAP1 SLOAD SWAP1 PUSH2 0x100 EXP SWAP1 DIV PUSH1 0xFF AND ISZERO PUSH2 0x250 JUMPI PUSH1 0x40 MLOAD PUSH32 0x8C379A000000000000000000000000000000000000000000000000000000000 DUP2 MSTORE PUSH1 0x4 ADD PUSH2 0x247 SWAP1 PUSH2 0x4DB JUMP JUMPDEST PUSH1 0x40 MLOAD DUP1 SWAP2 SUB SWAP1 REVERT JUMPDEST PUSH1 0x1 DUP1 PUSH1 0x0 PUSH2 0x100 EXP DUP2 SLOAD DUP2 PUSH1 0xFF MUL NOT AND SWAP1 DUP4 ISZERO ISZERO MUL OR SWAP1 SSTORE POP JUMP JUMPDEST PUSH1 0x1 PUSH1 0x0 SWAP1 SLOAD SWAP1 PUSH2 0x100 EXP SWAP1 DIV PUSH1 0xFF AND PUSH2 0x2BB JUMPI PUSH1 0x40 MLOAD PUSH32 0x8C379A000000000000000000000000000000000000000000000000000000000 DUP2 MSTORE PUSH1 0x4 ADD PUSH2 0x2B2 SWAP1 PUSH2 0x4BB JUMP JUMPDEST PUSH1 0x40 MLOAD DUP1 SWAP2 SUB SWAP1 REVERT JUMPDEST PUSH1 0x0 PUSH1 0x1 PUSH1 0x0 PUSH2 0x100 EXP DUP2 SLOAD DUP2 PUSH1 0xFF MUL NOT AND SWAP1 DUP4 ISZERO ISZERO MUL OR SWAP1 SSTORE POP JUMP JUMPDEST PUSH1 0x0 PUSH2 0x2E2 PUSH2 0x128 JUMP JUMPDEST PUSH1 0x0 SLOAD PUSH2 0x2EF SWAP2 SWAP1 PUSH2 0x5CE JUMP JUMPDEST SWAP1 POP SWAP1 JUMP JUMPDEST PUSH1 0x1 PUSH1 0x0 SWAP1 SLOAD SWAP1 PUSH2 0x100 EXP SWAP1 DIV PUSH1 0xFF AND PUSH2 0x343 JUMPI PUSH1 0x40 MLOAD PUSH32 0x8C379A000000000000000000000000000000000000000000000000000000000 DUP2 MSTORE PUSH1 0x4 ADD PUSH2 0x33A SWAP1 PUSH2 0x4BB JUMP JUMPDEST PUSH1 0x40 MLOAD DUP1 SWAP2 SUB SWAP1 REVERT JUMPDEST DUP1 PUSH1 0x0 SLOAD PUSH2 0x34F PUSH2 0x2D8 JUMP JUMPDEST LT ISZERO PUSH2 0x390 JUMPI PUSH1 0x40 MLOAD PUSH32 0x8C379A000000000000000000000000000000000000000000000000000000000 DUP2 MSTORE PUSH1 0x4 ADD PUSH2 0x387 SWAP1 PUSH2 0x49B JUMP JUMPDEST PUSH1 0x40 MLOAD DUP1 SWAP2 SUB SWAP1 REVERT JUMPDEST PUSH2 0x398 PUSH2 0x128 JUMP JUMPDEST DUP3 PUSH2 0x3A3 SWAP2 SWAP1 PUSH2 0x59D JUMP JUMPDEST PUSH1 0x0 DUP1 DUP3 DUP3 SLOAD PUSH2 0x3B3 SWAP2 SWAP1 PUSH2 0x628 JUMP JUMPDEST SWAP3 POP POP DUP2 SWAP1 SSTORE POP POP POP JUMP JUMPDEST PUSH1 0x0 DUP2 CALLDATALOAD SWAP1 POP PUSH2 0x3CD DUP2 PUSH2 0x76D JUMP JUMPDEST SWAP3 SWAP2 POP POP JUMP JUMPDEST PUSH1 0x0 PUSH1 0x20 DUP3 DUP5 SUB SLT ISZERO PUSH2 0x3E9 JUMPI PUSH2 0x3E8 PUSH2 0x6C4 JUMP JUMPDEST JUMPDEST PUSH1 0x0 PUSH2 0x3F7 DUP5 DUP3 DUP6 ADD PUSH2 0x3BE JUMP JUMPDEST SWAP2 POP POP SWAP3 SWAP2 POP POP JUMP JUMPDEST PUSH1 0x0 PUSH2 0x40D PUSH1 0x17 DUP4 PUSH2 0x536 JUMP JUMPDEST SWAP2 POP PUSH2 0x418 DUP3 PUSH2 0x6C9 JUMP JUMPDEST PUSH1 0x20 DUP3 ADD SWAP1 POP SWAP2 SWAP1 POP JUMP JUMPDEST PUSH1 0x0 PUSH2 0x430 PUSH1 0x16 DUP4 PUSH2 0x536 JUMP JUMPDEST SWAP2 POP PUSH2 0x43B DUP3 PUSH2 0x6F2 JUMP JUMPDEST PUSH1 0x20 DUP3 ADD SWAP1 POP SWAP2 SWAP1 POP JUMP JUMPDEST PUSH1 0x0 PUSH2 0x453 PUSH1 0x17 DUP4 PUSH2 0x536 JUMP JUMPDEST SWAP2 POP PUSH2 0x45E DUP3 PUSH2 0x71B JUMP JUMPDEST PUSH1 0x20 DUP3 ADD SWAP1 POP SWAP2 SWAP1 POP JUMP JUMPDEST PUSH1 0x0 PUSH2 0x476 PUSH1 0x11 DUP4 PUSH2 0x536 JUMP JUMPDEST SWAP2 POP PUSH2 0x481 DUP3 PUSH2 0x744 JUMP JUMPDEST PUSH1 0x20 DUP3 ADD SWAP1 POP SWAP2 SWAP1 POP JUMP JUMPDEST PUSH2 0x495 DUP2 PUSH2 0x65C JUMP JUMPDEST DUP3 MSTORE POP POP JUMP JUMPDEST PUSH1 0x0 PUSH1 0x20 DUP3 ADD SWAP1 POP DUP2 DUP2 SUB PUSH1 0x0 DUP4 ADD MSTORE PUSH2 0x4B4 DUP2 PUSH2 0x400 JUMP JUMPDEST SWAP1 POP SWAP2 SWAP1 POP JUMP JUMPDEST PUSH1 0x0 PUSH1 0x20 DUP3 ADD SWAP1 POP DUP2 DUP2 SUB PUSH1 0x0 DUP4 ADD MSTORE PUSH2 0x4D4 DUP2 PUSH2 0x423 JUMP JUMPDEST SWAP1 POP SWAP2 SWAP1 POP JUMP JUMPDEST PUSH1 0x0 PUSH1 0x20 DUP3 ADD SWAP1 POP DUP2 DUP2 SUB PUSH1 0x0 DUP4 ADD MSTORE PUSH2 0x4F4 DUP2 PUSH2 0x446 JUMP JUMPDEST SWAP1 POP SWAP2 SWAP1 POP JUMP JUMPDEST PUSH1 0x0 PUSH1 0x20 DUP3 ADD SWAP1 POP DUP2 DUP2 SUB PUSH1 0x0 DUP4 ADD MSTORE PUSH2 0x514 DUP2 PUSH2 0x469 JUMP JUMPDEST SWAP1 POP SWAP2 SWAP1 POP JUMP JUMPDEST PUSH1 0x0 PUSH1 0x20 DUP3 ADD SWAP1 POP PUSH2 0x530 PUSH1 0x0 DUP4 ADD DUP5 PUSH2 0x48C JUMP JUMPDEST SWAP3 SWAP2 POP POP JUMP JUMPDEST PUSH1 0x0 DUP3 DUP3 MSTORE PUSH1 0x20 DUP3 ADD SWAP1 POP SWAP3 SWAP2 POP POP JUMP JUMPDEST PUSH1 0x0 PUSH2 0x552 DUP3 PUSH2 0x65C JUMP JUMPDEST SWAP2 POP PUSH2 0x55D DUP4 PUSH2 0x65C JUMP JUMPDEST SWAP3 POP DUP3 PUSH32 0xFFFFFFFFFFFFFFFFFFFFFFFFFFFFFFFFFFFFFFFFFFFFFFFFFFFFFFFFFFFFFFFF SUB DUP3 GT ISZERO PUSH2 0x592 JUMPI PUSH2 0x591 PUSH2 0x666 JUMP JUMPDEST JUMPDEST DUP3 DUP3 ADD SWAP1 POP SWAP3 SWAP2 POP POP JUMP JUMPDEST PUSH1 0x0 PUSH2 0x5A8 DUP3 PUSH2 0x65C JUMP JUMPDEST SWAP2 POP PUSH2 0x5B3 DUP4 PUSH2 0x65C JUMP JUMPDEST SWAP3 POP DUP3 PUSH2 0x5C3 JUMPI PUSH2 0x5C2 PUSH2 0x695 JUMP JUMPDEST JUMPDEST DUP3 DUP3 DIV SWAP1 POP SWAP3 SWAP2 POP POP JUMP JUMPDEST PUSH1 0x0 PUSH2 0x5D9 DUP3 PUSH2 0x65C JUMP JUMPDEST SWAP2 POP PUSH2 0x5E4 DUP4 PUSH2 0x65C JUMP JUMPDEST SWAP3 POP DUP2 PUSH32 0xFFFFFFFFFFFFFFFFFFFFFFFFFFFFFFFFFFFFFFFFFFFFFFFFFFFFFFFFFFFFFFFF DIV DUP4 GT DUP3 ISZERO ISZERO AND ISZERO PUSH2 0x61D JUMPI PUSH2 0x61C PUSH2 0x666 JUMP JUMPDEST JUMPDEST DUP3 DUP3 MUL SWAP1 POP SWAP3 SWAP2 POP POP JUMP JUMPDEST PUSH1 0x0 PUSH2 0x633 DUP3 PUSH2 0x65C JUMP JUMPDEST SWAP2 POP PUSH2 0x63E DUP4 PUSH2 0x65C JUMP JUMPDEST SWAP3 POP DUP3 DUP3 LT ISZERO PUSH2 0x651 JUMPI PUSH2 0x650 PUSH2 0x666 JUMP JUMPDEST JUMPDEST DUP3 DUP3 SUB SWAP1 POP SWAP3 SWAP2 POP POP JUMP JUMPDEST PUSH1 0x0 DUP2 SWAP1 POP SWAP2 SWAP1 POP JUMP JUMPDEST PUSH32 0x4E487B7100000000000000000000000000000000000000000000000000000000 PUSH1 0x0 MSTORE PUSH1 0x11 PUSH1 0x4 MSTORE PUSH1 0x24 PUSH1 0x0 REVERT JUMPDEST PUSH32 0x4E487B7100000000000000000000000000000000000000000000000000000000 PUSH1 0x0 MSTORE PUSH1 0x12 PUSH1 0x4 MSTORE PUSH1 0x24 PUSH1 0x0 REVERT JUMPDEST PUSH1 0x0 DUP1 REVERT JUMPDEST PUSH32 0x496E73756666696369656E74206B696C6F6D6574657273000000000000000000 PUSH1 0x0 DUP3 ADD MSTORE POP JUMP JUMPDEST PUSH32 0x56656869636C65206973206E6F74207374617274656400000000000000000000 PUSH1 0x0 DUP3 ADD MSTORE POP JUMP JUMPDEST PUSH32 0x56656869636C6520616C72656164792073746172746564000000000000000000 PUSH1 0x0 DUP3 ADD MSTORE POP JUMP JUMPDEST PUSH32 0x496E73756666696369656E74206675656C000000000000000000000000000000 PUSH1 0x0 DUP3 ADD MSTORE POP JUMP JUMPDEST PUSH2 0x776 DUP2 PUSH2 0x65C JUMP JUMPDEST DUP2 EQ PUSH2 0x781 JUMPI PUSH1 0x0 DUP1 REVERT JUMPDEST POP JUMP INVALID LOG2 PUSH5 0x6970667358 0x22 SLT KECCAK256 BYTE SWAP9 SIGNEXTEND 0xA7 SWAP4 0xAA PUSH5 0xA3892229CC DUP3 DUP13 STATICCALL 0xCE 0x24 0xCA SWAP3 PUSH3 0xA8C2BF PUSH12 0xB631B28793E7FA6364736F6C PUSH4 0x43000807 STOP CALLER "
				},
				"gasEstimates": {
					"creation": {
						"codeDepositCost": "395600",
						"executionCost": "infinite",
						"totalCost": "infinite"
					},
					"external": {
						"drive(uint256)": "infinite",
						"fuelUp(uint256)": "infinite",
						"getFuelCapacity()": "2482",
						"getKilometersPerLitre()": "2438",
						"kilometersRemaining()": "infinite",
						"startEngine()": "26567",
						"stopEngine()": "26586"
					}
				},
				"methodIdentifiers": {
					"drive(uint256)": "f1094586",
					"fuelUp(uint256)": "3e965804",
					"getFuelCapacity()": "7c45bdd9",
					"getKilometersPerLitre()": "1ba7cc2a",
					"kilometersRemaining()": "aba1db5b",
					"startEngine()": "81fb4963",
					"stopEngine()": "84d4e4eb"
				}
			},
			"storageLayout": {
				"storage": [
					{
						"astId": 27,
						"contract": "contracts/AbstractInterfaces.sol:Car",
						"label": "litresRemaining",
						"offset": 0,
						"slot": "0",
						"type": "t_uint256"
					},
					{
						"astId": 29,
						"contract": "contracts/AbstractInterfaces.sol:Car",
						"label": "started",
						"offset": 0,
						"slot": "1",
						"type": "t_bool"
					},
					{
						"astId": 162,
						"contract": "contracts/AbstractInterfaces.sol:Car",
						"label": "fuelTankSize",
						"offset": 0,
						"slot": "2",
						"type": "t_uint256"
					},
					{
						"astId": 164,
						"contract": "contracts/AbstractInterfaces.sol:Car",
						"label": "kilometersPerLitre",
						"offset": 0,
						"slot": "3",
						"type": "t_uint256"
					}
				],
				"types": {
					"t_bool": {
						"encoding": "inplace",
						"label": "bool",
						"numberOfBytes": "1"
					},
					"t_uint256": {
						"encoding": "inplace",
						"label": "uint256",
						"numberOfBytes": "32"
					}
				}
			},
			"userdoc": {
				"kind": "user",
				"methods": {},
				"version": 1
			}
		}
	}
}