{
	"contracts/RestrictedCount.sol": {
		"RestrictedCount": {
			"abi": [
				{
					"inputs": [],
					"stateMutability": "nonpayable",
					"type": "constructor"
				},
				{
					"inputs": [
						{
							"internalType": "int256",
							"name": "value",
							"type": "int256"
						}
					],
					"name": "add",
					"outputs": [],
					"stateMutability": "nonpayable",
					"type": "function"
				},
				{
					"inputs": [],
					"name": "getCount",
					"outputs": [
						{
							"internalType": "int256",
							"name": "",
							"type": "int256"
						}
					],
					"stateMutability": "view",
					"type": "function"
				},
				{
					"inputs": [
						{
							"internalType": "int256",
							"name": "value",
							"type": "int256"
						}
					],
					"name": "subtract",
					"outputs": [],
					"stateMutability": "nonpayable",
					"type": "function"
				}
			],
			"devdoc": {
				"kind": "dev",
				"methods": {},
				"version": 1
			},
			"evm": {
				"assembly": "    /* \"contracts/RestrictedCount.sol\":36:899  contract RestrictedCount {... */\n  mstore(0x40, 0x80)\n    /* \"contracts/RestrictedCount.sol\":133:182  constructor() {... */\n  callvalue\n  dup1\n  iszero\n  tag_1\n  jumpi\n  0x00\n  dup1\n  revert\ntag_1:\n  pop\n    /* \"contracts/RestrictedCount.sol\":165:175  msg.sender */\n  caller\n    /* \"contracts/RestrictedCount.sol\":157:162  owner */\n  0x00\n  dup1\n    /* \"contracts/RestrictedCount.sol\":157:175  owner = msg.sender */\n  0x0100\n  exp\n  dup2\n  sload\n  dup2\n  0xffffffffffffffffffffffffffffffffffffffff\n  mul\n  not\n  and\n  swap1\n  dup4\n  0xffffffffffffffffffffffffffffffffffffffff\n  and\n  mul\n  or\n  swap1\n  sstore\n  pop\n    /* \"contracts/RestrictedCount.sol\":36:899  contract RestrictedCount {... */\n  dataSize(sub_0)\n  dup1\n  dataOffset(sub_0)\n  0x00\n  codecopy\n  0x00\n  return\nstop\n\nsub_0: assembly {\n        /* \"contracts/RestrictedCount.sol\":36:899  contract RestrictedCount {... */\n      mstore(0x40, 0x80)\n      callvalue\n      dup1\n      iszero\n      tag_1\n      jumpi\n      0x00\n      dup1\n      revert\n    tag_1:\n      pop\n      jumpi(tag_2, lt(calldatasize, 0x04))\n      shr(0xe0, calldataload(0x00))\n      dup1\n      0x87db03b7\n      eq\n      tag_3\n      jumpi\n      dup1\n      0xa87d942c\n      eq\n      tag_4\n      jumpi\n      dup1\n      0xae0f6166\n      eq\n      tag_5\n      jumpi\n    tag_2:\n      0x00\n      dup1\n      revert\n        /* \"contracts/RestrictedCount.sol\":605:696  function add(int256 value) public onlyOwner addCheck(value) {... */\n    tag_3:\n      tag_6\n      0x04\n      dup1\n      calldatasize\n      sub\n      dup2\n      add\n      swap1\n      tag_7\n      swap2\n      swap1\n      tag_8\n      jump\t// in\n    tag_7:\n      tag_9\n      jump\t// in\n    tag_6:\n      stop\n        /* \"contracts/RestrictedCount.sol\":809:897  function getCount() public view onlyOwner returns (int256) {... */\n    tag_4:\n      tag_10\n      tag_11\n      jump\t// in\n    tag_10:\n      mload(0x40)\n      tag_12\n      swap2\n      swap1\n      tag_13\n      jump\t// in\n    tag_12:\n      mload(0x40)\n      dup1\n      swap2\n      sub\n      swap1\n      return\n        /* \"contracts/RestrictedCount.sol\":702:803  function subtract(int256 value) public onlyOwner subtractCheck(value) {... */\n    tag_5:\n      tag_14\n      0x04\n      dup1\n      calldatasize\n      sub\n      dup2\n      add\n      swap1\n      tag_15\n      swap2\n      swap1\n      tag_8\n      jump\t// in\n    tag_15:\n      tag_16\n      jump\t// in\n    tag_14:\n      stop\n        /* \"contracts/RestrictedCount.sol\":605:696  function add(int256 value) public onlyOwner addCheck(value) {... */\n    tag_9:\n        /* \"contracts/RestrictedCount.sol\":254:259  owner */\n      0x00\n      dup1\n      sload\n      swap1\n      0x0100\n      exp\n      swap1\n      div\n      0xffffffffffffffffffffffffffffffffffffffff\n      and\n        /* \"contracts/RestrictedCount.sol\":240:259  msg.sender == owner */\n      0xffffffffffffffffffffffffffffffffffffffff\n      and\n        /* \"contracts/RestrictedCount.sol\":240:250  msg.sender */\n      caller\n        /* \"contracts/RestrictedCount.sol\":240:259  msg.sender == owner */\n      0xffffffffffffffffffffffffffffffffffffffff\n      and\n      eq\n        /* \"contracts/RestrictedCount.sol\":219:306  require(... */\n      tag_18\n      jumpi\n      mload(0x40)\n      0x08c379a000000000000000000000000000000000000000000000000000000000\n      dup2\n      mstore\n      0x04\n      add\n      tag_19\n      swap1\n      tag_20\n      jump\t// in\n    tag_19:\n      mload(0x40)\n      dup1\n      swap2\n      sub\n      swap1\n      revert\n    tag_18:\n        /* \"contracts/RestrictedCount.sol\":658:663  value */\n      dup1\n        /* \"contracts/RestrictedCount.sol\":397:400  100 */\n      0x64\n        /* \"contracts/RestrictedCount.sol\":388:393  value */\n      dup2\n        /* \"contracts/RestrictedCount.sol\":380:385  count */\n      sload(0x01)\n        /* \"contracts/RestrictedCount.sol\":380:393  count + value */\n      tag_22\n      swap2\n      swap1\n      tag_23\n      jump\t// in\n    tag_22:\n        /* \"contracts/RestrictedCount.sol\":380:400  count + value <= 100 */\n      sgt\n      iszero\n        /* \"contracts/RestrictedCount.sol\":372:401  require(count + value <= 100) */\n      tag_24\n      jumpi\n      0x00\n      dup1\n      revert\n    tag_24:\n        /* \"contracts/RestrictedCount.sol\":436:440  -100 */\n      0xffffffffffffffffffffffffffffffffffffffffffffffffffffffffffffff9c\n        /* \"contracts/RestrictedCount.sol\":427:432  value */\n      dup2\n        /* \"contracts/RestrictedCount.sol\":419:424  count */\n      sload(0x01)\n        /* \"contracts/RestrictedCount.sol\":419:432  count + value */\n      tag_25\n      swap2\n      swap1\n      tag_23\n      jump\t// in\n    tag_25:\n        /* \"contracts/RestrictedCount.sol\":419:440  count + value >= -100 */\n      slt\n      iszero\n        /* \"contracts/RestrictedCount.sol\":411:441  require(count + value >= -100) */\n      tag_26\n      jumpi\n      0x00\n      dup1\n      revert\n    tag_26:\n        /* \"contracts/RestrictedCount.sol\":684:689  value */\n      dup2\n        /* \"contracts/RestrictedCount.sol\":675:680  count */\n      0x01\n      0x00\n        /* \"contracts/RestrictedCount.sol\":675:689  count += value */\n      dup3\n      dup3\n      sload\n      tag_28\n      swap2\n      swap1\n      tag_23\n      jump\t// in\n    tag_28:\n      swap3\n      pop\n      pop\n      dup2\n      swap1\n      sstore\n      pop\n        /* \"contracts/RestrictedCount.sol\":316:317  _ */\n      pop\n        /* \"contracts/RestrictedCount.sol\":605:696  function add(int256 value) public onlyOwner addCheck(value) {... */\n      pop\n      jump\t// out\n        /* \"contracts/RestrictedCount.sol\":809:897  function getCount() public view onlyOwner returns (int256) {... */\n    tag_11:\n        /* \"contracts/RestrictedCount.sol\":860:866  int256 */\n      0x00\n        /* \"contracts/RestrictedCount.sol\":254:259  owner */\n      dup1\n      0x00\n      swap1\n      sload\n      swap1\n      0x0100\n      exp\n      swap1\n      div\n      0xffffffffffffffffffffffffffffffffffffffff\n      and\n        /* \"contracts/RestrictedCount.sol\":240:259  msg.sender == owner */\n      0xffffffffffffffffffffffffffffffffffffffff\n      and\n        /* \"contracts/RestrictedCount.sol\":240:250  msg.sender */\n      caller\n        /* \"contracts/RestrictedCount.sol\":240:259  msg.sender == owner */\n      0xffffffffffffffffffffffffffffffffffffffff\n      and\n      eq\n        /* \"contracts/RestrictedCount.sol\":219:306  require(... */\n      tag_30\n      jumpi\n      mload(0x40)\n      0x08c379a000000000000000000000000000000000000000000000000000000000\n      dup2\n      mstore\n      0x04\n      add\n      tag_31\n      swap1\n      tag_20\n      jump\t// in\n    tag_31:\n      mload(0x40)\n      dup1\n      swap2\n      sub\n      swap1\n      revert\n    tag_30:\n        /* \"contracts/RestrictedCount.sol\":885:890  count */\n      sload(0x01)\n        /* \"contracts/RestrictedCount.sol\":878:890  return count */\n      swap1\n      pop\n        /* \"contracts/RestrictedCount.sol\":809:897  function getCount() public view onlyOwner returns (int256) {... */\n      swap1\n      jump\t// out\n        /* \"contracts/RestrictedCount.sol\":702:803  function subtract(int256 value) public onlyOwner subtractCheck(value) {... */\n    tag_16:\n        /* \"contracts/RestrictedCount.sol\":254:259  owner */\n      0x00\n      dup1\n      sload\n      swap1\n      0x0100\n      exp\n      swap1\n      div\n      0xffffffffffffffffffffffffffffffffffffffff\n      and\n        /* \"contracts/RestrictedCount.sol\":240:259  msg.sender == owner */\n      0xffffffffffffffffffffffffffffffffffffffff\n      and\n        /* \"contracts/RestrictedCount.sol\":240:250  msg.sender */\n      caller\n        /* \"contracts/RestrictedCount.sol\":240:259  msg.sender == owner */\n      0xffffffffffffffffffffffffffffffffffffffff\n      and\n      eq\n        /* \"contracts/RestrictedCount.sol\":219:306  require(... */\n      tag_34\n      jumpi\n      mload(0x40)\n      0x08c379a000000000000000000000000000000000000000000000000000000000\n      dup2\n      mstore\n      0x04\n      add\n      tag_35\n      swap1\n      tag_20\n      jump\t// in\n    tag_35:\n      mload(0x40)\n      dup1\n      swap2\n      sub\n      swap1\n      revert\n    tag_34:\n        /* \"contracts/RestrictedCount.sol\":765:770  value */\n      dup1\n        /* \"contracts/RestrictedCount.sol\":537:541  -100 */\n      0xffffffffffffffffffffffffffffffffffffffffffffffffffffffffffffff9c\n        /* \"contracts/RestrictedCount.sol\":528:533  value */\n      dup2\n        /* \"contracts/RestrictedCount.sol\":520:525  count */\n      sload(0x01)\n        /* \"contracts/RestrictedCount.sol\":520:533  count - value */\n      tag_37\n      swap2\n      swap1\n      tag_38\n      jump\t// in\n    tag_37:\n        /* \"contracts/RestrictedCount.sol\":520:541  count - value >= -100 */\n      slt\n      iszero\n        /* \"contracts/RestrictedCount.sol\":512:542  require(count - value >= -100) */\n      tag_39\n      jumpi\n      0x00\n      dup1\n      revert\n    tag_39:\n        /* \"contracts/RestrictedCount.sol\":577:580  100 */\n      0x64\n        /* \"contracts/RestrictedCount.sol\":568:573  value */\n      dup2\n        /* \"contracts/RestrictedCount.sol\":560:565  count */\n      sload(0x01)\n        /* \"contracts/RestrictedCount.sol\":560:573  count - value */\n      tag_40\n      swap2\n      swap1\n      tag_38\n      jump\t// in\n    tag_40:\n        /* \"contracts/RestrictedCount.sol\":560:580  count - value <= 100 */\n      sgt\n      iszero\n        /* \"contracts/RestrictedCount.sol\":552:581  require(count - value <= 100) */\n      tag_41\n      jumpi\n      0x00\n      dup1\n      revert\n    tag_41:\n        /* \"contracts/RestrictedCount.sol\":791:796  value */\n      dup2\n        /* \"contracts/RestrictedCount.sol\":782:787  count */\n      0x01\n      0x00\n        /* \"contracts/RestrictedCount.sol\":782:796  count -= value */\n      dup3\n      dup3\n      sload\n      tag_43\n      swap2\n      swap1\n      tag_38\n      jump\t// in\n    tag_43:\n      swap3\n      pop\n      pop\n      dup2\n      swap1\n      sstore\n      pop\n        /* \"contracts/RestrictedCount.sol\":316:317  _ */\n      pop\n        /* \"contracts/RestrictedCount.sol\":702:803  function subtract(int256 value) public onlyOwner subtractCheck(value) {... */\n      pop\n      jump\t// out\n        /* \"#utility.yul\":7:144   */\n    tag_45:\n        /* \"#utility.yul\":52:57   */\n      0x00\n        /* \"#utility.yul\":90:96   */\n      dup2\n        /* \"#utility.yul\":77:97   */\n      calldataload\n        /* \"#utility.yul\":68:97   */\n      swap1\n      pop\n        /* \"#utility.yul\":106:138   */\n      tag_47\n        /* \"#utility.yul\":132:137   */\n      dup2\n        /* \"#utility.yul\":106:138   */\n      tag_48\n      jump\t// in\n    tag_47:\n        /* \"#utility.yul\":7:144   */\n      swap3\n      swap2\n      pop\n      pop\n      jump\t// out\n        /* \"#utility.yul\":150:477   */\n    tag_8:\n        /* \"#utility.yul\":208:214   */\n      0x00\n        /* \"#utility.yul\":257:259   */\n      0x20\n        /* \"#utility.yul\":245:254   */\n      dup3\n        /* \"#utility.yul\":236:243   */\n      dup5\n        /* \"#utility.yul\":232:255   */\n      sub\n        /* \"#utility.yul\":228:260   */\n      slt\n        /* \"#utility.yul\":225:344   */\n      iszero\n      tag_50\n      jumpi\n        /* \"#utility.yul\":263:342   */\n      tag_51\n      tag_52\n      jump\t// in\n    tag_51:\n        /* \"#utility.yul\":225:344   */\n    tag_50:\n        /* \"#utility.yul\":383:384   */\n      0x00\n        /* \"#utility.yul\":408:460   */\n      tag_53\n        /* \"#utility.yul\":452:459   */\n      dup5\n        /* \"#utility.yul\":443:449   */\n      dup3\n        /* \"#utility.yul\":432:441   */\n      dup6\n        /* \"#utility.yul\":428:450   */\n      add\n        /* \"#utility.yul\":408:460   */\n      tag_45\n      jump\t// in\n    tag_53:\n        /* \"#utility.yul\":398:460   */\n      swap2\n      pop\n        /* \"#utility.yul\":354:470   */\n      pop\n        /* \"#utility.yul\":150:477   */\n      swap3\n      swap2\n      pop\n      pop\n      jump\t// out\n        /* \"#utility.yul\":483:598   */\n    tag_54:\n        /* \"#utility.yul\":568:591   */\n      tag_56\n        /* \"#utility.yul\":585:590   */\n      dup2\n        /* \"#utility.yul\":568:591   */\n      tag_57\n      jump\t// in\n    tag_56:\n        /* \"#utility.yul\":563:566   */\n      dup3\n        /* \"#utility.yul\":556:592   */\n      mstore\n        /* \"#utility.yul\":483:598   */\n      pop\n      pop\n      jump\t// out\n        /* \"#utility.yul\":604:970   */\n    tag_58:\n        /* \"#utility.yul\":746:749   */\n      0x00\n        /* \"#utility.yul\":767:834   */\n      tag_60\n        /* \"#utility.yul\":831:833   */\n      0x15\n        /* \"#utility.yul\":826:829   */\n      dup4\n        /* \"#utility.yul\":767:834   */\n      tag_61\n      jump\t// in\n    tag_60:\n        /* \"#utility.yul\":760:834   */\n      swap2\n      pop\n        /* \"#utility.yul\":843:936   */\n      tag_62\n        /* \"#utility.yul\":932:935   */\n      dup3\n        /* \"#utility.yul\":843:936   */\n      tag_63\n      jump\t// in\n    tag_62:\n        /* \"#utility.yul\":961:963   */\n      0x20\n        /* \"#utility.yul\":956:959   */\n      dup3\n        /* \"#utility.yul\":952:964   */\n      add\n        /* \"#utility.yul\":945:964   */\n      swap1\n      pop\n        /* \"#utility.yul\":604:970   */\n      swap2\n      swap1\n      pop\n      jump\t// out\n        /* \"#utility.yul\":976:1194   */\n    tag_13:\n        /* \"#utility.yul\":1067:1071   */\n      0x00\n        /* \"#utility.yul\":1105:1107   */\n      0x20\n        /* \"#utility.yul\":1094:1103   */\n      dup3\n        /* \"#utility.yul\":1090:1108   */\n      add\n        /* \"#utility.yul\":1082:1108   */\n      swap1\n      pop\n        /* \"#utility.yul\":1118:1187   */\n      tag_65\n        /* \"#utility.yul\":1184:1185   */\n      0x00\n        /* \"#utility.yul\":1173:1182   */\n      dup4\n        /* \"#utility.yul\":1169:1186   */\n      add\n        /* \"#utility.yul\":1160:1166   */\n      dup5\n        /* \"#utility.yul\":1118:1187   */\n      tag_54\n      jump\t// in\n    tag_65:\n        /* \"#utility.yul\":976:1194   */\n      swap3\n      swap2\n      pop\n      pop\n      jump\t// out\n        /* \"#utility.yul\":1200:1619   */\n    tag_20:\n        /* \"#utility.yul\":1366:1370   */\n      0x00\n        /* \"#utility.yul\":1404:1406   */\n      0x20\n        /* \"#utility.yul\":1393:1402   */\n      dup3\n        /* \"#utility.yul\":1389:1407   */\n      add\n        /* \"#utility.yul\":1381:1407   */\n      swap1\n      pop\n        /* \"#utility.yul\":1453:1462   */\n      dup2\n        /* \"#utility.yul\":1447:1451   */\n      dup2\n        /* \"#utility.yul\":1443:1463   */\n      sub\n        /* \"#utility.yul\":1439:1440   */\n      0x00\n        /* \"#utility.yul\":1428:1437   */\n      dup4\n        /* \"#utility.yul\":1424:1441   */\n      add\n        /* \"#utility.yul\":1417:1464   */\n      mstore\n        /* \"#utility.yul\":1481:1612   */\n      tag_67\n        /* \"#utility.yul\":1607:1611   */\n      dup2\n        /* \"#utility.yul\":1481:1612   */\n      tag_58\n      jump\t// in\n    tag_67:\n        /* \"#utility.yul\":1473:1612   */\n      swap1\n      pop\n        /* \"#utility.yul\":1200:1619   */\n      swap2\n      swap1\n      pop\n      jump\t// out\n        /* \"#utility.yul\":1706:1875   */\n    tag_61:\n        /* \"#utility.yul\":1790:1801   */\n      0x00\n        /* \"#utility.yul\":1824:1830   */\n      dup3\n        /* \"#utility.yul\":1819:1822   */\n      dup3\n        /* \"#utility.yul\":1812:1831   */\n      mstore\n        /* \"#utility.yul\":1864:1868   */\n      0x20\n        /* \"#utility.yul\":1859:1862   */\n      dup3\n        /* \"#utility.yul\":1855:1869   */\n      add\n        /* \"#utility.yul\":1840:1869   */\n      swap1\n      pop\n        /* \"#utility.yul\":1706:1875   */\n      swap3\n      swap2\n      pop\n      pop\n      jump\t// out\n        /* \"#utility.yul\":1881:2406   */\n    tag_23:\n        /* \"#utility.yul\":1920:1923   */\n      0x00\n        /* \"#utility.yul\":1939:1958   */\n      tag_72\n        /* \"#utility.yul\":1956:1957   */\n      dup3\n        /* \"#utility.yul\":1939:1958   */\n      tag_57\n      jump\t// in\n    tag_72:\n        /* \"#utility.yul\":1934:1958   */\n      swap2\n      pop\n        /* \"#utility.yul\":1972:1991   */\n      tag_73\n        /* \"#utility.yul\":1989:1990   */\n      dup4\n        /* \"#utility.yul\":1972:1991   */\n      tag_57\n      jump\t// in\n    tag_73:\n        /* \"#utility.yul\":1967:1991   */\n      swap3\n      pop\n        /* \"#utility.yul\":2160:2161   */\n      dup2\n        /* \"#utility.yul\":2092:2158   */\n      0x7fffffffffffffffffffffffffffffffffffffffffffffffffffffffffffffff\n        /* \"#utility.yul\":2088:2162   */\n      sub\n        /* \"#utility.yul\":2085:2086   */\n      dup4\n        /* \"#utility.yul\":2081:2163   */\n      sgt\n        /* \"#utility.yul\":2076:2077   */\n      0x00\n        /* \"#utility.yul\":2073:2074   */\n      dup4\n        /* \"#utility.yul\":2069:2078   */\n      slt\n        /* \"#utility.yul\":2062:2079   */\n      iszero\n        /* \"#utility.yul\":2058:2164   */\n      and\n        /* \"#utility.yul\":2055:2187   */\n      iszero\n      tag_74\n      jumpi\n        /* \"#utility.yul\":2167:2185   */\n      tag_75\n      tag_76\n      jump\t// in\n    tag_75:\n        /* \"#utility.yul\":2055:2187   */\n    tag_74:\n        /* \"#utility.yul\":2347:2348   */\n      dup2\n        /* \"#utility.yul\":2279:2345   */\n      0x8000000000000000000000000000000000000000000000000000000000000000\n        /* \"#utility.yul\":2275:2349   */\n      sub\n        /* \"#utility.yul\":2272:2273   */\n      dup4\n        /* \"#utility.yul\":2268:2350   */\n      slt\n        /* \"#utility.yul\":2264:2265   */\n      0x00\n        /* \"#utility.yul\":2261:2262   */\n      dup4\n        /* \"#utility.yul\":2257:2266   */\n      slt\n        /* \"#utility.yul\":2253:2351   */\n      and\n        /* \"#utility.yul\":2250:2374   */\n      iszero\n      tag_77\n      jumpi\n        /* \"#utility.yul\":2354:2372   */\n      tag_78\n      tag_76\n      jump\t// in\n    tag_78:\n        /* \"#utility.yul\":2250:2374   */\n    tag_77:\n        /* \"#utility.yul\":2398:2399   */\n      dup3\n        /* \"#utility.yul\":2395:2396   */\n      dup3\n        /* \"#utility.yul\":2391:2400   */\n      add\n        /* \"#utility.yul\":2384:2400   */\n      swap1\n      pop\n        /* \"#utility.yul\":1881:2406   */\n      swap3\n      swap2\n      pop\n      pop\n      jump\t// out\n        /* \"#utility.yul\":2412:2939   */\n    tag_38:\n        /* \"#utility.yul\":2451:2455   */\n      0x00\n        /* \"#utility.yul\":2471:2490   */\n      tag_80\n        /* \"#utility.yul\":2488:2489   */\n      dup3\n        /* \"#utility.yul\":2471:2490   */\n      tag_57\n      jump\t// in\n    tag_80:\n        /* \"#utility.yul\":2466:2490   */\n      swap2\n      pop\n        /* \"#utility.yul\":2504:2523   */\n      tag_81\n        /* \"#utility.yul\":2521:2522   */\n      dup4\n        /* \"#utility.yul\":2504:2523   */\n      tag_57\n      jump\t// in\n    tag_81:\n        /* \"#utility.yul\":2499:2523   */\n      swap3\n      pop\n        /* \"#utility.yul\":2693:2694   */\n      dup3\n        /* \"#utility.yul\":2625:2691   */\n      0x8000000000000000000000000000000000000000000000000000000000000000\n        /* \"#utility.yul\":2621:2695   */\n      add\n        /* \"#utility.yul\":2618:2619   */\n      dup3\n        /* \"#utility.yul\":2614:2696   */\n      slt\n        /* \"#utility.yul\":2609:2610   */\n      0x00\n        /* \"#utility.yul\":2606:2607   */\n      dup5\n        /* \"#utility.yul\":2602:2611   */\n      slt\n        /* \"#utility.yul\":2595:2612   */\n      iszero\n        /* \"#utility.yul\":2591:2697   */\n      and\n        /* \"#utility.yul\":2588:2720   */\n      iszero\n      tag_82\n      jumpi\n        /* \"#utility.yul\":2700:2718   */\n      tag_83\n      tag_76\n      jump\t// in\n    tag_83:\n        /* \"#utility.yul\":2588:2720   */\n    tag_82:\n        /* \"#utility.yul\":2879:2880   */\n      dup3\n        /* \"#utility.yul\":2811:2877   */\n      0x7fffffffffffffffffffffffffffffffffffffffffffffffffffffffffffffff\n        /* \"#utility.yul\":2807:2881   */\n      add\n        /* \"#utility.yul\":2804:2805   */\n      dup3\n        /* \"#utility.yul\":2800:2882   */\n      sgt\n        /* \"#utility.yul\":2796:2797   */\n      0x00\n        /* \"#utility.yul\":2793:2794   */\n      dup5\n        /* \"#utility.yul\":2789:2798   */\n      slt\n        /* \"#utility.yul\":2785:2883   */\n      and\n        /* \"#utility.yul\":2782:2906   */\n      iszero\n      tag_84\n      jumpi\n        /* \"#utility.yul\":2886:2904   */\n      tag_85\n      tag_76\n      jump\t// in\n    tag_85:\n        /* \"#utility.yul\":2782:2906   */\n    tag_84:\n        /* \"#utility.yul\":2931:2932   */\n      dup3\n        /* \"#utility.yul\":2928:2929   */\n      dup3\n        /* \"#utility.yul\":2924:2933   */\n      sub\n        /* \"#utility.yul\":2916:2933   */\n      swap1\n      pop\n        /* \"#utility.yul\":2412:2939   */\n      swap3\n      swap2\n      pop\n      pop\n      jump\t// out\n        /* \"#utility.yul\":2945:3021   */\n    tag_57:\n        /* \"#utility.yul\":2981:2988   */\n      0x00\n        /* \"#utility.yul\":3010:3015   */\n      dup2\n        /* \"#utility.yul\":2999:3015   */\n      swap1\n      pop\n        /* \"#utility.yul\":2945:3021   */\n      swap2\n      swap1\n      pop\n      jump\t// out\n        /* \"#utility.yul\":3027:3207   */\n    tag_76:\n        /* \"#utility.yul\":3075:3152   */\n      0x4e487b7100000000000000000000000000000000000000000000000000000000\n        /* \"#utility.yul\":3072:3073   */\n      0x00\n        /* \"#utility.yul\":3065:3153   */\n      mstore\n        /* \"#utility.yul\":3172:3176   */\n      0x11\n        /* \"#utility.yul\":3169:3170   */\n      0x04\n        /* \"#utility.yul\":3162:3177   */\n      mstore\n        /* \"#utility.yul\":3196:3200   */\n      0x24\n        /* \"#utility.yul\":3193:3194   */\n      0x00\n        /* \"#utility.yul\":3186:3201   */\n      revert\n        /* \"#utility.yul\":3336:3453   */\n    tag_52:\n        /* \"#utility.yul\":3445:3446   */\n      0x00\n        /* \"#utility.yul\":3442:3443   */\n      dup1\n        /* \"#utility.yul\":3435:3447   */\n      revert\n        /* \"#utility.yul\":3459:3630   */\n    tag_63:\n        /* \"#utility.yul\":3599:3622   */\n      0x596f7520617265206e6f7420746865206f776e65720000000000000000000000\n        /* \"#utility.yul\":3595:3596   */\n      0x00\n        /* \"#utility.yul\":3587:3593   */\n      dup3\n        /* \"#utility.yul\":3583:3597   */\n      add\n        /* \"#utility.yul\":3576:3623   */\n      mstore\n        /* \"#utility.yul\":3459:3630   */\n      pop\n      jump\t// out\n        /* \"#utility.yul\":3636:3756   */\n    tag_48:\n        /* \"#utility.yul\":3708:3731   */\n      tag_93\n        /* \"#utility.yul\":3725:3730   */\n      dup2\n        /* \"#utility.yul\":3708:3731   */\n      tag_57\n      jump\t// in\n    tag_93:\n        /* \"#utility.yul\":3701:3706   */\n      dup2\n        /* \"#utility.yul\":3698:3732   */\n      eq\n        /* \"#utility.yul\":3688:3750   */\n      tag_94\n      jumpi\n        /* \"#utility.yul\":3746:3747   */\n      0x00\n        /* \"#utility.yul\":3743:3744   */\n      dup1\n        /* \"#utility.yul\":3736:3748   */\n      revert\n        /* \"#utility.yul\":3688:3750   */\n    tag_94:\n        /* \"#utility.yul\":3636:3756   */\n      pop\n      jump\t// out\n\n    auxdata: 0xa26469706673582212205ed9fb637efad123c76c53484f62bfc409947a90bd946589a2757fbcab486ddf64736f6c63430008070033\n}\n",
				"bytecode": {
					"linkReferences": {},
					"object": "608060405234801561001057600080fd5b50336000806101000a81548173ffffffffffffffffffffffffffffffffffffffff021916908373ffffffffffffffffffffffffffffffffffffffff1602179055506105d3806100606000396000f3fe608060405234801561001057600080fd5b50600436106100415760003560e01c806387db03b714610046578063a87d942c14610062578063ae0f616614610080575b600080fd5b610060600480360381019061005b919061034c565b61009c565b005b61006a61019d565b60405161007791906103ab565b60405180910390f35b61009a6004803603810190610095919061034c565b610236565b005b60008054906101000a900473ffffffffffffffffffffffffffffffffffffffff1673ffffffffffffffffffffffffffffffffffffffff163373ffffffffffffffffffffffffffffffffffffffff161461012a576040517f08c379a0000000000000000000000000000000000000000000000000000000008152600401610121906103c6565b60405180910390fd5b8060648160015461013b91906103f7565b131561014657600080fd5b7fffffffffffffffffffffffffffffffffffffffffffffffffffffffffffffff9c8160015461017591906103f7565b121561018057600080fd5b816001600082825461019291906103f7565b925050819055505050565b60008060009054906101000a900473ffffffffffffffffffffffffffffffffffffffff1673ffffffffffffffffffffffffffffffffffffffff163373ffffffffffffffffffffffffffffffffffffffff161461022e576040517f08c379a0000000000000000000000000000000000000000000000000000000008152600401610225906103c6565b60405180910390fd5b600154905090565b60008054906101000a900473ffffffffffffffffffffffffffffffffffffffff1673ffffffffffffffffffffffffffffffffffffffff163373ffffffffffffffffffffffffffffffffffffffff16146102c4576040517f08c379a00000000000000000000000000000000000000000000000000000000081526004016102bb906103c6565b60405180910390fd5b807fffffffffffffffffffffffffffffffffffffffffffffffffffffffffffffff9c816001546102f4919061048b565b12156102ff57600080fd5b60648160015461030f919061048b565b131561031a57600080fd5b816001600082825461032c919061048b565b925050819055505050565b60008135905061034681610586565b92915050565b60006020828403121561036257610361610558565b5b600061037084828501610337565b91505092915050565b6103828161051f565b82525050565b60006103956015836103e6565b91506103a08261055d565b602082019050919050565b60006020820190506103c06000830184610379565b92915050565b600060208201905081810360008301526103df81610388565b9050919050565b600082825260208201905092915050565b60006104028261051f565b915061040d8361051f565b9250817f7fffffffffffffffffffffffffffffffffffffffffffffffffffffffffffffff0383136000831215161561044857610447610529565b5b817f80000000000000000000000000000000000000000000000000000000000000000383126000831216156104805761047f610529565b5b828201905092915050565b60006104968261051f565b91506104a18361051f565b9250827f8000000000000000000000000000000000000000000000000000000000000000018212600084121516156104dc576104db610529565b5b827f7fffffffffffffffffffffffffffffffffffffffffffffffffffffffffffffff01821360008412161561051457610513610529565b5b828203905092915050565b6000819050919050565b7f4e487b7100000000000000000000000000000000000000000000000000000000600052601160045260246000fd5b600080fd5b7f596f7520617265206e6f7420746865206f776e65720000000000000000000000600082015250565b61058f8161051f565b811461059a57600080fd5b5056fea26469706673582212205ed9fb637efad123c76c53484f62bfc409947a90bd946589a2757fbcab486ddf64736f6c63430008070033",
					"opcodes": "PUSH1 0x80 PUSH1 0x40 MSTORE CALLVALUE DUP1 ISZERO PUSH2 0x10 JUMPI PUSH1 0x0 DUP1 REVERT JUMPDEST POP CALLER PUSH1 0x0 DUP1 PUSH2 0x100 EXP DUP2 SLOAD DUP2 PUSH20 0xFFFFFFFFFFFFFFFFFFFFFFFFFFFFFFFFFFFFFFFF MUL NOT AND SWAP1 DUP4 PUSH20 0xFFFFFFFFFFFFFFFFFFFFFFFFFFFFFFFFFFFFFFFF AND MUL OR SWAP1 SSTORE POP PUSH2 0x5D3 DUP1 PUSH2 0x60 PUSH1 0x0 CODECOPY PUSH1 0x0 RETURN INVALID PUSH1 0x80 PUSH1 0x40 MSTORE CALLVALUE DUP1 ISZERO PUSH2 0x10 JUMPI PUSH1 0x0 DUP1 REVERT JUMPDEST POP PUSH1 0x4 CALLDATASIZE LT PUSH2 0x41 JUMPI PUSH1 0x0 CALLDATALOAD PUSH1 0xE0 SHR DUP1 PUSH4 0x87DB03B7 EQ PUSH2 0x46 JUMPI DUP1 PUSH4 0xA87D942C EQ PUSH2 0x62 JUMPI DUP1 PUSH4 0xAE0F6166 EQ PUSH2 0x80 JUMPI JUMPDEST PUSH1 0x0 DUP1 REVERT JUMPDEST PUSH2 0x60 PUSH1 0x4 DUP1 CALLDATASIZE SUB DUP2 ADD SWAP1 PUSH2 0x5B SWAP2 SWAP1 PUSH2 0x34C JUMP JUMPDEST PUSH2 0x9C JUMP JUMPDEST STOP JUMPDEST PUSH2 0x6A PUSH2 0x19D JUMP JUMPDEST PUSH1 0x40 MLOAD PUSH2 0x77 SWAP2 SWAP1 PUSH2 0x3AB JUMP JUMPDEST PUSH1 0x40 MLOAD DUP1 SWAP2 SUB SWAP1 RETURN JUMPDEST PUSH2 0x9A PUSH1 0x4 DUP1 CALLDATASIZE SUB DUP2 ADD SWAP1 PUSH2 0x95 SWAP2 SWAP1 PUSH2 0x34C JUMP JUMPDEST PUSH2 0x236 JUMP JUMPDEST STOP JUMPDEST PUSH1 0x0 DUP1 SLOAD SWAP1 PUSH2 0x100 EXP SWAP1 DIV PUSH20 0xFFFFFFFFFFFFFFFFFFFFFFFFFFFFFFFFFFFFFFFF AND PUSH20 0xFFFFFFFFFFFFFFFFFFFFFFFFFFFFFFFFFFFFFFFF AND CALLER PUSH20 0xFFFFFFFFFFFFFFFFFFFFFFFFFFFFFFFFFFFFFFFF AND EQ PUSH2 0x12A JUMPI PUSH1 0x40 MLOAD PUSH32 0x8C379A000000000000000000000000000000000000000000000000000000000 DUP2 MSTORE PUSH1 0x4 ADD PUSH2 0x121 SWAP1 PUSH2 0x3C6 JUMP JUMPDEST PUSH1 0x40 MLOAD DUP1 SWAP2 SUB SWAP1 REVERT JUMPDEST DUP1 PUSH1 0x64 DUP2 PUSH1 0x1 SLOAD PUSH2 0x13B SWAP2 SWAP1 PUSH2 0x3F7 JUMP JUMPDEST SGT ISZERO PUSH2 0x146 JUMPI PUSH1 0x0 DUP1 REVERT JUMPDEST PUSH32 0xFFFFFFFFFFFFFFFFFFFFFFFFFFFFFFFFFFFFFFFFFFFFFFFFFFFFFFFFFFFFFF9C DUP2 PUSH1 0x1 SLOAD PUSH2 0x175 SWAP2 SWAP1 PUSH2 0x3F7 JUMP JUMPDEST SLT ISZERO PUSH2 0x180 JUMPI PUSH1 0x0 DUP1 REVERT JUMPDEST DUP2 PUSH1 0x1 PUSH1 0x0 DUP3 DUP3 SLOAD PUSH2 0x192 SWAP2 SWAP1 PUSH2 0x3F7 JUMP JUMPDEST SWAP3 POP POP DUP2 SWAP1 SSTORE POP POP POP JUMP JUMPDEST PUSH1 0x0 DUP1 PUSH1 0x0 SWAP1 SLOAD SWAP1 PUSH2 0x100 EXP SWAP1 DIV PUSH20 0xFFFFFFFFFFFFFFFFFFFFFFFFFFFFFFFFFFFFFFFF AND PUSH20 0xFFFFFFFFFFFFFFFFFFFFFFFFFFFFFFFFFFFFFFFF AND CALLER PUSH20 0xFFFFFFFFFFFFFFFFFFFFFFFFFFFFFFFFFFFFFFFF AND EQ PUSH2 0x22E JUMPI PUSH1 0x40 MLOAD PUSH32 0x8C379A000000000000000000000000000000000000000000000000000000000 DUP2 MSTORE PUSH1 0x4 ADD PUSH2 0x225 SWAP1 PUSH2 0x3C6 JUMP JUMPDEST PUSH1 0x40 MLOAD DUP1 SWAP2 SUB SWAP1 REVERT JUMPDEST PUSH1 0x1 SLOAD SWAP1 POP SWAP1 JUMP JUMPDEST PUSH1 0x0 DUP1 SLOAD SWAP1 PUSH2 0x100 EXP SWAP1 DIV PUSH20 0xFFFFFFFFFFFFFFFFFFFFFFFFFFFFFFFFFFFFFFFF AND PUSH20 0xFFFFFFFFFFFFFFFFFFFFFFFFFFFFFFFFFFFFFFFF AND CALLER PUSH20 0xFFFFFFFFFFFFFFFFFFFFFFFFFFFFFFFFFFFFFFFF AND EQ PUSH2 0x2C4 JUMPI PUSH1 0x40 MLOAD PUSH32 0x8C379A000000000000000000000000000000000000000000000000000000000 DUP2 MSTORE PUSH1 0x4 ADD PUSH2 0x2BB SWAP1 PUSH2 0x3C6 JUMP JUMPDEST PUSH1 0x40 MLOAD DUP1 SWAP2 SUB SWAP1 REVERT JUMPDEST DUP1 PUSH32 0xFFFFFFFFFFFFFFFFFFFFFFFFFFFFFFFFFFFFFFFFFFFFFFFFFFFFFFFFFFFFFF9C DUP2 PUSH1 0x1 SLOAD PUSH2 0x2F4 SWAP2 SWAP1 PUSH2 0x48B JUMP JUMPDEST SLT ISZERO PUSH2 0x2FF JUMPI PUSH1 0x0 DUP1 REVERT JUMPDEST PUSH1 0x64 DUP2 PUSH1 0x1 SLOAD PUSH2 0x30F SWAP2 SWAP1 PUSH2 0x48B JUMP JUMPDEST SGT ISZERO PUSH2 0x31A JUMPI PUSH1 0x0 DUP1 REVERT JUMPDEST DUP2 PUSH1 0x1 PUSH1 0x0 DUP3 DUP3 SLOAD PUSH2 0x32C SWAP2 SWAP1 PUSH2 0x48B JUMP JUMPDEST SWAP3 POP POP DUP2 SWAP1 SSTORE POP POP POP JUMP JUMPDEST PUSH1 0x0 DUP2 CALLDATALOAD SWAP1 POP PUSH2 0x346 DUP2 PUSH2 0x586 JUMP JUMPDEST SWAP3 SWAP2 POP POP JUMP JUMPDEST PUSH1 0x0 PUSH1 0x20 DUP3 DUP5 SUB SLT ISZERO PUSH2 0x362 JUMPI PUSH2 0x361 PUSH2 0x558 JUMP JUMPDEST JUMPDEST PUSH1 0x0 PUSH2 0x370 DUP5 DUP3 DUP6 ADD PUSH2 0x337 JUMP JUMPDEST SWAP2 POP POP SWAP3 SWAP2 POP POP JUMP JUMPDEST PUSH2 0x382 DUP2 PUSH2 0x51F JUMP JUMPDEST DUP3 MSTORE POP POP JUMP JUMPDEST PUSH1 0x0 PUSH2 0x395 PUSH1 0x15 DUP4 PUSH2 0x3E6 JUMP JUMPDEST SWAP2 POP PUSH2 0x3A0 DUP3 PUSH2 0x55D JUMP JUMPDEST PUSH1 0x20 DUP3 ADD SWAP1 POP SWAP2 SWAP1 POP JUMP JUMPDEST PUSH1 0x0 PUSH1 0x20 DUP3 ADD SWAP1 POP PUSH2 0x3C0 PUSH1 0x0 DUP4 ADD DUP5 PUSH2 0x379 JUMP JUMPDEST SWAP3 SWAP2 POP POP JUMP JUMPDEST PUSH1 0x0 PUSH1 0x20 DUP3 ADD SWAP1 POP DUP2 DUP2 SUB PUSH1 0x0 DUP4 ADD MSTORE PUSH2 0x3DF DUP2 PUSH2 0x388 JUMP JUMPDEST SWAP1 POP SWAP2 SWAP1 POP JUMP JUMPDEST PUSH1 0x0 DUP3 DUP3 MSTORE PUSH1 0x20 DUP3 ADD SWAP1 POP SWAP3 SWAP2 POP POP JUMP JUMPDEST PUSH1 0x0 PUSH2 0x402 DUP3 PUSH2 0x51F JUMP JUMPDEST SWAP2 POP PUSH2 0x40D DUP4 PUSH2 0x51F JUMP JUMPDEST SWAP3 POP DUP2 PUSH32 0x7FFFFFFFFFFFFFFFFFFFFFFFFFFFFFFFFFFFFFFFFFFFFFFFFFFFFFFFFFFFFFFF SUB DUP4 SGT PUSH1 0x0 DUP4 SLT ISZERO AND ISZERO PUSH2 0x448 JUMPI PUSH2 0x447 PUSH2 0x529 JUMP JUMPDEST JUMPDEST DUP2 PUSH32 0x8000000000000000000000000000000000000000000000000000000000000000 SUB DUP4 SLT PUSH1 0x0 DUP4 SLT AND ISZERO PUSH2 0x480 JUMPI PUSH2 0x47F PUSH2 0x529 JUMP JUMPDEST JUMPDEST DUP3 DUP3 ADD SWAP1 POP SWAP3 SWAP2 POP POP JUMP JUMPDEST PUSH1 0x0 PUSH2 0x496 DUP3 PUSH2 0x51F JUMP JUMPDEST SWAP2 POP PUSH2 0x4A1 DUP4 PUSH2 0x51F JUMP JUMPDEST SWAP3 POP DUP3 PUSH32 0x8000000000000000000000000000000000000000000000000000000000000000 ADD DUP3 SLT PUSH1 0x0 DUP5 SLT ISZERO AND ISZERO PUSH2 0x4DC JUMPI PUSH2 0x4DB PUSH2 0x529 JUMP JUMPDEST JUMPDEST DUP3 PUSH32 0x7FFFFFFFFFFFFFFFFFFFFFFFFFFFFFFFFFFFFFFFFFFFFFFFFFFFFFFFFFFFFFFF ADD DUP3 SGT PUSH1 0x0 DUP5 SLT AND ISZERO PUSH2 0x514 JUMPI PUSH2 0x513 PUSH2 0x529 JUMP JUMPDEST JUMPDEST DUP3 DUP3 SUB SWAP1 POP SWAP3 SWAP2 POP POP JUMP JUMPDEST PUSH1 0x0 DUP2 SWAP1 POP SWAP2 SWAP1 POP JUMP JUMPDEST PUSH32 0x4E487B7100000000000000000000000000000000000000000000000000000000 PUSH1 0x0 MSTORE PUSH1 0x11 PUSH1 0x4 MSTORE PUSH1 0x24 PUSH1 0x0 REVERT JUMPDEST PUSH1 0x0 DUP1 REVERT JUMPDEST PUSH32 0x596F7520617265206E6F7420746865206F776E65720000000000000000000000 PUSH1 0x0 DUP3 ADD MSTORE POP JUMP JUMPDEST PUSH2 0x58F DUP2 PUSH2 0x51F JUMP JUMPDEST DUP2 EQ PUSH2 0x59A JUMPI PUSH1 0x0 DUP1 REVERT JUMPDEST POP JUMP INVALID LOG2 PUSH5 0x6970667358 0x22 SLT KECCAK256 0x5E 0xD9 0xFB PUSH4 0x7EFAD123 0xC7 PUSH13 0x53484F62BFC409947A90BD9465 DUP10 LOG2 PUSH22 0x7FBCAB486DDF64736F6C634300080700330000000000 "
				},
				"gasEstimates": {
					"creation": {
						"codeDepositCost": "298200",
						"executionCost": "24603",
						"totalCost": "322803"
					},
					"external": {
						"add(int256)": "infinite",
						"getCount()": "4607",
						"subtract(int256)": "infinite"
					}
				},
				"methodIdentifiers": {
					"add(int256)": "87db03b7",
					"getCount()": "a87d942c",
					"subtract(int256)": "ae0f6166"
				}
			},
			"storageLayout": {
				"storage": [
					{
						"astId": 3,
						"contract": "contracts/RestrictedCount.sol:RestrictedCount",
						"label": "owner",
						"offset": 0,
						"slot": "0",
						"type": "t_address"
					},
					{
						"astId": 5,
						"contract": "contracts/RestrictedCount.sol:RestrictedCount",
						"label": "count",
						"offset": 0,
						"slot": "1",
						"type": "t_int256"
					}
				],
				"types": {
					"t_address": {
						"encoding": "inplace",
						"label": "address",
						"numberOfBytes": "20"
					},
					"t_int256": {
						"encoding": "inplace",
						"label": "int256",
						"numberOfBytes": "32"
					}
				}
			},
			"userdoc": {
				"kind": "user",
				"methods": {},
				"version": 1
			}
		}
	}
}