{
	"contracts/FriendsList.sol": {
		"Friends": {
			"abi": [
				{
					"inputs": [
						{
							"internalType": "address",
							"name": "friend",
							"type": "address"
						}
					],
					"name": "acceptFriendRequest",
					"outputs": [],
					"stateMutability": "nonpayable",
					"type": "function"
				},
				{
					"inputs": [],
					"name": "getFriendRequests",
					"outputs": [
						{
							"internalType": "address[]",
							"name": "",
							"type": "address[]"
						}
					],
					"stateMutability": "view",
					"type": "function"
				},
				{
					"inputs": [],
					"name": "getFriends",
					"outputs": [
						{
							"internalType": "address[]",
							"name": "",
							"type": "address[]"
						}
					],
					"stateMutability": "view",
					"type": "function"
				},
				{
					"inputs": [],
					"name": "getNumberOfFriends",
					"outputs": [
						{
							"internalType": "uint256",
							"name": "",
							"type": "uint256"
						}
					],
					"stateMutability": "view",
					"type": "function"
				},
				{
					"inputs": [
						{
							"internalType": "address",
							"name": "friend",
							"type": "address"
						}
					],
					"name": "sendFriendRequest",
					"outputs": [],
					"stateMutability": "nonpayable",
					"type": "function"
				}
			],
			"devdoc": {
				"kind": "dev",
				"methods": {},
				"version": 1
			},
			"evm": {
				"assembly": "    /* \"contracts/FriendsList.sol\":36:3054  contract Friends {... */\n  mstore(0x40, 0x80)\n  callvalue\n  dup1\n  iszero\n  tag_1\n  jumpi\n  0x00\n  dup1\n  revert\ntag_1:\n  pop\n  dataSize(sub_0)\n  dup1\n  dataOffset(sub_0)\n  0x00\n  codecopy\n  0x00\n  return\nstop\n\nsub_0: assembly {\n        /* \"contracts/FriendsList.sol\":36:3054  contract Friends {... */\n      mstore(0x40, 0x80)\n      callvalue\n      dup1\n      iszero\n      tag_1\n      jumpi\n      0x00\n      dup1\n      revert\n    tag_1:\n      pop\n      jumpi(tag_2, lt(calldatasize, 0x04))\n      shr(0xe0, calldataload(0x00))\n      dup1\n      0x1f8f7270\n      eq\n      tag_3\n      jumpi\n      dup1\n      0x67db8b68\n      eq\n      tag_4\n      jumpi\n      dup1\n      0x837b770a\n      eq\n      tag_5\n      jumpi\n      dup1\n      0xa9f56466\n      eq\n      tag_6\n      jumpi\n      dup1\n      0xd6688cbd\n      eq\n      tag_7\n      jumpi\n    tag_2:\n      0x00\n      dup1\n      revert\n        /* \"contracts/FriendsList.sol\":2941:3052  function getFriends() public view returns (address[] memory) {... */\n    tag_3:\n      tag_8\n      tag_9\n      jump\t// in\n    tag_8:\n      mload(0x40)\n      tag_10\n      swap2\n      swap1\n      tag_11\n      jump\t// in\n    tag_10:\n      mload(0x40)\n      dup1\n      swap2\n      sub\n      swap1\n      return\n        /* \"contracts/FriendsList.sol\":2222:2339  function getNumberOfFriends() public view returns (uint256) {... */\n    tag_4:\n      tag_12\n      tag_13\n      jump\t// in\n    tag_12:\n      mload(0x40)\n      tag_14\n      swap2\n      swap1\n      tag_15\n      jump\t// in\n    tag_14:\n      mload(0x40)\n      dup1\n      swap2\n      sub\n      swap1\n      return\n        /* \"contracts/FriendsList.sol\":2345:2610  function sendFriendRequest(address friend) public requestNotSent(friend) requestNotReceived(friend) notAlreadyFriends(friend) notSelf(friend) {... */\n    tag_5:\n      tag_16\n      0x04\n      dup1\n      calldatasize\n      sub\n      dup2\n      add\n      swap1\n      tag_17\n      swap2\n      swap1\n      tag_18\n      jump\t// in\n    tag_17:\n      tag_19\n      jump\t// in\n    tag_16:\n      stop\n        /* \"contracts/FriendsList.sol\":2616:2935  function acceptFriendRequest(address friend) public requestExists(friend) {... */\n    tag_6:\n      tag_20\n      0x04\n      dup1\n      calldatasize\n      sub\n      dup2\n      add\n      swap1\n      tag_21\n      swap2\n      swap1\n      tag_18\n      jump\t// in\n    tag_21:\n      tag_22\n      jump\t// in\n    tag_20:\n      stop\n        /* \"contracts/FriendsList.sol\":2091:2216  function getFriendRequests() public view returns (address[] memory) {... */\n    tag_7:\n      tag_23\n      tag_24\n      jump\t// in\n    tag_23:\n      mload(0x40)\n      tag_25\n      swap2\n      swap1\n      tag_11\n      jump\t// in\n    tag_25:\n      mload(0x40)\n      dup1\n      swap2\n      sub\n      swap1\n      return\n        /* \"contracts/FriendsList.sol\":2941:3052  function getFriends() public view returns (address[] memory) {... */\n    tag_9:\n        /* \"contracts/FriendsList.sol\":2984:3000  address[] memory */\n      0x60\n        /* \"contracts/FriendsList.sol\":3019:3025  people */\n      0x00\n        /* \"contracts/FriendsList.sol\":3019:3037  people[msg.sender] */\n      dup1\n        /* \"contracts/FriendsList.sol\":3026:3036  msg.sender */\n      caller\n        /* \"contracts/FriendsList.sol\":3019:3037  people[msg.sender] */\n      0xffffffffffffffffffffffffffffffffffffffff\n      and\n      0xffffffffffffffffffffffffffffffffffffffff\n      and\n      dup2\n      mstore\n      0x20\n      add\n      swap1\n      dup2\n      mstore\n      0x20\n      add\n      0x00\n      keccak256\n        /* \"contracts/FriendsList.sol\":3019:3045  people[msg.sender].friends */\n      0x00\n      add\n        /* \"contracts/FriendsList.sol\":3012:3045  return people[msg.sender].friends */\n      dup1\n      sload\n      dup1\n      0x20\n      mul\n      0x20\n      add\n      mload(0x40)\n      swap1\n      dup2\n      add\n      0x40\n      mstore\n      dup1\n      swap3\n      swap2\n      swap1\n      dup2\n      dup2\n      mstore\n      0x20\n      add\n      dup3\n      dup1\n      sload\n      dup1\n      iszero\n      tag_27\n      jumpi\n      0x20\n      mul\n      dup3\n      add\n      swap2\n      swap1\n      0x00\n      mstore\n      keccak256(0x00, 0x20)\n      swap1\n    tag_28:\n      dup2\n      0x00\n      swap1\n      sload\n      swap1\n      0x0100\n      exp\n      swap1\n      div\n      0xffffffffffffffffffffffffffffffffffffffff\n      and\n      0xffffffffffffffffffffffffffffffffffffffff\n      and\n      dup2\n      mstore\n      0x20\n      add\n      swap1\n      0x01\n      add\n      swap1\n      dup1\n      dup4\n      gt\n      tag_28\n      jumpi\n    tag_27:\n      pop\n      pop\n      pop\n      pop\n      pop\n      swap1\n      pop\n        /* \"contracts/FriendsList.sol\":2941:3052  function getFriends() public view returns (address[] memory) {... */\n      swap1\n      jump\t// out\n        /* \"contracts/FriendsList.sol\":2222:2339  function getNumberOfFriends() public view returns (uint256) {... */\n    tag_13:\n        /* \"contracts/FriendsList.sol\":2273:2280  uint256 */\n      0x00\n        /* \"contracts/FriendsList.sol\":2299:2305  people */\n      dup1\n        /* \"contracts/FriendsList.sol\":2299:2317  people[msg.sender] */\n      0x00\n        /* \"contracts/FriendsList.sol\":2306:2316  msg.sender */\n      caller\n        /* \"contracts/FriendsList.sol\":2299:2317  people[msg.sender] */\n      0xffffffffffffffffffffffffffffffffffffffff\n      and\n      0xffffffffffffffffffffffffffffffffffffffff\n      and\n      dup2\n      mstore\n      0x20\n      add\n      swap1\n      dup2\n      mstore\n      0x20\n      add\n      0x00\n      keccak256\n        /* \"contracts/FriendsList.sol\":2299:2325  people[msg.sender].friends */\n      0x00\n      add\n        /* \"contracts/FriendsList.sol\":2299:2332  people[msg.sender].friends.length */\n      dup1\n      sload\n      swap1\n      pop\n        /* \"contracts/FriendsList.sol\":2292:2332  return people[msg.sender].friends.length */\n      swap1\n      pop\n        /* \"contracts/FriendsList.sol\":2222:2339  function getNumberOfFriends() public view returns (uint256) {... */\n      swap1\n      jump\t// out\n        /* \"contracts/FriendsList.sol\":2345:2610  function sendFriendRequest(address friend) public requestNotSent(friend) requestNotReceived(friend) notAlreadyFriends(friend) notSelf(friend) {... */\n    tag_19:\n        /* \"contracts/FriendsList.sol\":2410:2416  friend */\n      dup1\n        /* \"contracts/FriendsList.sol\":1049:1078  address[] memory requestsSent */\n      0x00\n        /* \"contracts/FriendsList.sol\":1081:1087  people */\n      dup1\n        /* \"contracts/FriendsList.sol\":1081:1099  people[msg.sender] */\n      0x00\n        /* \"contracts/FriendsList.sol\":1088:1098  msg.sender */\n      caller\n        /* \"contracts/FriendsList.sol\":1081:1099  people[msg.sender] */\n      0xffffffffffffffffffffffffffffffffffffffff\n      and\n      0xffffffffffffffffffffffffffffffffffffffff\n      and\n      dup2\n      mstore\n      0x20\n      add\n      swap1\n      dup2\n      mstore\n      0x20\n      add\n      0x00\n      keccak256\n        /* \"contracts/FriendsList.sol\":1081:1118  people[msg.sender].friendRequestsSent */\n      0x02\n      add\n        /* \"contracts/FriendsList.sol\":1049:1118  address[] memory requestsSent = people[msg.sender].friendRequestsSent */\n      dup1\n      sload\n      dup1\n      0x20\n      mul\n      0x20\n      add\n      mload(0x40)\n      swap1\n      dup2\n      add\n      0x40\n      mstore\n      dup1\n      swap3\n      swap2\n      swap1\n      dup2\n      dup2\n      mstore\n      0x20\n      add\n      dup3\n      dup1\n      sload\n      dup1\n      iszero\n      tag_31\n      jumpi\n      0x20\n      mul\n      dup3\n      add\n      swap2\n      swap1\n      0x00\n      mstore\n      keccak256(0x00, 0x20)\n      swap1\n    tag_32:\n      dup2\n      0x00\n      swap1\n      sload\n      swap1\n      0x0100\n      exp\n      swap1\n      div\n      0xffffffffffffffffffffffffffffffffffffffff\n      and\n      0xffffffffffffffffffffffffffffffffffffffff\n      and\n      dup2\n      mstore\n      0x20\n      add\n      swap1\n      0x01\n      add\n      swap1\n      dup1\n      dup4\n      gt\n      tag_32\n      jumpi\n    tag_31:\n      pop\n      pop\n      pop\n      pop\n      pop\n      swap1\n      pop\n        /* \"contracts/FriendsList.sol\":1137:1172  arrayContains(requestsSent, friend) */\n      tag_33\n        /* \"contracts/FriendsList.sol\":1151:1163  requestsSent */\n      dup2\n        /* \"contracts/FriendsList.sol\":1165:1171  friend */\n      dup4\n        /* \"contracts/FriendsList.sol\":1137:1150  arrayContains */\n      tag_34\n        /* \"contracts/FriendsList.sol\":1137:1172  arrayContains(requestsSent, friend) */\n      jump\t// in\n    tag_33:\n        /* \"contracts/FriendsList.sol\":1136:1172  !arrayContains(requestsSent, friend) */\n      iszero\n        /* \"contracts/FriendsList.sol\":1128:1218  require(!arrayContains(requestsSent, friend), \"You have already sent this user a request\") */\n      tag_35\n      jumpi\n      mload(0x40)\n      0x08c379a000000000000000000000000000000000000000000000000000000000\n      dup2\n      mstore\n      0x04\n      add\n      tag_36\n      swap1\n      tag_37\n      jump\t// in\n    tag_36:\n      mload(0x40)\n      dup1\n      swap2\n      sub\n      swap1\n      revert\n    tag_35:\n        /* \"contracts/FriendsList.sol\":2437:2443  friend */\n      dup3\n        /* \"contracts/FriendsList.sol\":1296:1329  address[] memory requestsReceived */\n      0x00\n        /* \"contracts/FriendsList.sol\":1332:1338  people */\n      dup1\n        /* \"contracts/FriendsList.sol\":1332:1350  people[msg.sender] */\n      0x00\n        /* \"contracts/FriendsList.sol\":1339:1349  msg.sender */\n      caller\n        /* \"contracts/FriendsList.sol\":1332:1350  people[msg.sender] */\n      0xffffffffffffffffffffffffffffffffffffffff\n      and\n      0xffffffffffffffffffffffffffffffffffffffff\n      and\n      dup2\n      mstore\n      0x20\n      add\n      swap1\n      dup2\n      mstore\n      0x20\n      add\n      0x00\n      keccak256\n        /* \"contracts/FriendsList.sol\":1332:1365  people[msg.sender].friendRequests */\n      0x01\n      add\n        /* \"contracts/FriendsList.sol\":1296:1365  address[] memory requestsReceived = people[msg.sender].friendRequests */\n      dup1\n      sload\n      dup1\n      0x20\n      mul\n      0x20\n      add\n      mload(0x40)\n      swap1\n      dup2\n      add\n      0x40\n      mstore\n      dup1\n      swap3\n      swap2\n      swap1\n      dup2\n      dup2\n      mstore\n      0x20\n      add\n      dup3\n      dup1\n      sload\n      dup1\n      iszero\n      tag_39\n      jumpi\n      0x20\n      mul\n      dup3\n      add\n      swap2\n      swap1\n      0x00\n      mstore\n      keccak256(0x00, 0x20)\n      swap1\n    tag_40:\n      dup2\n      0x00\n      swap1\n      sload\n      swap1\n      0x0100\n      exp\n      swap1\n      div\n      0xffffffffffffffffffffffffffffffffffffffff\n      and\n      0xffffffffffffffffffffffffffffffffffffffff\n      and\n      dup2\n      mstore\n      0x20\n      add\n      swap1\n      0x01\n      add\n      swap1\n      dup1\n      dup4\n      gt\n      tag_40\n      jumpi\n    tag_39:\n      pop\n      pop\n      pop\n      pop\n      pop\n      swap1\n      pop\n        /* \"contracts/FriendsList.sol\":1384:1423  arrayContains(requestsReceived, friend) */\n      tag_41\n        /* \"contracts/FriendsList.sol\":1398:1414  requestsReceived */\n      dup2\n        /* \"contracts/FriendsList.sol\":1416:1422  friend */\n      dup4\n        /* \"contracts/FriendsList.sol\":1384:1397  arrayContains */\n      tag_34\n        /* \"contracts/FriendsList.sol\":1384:1423  arrayContains(requestsReceived, friend) */\n      jump\t// in\n    tag_41:\n        /* \"contracts/FriendsList.sol\":1383:1423  !arrayContains(requestsReceived, friend) */\n      iszero\n        /* \"contracts/FriendsList.sol\":1375:1468  require(!arrayContains(requestsReceived, friend), \"This user has already sent you a request\") */\n      tag_42\n      jumpi\n      mload(0x40)\n      0x08c379a000000000000000000000000000000000000000000000000000000000\n      dup2\n      mstore\n      0x04\n      add\n      tag_43\n      swap1\n      tag_44\n      jump\t// in\n    tag_43:\n      mload(0x40)\n      dup1\n      swap2\n      sub\n      swap1\n      revert\n    tag_42:\n        /* \"contracts/FriendsList.sol\":2463:2469  friend */\n      dup5\n        /* \"contracts/FriendsList.sol\":1785:1809  address[] memory friends */\n      0x00\n        /* \"contracts/FriendsList.sol\":1812:1818  people */\n      dup1\n        /* \"contracts/FriendsList.sol\":1812:1830  people[msg.sender] */\n      0x00\n        /* \"contracts/FriendsList.sol\":1819:1829  msg.sender */\n      caller\n        /* \"contracts/FriendsList.sol\":1812:1830  people[msg.sender] */\n      0xffffffffffffffffffffffffffffffffffffffff\n      and\n      0xffffffffffffffffffffffffffffffffffffffff\n      and\n      dup2\n      mstore\n      0x20\n      add\n      swap1\n      dup2\n      mstore\n      0x20\n      add\n      0x00\n      keccak256\n        /* \"contracts/FriendsList.sol\":1812:1838  people[msg.sender].friends */\n      0x00\n      add\n        /* \"contracts/FriendsList.sol\":1785:1838  address[] memory friends = people[msg.sender].friends */\n      dup1\n      sload\n      dup1\n      0x20\n      mul\n      0x20\n      add\n      mload(0x40)\n      swap1\n      dup2\n      add\n      0x40\n      mstore\n      dup1\n      swap3\n      swap2\n      swap1\n      dup2\n      dup2\n      mstore\n      0x20\n      add\n      dup3\n      dup1\n      sload\n      dup1\n      iszero\n      tag_46\n      jumpi\n      0x20\n      mul\n      dup3\n      add\n      swap2\n      swap1\n      0x00\n      mstore\n      keccak256(0x00, 0x20)\n      swap1\n    tag_47:\n      dup2\n      0x00\n      swap1\n      sload\n      swap1\n      0x0100\n      exp\n      swap1\n      div\n      0xffffffffffffffffffffffffffffffffffffffff\n      and\n      0xffffffffffffffffffffffffffffffffffffffff\n      and\n      dup2\n      mstore\n      0x20\n      add\n      swap1\n      0x01\n      add\n      swap1\n      dup1\n      dup4\n      gt\n      tag_47\n      jumpi\n    tag_46:\n      pop\n      pop\n      pop\n      pop\n      pop\n      swap1\n      pop\n        /* \"contracts/FriendsList.sol\":1857:1887  arrayContains(friends, friend) */\n      tag_48\n        /* \"contracts/FriendsList.sol\":1871:1878  friends */\n      dup2\n        /* \"contracts/FriendsList.sol\":1880:1886  friend */\n      dup4\n        /* \"contracts/FriendsList.sol\":1857:1870  arrayContains */\n      tag_34\n        /* \"contracts/FriendsList.sol\":1857:1887  arrayContains(friends, friend) */\n      jump\t// in\n    tag_48:\n        /* \"contracts/FriendsList.sol\":1856:1887  !arrayContains(friends, friend) */\n      iszero\n        /* \"contracts/FriendsList.sol\":1848:1930  require(!arrayContains(friends, friend), \"You are already friends with this user\") */\n      tag_49\n      jumpi\n      mload(0x40)\n      0x08c379a000000000000000000000000000000000000000000000000000000000\n      dup2\n      mstore\n      0x04\n      add\n      tag_50\n      swap1\n      tag_51\n      jump\t// in\n    tag_50:\n      mload(0x40)\n      dup1\n      swap2\n      sub\n      swap1\n      revert\n    tag_49:\n        /* \"contracts/FriendsList.sol\":2479:2485  friend */\n      dup7\n        /* \"contracts/FriendsList.sol\":2015:2025  msg.sender */\n      caller\n        /* \"contracts/FriendsList.sol\":2005:2025  friend != msg.sender */\n      0xffffffffffffffffffffffffffffffffffffffff\n      and\n        /* \"contracts/FriendsList.sol\":2005:2011  friend */\n      dup2\n        /* \"contracts/FriendsList.sol\":2005:2025  friend != msg.sender */\n      0xffffffffffffffffffffffffffffffffffffffff\n      and\n      eq\n      iszero\n        /* \"contracts/FriendsList.sol\":1997:2067  require(friend != msg.sender, \"You cannot send a request to yourself\") */\n      tag_53\n      jumpi\n      mload(0x40)\n      0x08c379a000000000000000000000000000000000000000000000000000000000\n      dup2\n      mstore\n      0x04\n      add\n      tag_54\n      swap1\n      tag_55\n      jump\t// in\n    tag_54:\n      mload(0x40)\n      dup1\n      swap2\n      sub\n      swap1\n      revert\n    tag_53:\n        /* \"contracts/FriendsList.sol\":2497:2503  people */\n      0x00\n        /* \"contracts/FriendsList.sol\":2497:2515  people[msg.sender] */\n      dup1\n        /* \"contracts/FriendsList.sol\":2504:2514  msg.sender */\n      caller\n        /* \"contracts/FriendsList.sol\":2497:2515  people[msg.sender] */\n      0xffffffffffffffffffffffffffffffffffffffff\n      and\n      0xffffffffffffffffffffffffffffffffffffffff\n      and\n      dup2\n      mstore\n      0x20\n      add\n      swap1\n      dup2\n      mstore\n      0x20\n      add\n      0x00\n      keccak256\n        /* \"contracts/FriendsList.sol\":2497:2534  people[msg.sender].friendRequestsSent */\n      0x02\n      add\n        /* \"contracts/FriendsList.sol\":2540:2546  friend */\n      dup9\n        /* \"contracts/FriendsList.sol\":2497:2547  people[msg.sender].friendRequestsSent.push(friend) */\n      swap1\n      dup1\n      0x01\n      dup2\n      sload\n      add\n      dup1\n      dup3\n      sstore\n      dup1\n      swap2\n      pop\n      pop\n      0x01\n      swap1\n      sub\n      swap1\n      0x00\n      mstore\n      keccak256(0x00, 0x20)\n      add\n      0x00\n      swap1\n      swap2\n      swap1\n      swap2\n      swap1\n      swap2\n      0x0100\n      exp\n      dup2\n      sload\n      dup2\n      0xffffffffffffffffffffffffffffffffffffffff\n      mul\n      not\n      and\n      swap1\n      dup4\n      0xffffffffffffffffffffffffffffffffffffffff\n      and\n      mul\n      or\n      swap1\n      sstore\n      pop\n        /* \"contracts/FriendsList.sol\":2557:2563  people */\n      0x00\n        /* \"contracts/FriendsList.sol\":2557:2571  people[friend] */\n      dup1\n        /* \"contracts/FriendsList.sol\":2564:2570  friend */\n      dup10\n        /* \"contracts/FriendsList.sol\":2557:2571  people[friend] */\n      0xffffffffffffffffffffffffffffffffffffffff\n      and\n      0xffffffffffffffffffffffffffffffffffffffff\n      and\n      dup2\n      mstore\n      0x20\n      add\n      swap1\n      dup2\n      mstore\n      0x20\n      add\n      0x00\n      keccak256\n        /* \"contracts/FriendsList.sol\":2557:2586  people[friend].friendRequests */\n      0x01\n      add\n        /* \"contracts/FriendsList.sol\":2592:2602  msg.sender */\n      caller\n        /* \"contracts/FriendsList.sol\":2557:2603  people[friend].friendRequests.push(msg.sender) */\n      swap1\n      dup1\n      0x01\n      dup2\n      sload\n      add\n      dup1\n      dup3\n      sstore\n      dup1\n      swap2\n      pop\n      pop\n      0x01\n      swap1\n      sub\n      swap1\n      0x00\n      mstore\n      keccak256(0x00, 0x20)\n      add\n      0x00\n      swap1\n      swap2\n      swap1\n      swap2\n      swap1\n      swap2\n      0x0100\n      exp\n      dup2\n      sload\n      dup2\n      0xffffffffffffffffffffffffffffffffffffffff\n      mul\n      not\n      and\n      swap1\n      dup4\n      0xffffffffffffffffffffffffffffffffffffffff\n      and\n      mul\n      or\n      swap1\n      sstore\n      pop\n        /* \"contracts/FriendsList.sol\":1940:1941  _ */\n      pop\n        /* \"contracts/FriendsList.sol\":1775:1948  {... */\n      pop\n        /* \"contracts/FriendsList.sol\":1478:1479  _ */\n      pop\n        /* \"contracts/FriendsList.sol\":1286:1486  {... */\n      pop\n        /* \"contracts/FriendsList.sol\":1228:1229  _ */\n      pop\n        /* \"contracts/FriendsList.sol\":1039:1236  {... */\n      pop\n        /* \"contracts/FriendsList.sol\":2345:2610  function sendFriendRequest(address friend) public requestNotSent(friend) requestNotReceived(friend) notAlreadyFriends(friend) notSelf(friend) {... */\n      pop\n      pop\n      jump\t// out\n        /* \"contracts/FriendsList.sol\":2616:2935  function acceptFriendRequest(address friend) public requestExists(friend) {... */\n    tag_22:\n        /* \"contracts/FriendsList.sol\":2682:2688  friend */\n      dup1\n        /* \"contracts/FriendsList.sol\":1541:1574  address[] memory requestsReceived */\n      0x00\n        /* \"contracts/FriendsList.sol\":1577:1583  people */\n      dup1\n        /* \"contracts/FriendsList.sol\":1577:1595  people[msg.sender] */\n      0x00\n        /* \"contracts/FriendsList.sol\":1584:1594  msg.sender */\n      caller\n        /* \"contracts/FriendsList.sol\":1577:1595  people[msg.sender] */\n      0xffffffffffffffffffffffffffffffffffffffff\n      and\n      0xffffffffffffffffffffffffffffffffffffffff\n      and\n      dup2\n      mstore\n      0x20\n      add\n      swap1\n      dup2\n      mstore\n      0x20\n      add\n      0x00\n      keccak256\n        /* \"contracts/FriendsList.sol\":1577:1610  people[msg.sender].friendRequests */\n      0x01\n      add\n        /* \"contracts/FriendsList.sol\":1541:1610  address[] memory requestsReceived = people[msg.sender].friendRequests */\n      dup1\n      sload\n      dup1\n      0x20\n      mul\n      0x20\n      add\n      mload(0x40)\n      swap1\n      dup2\n      add\n      0x40\n      mstore\n      dup1\n      swap3\n      swap2\n      swap1\n      dup2\n      dup2\n      mstore\n      0x20\n      add\n      dup3\n      dup1\n      sload\n      dup1\n      iszero\n      tag_60\n      jumpi\n      0x20\n      mul\n      dup3\n      add\n      swap2\n      swap1\n      0x00\n      mstore\n      keccak256(0x00, 0x20)\n      swap1\n    tag_61:\n      dup2\n      0x00\n      swap1\n      sload\n      swap1\n      0x0100\n      exp\n      swap1\n      div\n      0xffffffffffffffffffffffffffffffffffffffff\n      and\n      0xffffffffffffffffffffffffffffffffffffffff\n      and\n      dup2\n      mstore\n      0x20\n      add\n      swap1\n      0x01\n      add\n      swap1\n      dup1\n      dup4\n      gt\n      tag_61\n      jumpi\n    tag_60:\n      pop\n      pop\n      pop\n      pop\n      pop\n      swap1\n      pop\n        /* \"contracts/FriendsList.sol\":1628:1667  arrayContains(requestsReceived, friend) */\n      tag_62\n        /* \"contracts/FriendsList.sol\":1642:1658  requestsReceived */\n      dup2\n        /* \"contracts/FriendsList.sol\":1660:1666  friend */\n      dup4\n        /* \"contracts/FriendsList.sol\":1628:1641  arrayContains */\n      tag_34\n        /* \"contracts/FriendsList.sol\":1628:1667  arrayContains(requestsReceived, friend) */\n      jump\t// in\n    tag_62:\n        /* \"contracts/FriendsList.sol\":1620:1708  require(arrayContains(requestsReceived, friend), \"This user has not sent you a request\") */\n      tag_63\n      jumpi\n      mload(0x40)\n      0x08c379a000000000000000000000000000000000000000000000000000000000\n      dup2\n      mstore\n      0x04\n      add\n      tag_64\n      swap1\n      tag_65\n      jump\t// in\n    tag_64:\n      mload(0x40)\n      dup1\n      swap2\n      sub\n      swap1\n      revert\n    tag_63:\n        /* \"contracts/FriendsList.sol\":2700:2758  removeFromArray(people[msg.sender].friendRequests, friend) */\n      tag_67\n        /* \"contracts/FriendsList.sol\":2716:2722  people */\n      0x00\n        /* \"contracts/FriendsList.sol\":2716:2734  people[msg.sender] */\n      dup1\n        /* \"contracts/FriendsList.sol\":2723:2733  msg.sender */\n      caller\n        /* \"contracts/FriendsList.sol\":2716:2734  people[msg.sender] */\n      0xffffffffffffffffffffffffffffffffffffffff\n      and\n      0xffffffffffffffffffffffffffffffffffffffff\n      and\n      dup2\n      mstore\n      0x20\n      add\n      swap1\n      dup2\n      mstore\n      0x20\n      add\n      0x00\n      keccak256\n        /* \"contracts/FriendsList.sol\":2716:2749  people[msg.sender].friendRequests */\n      0x01\n      add\n        /* \"contracts/FriendsList.sol\":2751:2757  friend */\n      dup5\n        /* \"contracts/FriendsList.sol\":2700:2715  removeFromArray */\n      tag_68\n        /* \"contracts/FriendsList.sol\":2700:2758  removeFromArray(people[msg.sender].friendRequests, friend) */\n      jump\t// in\n    tag_67:\n        /* \"contracts/FriendsList.sol\":2768:2830  removeFromArray(people[friend].friendRequestsSent, msg.sender) */\n      tag_69\n        /* \"contracts/FriendsList.sol\":2784:2790  people */\n      0x00\n        /* \"contracts/FriendsList.sol\":2784:2798  people[friend] */\n      dup1\n        /* \"contracts/FriendsList.sol\":2791:2797  friend */\n      dup6\n        /* \"contracts/FriendsList.sol\":2784:2798  people[friend] */\n      0xffffffffffffffffffffffffffffffffffffffff\n      and\n      0xffffffffffffffffffffffffffffffffffffffff\n      and\n      dup2\n      mstore\n      0x20\n      add\n      swap1\n      dup2\n      mstore\n      0x20\n      add\n      0x00\n      keccak256\n        /* \"contracts/FriendsList.sol\":2784:2817  people[friend].friendRequestsSent */\n      0x02\n      add\n        /* \"contracts/FriendsList.sol\":2819:2829  msg.sender */\n      caller\n        /* \"contracts/FriendsList.sol\":2768:2783  removeFromArray */\n      tag_68\n        /* \"contracts/FriendsList.sol\":2768:2830  removeFromArray(people[friend].friendRequestsSent, msg.sender) */\n      jump\t// in\n    tag_69:\n        /* \"contracts/FriendsList.sol\":2840:2846  people */\n      0x00\n        /* \"contracts/FriendsList.sol\":2840:2858  people[msg.sender] */\n      dup1\n        /* \"contracts/FriendsList.sol\":2847:2857  msg.sender */\n      caller\n        /* \"contracts/FriendsList.sol\":2840:2858  people[msg.sender] */\n      0xffffffffffffffffffffffffffffffffffffffff\n      and\n      0xffffffffffffffffffffffffffffffffffffffff\n      and\n      dup2\n      mstore\n      0x20\n      add\n      swap1\n      dup2\n      mstore\n      0x20\n      add\n      0x00\n      keccak256\n        /* \"contracts/FriendsList.sol\":2840:2866  people[msg.sender].friends */\n      0x00\n      add\n        /* \"contracts/FriendsList.sol\":2872:2878  friend */\n      dup4\n        /* \"contracts/FriendsList.sol\":2840:2879  people[msg.sender].friends.push(friend) */\n      swap1\n      dup1\n      0x01\n      dup2\n      sload\n      add\n      dup1\n      dup3\n      sstore\n      dup1\n      swap2\n      pop\n      pop\n      0x01\n      swap1\n      sub\n      swap1\n      0x00\n      mstore\n      keccak256(0x00, 0x20)\n      add\n      0x00\n      swap1\n      swap2\n      swap1\n      swap2\n      swap1\n      swap2\n      0x0100\n      exp\n      dup2\n      sload\n      dup2\n      0xffffffffffffffffffffffffffffffffffffffff\n      mul\n      not\n      and\n      swap1\n      dup4\n      0xffffffffffffffffffffffffffffffffffffffff\n      and\n      mul\n      or\n      swap1\n      sstore\n      pop\n        /* \"contracts/FriendsList.sol\":2889:2895  people */\n      0x00\n        /* \"contracts/FriendsList.sol\":2889:2903  people[friend] */\n      dup1\n        /* \"contracts/FriendsList.sol\":2896:2902  friend */\n      dup5\n        /* \"contracts/FriendsList.sol\":2889:2903  people[friend] */\n      0xffffffffffffffffffffffffffffffffffffffff\n      and\n      0xffffffffffffffffffffffffffffffffffffffff\n      and\n      dup2\n      mstore\n      0x20\n      add\n      swap1\n      dup2\n      mstore\n      0x20\n      add\n      0x00\n      keccak256\n        /* \"contracts/FriendsList.sol\":2889:2911  people[friend].friends */\n      0x00\n      add\n        /* \"contracts/FriendsList.sol\":2917:2927  msg.sender */\n      caller\n        /* \"contracts/FriendsList.sol\":2889:2928  people[friend].friends.push(msg.sender) */\n      swap1\n      dup1\n      0x01\n      dup2\n      sload\n      add\n      dup1\n      dup3\n      sstore\n      dup1\n      swap2\n      pop\n      pop\n      0x01\n      swap1\n      sub\n      swap1\n      0x00\n      mstore\n      keccak256(0x00, 0x20)\n      add\n      0x00\n      swap1\n      swap2\n      swap1\n      swap2\n      swap1\n      swap2\n      0x0100\n      exp\n      dup2\n      sload\n      dup2\n      0xffffffffffffffffffffffffffffffffffffffff\n      mul\n      not\n      and\n      swap1\n      dup4\n      0xffffffffffffffffffffffffffffffffffffffff\n      and\n      mul\n      or\n      swap1\n      sstore\n      pop\n        /* \"contracts/FriendsList.sol\":1531:1726  {... */\n      pop\n        /* \"contracts/FriendsList.sol\":2616:2935  function acceptFriendRequest(address friend) public requestExists(friend) {... */\n      pop\n      pop\n      jump\t// out\n        /* \"contracts/FriendsList.sol\":2091:2216  function getFriendRequests() public view returns (address[] memory) {... */\n    tag_24:\n        /* \"contracts/FriendsList.sol\":2141:2157  address[] memory */\n      0x60\n        /* \"contracts/FriendsList.sol\":2176:2182  people */\n      0x00\n        /* \"contracts/FriendsList.sol\":2176:2194  people[msg.sender] */\n      dup1\n        /* \"contracts/FriendsList.sol\":2183:2193  msg.sender */\n      caller\n        /* \"contracts/FriendsList.sol\":2176:2194  people[msg.sender] */\n      0xffffffffffffffffffffffffffffffffffffffff\n      and\n      0xffffffffffffffffffffffffffffffffffffffff\n      and\n      dup2\n      mstore\n      0x20\n      add\n      swap1\n      dup2\n      mstore\n      0x20\n      add\n      0x00\n      keccak256\n        /* \"contracts/FriendsList.sol\":2176:2209  people[msg.sender].friendRequests */\n      0x01\n      add\n        /* \"contracts/FriendsList.sol\":2169:2209  return people[msg.sender].friendRequests */\n      dup1\n      sload\n      dup1\n      0x20\n      mul\n      0x20\n      add\n      mload(0x40)\n      swap1\n      dup2\n      add\n      0x40\n      mstore\n      dup1\n      swap3\n      swap2\n      swap1\n      dup2\n      dup2\n      mstore\n      0x20\n      add\n      dup3\n      dup1\n      sload\n      dup1\n      iszero\n      tag_73\n      jumpi\n      0x20\n      mul\n      dup3\n      add\n      swap2\n      swap1\n      0x00\n      mstore\n      keccak256(0x00, 0x20)\n      swap1\n    tag_74:\n      dup2\n      0x00\n      swap1\n      sload\n      swap1\n      0x0100\n      exp\n      swap1\n      div\n      0xffffffffffffffffffffffffffffffffffffffff\n      and\n      0xffffffffffffffffffffffffffffffffffffffff\n      and\n      dup2\n      mstore\n      0x20\n      add\n      swap1\n      0x01\n      add\n      swap1\n      dup1\n      dup4\n      gt\n      tag_74\n      jumpi\n    tag_73:\n      pop\n      pop\n      pop\n      pop\n      pop\n      swap1\n      pop\n        /* \"contracts/FriendsList.sol\":2091:2216  function getFriendRequests() public view returns (address[] memory) {... */\n      swap1\n      jump\t// out\n        /* \"contracts/FriendsList.sol\":253:522  function arrayContains(address[] memory array, address target) internal pure returns (bool) {... */\n    tag_34:\n        /* \"contracts/FriendsList.sol\":339:343  bool */\n      0x00\n        /* \"contracts/FriendsList.sol\":360:371  uint256 idx */\n      dup1\n        /* \"contracts/FriendsList.sol\":355:494  for (uint256 idx; idx < array.length; idx++) {... */\n    tag_76:\n        /* \"contracts/FriendsList.sol\":379:384  array */\n      dup4\n        /* \"contracts/FriendsList.sol\":379:391  array.length */\n      mload\n        /* \"contracts/FriendsList.sol\":373:376  idx */\n      dup2\n        /* \"contracts/FriendsList.sol\":373:391  idx < array.length */\n      lt\n        /* \"contracts/FriendsList.sol\":355:494  for (uint256 idx; idx < array.length; idx++) {... */\n      iszero\n      tag_77\n      jumpi\n        /* \"contracts/FriendsList.sol\":432:438  target */\n      dup3\n        /* \"contracts/FriendsList.sol\":418:438  array[idx] == target */\n      0xffffffffffffffffffffffffffffffffffffffff\n      and\n        /* \"contracts/FriendsList.sol\":418:423  array */\n      dup5\n        /* \"contracts/FriendsList.sol\":424:427  idx */\n      dup3\n        /* \"contracts/FriendsList.sol\":418:428  array[idx] */\n      dup2\n      mload\n      dup2\n      lt\n      tag_79\n      jumpi\n      tag_80\n      tag_81\n      jump\t// in\n    tag_80:\n    tag_79:\n      0x20\n      mul\n      0x20\n      add\n      add\n      mload\n        /* \"contracts/FriendsList.sol\":418:438  array[idx] == target */\n      0xffffffffffffffffffffffffffffffffffffffff\n      and\n      eq\n        /* \"contracts/FriendsList.sol\":414:484  if (array[idx] == target) {... */\n      iszero\n      tag_82\n      jumpi\n        /* \"contracts/FriendsList.sol\":465:469  true */\n      0x01\n        /* \"contracts/FriendsList.sol\":458:469  return true */\n      swap2\n      pop\n      pop\n      jump(tag_75)\n        /* \"contracts/FriendsList.sol\":414:484  if (array[idx] == target) {... */\n    tag_82:\n        /* \"contracts/FriendsList.sol\":393:398  idx++ */\n      dup1\n      dup1\n      tag_83\n      swap1\n      tag_84\n      jump\t// in\n    tag_83:\n      swap2\n      pop\n      pop\n        /* \"contracts/FriendsList.sol\":355:494  for (uint256 idx; idx < array.length; idx++) {... */\n      jump(tag_76)\n    tag_77:\n      pop\n        /* \"contracts/FriendsList.sol\":510:515  false */\n      0x00\n        /* \"contracts/FriendsList.sol\":503:515  return false */\n      swap1\n      pop\n        /* \"contracts/FriendsList.sol\":253:522  function arrayContains(address[] memory array, address target) internal pure returns (bool) {... */\n    tag_75:\n      swap3\n      swap2\n      pop\n      pop\n      jump\t// out\n        /* \"contracts/FriendsList.sol\":528:993  function removeFromArray(address[] storage array, address target) internal {... */\n    tag_68:\n        /* \"contracts/FriendsList.sol\":613:630  uint256 targetIdx */\n      0x00\n        /* \"contracts/FriendsList.sol\":645:656  uint256 idx */\n      dup1\n        /* \"contracts/FriendsList.sol\":640:806  for (uint256 idx; idx < array.length; idx++) {... */\n    tag_86:\n        /* \"contracts/FriendsList.sol\":664:669  array */\n      dup4\n        /* \"contracts/FriendsList.sol\":664:676  array.length */\n      dup1\n      sload\n      swap1\n      pop\n        /* \"contracts/FriendsList.sol\":658:661  idx */\n      dup2\n        /* \"contracts/FriendsList.sol\":658:676  idx < array.length */\n      lt\n        /* \"contracts/FriendsList.sol\":640:806  for (uint256 idx; idx < array.length; idx++) {... */\n      iszero\n      tag_87\n      jumpi\n        /* \"contracts/FriendsList.sol\":717:723  target */\n      dup3\n        /* \"contracts/FriendsList.sol\":703:723  array[idx] == target */\n      0xffffffffffffffffffffffffffffffffffffffff\n      and\n        /* \"contracts/FriendsList.sol\":703:708  array */\n      dup5\n        /* \"contracts/FriendsList.sol\":709:712  idx */\n      dup3\n        /* \"contracts/FriendsList.sol\":703:713  array[idx] */\n      dup2\n      sload\n      dup2\n      lt\n      tag_89\n      jumpi\n      tag_90\n      tag_81\n      jump\t// in\n    tag_90:\n    tag_89:\n      swap1\n      0x00\n      mstore\n      keccak256(0x00, 0x20)\n      add\n      0x00\n      swap1\n      sload\n      swap1\n      0x0100\n      exp\n      swap1\n      div\n      0xffffffffffffffffffffffffffffffffffffffff\n      and\n        /* \"contracts/FriendsList.sol\":703:723  array[idx] == target */\n      0xffffffffffffffffffffffffffffffffffffffff\n      and\n      eq\n        /* \"contracts/FriendsList.sol\":699:796  if (array[idx] == target) {... */\n      iszero\n      tag_92\n      jumpi\n        /* \"contracts/FriendsList.sol\":755:758  idx */\n      dup1\n        /* \"contracts/FriendsList.sol\":743:758  targetIdx = idx */\n      swap2\n      pop\n        /* \"contracts/FriendsList.sol\":776:781  break */\n      jump(tag_87)\n        /* \"contracts/FriendsList.sol\":699:796  if (array[idx] == target) {... */\n    tag_92:\n        /* \"contracts/FriendsList.sol\":678:683  idx++ */\n      dup1\n      dup1\n      tag_93\n      swap1\n      tag_84\n      jump\t// in\n    tag_93:\n      swap2\n      pop\n      pop\n        /* \"contracts/FriendsList.sol\":640:806  for (uint256 idx; idx < array.length; idx++) {... */\n      jump(tag_86)\n    tag_87:\n      pop\n        /* \"contracts/FriendsList.sol\":816:831  uint256 lastIdx */\n      0x00\n        /* \"contracts/FriendsList.sol\":849:850  1 */\n      0x01\n        /* \"contracts/FriendsList.sol\":834:839  array */\n      dup5\n        /* \"contracts/FriendsList.sol\":834:846  array.length */\n      dup1\n      sload\n      swap1\n      pop\n        /* \"contracts/FriendsList.sol\":834:850  array.length - 1 */\n      tag_94\n      swap2\n      swap1\n      tag_95\n      jump\t// in\n    tag_94:\n        /* \"contracts/FriendsList.sol\":816:850  uint256 lastIdx = array.length - 1 */\n      swap1\n      pop\n        /* \"contracts/FriendsList.sol\":860:877  address lastValue */\n      0x00\n        /* \"contracts/FriendsList.sol\":880:885  array */\n      dup5\n        /* \"contracts/FriendsList.sol\":886:893  lastIdx */\n      dup3\n        /* \"contracts/FriendsList.sol\":880:894  array[lastIdx] */\n      dup2\n      sload\n      dup2\n      lt\n      tag_96\n      jumpi\n      tag_97\n      tag_81\n      jump\t// in\n    tag_97:\n    tag_96:\n      swap1\n      0x00\n      mstore\n      keccak256(0x00, 0x20)\n      add\n      0x00\n      swap1\n      sload\n      swap1\n      0x0100\n      exp\n      swap1\n      div\n      0xffffffffffffffffffffffffffffffffffffffff\n      and\n        /* \"contracts/FriendsList.sol\":860:894  address lastValue = array[lastIdx] */\n      swap1\n      pop\n        /* \"contracts/FriendsList.sol\":921:927  target */\n      dup4\n        /* \"contracts/FriendsList.sol\":904:909  array */\n      dup6\n        /* \"contracts/FriendsList.sol\":910:917  lastIdx */\n      dup4\n        /* \"contracts/FriendsList.sol\":904:918  array[lastIdx] */\n      dup2\n      sload\n      dup2\n      lt\n      tag_99\n      jumpi\n      tag_100\n      tag_81\n      jump\t// in\n    tag_100:\n    tag_99:\n      swap1\n      0x00\n      mstore\n      keccak256(0x00, 0x20)\n      add\n      0x00\n        /* \"contracts/FriendsList.sol\":904:927  array[lastIdx] = target */\n      0x0100\n      exp\n      dup2\n      sload\n      dup2\n      0xffffffffffffffffffffffffffffffffffffffff\n      mul\n      not\n      and\n      swap1\n      dup4\n      0xffffffffffffffffffffffffffffffffffffffff\n      and\n      mul\n      or\n      swap1\n      sstore\n      pop\n        /* \"contracts/FriendsList.sol\":956:965  lastValue */\n      dup1\n        /* \"contracts/FriendsList.sol\":937:942  array */\n      dup6\n        /* \"contracts/FriendsList.sol\":943:952  targetIdx */\n      dup5\n        /* \"contracts/FriendsList.sol\":937:953  array[targetIdx] */\n      dup2\n      sload\n      dup2\n      lt\n      tag_102\n      jumpi\n      tag_103\n      tag_81\n      jump\t// in\n    tag_103:\n    tag_102:\n      swap1\n      0x00\n      mstore\n      keccak256(0x00, 0x20)\n      add\n      0x00\n        /* \"contracts/FriendsList.sol\":937:965  array[targetIdx] = lastValue */\n      0x0100\n      exp\n      dup2\n      sload\n      dup2\n      0xffffffffffffffffffffffffffffffffffffffff\n      mul\n      not\n      and\n      swap1\n      dup4\n      0xffffffffffffffffffffffffffffffffffffffff\n      and\n      mul\n      or\n      swap1\n      sstore\n      pop\n        /* \"contracts/FriendsList.sol\":975:980  array */\n      dup5\n        /* \"contracts/FriendsList.sol\":975:986  array.pop() */\n      dup1\n      sload\n      dup1\n      tag_105\n      jumpi\n      tag_106\n      tag_107\n      jump\t// in\n    tag_106:\n    tag_105:\n      0x01\n      swap1\n      sub\n      dup2\n      dup2\n      swap1\n      0x00\n      mstore\n      keccak256(0x00, 0x20)\n      add\n      exp(0x0100, 0x00)\n      dup2\n      sload\n      swap1\n      0xffffffffffffffffffffffffffffffffffffffff\n      mul\n      not\n      and\n      swap1\n      sstore\n      swap1\n      sstore\n        /* \"contracts/FriendsList.sol\":603:993  {... */\n      pop\n      pop\n      pop\n        /* \"contracts/FriendsList.sol\":528:993  function removeFromArray(address[] storage array, address target) internal {... */\n      pop\n      pop\n      jump\t// out\n        /* \"#utility.yul\":7:146   */\n    tag_110:\n        /* \"#utility.yul\":53:58   */\n      0x00\n        /* \"#utility.yul\":91:97   */\n      dup2\n        /* \"#utility.yul\":78:98   */\n      calldataload\n        /* \"#utility.yul\":69:98   */\n      swap1\n      pop\n        /* \"#utility.yul\":107:140   */\n      tag_112\n        /* \"#utility.yul\":134:139   */\n      dup2\n        /* \"#utility.yul\":107:140   */\n      tag_113\n      jump\t// in\n    tag_112:\n        /* \"#utility.yul\":7:146   */\n      swap3\n      swap2\n      pop\n      pop\n      jump\t// out\n        /* \"#utility.yul\":152:481   */\n    tag_18:\n        /* \"#utility.yul\":211:217   */\n      0x00\n        /* \"#utility.yul\":260:262   */\n      0x20\n        /* \"#utility.yul\":248:257   */\n      dup3\n        /* \"#utility.yul\":239:246   */\n      dup5\n        /* \"#utility.yul\":235:258   */\n      sub\n        /* \"#utility.yul\":231:263   */\n      slt\n        /* \"#utility.yul\":228:347   */\n      iszero\n      tag_115\n      jumpi\n        /* \"#utility.yul\":266:345   */\n      tag_116\n      tag_117\n      jump\t// in\n    tag_116:\n        /* \"#utility.yul\":228:347   */\n    tag_115:\n        /* \"#utility.yul\":386:387   */\n      0x00\n        /* \"#utility.yul\":411:464   */\n      tag_118\n        /* \"#utility.yul\":456:463   */\n      dup5\n        /* \"#utility.yul\":447:453   */\n      dup3\n        /* \"#utility.yul\":436:445   */\n      dup6\n        /* \"#utility.yul\":432:454   */\n      add\n        /* \"#utility.yul\":411:464   */\n      tag_110\n      jump\t// in\n    tag_118:\n        /* \"#utility.yul\":401:464   */\n      swap2\n      pop\n        /* \"#utility.yul\":357:474   */\n      pop\n        /* \"#utility.yul\":152:481   */\n      swap3\n      swap2\n      pop\n      pop\n      jump\t// out\n        /* \"#utility.yul\":487:666   */\n    tag_119:\n        /* \"#utility.yul\":556:566   */\n      0x00\n        /* \"#utility.yul\":577:623   */\n      tag_121\n        /* \"#utility.yul\":619:622   */\n      dup4\n        /* \"#utility.yul\":611:617   */\n      dup4\n        /* \"#utility.yul\":577:623   */\n      tag_122\n      jump\t// in\n    tag_121:\n        /* \"#utility.yul\":655:659   */\n      0x20\n        /* \"#utility.yul\":650:653   */\n      dup4\n        /* \"#utility.yul\":646:660   */\n      add\n        /* \"#utility.yul\":632:660   */\n      swap1\n      pop\n        /* \"#utility.yul\":487:666   */\n      swap3\n      swap2\n      pop\n      pop\n      jump\t// out\n        /* \"#utility.yul\":672:780   */\n    tag_122:\n        /* \"#utility.yul\":749:773   */\n      tag_124\n        /* \"#utility.yul\":767:772   */\n      dup2\n        /* \"#utility.yul\":749:773   */\n      tag_125\n      jump\t// in\n    tag_124:\n        /* \"#utility.yul\":744:747   */\n      dup3\n        /* \"#utility.yul\":737:774   */\n      mstore\n        /* \"#utility.yul\":672:780   */\n      pop\n      pop\n      jump\t// out\n        /* \"#utility.yul\":816:1548   */\n    tag_126:\n        /* \"#utility.yul\":935:938   */\n      0x00\n        /* \"#utility.yul\":964:1018   */\n      tag_128\n        /* \"#utility.yul\":1012:1017   */\n      dup3\n        /* \"#utility.yul\":964:1018   */\n      tag_129\n      jump\t// in\n    tag_128:\n        /* \"#utility.yul\":1034:1120   */\n      tag_130\n        /* \"#utility.yul\":1113:1119   */\n      dup2\n        /* \"#utility.yul\":1108:1111   */\n      dup6\n        /* \"#utility.yul\":1034:1120   */\n      tag_131\n      jump\t// in\n    tag_130:\n        /* \"#utility.yul\":1027:1120   */\n      swap4\n      pop\n        /* \"#utility.yul\":1144:1200   */\n      tag_132\n        /* \"#utility.yul\":1194:1199   */\n      dup4\n        /* \"#utility.yul\":1144:1200   */\n      tag_133\n      jump\t// in\n    tag_132:\n        /* \"#utility.yul\":1223:1230   */\n      dup1\n        /* \"#utility.yul\":1254:1255   */\n      0x00\n        /* \"#utility.yul\":1239:1523   */\n    tag_134:\n        /* \"#utility.yul\":1264:1270   */\n      dup4\n        /* \"#utility.yul\":1261:1262   */\n      dup2\n        /* \"#utility.yul\":1258:1271   */\n      lt\n        /* \"#utility.yul\":1239:1523   */\n      iszero\n      tag_136\n      jumpi\n        /* \"#utility.yul\":1340:1346   */\n      dup2\n        /* \"#utility.yul\":1334:1347   */\n      mload\n        /* \"#utility.yul\":1367:1430   */\n      tag_137\n        /* \"#utility.yul\":1426:1429   */\n      dup9\n        /* \"#utility.yul\":1411:1424   */\n      dup3\n        /* \"#utility.yul\":1367:1430   */\n      tag_119\n      jump\t// in\n    tag_137:\n        /* \"#utility.yul\":1360:1430   */\n      swap8\n      pop\n        /* \"#utility.yul\":1453:1513   */\n      tag_138\n        /* \"#utility.yul\":1506:1512   */\n      dup4\n        /* \"#utility.yul\":1453:1513   */\n      tag_139\n      jump\t// in\n    tag_138:\n        /* \"#utility.yul\":1443:1513   */\n      swap3\n      pop\n        /* \"#utility.yul\":1299:1523   */\n      pop\n        /* \"#utility.yul\":1286:1287   */\n      0x01\n        /* \"#utility.yul\":1283:1284   */\n      dup2\n        /* \"#utility.yul\":1279:1288   */\n      add\n        /* \"#utility.yul\":1274:1288   */\n      swap1\n      pop\n        /* \"#utility.yul\":1239:1523   */\n      jump(tag_134)\n    tag_136:\n        /* \"#utility.yul\":1243:1257   */\n      pop\n        /* \"#utility.yul\":1539:1542   */\n      dup6\n        /* \"#utility.yul\":1532:1542   */\n      swap4\n      pop\n        /* \"#utility.yul\":940:1548   */\n      pop\n      pop\n      pop\n        /* \"#utility.yul\":816:1548   */\n      swap3\n      swap2\n      pop\n      pop\n      jump\t// out\n        /* \"#utility.yul\":1554:1920   */\n    tag_140:\n        /* \"#utility.yul\":1696:1699   */\n      0x00\n        /* \"#utility.yul\":1717:1784   */\n      tag_142\n        /* \"#utility.yul\":1781:1783   */\n      0x26\n        /* \"#utility.yul\":1776:1779   */\n      dup4\n        /* \"#utility.yul\":1717:1784   */\n      tag_143\n      jump\t// in\n    tag_142:\n        /* \"#utility.yul\":1710:1784   */\n      swap2\n      pop\n        /* \"#utility.yul\":1793:1886   */\n      tag_144\n        /* \"#utility.yul\":1882:1885   */\n      dup3\n        /* \"#utility.yul\":1793:1886   */\n      tag_145\n      jump\t// in\n    tag_144:\n        /* \"#utility.yul\":1911:1913   */\n      0x40\n        /* \"#utility.yul\":1906:1909   */\n      dup3\n        /* \"#utility.yul\":1902:1914   */\n      add\n        /* \"#utility.yul\":1895:1914   */\n      swap1\n      pop\n        /* \"#utility.yul\":1554:1920   */\n      swap2\n      swap1\n      pop\n      jump\t// out\n        /* \"#utility.yul\":1926:2292   */\n    tag_146:\n        /* \"#utility.yul\":2068:2071   */\n      0x00\n        /* \"#utility.yul\":2089:2156   */\n      tag_148\n        /* \"#utility.yul\":2153:2155   */\n      0x28\n        /* \"#utility.yul\":2148:2151   */\n      dup4\n        /* \"#utility.yul\":2089:2156   */\n      tag_143\n      jump\t// in\n    tag_148:\n        /* \"#utility.yul\":2082:2156   */\n      swap2\n      pop\n        /* \"#utility.yul\":2165:2258   */\n      tag_149\n        /* \"#utility.yul\":2254:2257   */\n      dup3\n        /* \"#utility.yul\":2165:2258   */\n      tag_150\n      jump\t// in\n    tag_149:\n        /* \"#utility.yul\":2283:2285   */\n      0x40\n        /* \"#utility.yul\":2278:2281   */\n      dup3\n        /* \"#utility.yul\":2274:2286   */\n      add\n        /* \"#utility.yul\":2267:2286   */\n      swap1\n      pop\n        /* \"#utility.yul\":1926:2292   */\n      swap2\n      swap1\n      pop\n      jump\t// out\n        /* \"#utility.yul\":2298:2664   */\n    tag_151:\n        /* \"#utility.yul\":2440:2443   */\n      0x00\n        /* \"#utility.yul\":2461:2528   */\n      tag_153\n        /* \"#utility.yul\":2525:2527   */\n      0x25\n        /* \"#utility.yul\":2520:2523   */\n      dup4\n        /* \"#utility.yul\":2461:2528   */\n      tag_143\n      jump\t// in\n    tag_153:\n        /* \"#utility.yul\":2454:2528   */\n      swap2\n      pop\n        /* \"#utility.yul\":2537:2630   */\n      tag_154\n        /* \"#utility.yul\":2626:2629   */\n      dup3\n        /* \"#utility.yul\":2537:2630   */\n      tag_155\n      jump\t// in\n    tag_154:\n        /* \"#utility.yul\":2655:2657   */\n      0x40\n        /* \"#utility.yul\":2650:2653   */\n      dup3\n        /* \"#utility.yul\":2646:2658   */\n      add\n        /* \"#utility.yul\":2639:2658   */\n      swap1\n      pop\n        /* \"#utility.yul\":2298:2664   */\n      swap2\n      swap1\n      pop\n      jump\t// out\n        /* \"#utility.yul\":2670:3036   */\n    tag_156:\n        /* \"#utility.yul\":2812:2815   */\n      0x00\n        /* \"#utility.yul\":2833:2900   */\n      tag_158\n        /* \"#utility.yul\":2897:2899   */\n      0x29\n        /* \"#utility.yul\":2892:2895   */\n      dup4\n        /* \"#utility.yul\":2833:2900   */\n      tag_143\n      jump\t// in\n    tag_158:\n        /* \"#utility.yul\":2826:2900   */\n      swap2\n      pop\n        /* \"#utility.yul\":2909:3002   */\n      tag_159\n        /* \"#utility.yul\":2998:3001   */\n      dup3\n        /* \"#utility.yul\":2909:3002   */\n      tag_160\n      jump\t// in\n    tag_159:\n        /* \"#utility.yul\":3027:3029   */\n      0x40\n        /* \"#utility.yul\":3022:3025   */\n      dup3\n        /* \"#utility.yul\":3018:3030   */\n      add\n        /* \"#utility.yul\":3011:3030   */\n      swap1\n      pop\n        /* \"#utility.yul\":2670:3036   */\n      swap2\n      swap1\n      pop\n      jump\t// out\n        /* \"#utility.yul\":3042:3408   */\n    tag_161:\n        /* \"#utility.yul\":3184:3187   */\n      0x00\n        /* \"#utility.yul\":3205:3272   */\n      tag_163\n        /* \"#utility.yul\":3269:3271   */\n      0x24\n        /* \"#utility.yul\":3264:3267   */\n      dup4\n        /* \"#utility.yul\":3205:3272   */\n      tag_143\n      jump\t// in\n    tag_163:\n        /* \"#utility.yul\":3198:3272   */\n      swap2\n      pop\n        /* \"#utility.yul\":3281:3374   */\n      tag_164\n        /* \"#utility.yul\":3370:3373   */\n      dup3\n        /* \"#utility.yul\":3281:3374   */\n      tag_165\n      jump\t// in\n    tag_164:\n        /* \"#utility.yul\":3399:3401   */\n      0x40\n        /* \"#utility.yul\":3394:3397   */\n      dup3\n        /* \"#utility.yul\":3390:3402   */\n      add\n        /* \"#utility.yul\":3383:3402   */\n      swap1\n      pop\n        /* \"#utility.yul\":3042:3408   */\n      swap2\n      swap1\n      pop\n      jump\t// out\n        /* \"#utility.yul\":3414:3532   */\n    tag_166:\n        /* \"#utility.yul\":3501:3525   */\n      tag_168\n        /* \"#utility.yul\":3519:3524   */\n      dup2\n        /* \"#utility.yul\":3501:3525   */\n      tag_169\n      jump\t// in\n    tag_168:\n        /* \"#utility.yul\":3496:3499   */\n      dup3\n        /* \"#utility.yul\":3489:3526   */\n      mstore\n        /* \"#utility.yul\":3414:3532   */\n      pop\n      pop\n      jump\t// out\n        /* \"#utility.yul\":3538:3911   */\n    tag_11:\n        /* \"#utility.yul\":3681:3685   */\n      0x00\n        /* \"#utility.yul\":3719:3721   */\n      0x20\n        /* \"#utility.yul\":3708:3717   */\n      dup3\n        /* \"#utility.yul\":3704:3722   */\n      add\n        /* \"#utility.yul\":3696:3722   */\n      swap1\n      pop\n        /* \"#utility.yul\":3768:3777   */\n      dup2\n        /* \"#utility.yul\":3762:3766   */\n      dup2\n        /* \"#utility.yul\":3758:3778   */\n      sub\n        /* \"#utility.yul\":3754:3755   */\n      0x00\n        /* \"#utility.yul\":3743:3752   */\n      dup4\n        /* \"#utility.yul\":3739:3756   */\n      add\n        /* \"#utility.yul\":3732:3779   */\n      mstore\n        /* \"#utility.yul\":3796:3904   */\n      tag_171\n        /* \"#utility.yul\":3899:3903   */\n      dup2\n        /* \"#utility.yul\":3890:3896   */\n      dup5\n        /* \"#utility.yul\":3796:3904   */\n      tag_126\n      jump\t// in\n    tag_171:\n        /* \"#utility.yul\":3788:3904   */\n      swap1\n      pop\n        /* \"#utility.yul\":3538:3911   */\n      swap3\n      swap2\n      pop\n      pop\n      jump\t// out\n        /* \"#utility.yul\":3917:4336   */\n    tag_51:\n        /* \"#utility.yul\":4083:4087   */\n      0x00\n        /* \"#utility.yul\":4121:4123   */\n      0x20\n        /* \"#utility.yul\":4110:4119   */\n      dup3\n        /* \"#utility.yul\":4106:4124   */\n      add\n        /* \"#utility.yul\":4098:4124   */\n      swap1\n      pop\n        /* \"#utility.yul\":4170:4179   */\n      dup2\n        /* \"#utility.yul\":4164:4168   */\n      dup2\n        /* \"#utility.yul\":4160:4180   */\n      sub\n        /* \"#utility.yul\":4156:4157   */\n      0x00\n        /* \"#utility.yul\":4145:4154   */\n      dup4\n        /* \"#utility.yul\":4141:4158   */\n      add\n        /* \"#utility.yul\":4134:4181   */\n      mstore\n        /* \"#utility.yul\":4198:4329   */\n      tag_173\n        /* \"#utility.yul\":4324:4328   */\n      dup2\n        /* \"#utility.yul\":4198:4329   */\n      tag_140\n      jump\t// in\n    tag_173:\n        /* \"#utility.yul\":4190:4329   */\n      swap1\n      pop\n        /* \"#utility.yul\":3917:4336   */\n      swap2\n      swap1\n      pop\n      jump\t// out\n        /* \"#utility.yul\":4342:4761   */\n    tag_44:\n        /* \"#utility.yul\":4508:4512   */\n      0x00\n        /* \"#utility.yul\":4546:4548   */\n      0x20\n        /* \"#utility.yul\":4535:4544   */\n      dup3\n        /* \"#utility.yul\":4531:4549   */\n      add\n        /* \"#utility.yul\":4523:4549   */\n      swap1\n      pop\n        /* \"#utility.yul\":4595:4604   */\n      dup2\n        /* \"#utility.yul\":4589:4593   */\n      dup2\n        /* \"#utility.yul\":4585:4605   */\n      sub\n        /* \"#utility.yul\":4581:4582   */\n      0x00\n        /* \"#utility.yul\":4570:4579   */\n      dup4\n        /* \"#utility.yul\":4566:4583   */\n      add\n        /* \"#utility.yul\":4559:4606   */\n      mstore\n        /* \"#utility.yul\":4623:4754   */\n      tag_175\n        /* \"#utility.yul\":4749:4753   */\n      dup2\n        /* \"#utility.yul\":4623:4754   */\n      tag_146\n      jump\t// in\n    tag_175:\n        /* \"#utility.yul\":4615:4754   */\n      swap1\n      pop\n        /* \"#utility.yul\":4342:4761   */\n      swap2\n      swap1\n      pop\n      jump\t// out\n        /* \"#utility.yul\":4767:5186   */\n    tag_55:\n        /* \"#utility.yul\":4933:4937   */\n      0x00\n        /* \"#utility.yul\":4971:4973   */\n      0x20\n        /* \"#utility.yul\":4960:4969   */\n      dup3\n        /* \"#utility.yul\":4956:4974   */\n      add\n        /* \"#utility.yul\":4948:4974   */\n      swap1\n      pop\n        /* \"#utility.yul\":5020:5029   */\n      dup2\n        /* \"#utility.yul\":5014:5018   */\n      dup2\n        /* \"#utility.yul\":5010:5030   */\n      sub\n        /* \"#utility.yul\":5006:5007   */\n      0x00\n        /* \"#utility.yul\":4995:5004   */\n      dup4\n        /* \"#utility.yul\":4991:5008   */\n      add\n        /* \"#utility.yul\":4984:5031   */\n      mstore\n        /* \"#utility.yul\":5048:5179   */\n      tag_177\n        /* \"#utility.yul\":5174:5178   */\n      dup2\n        /* \"#utility.yul\":5048:5179   */\n      tag_151\n      jump\t// in\n    tag_177:\n        /* \"#utility.yul\":5040:5179   */\n      swap1\n      pop\n        /* \"#utility.yul\":4767:5186   */\n      swap2\n      swap1\n      pop\n      jump\t// out\n        /* \"#utility.yul\":5192:5611   */\n    tag_37:\n        /* \"#utility.yul\":5358:5362   */\n      0x00\n        /* \"#utility.yul\":5396:5398   */\n      0x20\n        /* \"#utility.yul\":5385:5394   */\n      dup3\n        /* \"#utility.yul\":5381:5399   */\n      add\n        /* \"#utility.yul\":5373:5399   */\n      swap1\n      pop\n        /* \"#utility.yul\":5445:5454   */\n      dup2\n        /* \"#utility.yul\":5439:5443   */\n      dup2\n        /* \"#utility.yul\":5435:5455   */\n      sub\n        /* \"#utility.yul\":5431:5432   */\n      0x00\n        /* \"#utility.yul\":5420:5429   */\n      dup4\n        /* \"#utility.yul\":5416:5433   */\n      add\n        /* \"#utility.yul\":5409:5456   */\n      mstore\n        /* \"#utility.yul\":5473:5604   */\n      tag_179\n        /* \"#utility.yul\":5599:5603   */\n      dup2\n        /* \"#utility.yul\":5473:5604   */\n      tag_156\n      jump\t// in\n    tag_179:\n        /* \"#utility.yul\":5465:5604   */\n      swap1\n      pop\n        /* \"#utility.yul\":5192:5611   */\n      swap2\n      swap1\n      pop\n      jump\t// out\n        /* \"#utility.yul\":5617:6036   */\n    tag_65:\n        /* \"#utility.yul\":5783:5787   */\n      0x00\n        /* \"#utility.yul\":5821:5823   */\n      0x20\n        /* \"#utility.yul\":5810:5819   */\n      dup3\n        /* \"#utility.yul\":5806:5824   */\n      add\n        /* \"#utility.yul\":5798:5824   */\n      swap1\n      pop\n        /* \"#utility.yul\":5870:5879   */\n      dup2\n        /* \"#utility.yul\":5864:5868   */\n      dup2\n        /* \"#utility.yul\":5860:5880   */\n      sub\n        /* \"#utility.yul\":5856:5857   */\n      0x00\n        /* \"#utility.yul\":5845:5854   */\n      dup4\n        /* \"#utility.yul\":5841:5858   */\n      add\n        /* \"#utility.yul\":5834:5881   */\n      mstore\n        /* \"#utility.yul\":5898:6029   */\n      tag_181\n        /* \"#utility.yul\":6024:6028   */\n      dup2\n        /* \"#utility.yul\":5898:6029   */\n      tag_161\n      jump\t// in\n    tag_181:\n        /* \"#utility.yul\":5890:6029   */\n      swap1\n      pop\n        /* \"#utility.yul\":5617:6036   */\n      swap2\n      swap1\n      pop\n      jump\t// out\n        /* \"#utility.yul\":6042:6264   */\n    tag_15:\n        /* \"#utility.yul\":6135:6139   */\n      0x00\n        /* \"#utility.yul\":6173:6175   */\n      0x20\n        /* \"#utility.yul\":6162:6171   */\n      dup3\n        /* \"#utility.yul\":6158:6176   */\n      add\n        /* \"#utility.yul\":6150:6176   */\n      swap1\n      pop\n        /* \"#utility.yul\":6186:6257   */\n      tag_183\n        /* \"#utility.yul\":6254:6255   */\n      0x00\n        /* \"#utility.yul\":6243:6252   */\n      dup4\n        /* \"#utility.yul\":6239:6256   */\n      add\n        /* \"#utility.yul\":6230:6236   */\n      dup5\n        /* \"#utility.yul\":6186:6257   */\n      tag_166\n      jump\t// in\n    tag_183:\n        /* \"#utility.yul\":6042:6264   */\n      swap3\n      swap2\n      pop\n      pop\n      jump\t// out\n        /* \"#utility.yul\":6351:6483   */\n    tag_133:\n        /* \"#utility.yul\":6418:6422   */\n      0x00\n        /* \"#utility.yul\":6441:6444   */\n      dup2\n        /* \"#utility.yul\":6433:6444   */\n      swap1\n      pop\n        /* \"#utility.yul\":6471:6475   */\n      0x20\n        /* \"#utility.yul\":6466:6469   */\n      dup3\n        /* \"#utility.yul\":6462:6476   */\n      add\n        /* \"#utility.yul\":6454:6476   */\n      swap1\n      pop\n        /* \"#utility.yul\":6351:6483   */\n      swap2\n      swap1\n      pop\n      jump\t// out\n        /* \"#utility.yul\":6489:6603   */\n    tag_129:\n        /* \"#utility.yul\":6556:6562   */\n      0x00\n        /* \"#utility.yul\":6590:6595   */\n      dup2\n        /* \"#utility.yul\":6584:6596   */\n      mload\n        /* \"#utility.yul\":6574:6596   */\n      swap1\n      pop\n        /* \"#utility.yul\":6489:6603   */\n      swap2\n      swap1\n      pop\n      jump\t// out\n        /* \"#utility.yul\":6609:6722   */\n    tag_139:\n        /* \"#utility.yul\":6679:6683   */\n      0x00\n        /* \"#utility.yul\":6711:6715   */\n      0x20\n        /* \"#utility.yul\":6706:6709   */\n      dup3\n        /* \"#utility.yul\":6702:6716   */\n      add\n        /* \"#utility.yul\":6694:6716   */\n      swap1\n      pop\n        /* \"#utility.yul\":6609:6722   */\n      swap2\n      swap1\n      pop\n      jump\t// out\n        /* \"#utility.yul\":6728:6912   */\n    tag_131:\n        /* \"#utility.yul\":6827:6838   */\n      0x00\n        /* \"#utility.yul\":6861:6867   */\n      dup3\n        /* \"#utility.yul\":6856:6859   */\n      dup3\n        /* \"#utility.yul\":6849:6868   */\n      mstore\n        /* \"#utility.yul\":6901:6905   */\n      0x20\n        /* \"#utility.yul\":6896:6899   */\n      dup3\n        /* \"#utility.yul\":6892:6906   */\n      add\n        /* \"#utility.yul\":6877:6906   */\n      swap1\n      pop\n        /* \"#utility.yul\":6728:6912   */\n      swap3\n      swap2\n      pop\n      pop\n      jump\t// out\n        /* \"#utility.yul\":6918:7087   */\n    tag_143:\n        /* \"#utility.yul\":7002:7013   */\n      0x00\n        /* \"#utility.yul\":7036:7042   */\n      dup3\n        /* \"#utility.yul\":7031:7034   */\n      dup3\n        /* \"#utility.yul\":7024:7043   */\n      mstore\n        /* \"#utility.yul\":7076:7080   */\n      0x20\n        /* \"#utility.yul\":7071:7074   */\n      dup3\n        /* \"#utility.yul\":7067:7081   */\n      add\n        /* \"#utility.yul\":7052:7081   */\n      swap1\n      pop\n        /* \"#utility.yul\":6918:7087   */\n      swap3\n      swap2\n      pop\n      pop\n      jump\t// out\n        /* \"#utility.yul\":7093:7284   */\n    tag_95:\n        /* \"#utility.yul\":7133:7137   */\n      0x00\n        /* \"#utility.yul\":7153:7173   */\n      tag_192\n        /* \"#utility.yul\":7171:7172   */\n      dup3\n        /* \"#utility.yul\":7153:7173   */\n      tag_169\n      jump\t// in\n    tag_192:\n        /* \"#utility.yul\":7148:7173   */\n      swap2\n      pop\n        /* \"#utility.yul\":7187:7207   */\n      tag_193\n        /* \"#utility.yul\":7205:7206   */\n      dup4\n        /* \"#utility.yul\":7187:7207   */\n      tag_169\n      jump\t// in\n    tag_193:\n        /* \"#utility.yul\":7182:7207   */\n      swap3\n      pop\n        /* \"#utility.yul\":7226:7227   */\n      dup3\n        /* \"#utility.yul\":7223:7224   */\n      dup3\n        /* \"#utility.yul\":7220:7228   */\n      lt\n        /* \"#utility.yul\":7217:7251   */\n      iszero\n      tag_194\n      jumpi\n        /* \"#utility.yul\":7231:7249   */\n      tag_195\n      tag_196\n      jump\t// in\n    tag_195:\n        /* \"#utility.yul\":7217:7251   */\n    tag_194:\n        /* \"#utility.yul\":7276:7277   */\n      dup3\n        /* \"#utility.yul\":7273:7274   */\n      dup3\n        /* \"#utility.yul\":7269:7278   */\n      sub\n        /* \"#utility.yul\":7261:7278   */\n      swap1\n      pop\n        /* \"#utility.yul\":7093:7284   */\n      swap3\n      swap2\n      pop\n      pop\n      jump\t// out\n        /* \"#utility.yul\":7290:7386   */\n    tag_125:\n        /* \"#utility.yul\":7327:7334   */\n      0x00\n        /* \"#utility.yul\":7356:7380   */\n      tag_198\n        /* \"#utility.yul\":7374:7379   */\n      dup3\n        /* \"#utility.yul\":7356:7380   */\n      tag_199\n      jump\t// in\n    tag_198:\n        /* \"#utility.yul\":7345:7380   */\n      swap1\n      pop\n        /* \"#utility.yul\":7290:7386   */\n      swap2\n      swap1\n      pop\n      jump\t// out\n        /* \"#utility.yul\":7392:7518   */\n    tag_199:\n        /* \"#utility.yul\":7429:7436   */\n      0x00\n        /* \"#utility.yul\":7469:7511   */\n      0xffffffffffffffffffffffffffffffffffffffff\n        /* \"#utility.yul\":7462:7467   */\n      dup3\n        /* \"#utility.yul\":7458:7512   */\n      and\n        /* \"#utility.yul\":7447:7512   */\n      swap1\n      pop\n        /* \"#utility.yul\":7392:7518   */\n      swap2\n      swap1\n      pop\n      jump\t// out\n        /* \"#utility.yul\":7524:7601   */\n    tag_169:\n        /* \"#utility.yul\":7561:7568   */\n      0x00\n        /* \"#utility.yul\":7590:7595   */\n      dup2\n        /* \"#utility.yul\":7579:7595   */\n      swap1\n      pop\n        /* \"#utility.yul\":7524:7601   */\n      swap2\n      swap1\n      pop\n      jump\t// out\n        /* \"#utility.yul\":7607:7840   */\n    tag_84:\n        /* \"#utility.yul\":7646:7649   */\n      0x00\n        /* \"#utility.yul\":7669:7693   */\n      tag_203\n        /* \"#utility.yul\":7687:7692   */\n      dup3\n        /* \"#utility.yul\":7669:7693   */\n      tag_169\n      jump\t// in\n    tag_203:\n        /* \"#utility.yul\":7660:7693   */\n      swap2\n      pop\n        /* \"#utility.yul\":7715:7781   */\n      0xffffffffffffffffffffffffffffffffffffffffffffffffffffffffffffffff\n        /* \"#utility.yul\":7708:7713   */\n      dup3\n        /* \"#utility.yul\":7705:7782   */\n      eq\n        /* \"#utility.yul\":7702:7805   */\n      iszero\n      tag_204\n      jumpi\n        /* \"#utility.yul\":7785:7803   */\n      tag_205\n      tag_196\n      jump\t// in\n    tag_205:\n        /* \"#utility.yul\":7702:7805   */\n    tag_204:\n        /* \"#utility.yul\":7832:7833   */\n      0x01\n        /* \"#utility.yul\":7825:7830   */\n      dup3\n        /* \"#utility.yul\":7821:7834   */\n      add\n        /* \"#utility.yul\":7814:7834   */\n      swap1\n      pop\n        /* \"#utility.yul\":7607:7840   */\n      swap2\n      swap1\n      pop\n      jump\t// out\n        /* \"#utility.yul\":7846:8026   */\n    tag_196:\n        /* \"#utility.yul\":7894:7971   */\n      0x4e487b7100000000000000000000000000000000000000000000000000000000\n        /* \"#utility.yul\":7891:7892   */\n      0x00\n        /* \"#utility.yul\":7884:7972   */\n      mstore\n        /* \"#utility.yul\":7991:7995   */\n      0x11\n        /* \"#utility.yul\":7988:7989   */\n      0x04\n        /* \"#utility.yul\":7981:7996   */\n      mstore\n        /* \"#utility.yul\":8015:8019   */\n      0x24\n        /* \"#utility.yul\":8012:8013   */\n      0x00\n        /* \"#utility.yul\":8005:8020   */\n      revert\n        /* \"#utility.yul\":8032:8212   */\n    tag_107:\n        /* \"#utility.yul\":8080:8157   */\n      0x4e487b7100000000000000000000000000000000000000000000000000000000\n        /* \"#utility.yul\":8077:8078   */\n      0x00\n        /* \"#utility.yul\":8070:8158   */\n      mstore\n        /* \"#utility.yul\":8177:8181   */\n      0x31\n        /* \"#utility.yul\":8174:8175   */\n      0x04\n        /* \"#utility.yul\":8167:8182   */\n      mstore\n        /* \"#utility.yul\":8201:8205   */\n      0x24\n        /* \"#utility.yul\":8198:8199   */\n      0x00\n        /* \"#utility.yul\":8191:8206   */\n      revert\n        /* \"#utility.yul\":8218:8398   */\n    tag_81:\n        /* \"#utility.yul\":8266:8343   */\n      0x4e487b7100000000000000000000000000000000000000000000000000000000\n        /* \"#utility.yul\":8263:8264   */\n      0x00\n        /* \"#utility.yul\":8256:8344   */\n      mstore\n        /* \"#utility.yul\":8363:8367   */\n      0x32\n        /* \"#utility.yul\":8360:8361   */\n      0x04\n        /* \"#utility.yul\":8353:8368   */\n      mstore\n        /* \"#utility.yul\":8387:8391   */\n      0x24\n        /* \"#utility.yul\":8384:8385   */\n      0x00\n        /* \"#utility.yul\":8377:8392   */\n      revert\n        /* \"#utility.yul\":8527:8644   */\n    tag_117:\n        /* \"#utility.yul\":8636:8637   */\n      0x00\n        /* \"#utility.yul\":8633:8634   */\n      dup1\n        /* \"#utility.yul\":8626:8638   */\n      revert\n        /* \"#utility.yul\":8650:8875   */\n    tag_145:\n        /* \"#utility.yul\":8790:8824   */\n      0x596f752061726520616c726561647920667269656e6473207769746820746869\n        /* \"#utility.yul\":8786:8787   */\n      0x00\n        /* \"#utility.yul\":8778:8784   */\n      dup3\n        /* \"#utility.yul\":8774:8788   */\n      add\n        /* \"#utility.yul\":8767:8825   */\n      mstore\n        /* \"#utility.yul\":8859:8867   */\n      0x7320757365720000000000000000000000000000000000000000000000000000\n        /* \"#utility.yul\":8854:8856   */\n      0x20\n        /* \"#utility.yul\":8846:8852   */\n      dup3\n        /* \"#utility.yul\":8842:8857   */\n      add\n        /* \"#utility.yul\":8835:8868   */\n      mstore\n        /* \"#utility.yul\":8650:8875   */\n      pop\n      jump\t// out\n        /* \"#utility.yul\":8881:9108   */\n    tag_150:\n        /* \"#utility.yul\":9021:9055   */\n      0x5468697320757365722068617320616c72656164792073656e7420796f752061\n        /* \"#utility.yul\":9017:9018   */\n      0x00\n        /* \"#utility.yul\":9009:9015   */\n      dup3\n        /* \"#utility.yul\":9005:9019   */\n      add\n        /* \"#utility.yul\":8998:9056   */\n      mstore\n        /* \"#utility.yul\":9090:9100   */\n      0x2072657175657374000000000000000000000000000000000000000000000000\n        /* \"#utility.yul\":9085:9087   */\n      0x20\n        /* \"#utility.yul\":9077:9083   */\n      dup3\n        /* \"#utility.yul\":9073:9088   */\n      add\n        /* \"#utility.yul\":9066:9101   */\n      mstore\n        /* \"#utility.yul\":8881:9108   */\n      pop\n      jump\t// out\n        /* \"#utility.yul\":9114:9338   */\n    tag_155:\n        /* \"#utility.yul\":9254:9288   */\n      0x596f752063616e6e6f742073656e642061207265717565737420746f20796f75\n        /* \"#utility.yul\":9250:9251   */\n      0x00\n        /* \"#utility.yul\":9242:9248   */\n      dup3\n        /* \"#utility.yul\":9238:9252   */\n      add\n        /* \"#utility.yul\":9231:9289   */\n      mstore\n        /* \"#utility.yul\":9323:9330   */\n      0x7273656c66000000000000000000000000000000000000000000000000000000\n        /* \"#utility.yul\":9318:9320   */\n      0x20\n        /* \"#utility.yul\":9310:9316   */\n      dup3\n        /* \"#utility.yul\":9306:9321   */\n      add\n        /* \"#utility.yul\":9299:9331   */\n      mstore\n        /* \"#utility.yul\":9114:9338   */\n      pop\n      jump\t// out\n        /* \"#utility.yul\":9344:9572   */\n    tag_160:\n        /* \"#utility.yul\":9484:9518   */\n      0x596f75206861766520616c72656164792073656e742074686973207573657220\n        /* \"#utility.yul\":9480:9481   */\n      0x00\n        /* \"#utility.yul\":9472:9478   */\n      dup3\n        /* \"#utility.yul\":9468:9482   */\n      add\n        /* \"#utility.yul\":9461:9519   */\n      mstore\n        /* \"#utility.yul\":9553:9564   */\n      0x6120726571756573740000000000000000000000000000000000000000000000\n        /* \"#utility.yul\":9548:9550   */\n      0x20\n        /* \"#utility.yul\":9540:9546   */\n      dup3\n        /* \"#utility.yul\":9536:9551   */\n      add\n        /* \"#utility.yul\":9529:9565   */\n      mstore\n        /* \"#utility.yul\":9344:9572   */\n      pop\n      jump\t// out\n        /* \"#utility.yul\":9578:9801   */\n    tag_165:\n        /* \"#utility.yul\":9718:9752   */\n      0x54686973207573657220686173206e6f742073656e7420796f75206120726571\n        /* \"#utility.yul\":9714:9715   */\n      0x00\n        /* \"#utility.yul\":9706:9712   */\n      dup3\n        /* \"#utility.yul\":9702:9716   */\n      add\n        /* \"#utility.yul\":9695:9753   */\n      mstore\n        /* \"#utility.yul\":9787:9793   */\n      0x7565737400000000000000000000000000000000000000000000000000000000\n        /* \"#utility.yul\":9782:9784   */\n      0x20\n        /* \"#utility.yul\":9774:9780   */\n      dup3\n        /* \"#utility.yul\":9770:9785   */\n      add\n        /* \"#utility.yul\":9763:9794   */\n      mstore\n        /* \"#utility.yul\":9578:9801   */\n      pop\n      jump\t// out\n        /* \"#utility.yul\":9807:9929   */\n    tag_113:\n        /* \"#utility.yul\":9880:9904   */\n      tag_218\n        /* \"#utility.yul\":9898:9903   */\n      dup2\n        /* \"#utility.yul\":9880:9904   */\n      tag_125\n      jump\t// in\n    tag_218:\n        /* \"#utility.yul\":9873:9878   */\n      dup2\n        /* \"#utility.yul\":9870:9905   */\n      eq\n        /* \"#utility.yul\":9860:9923   */\n      tag_219\n      jumpi\n        /* \"#utility.yul\":9919:9920   */\n      0x00\n        /* \"#utility.yul\":9916:9917   */\n      dup1\n        /* \"#utility.yul\":9909:9921   */\n      revert\n        /* \"#utility.yul\":9860:9923   */\n    tag_219:\n        /* \"#utility.yul\":9807:9929   */\n      pop\n      jump\t// out\n\n    auxdata: 0xa26469706673582212205cdc74054d2df49a9e5610757a5f8303c812b1802c70050f674356d91e6e96dc64736f6c63430008070033\n}\n",
				"bytecode": {
					"linkReferences": {},
					"object": "608060405234801561001057600080fd5b5061130e806100206000396000f3fe608060405234801561001057600080fd5b50600436106100575760003560e01c80631f8f72701461005c57806367db8b681461007a578063837b770a14610098578063a9f56466146100b4578063d6688cbd146100d0575b600080fd5b6100646100ee565b6040516100719190610ec4565b60405180910390f35b6100826101bb565b60405161008f9190610f86565b60405180910390f35b6100b260048036038101906100ad9190610d54565b610207565b005b6100ce60048036038101906100c99190610d54565b610704565b005b6100d86109f5565b6040516100e59190610ec4565b60405180910390f35b60606000803373ffffffffffffffffffffffffffffffffffffffff1673ffffffffffffffffffffffffffffffffffffffff1681526020019081526020016000206000018054806020026020016040519081016040528092919081815260200182805480156101b157602002820191906000526020600020905b8160009054906101000a900473ffffffffffffffffffffffffffffffffffffffff1673ffffffffffffffffffffffffffffffffffffffff1681526020019060010190808311610167575b5050505050905090565b60008060003373ffffffffffffffffffffffffffffffffffffffff1673ffffffffffffffffffffffffffffffffffffffff16815260200190815260200160002060000180549050905090565b8060008060003373ffffffffffffffffffffffffffffffffffffffff1673ffffffffffffffffffffffffffffffffffffffff1681526020019081526020016000206002018054806020026020016040519081016040528092919081815260200182805480156102cb57602002820191906000526020600020905b8160009054906101000a900473ffffffffffffffffffffffffffffffffffffffff1673ffffffffffffffffffffffffffffffffffffffff1681526020019060010190808311610281575b505050505090506102dc8183610ac2565b1561031c576040517f08c379a000000000000000000000000000000000000000000000000000000000815260040161031390610f46565b60405180910390fd5b8260008060003373ffffffffffffffffffffffffffffffffffffffff1673ffffffffffffffffffffffffffffffffffffffff1681526020019081526020016000206001018054806020026020016040519081016040528092919081815260200182805480156103e057602002820191906000526020600020905b8160009054906101000a900473ffffffffffffffffffffffffffffffffffffffff1673ffffffffffffffffffffffffffffffffffffffff1681526020019060010190808311610396575b505050505090506103f18183610ac2565b15610431576040517f08c379a000000000000000000000000000000000000000000000000000000000815260040161042890610f06565b60405180910390fd5b8460008060003373ffffffffffffffffffffffffffffffffffffffff1673ffffffffffffffffffffffffffffffffffffffff1681526020019081526020016000206000018054806020026020016040519081016040528092919081815260200182805480156104f557602002820191906000526020600020905b8160009054906101000a900473ffffffffffffffffffffffffffffffffffffffff1673ffffffffffffffffffffffffffffffffffffffff16815260200190600101908083116104ab575b505050505090506105068183610ac2565b15610546576040517f08c379a000000000000000000000000000000000000000000000000000000000815260040161053d90610ee6565b60405180910390fd5b863373ffffffffffffffffffffffffffffffffffffffff168173ffffffffffffffffffffffffffffffffffffffff1614156105b6576040517f08c379a00000000000000000000000000000000000000000000000000000000081526004016105ad90610f26565b60405180910390fd5b6000803373ffffffffffffffffffffffffffffffffffffffff1673ffffffffffffffffffffffffffffffffffffffff168152602001908152602001600020600201889080600181540180825580915050600190039060005260206000200160009091909190916101000a81548173ffffffffffffffffffffffffffffffffffffffff021916908373ffffffffffffffffffffffffffffffffffffffff1602179055506000808973ffffffffffffffffffffffffffffffffffffffff1673ffffffffffffffffffffffffffffffffffffffff168152602001908152602001600020600101339080600181540180825580915050600190039060005260206000200160009091909190916101000a81548173ffffffffffffffffffffffffffffffffffffffff021916908373ffffffffffffffffffffffffffffffffffffffff1602179055505050505050505050565b8060008060003373ffffffffffffffffffffffffffffffffffffffff1673ffffffffffffffffffffffffffffffffffffffff1681526020019081526020016000206001018054806020026020016040519081016040528092919081815260200182805480156107c857602002820191906000526020600020905b8160009054906101000a900473ffffffffffffffffffffffffffffffffffffffff1673ffffffffffffffffffffffffffffffffffffffff168152602001906001019080831161077e575b505050505090506107d98183610ac2565b610818576040517f08c379a000000000000000000000000000000000000000000000000000000000815260040161080f90610f66565b60405180910390fd5b6108626000803373ffffffffffffffffffffffffffffffffffffffff1673ffffffffffffffffffffffffffffffffffffffff16815260200190815260200160002060010184610b46565b6108ac6000808573ffffffffffffffffffffffffffffffffffffffff1673ffffffffffffffffffffffffffffffffffffffff16815260200190815260200160002060020133610b46565b6000803373ffffffffffffffffffffffffffffffffffffffff1673ffffffffffffffffffffffffffffffffffffffff168152602001908152602001600020600001839080600181540180825580915050600190039060005260206000200160009091909190916101000a81548173ffffffffffffffffffffffffffffffffffffffff021916908373ffffffffffffffffffffffffffffffffffffffff1602179055506000808473ffffffffffffffffffffffffffffffffffffffff1673ffffffffffffffffffffffffffffffffffffffff168152602001908152602001600020600001339080600181540180825580915050600190039060005260206000200160009091909190916101000a81548173ffffffffffffffffffffffffffffffffffffffff021916908373ffffffffffffffffffffffffffffffffffffffff160217905550505050565b60606000803373ffffffffffffffffffffffffffffffffffffffff1673ffffffffffffffffffffffffffffffffffffffff168152602001908152602001600020600101805480602002602001604051908101604052809291908181526020018280548015610ab857602002820191906000526020600020905b8160009054906101000a900473ffffffffffffffffffffffffffffffffffffffff1673ffffffffffffffffffffffffffffffffffffffff1681526020019060010190808311610a6e575b5050505050905090565b6000805b8351811015610b3a578273ffffffffffffffffffffffffffffffffffffffff16848281518110610af957610af8611102565b5b602002602001015173ffffffffffffffffffffffffffffffffffffffff161415610b27576001915050610b40565b8080610b329061105b565b915050610ac6565b50600090505b92915050565b6000805b8380549050811015610be2578273ffffffffffffffffffffffffffffffffffffffff16848281548110610b8057610b7f611102565b5b9060005260206000200160009054906101000a900473ffffffffffffffffffffffffffffffffffffffff1673ffffffffffffffffffffffffffffffffffffffff161415610bcf57809150610be2565b8080610bda9061105b565b915050610b4a565b50600060018480549050610bf69190610feb565b90506000848281548110610c0d57610c0c611102565b5b9060005260206000200160009054906101000a900473ffffffffffffffffffffffffffffffffffffffff16905083858381548110610c4e57610c4d611102565b5b9060005260206000200160006101000a81548173ffffffffffffffffffffffffffffffffffffffff021916908373ffffffffffffffffffffffffffffffffffffffff16021790555080858481548110610caa57610ca9611102565b5b9060005260206000200160006101000a81548173ffffffffffffffffffffffffffffffffffffffff021916908373ffffffffffffffffffffffffffffffffffffffff16021790555084805480610d0357610d026110d3565b5b6001900381819060005260206000200160006101000a81549073ffffffffffffffffffffffffffffffffffffffff021916905590555050505050565b600081359050610d4e816112c1565b92915050565b600060208284031215610d6a57610d69611131565b5b6000610d7884828501610d3f565b91505092915050565b6000610d8d8383610d99565b60208301905092915050565b610da28161101f565b82525050565b6000610db382610fb1565b610dbd8185610fc9565b9350610dc883610fa1565b8060005b83811015610df9578151610de08882610d81565b9750610deb83610fbc565b925050600181019050610dcc565b5085935050505092915050565b6000610e13602683610fda565b9150610e1e82611136565b604082019050919050565b6000610e36602883610fda565b9150610e4182611185565b604082019050919050565b6000610e59602583610fda565b9150610e64826111d4565b604082019050919050565b6000610e7c602983610fda565b9150610e8782611223565b604082019050919050565b6000610e9f602483610fda565b9150610eaa82611272565b604082019050919050565b610ebe81611051565b82525050565b60006020820190508181036000830152610ede8184610da8565b905092915050565b60006020820190508181036000830152610eff81610e06565b9050919050565b60006020820190508181036000830152610f1f81610e29565b9050919050565b60006020820190508181036000830152610f3f81610e4c565b9050919050565b60006020820190508181036000830152610f5f81610e6f565b9050919050565b60006020820190508181036000830152610f7f81610e92565b9050919050565b6000602082019050610f9b6000830184610eb5565b92915050565b6000819050602082019050919050565b600081519050919050565b6000602082019050919050565b600082825260208201905092915050565b600082825260208201905092915050565b6000610ff682611051565b915061100183611051565b925082821015611014576110136110a4565b5b828203905092915050565b600061102a82611031565b9050919050565b600073ffffffffffffffffffffffffffffffffffffffff82169050919050565b6000819050919050565b600061106682611051565b91507fffffffffffffffffffffffffffffffffffffffffffffffffffffffffffffffff821415611099576110986110a4565b5b600182019050919050565b7f4e487b7100000000000000000000000000000000000000000000000000000000600052601160045260246000fd5b7f4e487b7100000000000000000000000000000000000000000000000000000000600052603160045260246000fd5b7f4e487b7100000000000000000000000000000000000000000000000000000000600052603260045260246000fd5b600080fd5b7f596f752061726520616c726561647920667269656e647320776974682074686960008201527f7320757365720000000000000000000000000000000000000000000000000000602082015250565b7f5468697320757365722068617320616c72656164792073656e7420796f75206160008201527f2072657175657374000000000000000000000000000000000000000000000000602082015250565b7f596f752063616e6e6f742073656e642061207265717565737420746f20796f7560008201527f7273656c66000000000000000000000000000000000000000000000000000000602082015250565b7f596f75206861766520616c72656164792073656e74207468697320757365722060008201527f6120726571756573740000000000000000000000000000000000000000000000602082015250565b7f54686973207573657220686173206e6f742073656e7420796f7520612072657160008201527f7565737400000000000000000000000000000000000000000000000000000000602082015250565b6112ca8161101f565b81146112d557600080fd5b5056fea26469706673582212205cdc74054d2df49a9e5610757a5f8303c812b1802c70050f674356d91e6e96dc64736f6c63430008070033",
					"opcodes": "PUSH1 0x80 PUSH1 0x40 MSTORE CALLVALUE DUP1 ISZERO PUSH2 0x10 JUMPI PUSH1 0x0 DUP1 REVERT JUMPDEST POP PUSH2 0x130E DUP1 PUSH2 0x20 PUSH1 0x0 CODECOPY PUSH1 0x0 RETURN INVALID PUSH1 0x80 PUSH1 0x40 MSTORE CALLVALUE DUP1 ISZERO PUSH2 0x10 JUMPI PUSH1 0x0 DUP1 REVERT JUMPDEST POP PUSH1 0x4 CALLDATASIZE LT PUSH2 0x57 JUMPI PUSH1 0x0 CALLDATALOAD PUSH1 0xE0 SHR DUP1 PUSH4 0x1F8F7270 EQ PUSH2 0x5C JUMPI DUP1 PUSH4 0x67DB8B68 EQ PUSH2 0x7A JUMPI DUP1 PUSH4 0x837B770A EQ PUSH2 0x98 JUMPI DUP1 PUSH4 0xA9F56466 EQ PUSH2 0xB4 JUMPI DUP1 PUSH4 0xD6688CBD EQ PUSH2 0xD0 JUMPI JUMPDEST PUSH1 0x0 DUP1 REVERT JUMPDEST PUSH2 0x64 PUSH2 0xEE JUMP JUMPDEST PUSH1 0x40 MLOAD PUSH2 0x71 SWAP2 SWAP1 PUSH2 0xEC4 JUMP JUMPDEST PUSH1 0x40 MLOAD DUP1 SWAP2 SUB SWAP1 RETURN JUMPDEST PUSH2 0x82 PUSH2 0x1BB JUMP JUMPDEST PUSH1 0x40 MLOAD PUSH2 0x8F SWAP2 SWAP1 PUSH2 0xF86 JUMP JUMPDEST PUSH1 0x40 MLOAD DUP1 SWAP2 SUB SWAP1 RETURN JUMPDEST PUSH2 0xB2 PUSH1 0x4 DUP1 CALLDATASIZE SUB DUP2 ADD SWAP1 PUSH2 0xAD SWAP2 SWAP1 PUSH2 0xD54 JUMP JUMPDEST PUSH2 0x207 JUMP JUMPDEST STOP JUMPDEST PUSH2 0xCE PUSH1 0x4 DUP1 CALLDATASIZE SUB DUP2 ADD SWAP1 PUSH2 0xC9 SWAP2 SWAP1 PUSH2 0xD54 JUMP JUMPDEST PUSH2 0x704 JUMP JUMPDEST STOP JUMPDEST PUSH2 0xD8 PUSH2 0x9F5 JUMP JUMPDEST PUSH1 0x40 MLOAD PUSH2 0xE5 SWAP2 SWAP1 PUSH2 0xEC4 JUMP JUMPDEST PUSH1 0x40 MLOAD DUP1 SWAP2 SUB SWAP1 RETURN JUMPDEST PUSH1 0x60 PUSH1 0x0 DUP1 CALLER PUSH20 0xFFFFFFFFFFFFFFFFFFFFFFFFFFFFFFFFFFFFFFFF AND PUSH20 0xFFFFFFFFFFFFFFFFFFFFFFFFFFFFFFFFFFFFFFFF AND DUP2 MSTORE PUSH1 0x20 ADD SWAP1 DUP2 MSTORE PUSH1 0x20 ADD PUSH1 0x0 KECCAK256 PUSH1 0x0 ADD DUP1 SLOAD DUP1 PUSH1 0x20 MUL PUSH1 0x20 ADD PUSH1 0x40 MLOAD SWAP1 DUP2 ADD PUSH1 0x40 MSTORE DUP1 SWAP3 SWAP2 SWAP1 DUP2 DUP2 MSTORE PUSH1 0x20 ADD DUP3 DUP1 SLOAD DUP1 ISZERO PUSH2 0x1B1 JUMPI PUSH1 0x20 MUL DUP3 ADD SWAP2 SWAP1 PUSH1 0x0 MSTORE PUSH1 0x20 PUSH1 0x0 KECCAK256 SWAP1 JUMPDEST DUP2 PUSH1 0x0 SWAP1 SLOAD SWAP1 PUSH2 0x100 EXP SWAP1 DIV PUSH20 0xFFFFFFFFFFFFFFFFFFFFFFFFFFFFFFFFFFFFFFFF AND PUSH20 0xFFFFFFFFFFFFFFFFFFFFFFFFFFFFFFFFFFFFFFFF AND DUP2 MSTORE PUSH1 0x20 ADD SWAP1 PUSH1 0x1 ADD SWAP1 DUP1 DUP4 GT PUSH2 0x167 JUMPI JUMPDEST POP POP POP POP POP SWAP1 POP SWAP1 JUMP JUMPDEST PUSH1 0x0 DUP1 PUSH1 0x0 CALLER PUSH20 0xFFFFFFFFFFFFFFFFFFFFFFFFFFFFFFFFFFFFFFFF AND PUSH20 0xFFFFFFFFFFFFFFFFFFFFFFFFFFFFFFFFFFFFFFFF AND DUP2 MSTORE PUSH1 0x20 ADD SWAP1 DUP2 MSTORE PUSH1 0x20 ADD PUSH1 0x0 KECCAK256 PUSH1 0x0 ADD DUP1 SLOAD SWAP1 POP SWAP1 POP SWAP1 JUMP JUMPDEST DUP1 PUSH1 0x0 DUP1 PUSH1 0x0 CALLER PUSH20 0xFFFFFFFFFFFFFFFFFFFFFFFFFFFFFFFFFFFFFFFF AND PUSH20 0xFFFFFFFFFFFFFFFFFFFFFFFFFFFFFFFFFFFFFFFF AND DUP2 MSTORE PUSH1 0x20 ADD SWAP1 DUP2 MSTORE PUSH1 0x20 ADD PUSH1 0x0 KECCAK256 PUSH1 0x2 ADD DUP1 SLOAD DUP1 PUSH1 0x20 MUL PUSH1 0x20 ADD PUSH1 0x40 MLOAD SWAP1 DUP2 ADD PUSH1 0x40 MSTORE DUP1 SWAP3 SWAP2 SWAP1 DUP2 DUP2 MSTORE PUSH1 0x20 ADD DUP3 DUP1 SLOAD DUP1 ISZERO PUSH2 0x2CB JUMPI PUSH1 0x20 MUL DUP3 ADD SWAP2 SWAP1 PUSH1 0x0 MSTORE PUSH1 0x20 PUSH1 0x0 KECCAK256 SWAP1 JUMPDEST DUP2 PUSH1 0x0 SWAP1 SLOAD SWAP1 PUSH2 0x100 EXP SWAP1 DIV PUSH20 0xFFFFFFFFFFFFFFFFFFFFFFFFFFFFFFFFFFFFFFFF AND PUSH20 0xFFFFFFFFFFFFFFFFFFFFFFFFFFFFFFFFFFFFFFFF AND DUP2 MSTORE PUSH1 0x20 ADD SWAP1 PUSH1 0x1 ADD SWAP1 DUP1 DUP4 GT PUSH2 0x281 JUMPI JUMPDEST POP POP POP POP POP SWAP1 POP PUSH2 0x2DC DUP2 DUP4 PUSH2 0xAC2 JUMP JUMPDEST ISZERO PUSH2 0x31C JUMPI PUSH1 0x40 MLOAD PUSH32 0x8C379A000000000000000000000000000000000000000000000000000000000 DUP2 MSTORE PUSH1 0x4 ADD PUSH2 0x313 SWAP1 PUSH2 0xF46 JUMP JUMPDEST PUSH1 0x40 MLOAD DUP1 SWAP2 SUB SWAP1 REVERT JUMPDEST DUP3 PUSH1 0x0 DUP1 PUSH1 0x0 CALLER PUSH20 0xFFFFFFFFFFFFFFFFFFFFFFFFFFFFFFFFFFFFFFFF AND PUSH20 0xFFFFFFFFFFFFFFFFFFFFFFFFFFFFFFFFFFFFFFFF AND DUP2 MSTORE PUSH1 0x20 ADD SWAP1 DUP2 MSTORE PUSH1 0x20 ADD PUSH1 0x0 KECCAK256 PUSH1 0x1 ADD DUP1 SLOAD DUP1 PUSH1 0x20 MUL PUSH1 0x20 ADD PUSH1 0x40 MLOAD SWAP1 DUP2 ADD PUSH1 0x40 MSTORE DUP1 SWAP3 SWAP2 SWAP1 DUP2 DUP2 MSTORE PUSH1 0x20 ADD DUP3 DUP1 SLOAD DUP1 ISZERO PUSH2 0x3E0 JUMPI PUSH1 0x20 MUL DUP3 ADD SWAP2 SWAP1 PUSH1 0x0 MSTORE PUSH1 0x20 PUSH1 0x0 KECCAK256 SWAP1 JUMPDEST DUP2 PUSH1 0x0 SWAP1 SLOAD SWAP1 PUSH2 0x100 EXP SWAP1 DIV PUSH20 0xFFFFFFFFFFFFFFFFFFFFFFFFFFFFFFFFFFFFFFFF AND PUSH20 0xFFFFFFFFFFFFFFFFFFFFFFFFFFFFFFFFFFFFFFFF AND DUP2 MSTORE PUSH1 0x20 ADD SWAP1 PUSH1 0x1 ADD SWAP1 DUP1 DUP4 GT PUSH2 0x396 JUMPI JUMPDEST POP POP POP POP POP SWAP1 POP PUSH2 0x3F1 DUP2 DUP4 PUSH2 0xAC2 JUMP JUMPDEST ISZERO PUSH2 0x431 JUMPI PUSH1 0x40 MLOAD PUSH32 0x8C379A000000000000000000000000000000000000000000000000000000000 DUP2 MSTORE PUSH1 0x4 ADD PUSH2 0x428 SWAP1 PUSH2 0xF06 JUMP JUMPDEST PUSH1 0x40 MLOAD DUP1 SWAP2 SUB SWAP1 REVERT JUMPDEST DUP5 PUSH1 0x0 DUP1 PUSH1 0x0 CALLER PUSH20 0xFFFFFFFFFFFFFFFFFFFFFFFFFFFFFFFFFFFFFFFF AND PUSH20 0xFFFFFFFFFFFFFFFFFFFFFFFFFFFFFFFFFFFFFFFF AND DUP2 MSTORE PUSH1 0x20 ADD SWAP1 DUP2 MSTORE PUSH1 0x20 ADD PUSH1 0x0 KECCAK256 PUSH1 0x0 ADD DUP1 SLOAD DUP1 PUSH1 0x20 MUL PUSH1 0x20 ADD PUSH1 0x40 MLOAD SWAP1 DUP2 ADD PUSH1 0x40 MSTORE DUP1 SWAP3 SWAP2 SWAP1 DUP2 DUP2 MSTORE PUSH1 0x20 ADD DUP3 DUP1 SLOAD DUP1 ISZERO PUSH2 0x4F5 JUMPI PUSH1 0x20 MUL DUP3 ADD SWAP2 SWAP1 PUSH1 0x0 MSTORE PUSH1 0x20 PUSH1 0x0 KECCAK256 SWAP1 JUMPDEST DUP2 PUSH1 0x0 SWAP1 SLOAD SWAP1 PUSH2 0x100 EXP SWAP1 DIV PUSH20 0xFFFFFFFFFFFFFFFFFFFFFFFFFFFFFFFFFFFFFFFF AND PUSH20 0xFFFFFFFFFFFFFFFFFFFFFFFFFFFFFFFFFFFFFFFF AND DUP2 MSTORE PUSH1 0x20 ADD SWAP1 PUSH1 0x1 ADD SWAP1 DUP1 DUP4 GT PUSH2 0x4AB JUMPI JUMPDEST POP POP POP POP POP SWAP1 POP PUSH2 0x506 DUP2 DUP4 PUSH2 0xAC2 JUMP JUMPDEST ISZERO PUSH2 0x546 JUMPI PUSH1 0x40 MLOAD PUSH32 0x8C379A000000000000000000000000000000000000000000000000000000000 DUP2 MSTORE PUSH1 0x4 ADD PUSH2 0x53D SWAP1 PUSH2 0xEE6 JUMP JUMPDEST PUSH1 0x40 MLOAD DUP1 SWAP2 SUB SWAP1 REVERT JUMPDEST DUP7 CALLER PUSH20 0xFFFFFFFFFFFFFFFFFFFFFFFFFFFFFFFFFFFFFFFF AND DUP2 PUSH20 0xFFFFFFFFFFFFFFFFFFFFFFFFFFFFFFFFFFFFFFFF AND EQ ISZERO PUSH2 0x5B6 JUMPI PUSH1 0x40 MLOAD PUSH32 0x8C379A000000000000000000000000000000000000000000000000000000000 DUP2 MSTORE PUSH1 0x4 ADD PUSH2 0x5AD SWAP1 PUSH2 0xF26 JUMP JUMPDEST PUSH1 0x40 MLOAD DUP1 SWAP2 SUB SWAP1 REVERT JUMPDEST PUSH1 0x0 DUP1 CALLER PUSH20 0xFFFFFFFFFFFFFFFFFFFFFFFFFFFFFFFFFFFFFFFF AND PUSH20 0xFFFFFFFFFFFFFFFFFFFFFFFFFFFFFFFFFFFFFFFF AND DUP2 MSTORE PUSH1 0x20 ADD SWAP1 DUP2 MSTORE PUSH1 0x20 ADD PUSH1 0x0 KECCAK256 PUSH1 0x2 ADD DUP9 SWAP1 DUP1 PUSH1 0x1 DUP2 SLOAD ADD DUP1 DUP3 SSTORE DUP1 SWAP2 POP POP PUSH1 0x1 SWAP1 SUB SWAP1 PUSH1 0x0 MSTORE PUSH1 0x20 PUSH1 0x0 KECCAK256 ADD PUSH1 0x0 SWAP1 SWAP2 SWAP1 SWAP2 SWAP1 SWAP2 PUSH2 0x100 EXP DUP2 SLOAD DUP2 PUSH20 0xFFFFFFFFFFFFFFFFFFFFFFFFFFFFFFFFFFFFFFFF MUL NOT AND SWAP1 DUP4 PUSH20 0xFFFFFFFFFFFFFFFFFFFFFFFFFFFFFFFFFFFFFFFF AND MUL OR SWAP1 SSTORE POP PUSH1 0x0 DUP1 DUP10 PUSH20 0xFFFFFFFFFFFFFFFFFFFFFFFFFFFFFFFFFFFFFFFF AND PUSH20 0xFFFFFFFFFFFFFFFFFFFFFFFFFFFFFFFFFFFFFFFF AND DUP2 MSTORE PUSH1 0x20 ADD SWAP1 DUP2 MSTORE PUSH1 0x20 ADD PUSH1 0x0 KECCAK256 PUSH1 0x1 ADD CALLER SWAP1 DUP1 PUSH1 0x1 DUP2 SLOAD ADD DUP1 DUP3 SSTORE DUP1 SWAP2 POP POP PUSH1 0x1 SWAP1 SUB SWAP1 PUSH1 0x0 MSTORE PUSH1 0x20 PUSH1 0x0 KECCAK256 ADD PUSH1 0x0 SWAP1 SWAP2 SWAP1 SWAP2 SWAP1 SWAP2 PUSH2 0x100 EXP DUP2 SLOAD DUP2 PUSH20 0xFFFFFFFFFFFFFFFFFFFFFFFFFFFFFFFFFFFFFFFF MUL NOT AND SWAP1 DUP4 PUSH20 0xFFFFFFFFFFFFFFFFFFFFFFFFFFFFFFFFFFFFFFFF AND MUL OR SWAP1 SSTORE POP POP POP POP POP POP POP POP POP JUMP JUMPDEST DUP1 PUSH1 0x0 DUP1 PUSH1 0x0 CALLER PUSH20 0xFFFFFFFFFFFFFFFFFFFFFFFFFFFFFFFFFFFFFFFF AND PUSH20 0xFFFFFFFFFFFFFFFFFFFFFFFFFFFFFFFFFFFFFFFF AND DUP2 MSTORE PUSH1 0x20 ADD SWAP1 DUP2 MSTORE PUSH1 0x20 ADD PUSH1 0x0 KECCAK256 PUSH1 0x1 ADD DUP1 SLOAD DUP1 PUSH1 0x20 MUL PUSH1 0x20 ADD PUSH1 0x40 MLOAD SWAP1 DUP2 ADD PUSH1 0x40 MSTORE DUP1 SWAP3 SWAP2 SWAP1 DUP2 DUP2 MSTORE PUSH1 0x20 ADD DUP3 DUP1 SLOAD DUP1 ISZERO PUSH2 0x7C8 JUMPI PUSH1 0x20 MUL DUP3 ADD SWAP2 SWAP1 PUSH1 0x0 MSTORE PUSH1 0x20 PUSH1 0x0 KECCAK256 SWAP1 JUMPDEST DUP2 PUSH1 0x0 SWAP1 SLOAD SWAP1 PUSH2 0x100 EXP SWAP1 DIV PUSH20 0xFFFFFFFFFFFFFFFFFFFFFFFFFFFFFFFFFFFFFFFF AND PUSH20 0xFFFFFFFFFFFFFFFFFFFFFFFFFFFFFFFFFFFFFFFF AND DUP2 MSTORE PUSH1 0x20 ADD SWAP1 PUSH1 0x1 ADD SWAP1 DUP1 DUP4 GT PUSH2 0x77E JUMPI JUMPDEST POP POP POP POP POP SWAP1 POP PUSH2 0x7D9 DUP2 DUP4 PUSH2 0xAC2 JUMP JUMPDEST PUSH2 0x818 JUMPI PUSH1 0x40 MLOAD PUSH32 0x8C379A000000000000000000000000000000000000000000000000000000000 DUP2 MSTORE PUSH1 0x4 ADD PUSH2 0x80F SWAP1 PUSH2 0xF66 JUMP JUMPDEST PUSH1 0x40 MLOAD DUP1 SWAP2 SUB SWAP1 REVERT JUMPDEST PUSH2 0x862 PUSH1 0x0 DUP1 CALLER PUSH20 0xFFFFFFFFFFFFFFFFFFFFFFFFFFFFFFFFFFFFFFFF AND PUSH20 0xFFFFFFFFFFFFFFFFFFFFFFFFFFFFFFFFFFFFFFFF AND DUP2 MSTORE PUSH1 0x20 ADD SWAP1 DUP2 MSTORE PUSH1 0x20 ADD PUSH1 0x0 KECCAK256 PUSH1 0x1 ADD DUP5 PUSH2 0xB46 JUMP JUMPDEST PUSH2 0x8AC PUSH1 0x0 DUP1 DUP6 PUSH20 0xFFFFFFFFFFFFFFFFFFFFFFFFFFFFFFFFFFFFFFFF AND PUSH20 0xFFFFFFFFFFFFFFFFFFFFFFFFFFFFFFFFFFFFFFFF AND DUP2 MSTORE PUSH1 0x20 ADD SWAP1 DUP2 MSTORE PUSH1 0x20 ADD PUSH1 0x0 KECCAK256 PUSH1 0x2 ADD CALLER PUSH2 0xB46 JUMP JUMPDEST PUSH1 0x0 DUP1 CALLER PUSH20 0xFFFFFFFFFFFFFFFFFFFFFFFFFFFFFFFFFFFFFFFF AND PUSH20 0xFFFFFFFFFFFFFFFFFFFFFFFFFFFFFFFFFFFFFFFF AND DUP2 MSTORE PUSH1 0x20 ADD SWAP1 DUP2 MSTORE PUSH1 0x20 ADD PUSH1 0x0 KECCAK256 PUSH1 0x0 ADD DUP4 SWAP1 DUP1 PUSH1 0x1 DUP2 SLOAD ADD DUP1 DUP3 SSTORE DUP1 SWAP2 POP POP PUSH1 0x1 SWAP1 SUB SWAP1 PUSH1 0x0 MSTORE PUSH1 0x20 PUSH1 0x0 KECCAK256 ADD PUSH1 0x0 SWAP1 SWAP2 SWAP1 SWAP2 SWAP1 SWAP2 PUSH2 0x100 EXP DUP2 SLOAD DUP2 PUSH20 0xFFFFFFFFFFFFFFFFFFFFFFFFFFFFFFFFFFFFFFFF MUL NOT AND SWAP1 DUP4 PUSH20 0xFFFFFFFFFFFFFFFFFFFFFFFFFFFFFFFFFFFFFFFF AND MUL OR SWAP1 SSTORE POP PUSH1 0x0 DUP1 DUP5 PUSH20 0xFFFFFFFFFFFFFFFFFFFFFFFFFFFFFFFFFFFFFFFF AND PUSH20 0xFFFFFFFFFFFFFFFFFFFFFFFFFFFFFFFFFFFFFFFF AND DUP2 MSTORE PUSH1 0x20 ADD SWAP1 DUP2 MSTORE PUSH1 0x20 ADD PUSH1 0x0 KECCAK256 PUSH1 0x0 ADD CALLER SWAP1 DUP1 PUSH1 0x1 DUP2 SLOAD ADD DUP1 DUP3 SSTORE DUP1 SWAP2 POP POP PUSH1 0x1 SWAP1 SUB SWAP1 PUSH1 0x0 MSTORE PUSH1 0x20 PUSH1 0x0 KECCAK256 ADD PUSH1 0x0 SWAP1 SWAP2 SWAP1 SWAP2 SWAP1 SWAP2 PUSH2 0x100 EXP DUP2 SLOAD DUP2 PUSH20 0xFFFFFFFFFFFFFFFFFFFFFFFFFFFFFFFFFFFFFFFF MUL NOT AND SWAP1 DUP4 PUSH20 0xFFFFFFFFFFFFFFFFFFFFFFFFFFFFFFFFFFFFFFFF AND MUL OR SWAP1 SSTORE POP POP POP POP JUMP JUMPDEST PUSH1 0x60 PUSH1 0x0 DUP1 CALLER PUSH20 0xFFFFFFFFFFFFFFFFFFFFFFFFFFFFFFFFFFFFFFFF AND PUSH20 0xFFFFFFFFFFFFFFFFFFFFFFFFFFFFFFFFFFFFFFFF AND DUP2 MSTORE PUSH1 0x20 ADD SWAP1 DUP2 MSTORE PUSH1 0x20 ADD PUSH1 0x0 KECCAK256 PUSH1 0x1 ADD DUP1 SLOAD DUP1 PUSH1 0x20 MUL PUSH1 0x20 ADD PUSH1 0x40 MLOAD SWAP1 DUP2 ADD PUSH1 0x40 MSTORE DUP1 SWAP3 SWAP2 SWAP1 DUP2 DUP2 MSTORE PUSH1 0x20 ADD DUP3 DUP1 SLOAD DUP1 ISZERO PUSH2 0xAB8 JUMPI PUSH1 0x20 MUL DUP3 ADD SWAP2 SWAP1 PUSH1 0x0 MSTORE PUSH1 0x20 PUSH1 0x0 KECCAK256 SWAP1 JUMPDEST DUP2 PUSH1 0x0 SWAP1 SLOAD SWAP1 PUSH2 0x100 EXP SWAP1 DIV PUSH20 0xFFFFFFFFFFFFFFFFFFFFFFFFFFFFFFFFFFFFFFFF AND PUSH20 0xFFFFFFFFFFFFFFFFFFFFFFFFFFFFFFFFFFFFFFFF AND DUP2 MSTORE PUSH1 0x20 ADD SWAP1 PUSH1 0x1 ADD SWAP1 DUP1 DUP4 GT PUSH2 0xA6E JUMPI JUMPDEST POP POP POP POP POP SWAP1 POP SWAP1 JUMP JUMPDEST PUSH1 0x0 DUP1 JUMPDEST DUP4 MLOAD DUP2 LT ISZERO PUSH2 0xB3A JUMPI DUP3 PUSH20 0xFFFFFFFFFFFFFFFFFFFFFFFFFFFFFFFFFFFFFFFF AND DUP5 DUP3 DUP2 MLOAD DUP2 LT PUSH2 0xAF9 JUMPI PUSH2 0xAF8 PUSH2 0x1102 JUMP JUMPDEST JUMPDEST PUSH1 0x20 MUL PUSH1 0x20 ADD ADD MLOAD PUSH20 0xFFFFFFFFFFFFFFFFFFFFFFFFFFFFFFFFFFFFFFFF AND EQ ISZERO PUSH2 0xB27 JUMPI PUSH1 0x1 SWAP2 POP POP PUSH2 0xB40 JUMP JUMPDEST DUP1 DUP1 PUSH2 0xB32 SWAP1 PUSH2 0x105B JUMP JUMPDEST SWAP2 POP POP PUSH2 0xAC6 JUMP JUMPDEST POP PUSH1 0x0 SWAP1 POP JUMPDEST SWAP3 SWAP2 POP POP JUMP JUMPDEST PUSH1 0x0 DUP1 JUMPDEST DUP4 DUP1 SLOAD SWAP1 POP DUP2 LT ISZERO PUSH2 0xBE2 JUMPI DUP3 PUSH20 0xFFFFFFFFFFFFFFFFFFFFFFFFFFFFFFFFFFFFFFFF AND DUP5 DUP3 DUP2 SLOAD DUP2 LT PUSH2 0xB80 JUMPI PUSH2 0xB7F PUSH2 0x1102 JUMP JUMPDEST JUMPDEST SWAP1 PUSH1 0x0 MSTORE PUSH1 0x20 PUSH1 0x0 KECCAK256 ADD PUSH1 0x0 SWAP1 SLOAD SWAP1 PUSH2 0x100 EXP SWAP1 DIV PUSH20 0xFFFFFFFFFFFFFFFFFFFFFFFFFFFFFFFFFFFFFFFF AND PUSH20 0xFFFFFFFFFFFFFFFFFFFFFFFFFFFFFFFFFFFFFFFF AND EQ ISZERO PUSH2 0xBCF JUMPI DUP1 SWAP2 POP PUSH2 0xBE2 JUMP JUMPDEST DUP1 DUP1 PUSH2 0xBDA SWAP1 PUSH2 0x105B JUMP JUMPDEST SWAP2 POP POP PUSH2 0xB4A JUMP JUMPDEST POP PUSH1 0x0 PUSH1 0x1 DUP5 DUP1 SLOAD SWAP1 POP PUSH2 0xBF6 SWAP2 SWAP1 PUSH2 0xFEB JUMP JUMPDEST SWAP1 POP PUSH1 0x0 DUP5 DUP3 DUP2 SLOAD DUP2 LT PUSH2 0xC0D JUMPI PUSH2 0xC0C PUSH2 0x1102 JUMP JUMPDEST JUMPDEST SWAP1 PUSH1 0x0 MSTORE PUSH1 0x20 PUSH1 0x0 KECCAK256 ADD PUSH1 0x0 SWAP1 SLOAD SWAP1 PUSH2 0x100 EXP SWAP1 DIV PUSH20 0xFFFFFFFFFFFFFFFFFFFFFFFFFFFFFFFFFFFFFFFF AND SWAP1 POP DUP4 DUP6 DUP4 DUP2 SLOAD DUP2 LT PUSH2 0xC4E JUMPI PUSH2 0xC4D PUSH2 0x1102 JUMP JUMPDEST JUMPDEST SWAP1 PUSH1 0x0 MSTORE PUSH1 0x20 PUSH1 0x0 KECCAK256 ADD PUSH1 0x0 PUSH2 0x100 EXP DUP2 SLOAD DUP2 PUSH20 0xFFFFFFFFFFFFFFFFFFFFFFFFFFFFFFFFFFFFFFFF MUL NOT AND SWAP1 DUP4 PUSH20 0xFFFFFFFFFFFFFFFFFFFFFFFFFFFFFFFFFFFFFFFF AND MUL OR SWAP1 SSTORE POP DUP1 DUP6 DUP5 DUP2 SLOAD DUP2 LT PUSH2 0xCAA JUMPI PUSH2 0xCA9 PUSH2 0x1102 JUMP JUMPDEST JUMPDEST SWAP1 PUSH1 0x0 MSTORE PUSH1 0x20 PUSH1 0x0 KECCAK256 ADD PUSH1 0x0 PUSH2 0x100 EXP DUP2 SLOAD DUP2 PUSH20 0xFFFFFFFFFFFFFFFFFFFFFFFFFFFFFFFFFFFFFFFF MUL NOT AND SWAP1 DUP4 PUSH20 0xFFFFFFFFFFFFFFFFFFFFFFFFFFFFFFFFFFFFFFFF AND MUL OR SWAP1 SSTORE POP DUP5 DUP1 SLOAD DUP1 PUSH2 0xD03 JUMPI PUSH2 0xD02 PUSH2 0x10D3 JUMP JUMPDEST JUMPDEST PUSH1 0x1 SWAP1 SUB DUP2 DUP2 SWAP1 PUSH1 0x0 MSTORE PUSH1 0x20 PUSH1 0x0 KECCAK256 ADD PUSH1 0x0 PUSH2 0x100 EXP DUP2 SLOAD SWAP1 PUSH20 0xFFFFFFFFFFFFFFFFFFFFFFFFFFFFFFFFFFFFFFFF MUL NOT AND SWAP1 SSTORE SWAP1 SSTORE POP POP POP POP POP JUMP JUMPDEST PUSH1 0x0 DUP2 CALLDATALOAD SWAP1 POP PUSH2 0xD4E DUP2 PUSH2 0x12C1 JUMP JUMPDEST SWAP3 SWAP2 POP POP JUMP JUMPDEST PUSH1 0x0 PUSH1 0x20 DUP3 DUP5 SUB SLT ISZERO PUSH2 0xD6A JUMPI PUSH2 0xD69 PUSH2 0x1131 JUMP JUMPDEST JUMPDEST PUSH1 0x0 PUSH2 0xD78 DUP5 DUP3 DUP6 ADD PUSH2 0xD3F JUMP JUMPDEST SWAP2 POP POP SWAP3 SWAP2 POP POP JUMP JUMPDEST PUSH1 0x0 PUSH2 0xD8D DUP4 DUP4 PUSH2 0xD99 JUMP JUMPDEST PUSH1 0x20 DUP4 ADD SWAP1 POP SWAP3 SWAP2 POP POP JUMP JUMPDEST PUSH2 0xDA2 DUP2 PUSH2 0x101F JUMP JUMPDEST DUP3 MSTORE POP POP JUMP JUMPDEST PUSH1 0x0 PUSH2 0xDB3 DUP3 PUSH2 0xFB1 JUMP JUMPDEST PUSH2 0xDBD DUP2 DUP6 PUSH2 0xFC9 JUMP JUMPDEST SWAP4 POP PUSH2 0xDC8 DUP4 PUSH2 0xFA1 JUMP JUMPDEST DUP1 PUSH1 0x0 JUMPDEST DUP4 DUP2 LT ISZERO PUSH2 0xDF9 JUMPI DUP2 MLOAD PUSH2 0xDE0 DUP9 DUP3 PUSH2 0xD81 JUMP JUMPDEST SWAP8 POP PUSH2 0xDEB DUP4 PUSH2 0xFBC JUMP JUMPDEST SWAP3 POP POP PUSH1 0x1 DUP2 ADD SWAP1 POP PUSH2 0xDCC JUMP JUMPDEST POP DUP6 SWAP4 POP POP POP POP SWAP3 SWAP2 POP POP JUMP JUMPDEST PUSH1 0x0 PUSH2 0xE13 PUSH1 0x26 DUP4 PUSH2 0xFDA JUMP JUMPDEST SWAP2 POP PUSH2 0xE1E DUP3 PUSH2 0x1136 JUMP JUMPDEST PUSH1 0x40 DUP3 ADD SWAP1 POP SWAP2 SWAP1 POP JUMP JUMPDEST PUSH1 0x0 PUSH2 0xE36 PUSH1 0x28 DUP4 PUSH2 0xFDA JUMP JUMPDEST SWAP2 POP PUSH2 0xE41 DUP3 PUSH2 0x1185 JUMP JUMPDEST PUSH1 0x40 DUP3 ADD SWAP1 POP SWAP2 SWAP1 POP JUMP JUMPDEST PUSH1 0x0 PUSH2 0xE59 PUSH1 0x25 DUP4 PUSH2 0xFDA JUMP JUMPDEST SWAP2 POP PUSH2 0xE64 DUP3 PUSH2 0x11D4 JUMP JUMPDEST PUSH1 0x40 DUP3 ADD SWAP1 POP SWAP2 SWAP1 POP JUMP JUMPDEST PUSH1 0x0 PUSH2 0xE7C PUSH1 0x29 DUP4 PUSH2 0xFDA JUMP JUMPDEST SWAP2 POP PUSH2 0xE87 DUP3 PUSH2 0x1223 JUMP JUMPDEST PUSH1 0x40 DUP3 ADD SWAP1 POP SWAP2 SWAP1 POP JUMP JUMPDEST PUSH1 0x0 PUSH2 0xE9F PUSH1 0x24 DUP4 PUSH2 0xFDA JUMP JUMPDEST SWAP2 POP PUSH2 0xEAA DUP3 PUSH2 0x1272 JUMP JUMPDEST PUSH1 0x40 DUP3 ADD SWAP1 POP SWAP2 SWAP1 POP JUMP JUMPDEST PUSH2 0xEBE DUP2 PUSH2 0x1051 JUMP JUMPDEST DUP3 MSTORE POP POP JUMP JUMPDEST PUSH1 0x0 PUSH1 0x20 DUP3 ADD SWAP1 POP DUP2 DUP2 SUB PUSH1 0x0 DUP4 ADD MSTORE PUSH2 0xEDE DUP2 DUP5 PUSH2 0xDA8 JUMP JUMPDEST SWAP1 POP SWAP3 SWAP2 POP POP JUMP JUMPDEST PUSH1 0x0 PUSH1 0x20 DUP3 ADD SWAP1 POP DUP2 DUP2 SUB PUSH1 0x0 DUP4 ADD MSTORE PUSH2 0xEFF DUP2 PUSH2 0xE06 JUMP JUMPDEST SWAP1 POP SWAP2 SWAP1 POP JUMP JUMPDEST PUSH1 0x0 PUSH1 0x20 DUP3 ADD SWAP1 POP DUP2 DUP2 SUB PUSH1 0x0 DUP4 ADD MSTORE PUSH2 0xF1F DUP2 PUSH2 0xE29 JUMP JUMPDEST SWAP1 POP SWAP2 SWAP1 POP JUMP JUMPDEST PUSH1 0x0 PUSH1 0x20 DUP3 ADD SWAP1 POP DUP2 DUP2 SUB PUSH1 0x0 DUP4 ADD MSTORE PUSH2 0xF3F DUP2 PUSH2 0xE4C JUMP JUMPDEST SWAP1 POP SWAP2 SWAP1 POP JUMP JUMPDEST PUSH1 0x0 PUSH1 0x20 DUP3 ADD SWAP1 POP DUP2 DUP2 SUB PUSH1 0x0 DUP4 ADD MSTORE PUSH2 0xF5F DUP2 PUSH2 0xE6F JUMP JUMPDEST SWAP1 POP SWAP2 SWAP1 POP JUMP JUMPDEST PUSH1 0x0 PUSH1 0x20 DUP3 ADD SWAP1 POP DUP2 DUP2 SUB PUSH1 0x0 DUP4 ADD MSTORE PUSH2 0xF7F DUP2 PUSH2 0xE92 JUMP JUMPDEST SWAP1 POP SWAP2 SWAP1 POP JUMP JUMPDEST PUSH1 0x0 PUSH1 0x20 DUP3 ADD SWAP1 POP PUSH2 0xF9B PUSH1 0x0 DUP4 ADD DUP5 PUSH2 0xEB5 JUMP JUMPDEST SWAP3 SWAP2 POP POP JUMP JUMPDEST PUSH1 0x0 DUP2 SWAP1 POP PUSH1 0x20 DUP3 ADD SWAP1 POP SWAP2 SWAP1 POP JUMP JUMPDEST PUSH1 0x0 DUP2 MLOAD SWAP1 POP SWAP2 SWAP1 POP JUMP JUMPDEST PUSH1 0x0 PUSH1 0x20 DUP3 ADD SWAP1 POP SWAP2 SWAP1 POP JUMP JUMPDEST PUSH1 0x0 DUP3 DUP3 MSTORE PUSH1 0x20 DUP3 ADD SWAP1 POP SWAP3 SWAP2 POP POP JUMP JUMPDEST PUSH1 0x0 DUP3 DUP3 MSTORE PUSH1 0x20 DUP3 ADD SWAP1 POP SWAP3 SWAP2 POP POP JUMP JUMPDEST PUSH1 0x0 PUSH2 0xFF6 DUP3 PUSH2 0x1051 JUMP JUMPDEST SWAP2 POP PUSH2 0x1001 DUP4 PUSH2 0x1051 JUMP JUMPDEST SWAP3 POP DUP3 DUP3 LT ISZERO PUSH2 0x1014 JUMPI PUSH2 0x1013 PUSH2 0x10A4 JUMP JUMPDEST JUMPDEST DUP3 DUP3 SUB SWAP1 POP SWAP3 SWAP2 POP POP JUMP JUMPDEST PUSH1 0x0 PUSH2 0x102A DUP3 PUSH2 0x1031 JUMP JUMPDEST SWAP1 POP SWAP2 SWAP1 POP JUMP JUMPDEST PUSH1 0x0 PUSH20 0xFFFFFFFFFFFFFFFFFFFFFFFFFFFFFFFFFFFFFFFF DUP3 AND SWAP1 POP SWAP2 SWAP1 POP JUMP JUMPDEST PUSH1 0x0 DUP2 SWAP1 POP SWAP2 SWAP1 POP JUMP JUMPDEST PUSH1 0x0 PUSH2 0x1066 DUP3 PUSH2 0x1051 JUMP JUMPDEST SWAP2 POP PUSH32 0xFFFFFFFFFFFFFFFFFFFFFFFFFFFFFFFFFFFFFFFFFFFFFFFFFFFFFFFFFFFFFFFF DUP3 EQ ISZERO PUSH2 0x1099 JUMPI PUSH2 0x1098 PUSH2 0x10A4 JUMP JUMPDEST JUMPDEST PUSH1 0x1 DUP3 ADD SWAP1 POP SWAP2 SWAP1 POP JUMP JUMPDEST PUSH32 0x4E487B7100000000000000000000000000000000000000000000000000000000 PUSH1 0x0 MSTORE PUSH1 0x11 PUSH1 0x4 MSTORE PUSH1 0x24 PUSH1 0x0 REVERT JUMPDEST PUSH32 0x4E487B7100000000000000000000000000000000000000000000000000000000 PUSH1 0x0 MSTORE PUSH1 0x31 PUSH1 0x4 MSTORE PUSH1 0x24 PUSH1 0x0 REVERT JUMPDEST PUSH32 0x4E487B7100000000000000000000000000000000000000000000000000000000 PUSH1 0x0 MSTORE PUSH1 0x32 PUSH1 0x4 MSTORE PUSH1 0x24 PUSH1 0x0 REVERT JUMPDEST PUSH1 0x0 DUP1 REVERT JUMPDEST PUSH32 0x596F752061726520616C726561647920667269656E6473207769746820746869 PUSH1 0x0 DUP3 ADD MSTORE PUSH32 0x7320757365720000000000000000000000000000000000000000000000000000 PUSH1 0x20 DUP3 ADD MSTORE POP JUMP JUMPDEST PUSH32 0x5468697320757365722068617320616C72656164792073656E7420796F752061 PUSH1 0x0 DUP3 ADD MSTORE PUSH32 0x2072657175657374000000000000000000000000000000000000000000000000 PUSH1 0x20 DUP3 ADD MSTORE POP JUMP JUMPDEST PUSH32 0x596F752063616E6E6F742073656E642061207265717565737420746F20796F75 PUSH1 0x0 DUP3 ADD MSTORE PUSH32 0x7273656C66000000000000000000000000000000000000000000000000000000 PUSH1 0x20 DUP3 ADD MSTORE POP JUMP JUMPDEST PUSH32 0x596F75206861766520616C72656164792073656E742074686973207573657220 PUSH1 0x0 DUP3 ADD MSTORE PUSH32 0x6120726571756573740000000000000000000000000000000000000000000000 PUSH1 0x20 DUP3 ADD MSTORE POP JUMP JUMPDEST PUSH32 0x54686973207573657220686173206E6F742073656E7420796F75206120726571 PUSH1 0x0 DUP3 ADD MSTORE PUSH32 0x7565737400000000000000000000000000000000000000000000000000000000 PUSH1 0x20 DUP3 ADD MSTORE POP JUMP JUMPDEST PUSH2 0x12CA DUP2 PUSH2 0x101F JUMP JUMPDEST DUP2 EQ PUSH2 0x12D5 JUMPI PUSH1 0x0 DUP1 REVERT JUMPDEST POP JUMP INVALID LOG2 PUSH5 0x6970667358 0x22 SLT KECCAK256 0x5C 0xDC PUSH21 0x54D2DF49A9E5610757A5F8303C812B1802C70050F PUSH8 0x4356D91E6E96DC64 PUSH20 0x6F6C634300080700330000000000000000000000 "
				},
				"gasEstimates": {
					"creation": {
						"codeDepositCost": "975600",
						"executionCost": "1014",
						"totalCost": "976614"
					},
					"external": {
						"acceptFriendRequest(address)": "infinite",
						"getFriendRequests()": "infinite",
						"getFriends()": "infinite",
						"getNumberOfFriends()": "2540",
						"sendFriendRequest(address)": "infinite"
					},
					"internal": {
						"arrayContains(address[] memory,address)": "infinite",
						"removeFromArray(address[] storage pointer,address)": "infinite"
					}
				},
				"methodIdentifiers": {
					"acceptFriendRequest(address)": "a9f56466",
					"getFriendRequests()": "d6688cbd",
					"getFriends()": "1f8f7270",
					"getNumberOfFriends()": "67db8b68",
					"sendFriendRequest(address)": "837b770a"
				}
			},
			"storageLayout": {
				"storage": [
					{
						"astId": 16,
						"contract": "contracts/FriendsList.sol:Friends",
						"label": "people",
						"offset": 0,
						"slot": "0",
						"type": "t_mapping(t_address,t_struct(Friend)11_storage)"
					}
				],
				"types": {
					"t_address": {
						"encoding": "inplace",
						"label": "address",
						"numberOfBytes": "20"
					},
					"t_array(t_address)dyn_storage": {
						"base": "t_address",
						"encoding": "dynamic_array",
						"label": "address[]",
						"numberOfBytes": "32"
					},
					"t_mapping(t_address,t_struct(Friend)11_storage)": {
						"encoding": "mapping",
						"key": "t_address",
						"label": "mapping(address => struct Friends.Friend)",
						"numberOfBytes": "32",
						"value": "t_struct(Friend)11_storage"
					},
					"t_struct(Friend)11_storage": {
						"encoding": "inplace",
						"label": "struct Friends.Friend",
						"members": [
							{
								"astId": 4,
								"contract": "contracts/FriendsList.sol:Friends",
								"label": "friends",
								"offset": 0,
								"slot": "0",
								"type": "t_array(t_address)dyn_storage"
							},
							{
								"astId": 7,
								"contract": "contracts/FriendsList.sol:Friends",
								"label": "friendRequests",
								"offset": 0,
								"slot": "1",
								"type": "t_array(t_address)dyn_storage"
							},
							{
								"astId": 10,
								"contract": "contracts/FriendsList.sol:Friends",
								"label": "friendRequestsSent",
								"offset": 0,
								"slot": "2",
								"type": "t_array(t_address)dyn_storage"
							}
						],
						"numberOfBytes": "96"
					}
				}
			},
			"userdoc": {
				"kind": "user",
				"methods": {},
				"version": 1
			}
		}
	}
}