{
	"contracts/FancyShirts.sol": {
		"FancyShirts": {
			"abi": [
				{
					"inputs": [
						{
							"internalType": "enum FancyShirts.Size",
							"name": "size",
							"type": "uint8"
						},
						{
							"internalType": "enum FancyShirts.Color",
							"name": "color",
							"type": "uint8"
						}
					],
					"name": "buyShirt",
					"outputs": [],
					"stateMutability": "payable",
					"type": "function"
				},
				{
					"inputs": [
						{
							"internalType": "enum FancyShirts.Size",
							"name": "size",
							"type": "uint8"
						},
						{
							"internalType": "enum FancyShirts.Color",
							"name": "color",
							"type": "uint8"
						}
					],
					"name": "getShirtPrice",
					"outputs": [
						{
							"internalType": "uint256",
							"name": "",
							"type": "uint256"
						}
					],
					"stateMutability": "pure",
					"type": "function"
				},
				{
					"inputs": [
						{
							"internalType": "enum FancyShirts.Size",
							"name": "size",
							"type": "uint8"
						},
						{
							"internalType": "enum FancyShirts.Color",
							"name": "color",
							"type": "uint8"
						}
					],
					"name": "getShirts",
					"outputs": [
						{
							"internalType": "uint256",
							"name": "",
							"type": "uint256"
						}
					],
					"stateMutability": "view",
					"type": "function"
				}
			],
			"devdoc": {
				"kind": "dev",
				"methods": {},
				"version": 1
			},
			"evm": {
				"assembly": "    /* \"contracts/FancyShirts.sol\":36:1488  contract FancyShirts {... */\n  mstore(0x40, 0x80)\n  callvalue\n  dup1\n  iszero\n  tag_1\n  jumpi\n  0x00\n  dup1\n  revert\ntag_1:\n  pop\n  dataSize(sub_0)\n  dup1\n  dataOffset(sub_0)\n  0x00\n  codecopy\n  0x00\n  return\nstop\n\nsub_0: assembly {\n        /* \"contracts/FancyShirts.sol\":36:1488  contract FancyShirts {... */\n      mstore(0x40, 0x80)\n      jumpi(tag_1, lt(calldatasize, 0x04))\n      shr(0xe0, calldataload(0x00))\n      dup1\n      0x6aa283a5\n      eq\n      tag_2\n      jumpi\n      dup1\n      0x71cc64b4\n      eq\n      tag_3\n      jumpi\n      dup1\n      0xb97461d3\n      eq\n      tag_4\n      jumpi\n    tag_1:\n      0x00\n      dup1\n      revert\n        /* \"contracts/FancyShirts.sol\":930:1110  function buyShirt(Size size, Color color) public payable correctAmount(size, color) {... */\n    tag_2:\n      tag_5\n      0x04\n      dup1\n      calldatasize\n      sub\n      dup2\n      add\n      swap1\n      tag_6\n      swap2\n      swap1\n      tag_7\n      jump\t// in\n    tag_6:\n      tag_8\n      jump\t// in\n    tag_5:\n      stop\n        /* \"contracts/FancyShirts.sol\":1116:1486  function getShirts(Size size, Color color) public view returns (uint256) {... */\n    tag_3:\n      callvalue\n      dup1\n      iszero\n      tag_9\n      jumpi\n      0x00\n      dup1\n      revert\n    tag_9:\n      pop\n      tag_10\n      0x04\n      dup1\n      calldatasize\n      sub\n      dup2\n      add\n      swap1\n      tag_11\n      swap2\n      swap1\n      tag_7\n      jump\t// in\n    tag_11:\n      tag_12\n      jump\t// in\n    tag_10:\n      mload(0x40)\n      tag_13\n      swap2\n      swap1\n      tag_14\n      jump\t// in\n    tag_13:\n      mload(0x40)\n      dup1\n      swap2\n      sub\n      swap1\n      return\n        /* \"contracts/FancyShirts.sol\":519:924  function getShirtPrice(Size size, Color color)... */\n    tag_4:\n      callvalue\n      dup1\n      iszero\n      tag_15\n      jumpi\n      0x00\n      dup1\n      revert\n    tag_15:\n      pop\n      tag_16\n      0x04\n      dup1\n      calldatasize\n      sub\n      dup2\n      add\n      swap1\n      tag_17\n      swap2\n      swap1\n      tag_7\n      jump\t// in\n    tag_17:\n      tag_18\n      jump\t// in\n    tag_16:\n      mload(0x40)\n      tag_19\n      swap2\n      swap1\n      tag_14\n      jump\t// in\n    tag_19:\n      mload(0x40)\n      dup1\n      swap2\n      sub\n      swap1\n      return\n        /* \"contracts/FancyShirts.sol\":930:1110  function buyShirt(Size size, Color color) public payable correctAmount(size, color) {... */\n    tag_8:\n        /* \"contracts/FancyShirts.sol\":1001:1005  size */\n      dup2\n        /* \"contracts/FancyShirts.sol\":1007:1012  color */\n      dup2\n        /* \"contracts/FancyShirts.sol\":439:448  msg.value */\n      callvalue\n        /* \"contracts/FancyShirts.sol\":409:435  getShirtPrice(size, color) */\n      tag_21\n        /* \"contracts/FancyShirts.sol\":423:427  size */\n      dup4\n        /* \"contracts/FancyShirts.sol\":429:434  color */\n      dup4\n        /* \"contracts/FancyShirts.sol\":409:422  getShirtPrice */\n      tag_18\n        /* \"contracts/FancyShirts.sol\":409:435  getShirtPrice(size, color) */\n      jump\t// in\n    tag_21:\n        /* \"contracts/FancyShirts.sol\":409:448  getShirtPrice(size, color) == msg.value */\n      eq\n        /* \"contracts/FancyShirts.sol\":388:495  require(... */\n      tag_22\n      jumpi\n      mload(0x40)\n      0x08c379a000000000000000000000000000000000000000000000000000000000\n      dup2\n      mstore\n      0x04\n      add\n      tag_23\n      swap1\n      tag_24\n      jump\t// in\n    tag_23:\n      mload(0x40)\n      dup1\n      swap2\n      sub\n      swap1\n      revert\n    tag_22:\n        /* \"contracts/FancyShirts.sol\":1024:1042  Shirt memory shirt */\n      0x00\n        /* \"contracts/FancyShirts.sol\":1045:1063  Shirt(size, color) */\n      mload(0x40)\n      dup1\n      0x40\n      add\n      0x40\n      mstore\n      dup1\n        /* \"contracts/FancyShirts.sol\":1051:1055  size */\n      dup7\n        /* \"contracts/FancyShirts.sol\":1045:1063  Shirt(size, color) */\n      0x02\n      dup2\n      gt\n      iszero\n      tag_26\n      jumpi\n      tag_27\n      tag_28\n      jump\t// in\n    tag_27:\n    tag_26:\n      dup2\n      mstore\n      0x20\n      add\n        /* \"contracts/FancyShirts.sol\":1057:1062  color */\n      dup6\n        /* \"contracts/FancyShirts.sol\":1045:1063  Shirt(size, color) */\n      0x02\n      dup2\n      gt\n      iszero\n      tag_29\n      jumpi\n      tag_30\n      tag_28\n      jump\t// in\n    tag_30:\n    tag_29:\n      dup2\n      mstore\n      pop\n        /* \"contracts/FancyShirts.sol\":1024:1063  Shirt memory shirt = Shirt(size, color) */\n      swap1\n      pop\n        /* \"contracts/FancyShirts.sol\":1073:1079  shirts */\n      0x00\n        /* \"contracts/FancyShirts.sol\":1073:1091  shirts[msg.sender] */\n      dup1\n        /* \"contracts/FancyShirts.sol\":1080:1090  msg.sender */\n      caller\n        /* \"contracts/FancyShirts.sol\":1073:1091  shirts[msg.sender] */\n      0xffffffffffffffffffffffffffffffffffffffff\n      and\n      0xffffffffffffffffffffffffffffffffffffffff\n      and\n      dup2\n      mstore\n      0x20\n      add\n      swap1\n      dup2\n      mstore\n      0x20\n      add\n      0x00\n      keccak256\n        /* \"contracts/FancyShirts.sol\":1097:1102  shirt */\n      dup2\n        /* \"contracts/FancyShirts.sol\":1073:1103  shirts[msg.sender].push(shirt) */\n      swap1\n      dup1\n      0x01\n      dup2\n      sload\n      add\n      dup1\n      dup3\n      sstore\n      dup1\n      swap2\n      pop\n      pop\n      0x01\n      swap1\n      sub\n      swap1\n      0x00\n      mstore\n      keccak256(0x00, 0x20)\n      add\n      0x00\n      swap1\n      swap2\n      swap1\n      swap2\n      swap1\n      swap2\n      pop\n      0x00\n      dup3\n      add\n      mload\n      dup2\n      0x00\n      add\n      exp(0x0100, 0x00)\n      dup2\n      sload\n      dup2\n      0xff\n      mul\n      not\n      and\n      swap1\n      dup4\n      0x02\n      dup2\n      gt\n      iszero\n      tag_32\n      jumpi\n      tag_33\n      tag_28\n      jump\t// in\n    tag_33:\n    tag_32:\n      mul\n      or\n      swap1\n      sstore\n      pop\n      0x20\n      dup3\n      add\n      mload\n      dup2\n      0x00\n      add\n      exp(0x0100, 0x01)\n      dup2\n      sload\n      dup2\n      0xff\n      mul\n      not\n      and\n      swap1\n      dup4\n      0x02\n      dup2\n      gt\n      iszero\n      tag_34\n      jumpi\n      tag_35\n      tag_28\n      jump\t// in\n    tag_35:\n    tag_34:\n      mul\n      or\n      swap1\n      sstore\n      pop\n      pop\n      pop\n        /* \"contracts/FancyShirts.sol\":1014:1110  {... */\n      pop\n        /* \"contracts/FancyShirts.sol\":930:1110  function buyShirt(Size size, Color color) public payable correctAmount(size, color) {... */\n      pop\n      pop\n      pop\n      pop\n      jump\t// out\n        /* \"contracts/FancyShirts.sol\":1116:1486  function getShirts(Size size, Color color) public view returns (uint256) {... */\n    tag_12:\n        /* \"contracts/FancyShirts.sol\":1180:1187  uint256 */\n      0x00\n        /* \"contracts/FancyShirts.sol\":1199:1212  uint256 count */\n      dup1\n        /* \"contracts/FancyShirts.sol\":1227:1238  uint256 idx */\n      0x00\n        /* \"contracts/FancyShirts.sol\":1222:1458  for (uint256 idx; idx < shirts[msg.sender].length; idx++) {... */\n    tag_37:\n        /* \"contracts/FancyShirts.sol\":1246:1252  shirts */\n      0x00\n        /* \"contracts/FancyShirts.sol\":1246:1264  shirts[msg.sender] */\n      dup1\n        /* \"contracts/FancyShirts.sol\":1253:1263  msg.sender */\n      caller\n        /* \"contracts/FancyShirts.sol\":1246:1264  shirts[msg.sender] */\n      0xffffffffffffffffffffffffffffffffffffffff\n      and\n      0xffffffffffffffffffffffffffffffffffffffff\n      and\n      dup2\n      mstore\n      0x20\n      add\n      swap1\n      dup2\n      mstore\n      0x20\n      add\n      0x00\n      keccak256\n        /* \"contracts/FancyShirts.sol\":1246:1271  shirts[msg.sender].length */\n      dup1\n      sload\n      swap1\n      pop\n        /* \"contracts/FancyShirts.sol\":1240:1243  idx */\n      dup2\n        /* \"contracts/FancyShirts.sol\":1240:1271  idx < shirts[msg.sender].length */\n      lt\n        /* \"contracts/FancyShirts.sol\":1222:1458  for (uint256 idx; idx < shirts[msg.sender].length; idx++) {... */\n      iszero\n      tag_38\n      jumpi\n        /* \"contracts/FancyShirts.sol\":1347:1351  size */\n      dup5\n        /* \"contracts/FancyShirts.sol\":1315:1351  shirts[msg.sender][idx].size == size */\n      0x02\n      dup2\n      gt\n      iszero\n      tag_40\n      jumpi\n      tag_41\n      tag_28\n      jump\t// in\n    tag_41:\n    tag_40:\n        /* \"contracts/FancyShirts.sol\":1315:1321  shirts */\n      0x00\n        /* \"contracts/FancyShirts.sol\":1315:1333  shirts[msg.sender] */\n      dup1\n        /* \"contracts/FancyShirts.sol\":1322:1332  msg.sender */\n      caller\n        /* \"contracts/FancyShirts.sol\":1315:1333  shirts[msg.sender] */\n      0xffffffffffffffffffffffffffffffffffffffff\n      and\n      0xffffffffffffffffffffffffffffffffffffffff\n      and\n      dup2\n      mstore\n      0x20\n      add\n      swap1\n      dup2\n      mstore\n      0x20\n      add\n      0x00\n      keccak256\n        /* \"contracts/FancyShirts.sol\":1334:1337  idx */\n      dup3\n        /* \"contracts/FancyShirts.sol\":1315:1338  shirts[msg.sender][idx] */\n      dup2\n      sload\n      dup2\n      lt\n      tag_42\n      jumpi\n      tag_43\n      tag_44\n      jump\t// in\n    tag_43:\n    tag_42:\n      swap1\n      0x00\n      mstore\n      keccak256(0x00, 0x20)\n      add\n        /* \"contracts/FancyShirts.sol\":1315:1343  shirts[msg.sender][idx].size */\n      0x00\n      add\n      0x00\n      swap1\n      sload\n      swap1\n      0x0100\n      exp\n      swap1\n      div\n      0xff\n      and\n        /* \"contracts/FancyShirts.sol\":1315:1351  shirts[msg.sender][idx].size == size */\n      0x02\n      dup2\n      gt\n      iszero\n      tag_46\n      jumpi\n      tag_47\n      tag_28\n      jump\t// in\n    tag_47:\n    tag_46:\n      eq\n        /* \"contracts/FancyShirts.sol\":1315:1393  shirts[msg.sender][idx].size == size && shirts[msg.sender][idx].color == color */\n      dup1\n      iszero\n      tag_48\n      jumpi\n      pop\n        /* \"contracts/FancyShirts.sol\":1388:1393  color */\n      dup4\n        /* \"contracts/FancyShirts.sol\":1355:1393  shirts[msg.sender][idx].color == color */\n      0x02\n      dup2\n      gt\n      iszero\n      tag_49\n      jumpi\n      tag_50\n      tag_28\n      jump\t// in\n    tag_50:\n    tag_49:\n        /* \"contracts/FancyShirts.sol\":1355:1361  shirts */\n      0x00\n        /* \"contracts/FancyShirts.sol\":1355:1373  shirts[msg.sender] */\n      dup1\n        /* \"contracts/FancyShirts.sol\":1362:1372  msg.sender */\n      caller\n        /* \"contracts/FancyShirts.sol\":1355:1373  shirts[msg.sender] */\n      0xffffffffffffffffffffffffffffffffffffffff\n      and\n      0xffffffffffffffffffffffffffffffffffffffff\n      and\n      dup2\n      mstore\n      0x20\n      add\n      swap1\n      dup2\n      mstore\n      0x20\n      add\n      0x00\n      keccak256\n        /* \"contracts/FancyShirts.sol\":1374:1377  idx */\n      dup3\n        /* \"contracts/FancyShirts.sol\":1355:1378  shirts[msg.sender][idx] */\n      dup2\n      sload\n      dup2\n      lt\n      tag_51\n      jumpi\n      tag_52\n      tag_44\n      jump\t// in\n    tag_52:\n    tag_51:\n      swap1\n      0x00\n      mstore\n      keccak256(0x00, 0x20)\n      add\n        /* \"contracts/FancyShirts.sol\":1355:1384  shirts[msg.sender][idx].color */\n      0x00\n      add\n      0x01\n      swap1\n      sload\n      swap1\n      0x0100\n      exp\n      swap1\n      div\n      0xff\n      and\n        /* \"contracts/FancyShirts.sol\":1355:1393  shirts[msg.sender][idx].color == color */\n      0x02\n      dup2\n      gt\n      iszero\n      tag_54\n      jumpi\n      tag_55\n      tag_28\n      jump\t// in\n    tag_55:\n    tag_54:\n      eq\n        /* \"contracts/FancyShirts.sol\":1315:1393  shirts[msg.sender][idx].size == size && shirts[msg.sender][idx].color == color */\n    tag_48:\n        /* \"contracts/FancyShirts.sol\":1294:1448  if (... */\n      iszero\n      tag_56\n      jumpi\n        /* \"contracts/FancyShirts.sol\":1426:1433  count++ */\n      dup2\n      dup1\n      tag_57\n      swap1\n      tag_58\n      jump\t// in\n    tag_57:\n      swap3\n      pop\n      pop\n        /* \"contracts/FancyShirts.sol\":1294:1448  if (... */\n    tag_56:\n        /* \"contracts/FancyShirts.sol\":1273:1278  idx++ */\n      dup1\n      dup1\n      tag_59\n      swap1\n      tag_58\n      jump\t// in\n    tag_59:\n      swap2\n      pop\n      pop\n        /* \"contracts/FancyShirts.sol\":1222:1458  for (uint256 idx; idx < shirts[msg.sender].length; idx++) {... */\n      jump(tag_37)\n    tag_38:\n      pop\n        /* \"contracts/FancyShirts.sol\":1474:1479  count */\n      dup1\n        /* \"contracts/FancyShirts.sol\":1467:1479  return count */\n      swap2\n      pop\n      pop\n        /* \"contracts/FancyShirts.sol\":1116:1486  function getShirts(Size size, Color color) public view returns (uint256) {... */\n      swap3\n      swap2\n      pop\n      pop\n      jump\t// out\n        /* \"contracts/FancyShirts.sol\":519:924  function getShirtPrice(Size size, Color color)... */\n    tag_18:\n        /* \"contracts/FancyShirts.sol\":611:618  uint256 */\n      0x00\n        /* \"contracts/FancyShirts.sol\":634:647  uint256 price */\n      dup1\n        /* \"contracts/FancyShirts.sol\":669:679  Size.Small */\n      0x00\n        /* \"contracts/FancyShirts.sol\":661:679  size == Size.Small */\n      0x02\n      dup2\n      gt\n      iszero\n      tag_61\n      jumpi\n      tag_62\n      tag_28\n      jump\t// in\n    tag_62:\n    tag_61:\n        /* \"contracts/FancyShirts.sol\":661:665  size */\n      dup5\n        /* \"contracts/FancyShirts.sol\":661:679  size == Size.Small */\n      0x02\n      dup2\n      gt\n      iszero\n      tag_63\n      jumpi\n      tag_64\n      tag_28\n      jump\t// in\n    tag_64:\n    tag_63:\n      eq\n        /* \"contracts/FancyShirts.sol\":657:826  if (size == Size.Small) {... */\n      iszero\n      tag_65\n      jumpi\n        /* \"contracts/FancyShirts.sol\":704:706  10 */\n      0x0a\n        /* \"contracts/FancyShirts.sol\":695:706  price += 10 */\n      dup2\n      tag_66\n      swap2\n      swap1\n      tag_67\n      jump\t// in\n    tag_66:\n      swap1\n      pop\n        /* \"contracts/FancyShirts.sol\":657:826  if (size == Size.Small) {... */\n      jump(tag_68)\n    tag_65:\n        /* \"contracts/FancyShirts.sol\":735:746  Size.Medium */\n      0x01\n        /* \"contracts/FancyShirts.sol\":727:746  size == Size.Medium */\n      0x02\n      dup2\n      gt\n      iszero\n      tag_69\n      jumpi\n      tag_70\n      tag_28\n      jump\t// in\n    tag_70:\n    tag_69:\n        /* \"contracts/FancyShirts.sol\":727:731  size */\n      dup5\n        /* \"contracts/FancyShirts.sol\":727:746  size == Size.Medium */\n      0x02\n      dup2\n      gt\n      iszero\n      tag_71\n      jumpi\n      tag_72\n      tag_28\n      jump\t// in\n    tag_72:\n    tag_71:\n      eq\n        /* \"contracts/FancyShirts.sol\":723:826  if (size == Size.Medium) {... */\n      iszero\n      tag_73\n      jumpi\n        /* \"contracts/FancyShirts.sol\":771:773  15 */\n      0x0f\n        /* \"contracts/FancyShirts.sol\":762:773  price += 15 */\n      dup2\n      tag_74\n      swap2\n      swap1\n      tag_67\n      jump\t// in\n    tag_74:\n      swap1\n      pop\n        /* \"contracts/FancyShirts.sol\":723:826  if (size == Size.Medium) {... */\n      jump(tag_75)\n    tag_73:\n        /* \"contracts/FancyShirts.sol\":813:815  20 */\n      0x14\n        /* \"contracts/FancyShirts.sol\":804:815  price += 20 */\n      dup2\n      tag_76\n      swap2\n      swap1\n      tag_67\n      jump\t// in\n    tag_76:\n      swap1\n      pop\n        /* \"contracts/FancyShirts.sol\":723:826  if (size == Size.Medium) {... */\n    tag_75:\n        /* \"contracts/FancyShirts.sol\":657:826  if (size == Size.Small) {... */\n    tag_68:\n        /* \"contracts/FancyShirts.sol\":849:858  Color.Red */\n      0x00\n        /* \"contracts/FancyShirts.sol\":840:858  color != Color.Red */\n      0x02\n      dup2\n      gt\n      iszero\n      tag_77\n      jumpi\n      tag_78\n      tag_28\n      jump\t// in\n    tag_78:\n    tag_77:\n        /* \"contracts/FancyShirts.sol\":840:845  color */\n      dup4\n        /* \"contracts/FancyShirts.sol\":840:858  color != Color.Red */\n      0x02\n      dup2\n      gt\n      iszero\n      tag_79\n      jumpi\n      tag_80\n      tag_28\n      jump\t// in\n    tag_80:\n    tag_79:\n      eq\n        /* \"contracts/FancyShirts.sol\":836:895  if (color != Color.Red) {... */\n      tag_81\n      jumpi\n        /* \"contracts/FancyShirts.sol\":883:884  5 */\n      0x05\n        /* \"contracts/FancyShirts.sol\":874:884  price += 5 */\n      dup2\n      tag_82\n      swap2\n      swap1\n      tag_67\n      jump\t// in\n    tag_82:\n      swap1\n      pop\n        /* \"contracts/FancyShirts.sol\":836:895  if (color != Color.Red) {... */\n    tag_81:\n        /* \"contracts/FancyShirts.sol\":912:917  price */\n      dup1\n        /* \"contracts/FancyShirts.sol\":905:917  return price */\n      swap2\n      pop\n      pop\n        /* \"contracts/FancyShirts.sol\":519:924  function getShirtPrice(Size size, Color color)... */\n      swap3\n      swap2\n      pop\n      pop\n      jump\t// out\n        /* \"#utility.yul\":7:160   */\n    tag_84:\n        /* \"#utility.yul\":60:65   */\n      0x00\n        /* \"#utility.yul\":98:104   */\n      dup2\n        /* \"#utility.yul\":85:105   */\n      calldataload\n        /* \"#utility.yul\":76:105   */\n      swap1\n      pop\n        /* \"#utility.yul\":114:154   */\n      tag_86\n        /* \"#utility.yul\":148:153   */\n      dup2\n        /* \"#utility.yul\":114:154   */\n      tag_87\n      jump\t// in\n    tag_86:\n        /* \"#utility.yul\":7:160   */\n      swap3\n      swap2\n      pop\n      pop\n      jump\t// out\n        /* \"#utility.yul\":166:317   */\n    tag_88:\n        /* \"#utility.yul\":218:223   */\n      0x00\n        /* \"#utility.yul\":256:262   */\n      dup2\n        /* \"#utility.yul\":243:263   */\n      calldataload\n        /* \"#utility.yul\":234:263   */\n      swap1\n      pop\n        /* \"#utility.yul\":272:311   */\n      tag_90\n        /* \"#utility.yul\":305:310   */\n      dup2\n        /* \"#utility.yul\":272:311   */\n      tag_91\n      jump\t// in\n    tag_90:\n        /* \"#utility.yul\":166:317   */\n      swap3\n      swap2\n      pop\n      pop\n      jump\t// out\n        /* \"#utility.yul\":323:823   */\n    tag_7:\n        /* \"#utility.yul\":404:410   */\n      0x00\n        /* \"#utility.yul\":412:418   */\n      dup1\n        /* \"#utility.yul\":461:463   */\n      0x40\n        /* \"#utility.yul\":449:458   */\n      dup4\n        /* \"#utility.yul\":440:447   */\n      dup6\n        /* \"#utility.yul\":436:459   */\n      sub\n        /* \"#utility.yul\":432:464   */\n      slt\n        /* \"#utility.yul\":429:548   */\n      iszero\n      tag_93\n      jumpi\n        /* \"#utility.yul\":467:546   */\n      tag_94\n      tag_95\n      jump\t// in\n    tag_94:\n        /* \"#utility.yul\":429:548   */\n    tag_93:\n        /* \"#utility.yul\":587:588   */\n      0x00\n        /* \"#utility.yul\":612:671   */\n      tag_96\n        /* \"#utility.yul\":663:670   */\n      dup6\n        /* \"#utility.yul\":654:660   */\n      dup3\n        /* \"#utility.yul\":643:652   */\n      dup7\n        /* \"#utility.yul\":639:661   */\n      add\n        /* \"#utility.yul\":612:671   */\n      tag_88\n      jump\t// in\n    tag_96:\n        /* \"#utility.yul\":602:671   */\n      swap3\n      pop\n        /* \"#utility.yul\":558:681   */\n      pop\n        /* \"#utility.yul\":720:722   */\n      0x20\n        /* \"#utility.yul\":746:806   */\n      tag_97\n        /* \"#utility.yul\":798:805   */\n      dup6\n        /* \"#utility.yul\":789:795   */\n      dup3\n        /* \"#utility.yul\":778:787   */\n      dup7\n        /* \"#utility.yul\":774:796   */\n      add\n        /* \"#utility.yul\":746:806   */\n      tag_84\n      jump\t// in\n    tag_97:\n        /* \"#utility.yul\":736:806   */\n      swap2\n      pop\n        /* \"#utility.yul\":691:816   */\n      pop\n        /* \"#utility.yul\":323:823   */\n      swap3\n      pop\n      swap3\n      swap1\n      pop\n      jump\t// out\n        /* \"#utility.yul\":829:1195   */\n    tag_98:\n        /* \"#utility.yul\":971:974   */\n      0x00\n        /* \"#utility.yul\":992:1059   */\n      tag_100\n        /* \"#utility.yul\":1056:1058   */\n      0x15\n        /* \"#utility.yul\":1051:1054   */\n      dup4\n        /* \"#utility.yul\":992:1059   */\n      tag_101\n      jump\t// in\n    tag_100:\n        /* \"#utility.yul\":985:1059   */\n      swap2\n      pop\n        /* \"#utility.yul\":1068:1161   */\n      tag_102\n        /* \"#utility.yul\":1157:1160   */\n      dup3\n        /* \"#utility.yul\":1068:1161   */\n      tag_103\n      jump\t// in\n    tag_102:\n        /* \"#utility.yul\":1186:1188   */\n      0x20\n        /* \"#utility.yul\":1181:1184   */\n      dup3\n        /* \"#utility.yul\":1177:1189   */\n      add\n        /* \"#utility.yul\":1170:1189   */\n      swap1\n      pop\n        /* \"#utility.yul\":829:1195   */\n      swap2\n      swap1\n      pop\n      jump\t// out\n        /* \"#utility.yul\":1201:1319   */\n    tag_104:\n        /* \"#utility.yul\":1288:1312   */\n      tag_106\n        /* \"#utility.yul\":1306:1311   */\n      dup2\n        /* \"#utility.yul\":1288:1312   */\n      tag_107\n      jump\t// in\n    tag_106:\n        /* \"#utility.yul\":1283:1286   */\n      dup3\n        /* \"#utility.yul\":1276:1313   */\n      mstore\n        /* \"#utility.yul\":1201:1319   */\n      pop\n      pop\n      jump\t// out\n        /* \"#utility.yul\":1325:1744   */\n    tag_24:\n        /* \"#utility.yul\":1491:1495   */\n      0x00\n        /* \"#utility.yul\":1529:1531   */\n      0x20\n        /* \"#utility.yul\":1518:1527   */\n      dup3\n        /* \"#utility.yul\":1514:1532   */\n      add\n        /* \"#utility.yul\":1506:1532   */\n      swap1\n      pop\n        /* \"#utility.yul\":1578:1587   */\n      dup2\n        /* \"#utility.yul\":1572:1576   */\n      dup2\n        /* \"#utility.yul\":1568:1588   */\n      sub\n        /* \"#utility.yul\":1564:1565   */\n      0x00\n        /* \"#utility.yul\":1553:1562   */\n      dup4\n        /* \"#utility.yul\":1549:1566   */\n      add\n        /* \"#utility.yul\":1542:1589   */\n      mstore\n        /* \"#utility.yul\":1606:1737   */\n      tag_109\n        /* \"#utility.yul\":1732:1736   */\n      dup2\n        /* \"#utility.yul\":1606:1737   */\n      tag_98\n      jump\t// in\n    tag_109:\n        /* \"#utility.yul\":1598:1737   */\n      swap1\n      pop\n        /* \"#utility.yul\":1325:1744   */\n      swap2\n      swap1\n      pop\n      jump\t// out\n        /* \"#utility.yul\":1750:1972   */\n    tag_14:\n        /* \"#utility.yul\":1843:1847   */\n      0x00\n        /* \"#utility.yul\":1881:1883   */\n      0x20\n        /* \"#utility.yul\":1870:1879   */\n      dup3\n        /* \"#utility.yul\":1866:1884   */\n      add\n        /* \"#utility.yul\":1858:1884   */\n      swap1\n      pop\n        /* \"#utility.yul\":1894:1965   */\n      tag_111\n        /* \"#utility.yul\":1962:1963   */\n      0x00\n        /* \"#utility.yul\":1951:1960   */\n      dup4\n        /* \"#utility.yul\":1947:1964   */\n      add\n        /* \"#utility.yul\":1938:1944   */\n      dup5\n        /* \"#utility.yul\":1894:1965   */\n      tag_104\n      jump\t// in\n    tag_111:\n        /* \"#utility.yul\":1750:1972   */\n      swap3\n      swap2\n      pop\n      pop\n      jump\t// out\n        /* \"#utility.yul\":2059:2228   */\n    tag_101:\n        /* \"#utility.yul\":2143:2154   */\n      0x00\n        /* \"#utility.yul\":2177:2183   */\n      dup3\n        /* \"#utility.yul\":2172:2175   */\n      dup3\n        /* \"#utility.yul\":2165:2184   */\n      mstore\n        /* \"#utility.yul\":2217:2221   */\n      0x20\n        /* \"#utility.yul\":2212:2215   */\n      dup3\n        /* \"#utility.yul\":2208:2222   */\n      add\n        /* \"#utility.yul\":2193:2222   */\n      swap1\n      pop\n        /* \"#utility.yul\":2059:2228   */\n      swap3\n      swap2\n      pop\n      pop\n      jump\t// out\n        /* \"#utility.yul\":2234:2539   */\n    tag_67:\n        /* \"#utility.yul\":2274:2277   */\n      0x00\n        /* \"#utility.yul\":2293:2313   */\n      tag_116\n        /* \"#utility.yul\":2311:2312   */\n      dup3\n        /* \"#utility.yul\":2293:2313   */\n      tag_107\n      jump\t// in\n    tag_116:\n        /* \"#utility.yul\":2288:2313   */\n      swap2\n      pop\n        /* \"#utility.yul\":2327:2347   */\n      tag_117\n        /* \"#utility.yul\":2345:2346   */\n      dup4\n        /* \"#utility.yul\":2327:2347   */\n      tag_107\n      jump\t// in\n    tag_117:\n        /* \"#utility.yul\":2322:2347   */\n      swap3\n      pop\n        /* \"#utility.yul\":2481:2482   */\n      dup3\n        /* \"#utility.yul\":2413:2479   */\n      0xffffffffffffffffffffffffffffffffffffffffffffffffffffffffffffffff\n        /* \"#utility.yul\":2409:2483   */\n      sub\n        /* \"#utility.yul\":2406:2407   */\n      dup3\n        /* \"#utility.yul\":2403:2484   */\n      gt\n        /* \"#utility.yul\":2400:2507   */\n      iszero\n      tag_118\n      jumpi\n        /* \"#utility.yul\":2487:2505   */\n      tag_119\n      tag_120\n      jump\t// in\n    tag_119:\n        /* \"#utility.yul\":2400:2507   */\n    tag_118:\n        /* \"#utility.yul\":2531:2532   */\n      dup3\n        /* \"#utility.yul\":2528:2529   */\n      dup3\n        /* \"#utility.yul\":2524:2533   */\n      add\n        /* \"#utility.yul\":2517:2533   */\n      swap1\n      pop\n        /* \"#utility.yul\":2234:2539   */\n      swap3\n      swap2\n      pop\n      pop\n      jump\t// out\n        /* \"#utility.yul\":2545:2622   */\n    tag_107:\n        /* \"#utility.yul\":2582:2589   */\n      0x00\n        /* \"#utility.yul\":2611:2616   */\n      dup2\n        /* \"#utility.yul\":2600:2616   */\n      swap1\n      pop\n        /* \"#utility.yul\":2545:2622   */\n      swap2\n      swap1\n      pop\n      jump\t// out\n        /* \"#utility.yul\":2628:2861   */\n    tag_58:\n        /* \"#utility.yul\":2667:2670   */\n      0x00\n        /* \"#utility.yul\":2690:2714   */\n      tag_123\n        /* \"#utility.yul\":2708:2713   */\n      dup3\n        /* \"#utility.yul\":2690:2714   */\n      tag_107\n      jump\t// in\n    tag_123:\n        /* \"#utility.yul\":2681:2714   */\n      swap2\n      pop\n        /* \"#utility.yul\":2736:2802   */\n      0xffffffffffffffffffffffffffffffffffffffffffffffffffffffffffffffff\n        /* \"#utility.yul\":2729:2734   */\n      dup3\n        /* \"#utility.yul\":2726:2803   */\n      eq\n        /* \"#utility.yul\":2723:2826   */\n      iszero\n      tag_124\n      jumpi\n        /* \"#utility.yul\":2806:2824   */\n      tag_125\n      tag_120\n      jump\t// in\n    tag_125:\n        /* \"#utility.yul\":2723:2826   */\n    tag_124:\n        /* \"#utility.yul\":2853:2854   */\n      0x01\n        /* \"#utility.yul\":2846:2851   */\n      dup3\n        /* \"#utility.yul\":2842:2855   */\n      add\n        /* \"#utility.yul\":2835:2855   */\n      swap1\n      pop\n        /* \"#utility.yul\":2628:2861   */\n      swap2\n      swap1\n      pop\n      jump\t// out\n        /* \"#utility.yul\":2867:3047   */\n    tag_120:\n        /* \"#utility.yul\":2915:2992   */\n      0x4e487b7100000000000000000000000000000000000000000000000000000000\n        /* \"#utility.yul\":2912:2913   */\n      0x00\n        /* \"#utility.yul\":2905:2993   */\n      mstore\n        /* \"#utility.yul\":3012:3016   */\n      0x11\n        /* \"#utility.yul\":3009:3010   */\n      0x04\n        /* \"#utility.yul\":3002:3017   */\n      mstore\n        /* \"#utility.yul\":3036:3040   */\n      0x24\n        /* \"#utility.yul\":3033:3034   */\n      0x00\n        /* \"#utility.yul\":3026:3041   */\n      revert\n        /* \"#utility.yul\":3053:3233   */\n    tag_28:\n        /* \"#utility.yul\":3101:3178   */\n      0x4e487b7100000000000000000000000000000000000000000000000000000000\n        /* \"#utility.yul\":3098:3099   */\n      0x00\n        /* \"#utility.yul\":3091:3179   */\n      mstore\n        /* \"#utility.yul\":3198:3202   */\n      0x21\n        /* \"#utility.yul\":3195:3196   */\n      0x04\n        /* \"#utility.yul\":3188:3203   */\n      mstore\n        /* \"#utility.yul\":3222:3226   */\n      0x24\n        /* \"#utility.yul\":3219:3220   */\n      0x00\n        /* \"#utility.yul\":3212:3227   */\n      revert\n        /* \"#utility.yul\":3239:3419   */\n    tag_44:\n        /* \"#utility.yul\":3287:3364   */\n      0x4e487b7100000000000000000000000000000000000000000000000000000000\n        /* \"#utility.yul\":3284:3285   */\n      0x00\n        /* \"#utility.yul\":3277:3365   */\n      mstore\n        /* \"#utility.yul\":3384:3388   */\n      0x32\n        /* \"#utility.yul\":3381:3382   */\n      0x04\n        /* \"#utility.yul\":3374:3389   */\n      mstore\n        /* \"#utility.yul\":3408:3412   */\n      0x24\n        /* \"#utility.yul\":3405:3406   */\n      0x00\n        /* \"#utility.yul\":3398:3413   */\n      revert\n        /* \"#utility.yul\":3548:3665   */\n    tag_95:\n        /* \"#utility.yul\":3657:3658   */\n      0x00\n        /* \"#utility.yul\":3654:3655   */\n      dup1\n        /* \"#utility.yul\":3647:3659   */\n      revert\n        /* \"#utility.yul\":3671:3842   */\n    tag_103:\n        /* \"#utility.yul\":3811:3834   */\n      0x496e636f727265637420616d6f756e742073656e740000000000000000000000\n        /* \"#utility.yul\":3807:3808   */\n      0x00\n        /* \"#utility.yul\":3799:3805   */\n      dup3\n        /* \"#utility.yul\":3795:3809   */\n      add\n        /* \"#utility.yul\":3788:3835   */\n      mstore\n        /* \"#utility.yul\":3671:3842   */\n      pop\n      jump\t// out\n        /* \"#utility.yul\":3848:3954   */\n    tag_87:\n        /* \"#utility.yul\":3928:3929   */\n      0x03\n        /* \"#utility.yul\":3921:3926   */\n      dup2\n        /* \"#utility.yul\":3918:3930   */\n      lt\n        /* \"#utility.yul\":3908:3948   */\n      tag_134\n      jumpi\n        /* \"#utility.yul\":3944:3945   */\n      0x00\n        /* \"#utility.yul\":3941:3942   */\n      dup1\n        /* \"#utility.yul\":3934:3946   */\n      revert\n        /* \"#utility.yul\":3908:3948   */\n    tag_134:\n        /* \"#utility.yul\":3848:3954   */\n      pop\n      jump\t// out\n        /* \"#utility.yul\":3960:4065   */\n    tag_91:\n        /* \"#utility.yul\":4039:4040   */\n      0x03\n        /* \"#utility.yul\":4032:4037   */\n      dup2\n        /* \"#utility.yul\":4029:4041   */\n      lt\n        /* \"#utility.yul\":4019:4059   */\n      tag_136\n      jumpi\n        /* \"#utility.yul\":4055:4056   */\n      0x00\n        /* \"#utility.yul\":4052:4053   */\n      dup1\n        /* \"#utility.yul\":4045:4057   */\n      revert\n        /* \"#utility.yul\":4019:4059   */\n    tag_136:\n        /* \"#utility.yul\":3960:4065   */\n      pop\n      jump\t// out\n\n    auxdata: 0xa264697066735822122049bb1a13c2afc9b25ecaba7763d503de54095d78f222c802b6b99fa9e1a6235f64736f6c63430008070033\n}\n",
				"bytecode": {
					"linkReferences": {},
					"object": "608060405234801561001057600080fd5b5061074f806100206000396000f3fe6080604052600436106100345760003560e01c80636aa283a51461003957806371cc64b414610055578063b97461d314610092575b600080fd5b610053600480360381019061004e91906104d7565b6100cf565b005b34801561006157600080fd5b5061007c600480360381019061007791906104d7565b610226565b6040516100899190610569565b60405180910390f35b34801561009e57600080fd5b506100b960048036038101906100b491906104d7565b6103d1565b6040516100c69190610569565b60405180910390f35b8181346100dc83836103d1565b1461011c576040517f08c379a000000000000000000000000000000000000000000000000000000000815260040161011390610549565b60405180910390fd5b6000604051806040016040528086600281111561013c5761013b61066d565b5b81526020018560028111156101545761015361066d565b5b81525090506000803373ffffffffffffffffffffffffffffffffffffffff1673ffffffffffffffffffffffffffffffffffffffff168152602001908152602001600020819080600181540180825580915050600190039060005260206000200160009091909190915060008201518160000160006101000a81548160ff021916908360028111156101e8576101e761066d565b5b021790555060208201518160000160016101000a81548160ff021916908360028111156102185761021761066d565b5b021790555050505050505050565b60008060005b6000803373ffffffffffffffffffffffffffffffffffffffff1673ffffffffffffffffffffffffffffffffffffffff168152602001908152602001600020805490508110156103c6578460028111156102885761028761066d565b5b6000803373ffffffffffffffffffffffffffffffffffffffff1673ffffffffffffffffffffffffffffffffffffffff16815260200190815260200160002082815481106102d8576102d761069c565b5b9060005260206000200160000160009054906101000a900460ff1660028111156103055761030461066d565b5b14801561039f57508360028111156103205761031f61066d565b5b6000803373ffffffffffffffffffffffffffffffffffffffff1673ffffffffffffffffffffffffffffffffffffffff16815260200190815260200160002082815481106103705761036f61069c565b5b9060005260206000200160000160019054906101000a900460ff16600281111561039d5761039c61066d565b5b145b156103b35781806103af906105f5565b9250505b80806103be906105f5565b91505061022c565b508091505092915050565b600080600060028111156103e8576103e761066d565b5b8460028111156103fb576103fa61066d565b5b141561041557600a8161040e9190610595565b9050610467565b600160028111156104295761042861066d565b5b84600281111561043c5761043b61066d565b5b141561045657600f8161044f9190610595565b9050610466565b6014816104639190610595565b90505b5b6000600281111561047b5761047a61066d565b5b83600281111561048e5761048d61066d565b5b146104a3576005816104a09190610595565b90505b8091505092915050565b6000813590506104bc816106f9565b92915050565b6000813590506104d181610709565b92915050565b600080604083850312156104ee576104ed6106cb565b5b60006104fc858286016104c2565b925050602061050d858286016104ad565b9150509250929050565b6000610524601583610584565b915061052f826106d0565b602082019050919050565b610543816105eb565b82525050565b6000602082019050818103600083015261056281610517565b9050919050565b600060208201905061057e600083018461053a565b92915050565b600082825260208201905092915050565b60006105a0826105eb565b91506105ab836105eb565b9250827fffffffffffffffffffffffffffffffffffffffffffffffffffffffffffffffff038211156105e0576105df61063e565b5b828201905092915050565b6000819050919050565b6000610600826105eb565b91507fffffffffffffffffffffffffffffffffffffffffffffffffffffffffffffffff8214156106335761063261063e565b5b600182019050919050565b7f4e487b7100000000000000000000000000000000000000000000000000000000600052601160045260246000fd5b7f4e487b7100000000000000000000000000000000000000000000000000000000600052602160045260246000fd5b7f4e487b7100000000000000000000000000000000000000000000000000000000600052603260045260246000fd5b600080fd5b7f496e636f727265637420616d6f756e742073656e740000000000000000000000600082015250565b6003811061070657600080fd5b50565b6003811061071657600080fd5b5056fea264697066735822122049bb1a13c2afc9b25ecaba7763d503de54095d78f222c802b6b99fa9e1a6235f64736f6c63430008070033",
					"opcodes": "PUSH1 0x80 PUSH1 0x40 MSTORE CALLVALUE DUP1 ISZERO PUSH2 0x10 JUMPI PUSH1 0x0 DUP1 REVERT JUMPDEST POP PUSH2 0x74F DUP1 PUSH2 0x20 PUSH1 0x0 CODECOPY PUSH1 0x0 RETURN INVALID PUSH1 0x80 PUSH1 0x40 MSTORE PUSH1 0x4 CALLDATASIZE LT PUSH2 0x34 JUMPI PUSH1 0x0 CALLDATALOAD PUSH1 0xE0 SHR DUP1 PUSH4 0x6AA283A5 EQ PUSH2 0x39 JUMPI DUP1 PUSH4 0x71CC64B4 EQ PUSH2 0x55 JUMPI DUP1 PUSH4 0xB97461D3 EQ PUSH2 0x92 JUMPI JUMPDEST PUSH1 0x0 DUP1 REVERT JUMPDEST PUSH2 0x53 PUSH1 0x4 DUP1 CALLDATASIZE SUB DUP2 ADD SWAP1 PUSH2 0x4E SWAP2 SWAP1 PUSH2 0x4D7 JUMP JUMPDEST PUSH2 0xCF JUMP JUMPDEST STOP JUMPDEST CALLVALUE DUP1 ISZERO PUSH2 0x61 JUMPI PUSH1 0x0 DUP1 REVERT JUMPDEST POP PUSH2 0x7C PUSH1 0x4 DUP1 CALLDATASIZE SUB DUP2 ADD SWAP1 PUSH2 0x77 SWAP2 SWAP1 PUSH2 0x4D7 JUMP JUMPDEST PUSH2 0x226 JUMP JUMPDEST PUSH1 0x40 MLOAD PUSH2 0x89 SWAP2 SWAP1 PUSH2 0x569 JUMP JUMPDEST PUSH1 0x40 MLOAD DUP1 SWAP2 SUB SWAP1 RETURN JUMPDEST CALLVALUE DUP1 ISZERO PUSH2 0x9E JUMPI PUSH1 0x0 DUP1 REVERT JUMPDEST POP PUSH2 0xB9 PUSH1 0x4 DUP1 CALLDATASIZE SUB DUP2 ADD SWAP1 PUSH2 0xB4 SWAP2 SWAP1 PUSH2 0x4D7 JUMP JUMPDEST PUSH2 0x3D1 JUMP JUMPDEST PUSH1 0x40 MLOAD PUSH2 0xC6 SWAP2 SWAP1 PUSH2 0x569 JUMP JUMPDEST PUSH1 0x40 MLOAD DUP1 SWAP2 SUB SWAP1 RETURN JUMPDEST DUP2 DUP2 CALLVALUE PUSH2 0xDC DUP4 DUP4 PUSH2 0x3D1 JUMP JUMPDEST EQ PUSH2 0x11C JUMPI PUSH1 0x40 MLOAD PUSH32 0x8C379A000000000000000000000000000000000000000000000000000000000 DUP2 MSTORE PUSH1 0x4 ADD PUSH2 0x113 SWAP1 PUSH2 0x549 JUMP JUMPDEST PUSH1 0x40 MLOAD DUP1 SWAP2 SUB SWAP1 REVERT JUMPDEST PUSH1 0x0 PUSH1 0x40 MLOAD DUP1 PUSH1 0x40 ADD PUSH1 0x40 MSTORE DUP1 DUP7 PUSH1 0x2 DUP2 GT ISZERO PUSH2 0x13C JUMPI PUSH2 0x13B PUSH2 0x66D JUMP JUMPDEST JUMPDEST DUP2 MSTORE PUSH1 0x20 ADD DUP6 PUSH1 0x2 DUP2 GT ISZERO PUSH2 0x154 JUMPI PUSH2 0x153 PUSH2 0x66D JUMP JUMPDEST JUMPDEST DUP2 MSTORE POP SWAP1 POP PUSH1 0x0 DUP1 CALLER PUSH20 0xFFFFFFFFFFFFFFFFFFFFFFFFFFFFFFFFFFFFFFFF AND PUSH20 0xFFFFFFFFFFFFFFFFFFFFFFFFFFFFFFFFFFFFFFFF AND DUP2 MSTORE PUSH1 0x20 ADD SWAP1 DUP2 MSTORE PUSH1 0x20 ADD PUSH1 0x0 KECCAK256 DUP2 SWAP1 DUP1 PUSH1 0x1 DUP2 SLOAD ADD DUP1 DUP3 SSTORE DUP1 SWAP2 POP POP PUSH1 0x1 SWAP1 SUB SWAP1 PUSH1 0x0 MSTORE PUSH1 0x20 PUSH1 0x0 KECCAK256 ADD PUSH1 0x0 SWAP1 SWAP2 SWAP1 SWAP2 SWAP1 SWAP2 POP PUSH1 0x0 DUP3 ADD MLOAD DUP2 PUSH1 0x0 ADD PUSH1 0x0 PUSH2 0x100 EXP DUP2 SLOAD DUP2 PUSH1 0xFF MUL NOT AND SWAP1 DUP4 PUSH1 0x2 DUP2 GT ISZERO PUSH2 0x1E8 JUMPI PUSH2 0x1E7 PUSH2 0x66D JUMP JUMPDEST JUMPDEST MUL OR SWAP1 SSTORE POP PUSH1 0x20 DUP3 ADD MLOAD DUP2 PUSH1 0x0 ADD PUSH1 0x1 PUSH2 0x100 EXP DUP2 SLOAD DUP2 PUSH1 0xFF MUL NOT AND SWAP1 DUP4 PUSH1 0x2 DUP2 GT ISZERO PUSH2 0x218 JUMPI PUSH2 0x217 PUSH2 0x66D JUMP JUMPDEST JUMPDEST MUL OR SWAP1 SSTORE POP POP POP POP POP POP POP POP JUMP JUMPDEST PUSH1 0x0 DUP1 PUSH1 0x0 JUMPDEST PUSH1 0x0 DUP1 CALLER PUSH20 0xFFFFFFFFFFFFFFFFFFFFFFFFFFFFFFFFFFFFFFFF AND PUSH20 0xFFFFFFFFFFFFFFFFFFFFFFFFFFFFFFFFFFFFFFFF AND DUP2 MSTORE PUSH1 0x20 ADD SWAP1 DUP2 MSTORE PUSH1 0x20 ADD PUSH1 0x0 KECCAK256 DUP1 SLOAD SWAP1 POP DUP2 LT ISZERO PUSH2 0x3C6 JUMPI DUP5 PUSH1 0x2 DUP2 GT ISZERO PUSH2 0x288 JUMPI PUSH2 0x287 PUSH2 0x66D JUMP JUMPDEST JUMPDEST PUSH1 0x0 DUP1 CALLER PUSH20 0xFFFFFFFFFFFFFFFFFFFFFFFFFFFFFFFFFFFFFFFF AND PUSH20 0xFFFFFFFFFFFFFFFFFFFFFFFFFFFFFFFFFFFFFFFF AND DUP2 MSTORE PUSH1 0x20 ADD SWAP1 DUP2 MSTORE PUSH1 0x20 ADD PUSH1 0x0 KECCAK256 DUP3 DUP2 SLOAD DUP2 LT PUSH2 0x2D8 JUMPI PUSH2 0x2D7 PUSH2 0x69C JUMP JUMPDEST JUMPDEST SWAP1 PUSH1 0x0 MSTORE PUSH1 0x20 PUSH1 0x0 KECCAK256 ADD PUSH1 0x0 ADD PUSH1 0x0 SWAP1 SLOAD SWAP1 PUSH2 0x100 EXP SWAP1 DIV PUSH1 0xFF AND PUSH1 0x2 DUP2 GT ISZERO PUSH2 0x305 JUMPI PUSH2 0x304 PUSH2 0x66D JUMP JUMPDEST JUMPDEST EQ DUP1 ISZERO PUSH2 0x39F JUMPI POP DUP4 PUSH1 0x2 DUP2 GT ISZERO PUSH2 0x320 JUMPI PUSH2 0x31F PUSH2 0x66D JUMP JUMPDEST JUMPDEST PUSH1 0x0 DUP1 CALLER PUSH20 0xFFFFFFFFFFFFFFFFFFFFFFFFFFFFFFFFFFFFFFFF AND PUSH20 0xFFFFFFFFFFFFFFFFFFFFFFFFFFFFFFFFFFFFFFFF AND DUP2 MSTORE PUSH1 0x20 ADD SWAP1 DUP2 MSTORE PUSH1 0x20 ADD PUSH1 0x0 KECCAK256 DUP3 DUP2 SLOAD DUP2 LT PUSH2 0x370 JUMPI PUSH2 0x36F PUSH2 0x69C JUMP JUMPDEST JUMPDEST SWAP1 PUSH1 0x0 MSTORE PUSH1 0x20 PUSH1 0x0 KECCAK256 ADD PUSH1 0x0 ADD PUSH1 0x1 SWAP1 SLOAD SWAP1 PUSH2 0x100 EXP SWAP1 DIV PUSH1 0xFF AND PUSH1 0x2 DUP2 GT ISZERO PUSH2 0x39D JUMPI PUSH2 0x39C PUSH2 0x66D JUMP JUMPDEST JUMPDEST EQ JUMPDEST ISZERO PUSH2 0x3B3 JUMPI DUP2 DUP1 PUSH2 0x3AF SWAP1 PUSH2 0x5F5 JUMP JUMPDEST SWAP3 POP POP JUMPDEST DUP1 DUP1 PUSH2 0x3BE SWAP1 PUSH2 0x5F5 JUMP JUMPDEST SWAP2 POP POP PUSH2 0x22C JUMP JUMPDEST POP DUP1 SWAP2 POP POP SWAP3 SWAP2 POP POP JUMP JUMPDEST PUSH1 0x0 DUP1 PUSH1 0x0 PUSH1 0x2 DUP2 GT ISZERO PUSH2 0x3E8 JUMPI PUSH2 0x3E7 PUSH2 0x66D JUMP JUMPDEST JUMPDEST DUP5 PUSH1 0x2 DUP2 GT ISZERO PUSH2 0x3FB JUMPI PUSH2 0x3FA PUSH2 0x66D JUMP JUMPDEST JUMPDEST EQ ISZERO PUSH2 0x415 JUMPI PUSH1 0xA DUP2 PUSH2 0x40E SWAP2 SWAP1 PUSH2 0x595 JUMP JUMPDEST SWAP1 POP PUSH2 0x467 JUMP JUMPDEST PUSH1 0x1 PUSH1 0x2 DUP2 GT ISZERO PUSH2 0x429 JUMPI PUSH2 0x428 PUSH2 0x66D JUMP JUMPDEST JUMPDEST DUP5 PUSH1 0x2 DUP2 GT ISZERO PUSH2 0x43C JUMPI PUSH2 0x43B PUSH2 0x66D JUMP JUMPDEST JUMPDEST EQ ISZERO PUSH2 0x456 JUMPI PUSH1 0xF DUP2 PUSH2 0x44F SWAP2 SWAP1 PUSH2 0x595 JUMP JUMPDEST SWAP1 POP PUSH2 0x466 JUMP JUMPDEST PUSH1 0x14 DUP2 PUSH2 0x463 SWAP2 SWAP1 PUSH2 0x595 JUMP JUMPDEST SWAP1 POP JUMPDEST JUMPDEST PUSH1 0x0 PUSH1 0x2 DUP2 GT ISZERO PUSH2 0x47B JUMPI PUSH2 0x47A PUSH2 0x66D JUMP JUMPDEST JUMPDEST DUP4 PUSH1 0x2 DUP2 GT ISZERO PUSH2 0x48E JUMPI PUSH2 0x48D PUSH2 0x66D JUMP JUMPDEST JUMPDEST EQ PUSH2 0x4A3 JUMPI PUSH1 0x5 DUP2 PUSH2 0x4A0 SWAP2 SWAP1 PUSH2 0x595 JUMP JUMPDEST SWAP1 POP JUMPDEST DUP1 SWAP2 POP POP SWAP3 SWAP2 POP POP JUMP JUMPDEST PUSH1 0x0 DUP2 CALLDATALOAD SWAP1 POP PUSH2 0x4BC DUP2 PUSH2 0x6F9 JUMP JUMPDEST SWAP3 SWAP2 POP POP JUMP JUMPDEST PUSH1 0x0 DUP2 CALLDATALOAD SWAP1 POP PUSH2 0x4D1 DUP2 PUSH2 0x709 JUMP JUMPDEST SWAP3 SWAP2 POP POP JUMP JUMPDEST PUSH1 0x0 DUP1 PUSH1 0x40 DUP4 DUP6 SUB SLT ISZERO PUSH2 0x4EE JUMPI PUSH2 0x4ED PUSH2 0x6CB JUMP JUMPDEST JUMPDEST PUSH1 0x0 PUSH2 0x4FC DUP6 DUP3 DUP7 ADD PUSH2 0x4C2 JUMP JUMPDEST SWAP3 POP POP PUSH1 0x20 PUSH2 0x50D DUP6 DUP3 DUP7 ADD PUSH2 0x4AD JUMP JUMPDEST SWAP2 POP POP SWAP3 POP SWAP3 SWAP1 POP JUMP JUMPDEST PUSH1 0x0 PUSH2 0x524 PUSH1 0x15 DUP4 PUSH2 0x584 JUMP JUMPDEST SWAP2 POP PUSH2 0x52F DUP3 PUSH2 0x6D0 JUMP JUMPDEST PUSH1 0x20 DUP3 ADD SWAP1 POP SWAP2 SWAP1 POP JUMP JUMPDEST PUSH2 0x543 DUP2 PUSH2 0x5EB JUMP JUMPDEST DUP3 MSTORE POP POP JUMP JUMPDEST PUSH1 0x0 PUSH1 0x20 DUP3 ADD SWAP1 POP DUP2 DUP2 SUB PUSH1 0x0 DUP4 ADD MSTORE PUSH2 0x562 DUP2 PUSH2 0x517 JUMP JUMPDEST SWAP1 POP SWAP2 SWAP1 POP JUMP JUMPDEST PUSH1 0x0 PUSH1 0x20 DUP3 ADD SWAP1 POP PUSH2 0x57E PUSH1 0x0 DUP4 ADD DUP5 PUSH2 0x53A JUMP JUMPDEST SWAP3 SWAP2 POP POP JUMP JUMPDEST PUSH1 0x0 DUP3 DUP3 MSTORE PUSH1 0x20 DUP3 ADD SWAP1 POP SWAP3 SWAP2 POP POP JUMP JUMPDEST PUSH1 0x0 PUSH2 0x5A0 DUP3 PUSH2 0x5EB JUMP JUMPDEST SWAP2 POP PUSH2 0x5AB DUP4 PUSH2 0x5EB JUMP JUMPDEST SWAP3 POP DUP3 PUSH32 0xFFFFFFFFFFFFFFFFFFFFFFFFFFFFFFFFFFFFFFFFFFFFFFFFFFFFFFFFFFFFFFFF SUB DUP3 GT ISZERO PUSH2 0x5E0 JUMPI PUSH2 0x5DF PUSH2 0x63E JUMP JUMPDEST JUMPDEST DUP3 DUP3 ADD SWAP1 POP SWAP3 SWAP2 POP POP JUMP JUMPDEST PUSH1 0x0 DUP2 SWAP1 POP SWAP2 SWAP1 POP JUMP JUMPDEST PUSH1 0x0 PUSH2 0x600 DUP3 PUSH2 0x5EB JUMP JUMPDEST SWAP2 POP PUSH32 0xFFFFFFFFFFFFFFFFFFFFFFFFFFFFFFFFFFFFFFFFFFFFFFFFFFFFFFFFFFFFFFFF DUP3 EQ ISZERO PUSH2 0x633 JUMPI PUSH2 0x632 PUSH2 0x63E JUMP JUMPDEST JUMPDEST PUSH1 0x1 DUP3 ADD SWAP1 POP SWAP2 SWAP1 POP JUMP JUMPDEST PUSH32 0x4E487B7100000000000000000000000000000000000000000000000000000000 PUSH1 0x0 MSTORE PUSH1 0x11 PUSH1 0x4 MSTORE PUSH1 0x24 PUSH1 0x0 REVERT JUMPDEST PUSH32 0x4E487B7100000000000000000000000000000000000000000000000000000000 PUSH1 0x0 MSTORE PUSH1 0x21 PUSH1 0x4 MSTORE PUSH1 0x24 PUSH1 0x0 REVERT JUMPDEST PUSH32 0x4E487B7100000000000000000000000000000000000000000000000000000000 PUSH1 0x0 MSTORE PUSH1 0x32 PUSH1 0x4 MSTORE PUSH1 0x24 PUSH1 0x0 REVERT JUMPDEST PUSH1 0x0 DUP1 REVERT JUMPDEST PUSH32 0x496E636F727265637420616D6F756E742073656E740000000000000000000000 PUSH1 0x0 DUP3 ADD MSTORE POP JUMP JUMPDEST PUSH1 0x3 DUP2 LT PUSH2 0x706 JUMPI PUSH1 0x0 DUP1 REVERT JUMPDEST POP JUMP JUMPDEST PUSH1 0x3 DUP2 LT PUSH2 0x716 JUMPI PUSH1 0x0 DUP1 REVERT JUMPDEST POP JUMP INVALID LOG2 PUSH5 0x6970667358 0x22 SLT KECCAK256 0x49 0xBB BYTE SGT 0xC2 0xAF 0xC9 0xB2 0x5E 0xCA 0xBA PUSH24 0x63D503DE54095D78F222C802B6B99FA9E1A6235F64736F6C PUSH4 0x43000807 STOP CALLER "
				},
				"gasEstimates": {
					"creation": {
						"codeDepositCost": "374200",
						"executionCost": "411",
						"totalCost": "374611"
					},
					"external": {
						"buyShirt(uint8,uint8)": "infinite",
						"getShirtPrice(uint8,uint8)": "infinite",
						"getShirts(uint8,uint8)": "infinite"
					}
				},
				"methodIdentifiers": {
					"buyShirt(uint8,uint8)": "6aa283a5",
					"getShirtPrice(uint8,uint8)": "b97461d3",
					"getShirts(uint8,uint8)": "71cc64b4"
				}
			},
			"storageLayout": {
				"storage": [
					{
						"astId": 22,
						"contract": "contracts/FancyShirts.sol:FancyShirts",
						"label": "shirts",
						"offset": 0,
						"slot": "0",
						"type": "t_mapping(t_address,t_array(t_struct(Shirt)16_storage)dyn_storage)"
					}
				],
				"types": {
					"t_address": {
						"encoding": "inplace",
						"label": "address",
						"numberOfBytes": "20"
					},
					"t_array(t_struct(Shirt)16_storage)dyn_storage": {
						"base": "t_struct(Shirt)16_storage",
						"encoding": "dynamic_array",
						"label": "struct FancyShirts.Shirt[]",
						"numberOfBytes": "32"
					},
					"t_enum(Color)9": {
						"encoding": "inplace",
						"label": "enum FancyShirts.Color",
						"numberOfBytes": "1"
					},
					"t_enum(Size)5": {
						"encoding": "inplace",
						"label": "enum FancyShirts.Size",
						"numberOfBytes": "1"
					},
					"t_mapping(t_address,t_array(t_struct(Shirt)16_storage)dyn_storage)": {
						"encoding": "mapping",
						"key": "t_address",
						"label": "mapping(address => struct FancyShirts.Shirt[])",
						"numberOfBytes": "32",
						"value": "t_array(t_struct(Shirt)16_storage)dyn_storage"
					},
					"t_struct(Shirt)16_storage": {
						"encoding": "inplace",
						"label": "struct FancyShirts.Shirt",
						"members": [
							{
								"astId": 12,
								"contract": "contracts/FancyShirts.sol:FancyShirts",
								"label": "size",
								"offset": 0,
								"slot": "0",
								"type": "t_enum(Size)5"
							},
							{
								"astId": 15,
								"contract": "contracts/FancyShirts.sol:FancyShirts",
								"label": "color",
								"offset": 1,
								"slot": "0",
								"type": "t_enum(Color)9"
							}
						],
						"numberOfBytes": "32"
					}
				}
			},
			"userdoc": {
				"kind": "user",
				"methods": {},
				"version": 1
			}
		}
	}
}