{
	"contracts/FizzBuzz.sol": {
		"FizzBuzz": {
			"abi": [
				{
					"anonymous": false,
					"inputs": [
						{
							"indexed": false,
							"internalType": "address",
							"name": "sender",
							"type": "address"
						},
						{
							"indexed": true,
							"internalType": "uint256",
							"name": "count",
							"type": "uint256"
						}
					],
					"name": "Buzz",
					"type": "event"
				},
				{
					"anonymous": false,
					"inputs": [
						{
							"indexed": false,
							"internalType": "address",
							"name": "sender",
							"type": "address"
						},
						{
							"indexed": true,
							"internalType": "uint256",
							"name": "count",
							"type": "uint256"
						}
					],
					"name": "Fizz",
					"type": "event"
				},
				{
					"anonymous": false,
					"inputs": [
						{
							"indexed": false,
							"internalType": "address",
							"name": "sender",
							"type": "address"
						},
						{
							"indexed": true,
							"internalType": "uint256",
							"name": "count",
							"type": "uint256"
						}
					],
					"name": "FizzAndBuzz",
					"type": "event"
				},
				{
					"inputs": [],
					"name": "increment",
					"outputs": [],
					"stateMutability": "nonpayable",
					"type": "function"
				}
			],
			"devdoc": {
				"kind": "dev",
				"methods": {},
				"version": 1
			},
			"evm": {
				"assembly": "    /* \"contracts/FizzBuzz.sol\":36:686  contract FizzBuzz {... */\n  mstore(0x40, 0x80)\n  callvalue\n  dup1\n  iszero\n  tag_1\n  jumpi\n  0x00\n  dup1\n  revert\ntag_1:\n  pop\n  dataSize(sub_0)\n  dup1\n  dataOffset(sub_0)\n  0x00\n  codecopy\n  0x00\n  return\nstop\n\nsub_0: assembly {\n        /* \"contracts/FizzBuzz.sol\":36:686  contract FizzBuzz {... */\n      mstore(0x40, 0x80)\n      callvalue\n      dup1\n      iszero\n      tag_1\n      jumpi\n      0x00\n      dup1\n      revert\n    tag_1:\n      pop\n      jumpi(tag_2, lt(calldatasize, 0x04))\n      shr(0xe0, calldataload(0x00))\n      dup1\n      0xd09de08a\n      eq\n      tag_3\n      jumpi\n    tag_2:\n      0x00\n      dup1\n      revert\n        /* \"contracts/FizzBuzz.sol\":253:684  function increment() public {... */\n    tag_3:\n      tag_4\n      tag_5\n      jump\t// in\n    tag_4:\n      stop\n    tag_5:\n        /* \"contracts/FizzBuzz.sol\":323:328  count */\n      0x00\n      dup1\n        /* \"contracts/FizzBuzz.sol\":323:330  count++ */\n      dup2\n      sload\n      dup1\n      swap3\n      swap2\n      swap1\n      tag_7\n      swap1\n      tag_8\n      jump\t// in\n    tag_7:\n      swap2\n      swap1\n      pop\n      sstore\n      pop\n        /* \"contracts/FizzBuzz.sol\":341:358  bool divisibleBy3 */\n      0x00\n        /* \"contracts/FizzBuzz.sol\":374:375  0 */\n      dup1\n        /* \"contracts/FizzBuzz.sol\":369:370  3 */\n      0x03\n        /* \"contracts/FizzBuzz.sol\":361:366  count */\n      sload(0x00)\n        /* \"contracts/FizzBuzz.sol\":361:370  count % 3 */\n      tag_9\n      swap2\n      swap1\n      tag_10\n      jump\t// in\n    tag_9:\n        /* \"contracts/FizzBuzz.sol\":361:375  count % 3 == 0 */\n      eq\n        /* \"contracts/FizzBuzz.sol\":341:375  bool divisibleBy3 = count % 3 == 0 */\n      swap1\n      pop\n        /* \"contracts/FizzBuzz.sol\":385:402  bool divisibleBy5 */\n      0x00\n        /* \"contracts/FizzBuzz.sol\":418:419  0 */\n      dup1\n        /* \"contracts/FizzBuzz.sol\":413:414  5 */\n      0x05\n        /* \"contracts/FizzBuzz.sol\":405:410  count */\n      sload(0x00)\n        /* \"contracts/FizzBuzz.sol\":405:414  count % 5 */\n      tag_11\n      swap2\n      swap1\n      tag_10\n      jump\t// in\n    tag_11:\n        /* \"contracts/FizzBuzz.sol\":405:419  count % 5 == 0 */\n      eq\n        /* \"contracts/FizzBuzz.sol\":385:419  bool divisibleBy5 = count % 5 == 0 */\n      swap1\n      pop\n        /* \"contracts/FizzBuzz.sol\":434:446  divisibleBy3 */\n      dup2\n        /* \"contracts/FizzBuzz.sol\":434:462  divisibleBy3 && divisibleBy5 */\n      dup1\n      iszero\n      tag_12\n      jumpi\n      pop\n        /* \"contracts/FizzBuzz.sol\":450:462  divisibleBy5 */\n      dup1\n        /* \"contracts/FizzBuzz.sol\":434:462  divisibleBy3 && divisibleBy5 */\n    tag_12:\n        /* \"contracts/FizzBuzz.sol\":430:678  if (divisibleBy3 && divisibleBy5) {... */\n      iszero\n      tag_13\n      jumpi\n        /* \"contracts/FizzBuzz.sol\":507:512  count */\n      sload(0x00)\n        /* \"contracts/FizzBuzz.sol\":483:513  FizzAndBuzz(msg.sender, count) */\n      0x6cfd2920fc1b19a4032d9fb000de18a1de26ca5ca9a396432c775df392c26bb1\n        /* \"contracts/FizzBuzz.sol\":495:505  msg.sender */\n      caller\n        /* \"contracts/FizzBuzz.sol\":483:513  FizzAndBuzz(msg.sender, count) */\n      mload(0x40)\n      tag_14\n      swap2\n      swap1\n      tag_15\n      jump\t// in\n    tag_14:\n      mload(0x40)\n      dup1\n      swap2\n      sub\n      swap1\n      log2\n        /* \"contracts/FizzBuzz.sol\":430:678  if (divisibleBy3 && divisibleBy5) {... */\n      jump(tag_16)\n    tag_13:\n        /* \"contracts/FizzBuzz.sol\":534:546  divisibleBy3 */\n      dup2\n        /* \"contracts/FizzBuzz.sol\":530:678  if (divisibleBy3) {... */\n      iszero\n      tag_17\n      jumpi\n        /* \"contracts/FizzBuzz.sol\":584:589  count */\n      sload(0x00)\n        /* \"contracts/FizzBuzz.sol\":567:590  Fizz(msg.sender, count) */\n      0x74fcd4df5a6ff651f30d4df5cff3d69f973979dbd7d0ec2e51a12fb6763b3f4c\n        /* \"contracts/FizzBuzz.sol\":572:582  msg.sender */\n      caller\n        /* \"contracts/FizzBuzz.sol\":567:590  Fizz(msg.sender, count) */\n      mload(0x40)\n      tag_18\n      swap2\n      swap1\n      tag_15\n      jump\t// in\n    tag_18:\n      mload(0x40)\n      dup1\n      swap2\n      sub\n      swap1\n      log2\n        /* \"contracts/FizzBuzz.sol\":530:678  if (divisibleBy3) {... */\n      jump(tag_19)\n    tag_17:\n        /* \"contracts/FizzBuzz.sol\":611:623  divisibleBy5 */\n      dup1\n        /* \"contracts/FizzBuzz.sol\":607:678  if (divisibleBy5) {... */\n      iszero\n      tag_20\n      jumpi\n        /* \"contracts/FizzBuzz.sol\":661:666  count */\n      sload(0x00)\n        /* \"contracts/FizzBuzz.sol\":644:667  Buzz(msg.sender, count) */\n      0x14494f1b7e2a2a6d4d3f4c086e538dcb9054fc58e9e5b35b04a36754a31e466c\n        /* \"contracts/FizzBuzz.sol\":649:659  msg.sender */\n      caller\n        /* \"contracts/FizzBuzz.sol\":644:667  Buzz(msg.sender, count) */\n      mload(0x40)\n      tag_21\n      swap2\n      swap1\n      tag_15\n      jump\t// in\n    tag_21:\n      mload(0x40)\n      dup1\n      swap2\n      sub\n      swap1\n      log2\n        /* \"contracts/FizzBuzz.sol\":607:678  if (divisibleBy5) {... */\n    tag_20:\n        /* \"contracts/FizzBuzz.sol\":530:678  if (divisibleBy3) {... */\n    tag_19:\n        /* \"contracts/FizzBuzz.sol\":430:678  if (divisibleBy3 && divisibleBy5) {... */\n    tag_16:\n        /* \"contracts/FizzBuzz.sol\":281:684  {... */\n      pop\n      pop\n        /* \"contracts/FizzBuzz.sol\":253:684  function increment() public {... */\n      jump\t// out\n        /* \"#utility.yul\":7:125   */\n    tag_23:\n        /* \"#utility.yul\":94:118   */\n      tag_25\n        /* \"#utility.yul\":112:117   */\n      dup2\n        /* \"#utility.yul\":94:118   */\n      tag_26\n      jump\t// in\n    tag_25:\n        /* \"#utility.yul\":89:92   */\n      dup3\n        /* \"#utility.yul\":82:119   */\n      mstore\n        /* \"#utility.yul\":7:125   */\n      pop\n      pop\n      jump\t// out\n        /* \"#utility.yul\":131:353   */\n    tag_15:\n        /* \"#utility.yul\":224:228   */\n      0x00\n        /* \"#utility.yul\":262:264   */\n      0x20\n        /* \"#utility.yul\":251:260   */\n      dup3\n        /* \"#utility.yul\":247:265   */\n      add\n        /* \"#utility.yul\":239:265   */\n      swap1\n      pop\n        /* \"#utility.yul\":275:346   */\n      tag_28\n        /* \"#utility.yul\":343:344   */\n      0x00\n        /* \"#utility.yul\":332:341   */\n      dup4\n        /* \"#utility.yul\":328:345   */\n      add\n        /* \"#utility.yul\":319:325   */\n      dup5\n        /* \"#utility.yul\":275:346   */\n      tag_23\n      jump\t// in\n    tag_28:\n        /* \"#utility.yul\":131:353   */\n      swap3\n      swap2\n      pop\n      pop\n      jump\t// out\n        /* \"#utility.yul\":359:455   */\n    tag_26:\n        /* \"#utility.yul\":396:403   */\n      0x00\n        /* \"#utility.yul\":425:449   */\n      tag_30\n        /* \"#utility.yul\":443:448   */\n      dup3\n        /* \"#utility.yul\":425:449   */\n      tag_31\n      jump\t// in\n    tag_30:\n        /* \"#utility.yul\":414:449   */\n      swap1\n      pop\n        /* \"#utility.yul\":359:455   */\n      swap2\n      swap1\n      pop\n      jump\t// out\n        /* \"#utility.yul\":461:587   */\n    tag_31:\n        /* \"#utility.yul\":498:505   */\n      0x00\n        /* \"#utility.yul\":538:580   */\n      0xffffffffffffffffffffffffffffffffffffffff\n        /* \"#utility.yul\":531:536   */\n      dup3\n        /* \"#utility.yul\":527:581   */\n      and\n        /* \"#utility.yul\":516:581   */\n      swap1\n      pop\n        /* \"#utility.yul\":461:587   */\n      swap2\n      swap1\n      pop\n      jump\t// out\n        /* \"#utility.yul\":593:670   */\n    tag_33:\n        /* \"#utility.yul\":630:637   */\n      0x00\n        /* \"#utility.yul\":659:664   */\n      dup2\n        /* \"#utility.yul\":648:664   */\n      swap1\n      pop\n        /* \"#utility.yul\":593:670   */\n      swap2\n      swap1\n      pop\n      jump\t// out\n        /* \"#utility.yul\":676:909   */\n    tag_8:\n        /* \"#utility.yul\":715:718   */\n      0x00\n        /* \"#utility.yul\":738:762   */\n      tag_36\n        /* \"#utility.yul\":756:761   */\n      dup3\n        /* \"#utility.yul\":738:762   */\n      tag_33\n      jump\t// in\n    tag_36:\n        /* \"#utility.yul\":729:762   */\n      swap2\n      pop\n        /* \"#utility.yul\":784:850   */\n      0xffffffffffffffffffffffffffffffffffffffffffffffffffffffffffffffff\n        /* \"#utility.yul\":777:782   */\n      dup3\n        /* \"#utility.yul\":774:851   */\n      eq\n        /* \"#utility.yul\":771:874   */\n      iszero\n      tag_37\n      jumpi\n        /* \"#utility.yul\":854:872   */\n      tag_38\n      tag_39\n      jump\t// in\n    tag_38:\n        /* \"#utility.yul\":771:874   */\n    tag_37:\n        /* \"#utility.yul\":901:902   */\n      0x01\n        /* \"#utility.yul\":894:899   */\n      dup3\n        /* \"#utility.yul\":890:903   */\n      add\n        /* \"#utility.yul\":883:903   */\n      swap1\n      pop\n        /* \"#utility.yul\":676:909   */\n      swap2\n      swap1\n      pop\n      jump\t// out\n        /* \"#utility.yul\":915:1091   */\n    tag_10:\n        /* \"#utility.yul\":947:948   */\n      0x00\n        /* \"#utility.yul\":964:984   */\n      tag_41\n        /* \"#utility.yul\":982:983   */\n      dup3\n        /* \"#utility.yul\":964:984   */\n      tag_33\n      jump\t// in\n    tag_41:\n        /* \"#utility.yul\":959:984   */\n      swap2\n      pop\n        /* \"#utility.yul\":998:1018   */\n      tag_42\n        /* \"#utility.yul\":1016:1017   */\n      dup4\n        /* \"#utility.yul\":998:1018   */\n      tag_33\n      jump\t// in\n    tag_42:\n        /* \"#utility.yul\":993:1018   */\n      swap3\n      pop\n        /* \"#utility.yul\":1037:1038   */\n      dup3\n        /* \"#utility.yul\":1027:1062   */\n      tag_43\n      jumpi\n        /* \"#utility.yul\":1042:1060   */\n      tag_44\n      tag_45\n      jump\t// in\n    tag_44:\n        /* \"#utility.yul\":1027:1062   */\n    tag_43:\n        /* \"#utility.yul\":1083:1084   */\n      dup3\n        /* \"#utility.yul\":1080:1081   */\n      dup3\n        /* \"#utility.yul\":1076:1085   */\n      mod\n        /* \"#utility.yul\":1071:1085   */\n      swap1\n      pop\n        /* \"#utility.yul\":915:1091   */\n      swap3\n      swap2\n      pop\n      pop\n      jump\t// out\n        /* \"#utility.yul\":1097:1277   */\n    tag_39:\n        /* \"#utility.yul\":1145:1222   */\n      0x4e487b7100000000000000000000000000000000000000000000000000000000\n        /* \"#utility.yul\":1142:1143   */\n      0x00\n        /* \"#utility.yul\":1135:1223   */\n      mstore\n        /* \"#utility.yul\":1242:1246   */\n      0x11\n        /* \"#utility.yul\":1239:1240   */\n      0x04\n        /* \"#utility.yul\":1232:1247   */\n      mstore\n        /* \"#utility.yul\":1266:1270   */\n      0x24\n        /* \"#utility.yul\":1263:1264   */\n      0x00\n        /* \"#utility.yul\":1256:1271   */\n      revert\n        /* \"#utility.yul\":1283:1463   */\n    tag_45:\n        /* \"#utility.yul\":1331:1408   */\n      0x4e487b7100000000000000000000000000000000000000000000000000000000\n        /* \"#utility.yul\":1328:1329   */\n      0x00\n        /* \"#utility.yul\":1321:1409   */\n      mstore\n        /* \"#utility.yul\":1428:1432   */\n      0x12\n        /* \"#utility.yul\":1425:1426   */\n      0x04\n        /* \"#utility.yul\":1418:1433   */\n      mstore\n        /* \"#utility.yul\":1452:1456   */\n      0x24\n        /* \"#utility.yul\":1449:1450   */\n      0x00\n        /* \"#utility.yul\":1442:1457   */\n      revert\n\n    auxdata: 0xa2646970667358221220a5483b9713a84f60dcc86c2a078f306d81fdc16858f5f97b61c76a5dcf742f4864736f6c63430008070033\n}\n",
				"bytecode": {
					"linkReferences": {},
					"object": "608060405234801561001057600080fd5b506102c9806100206000396000f3fe608060405234801561001057600080fd5b506004361061002b5760003560e01c8063d09de08a14610030575b600080fd5b61003861003a565b005b60008081548092919061004c906101bb565b919050555060008060036000546100639190610204565b14905060008060056000546100789190610204565b1490508180156100855750805b156100c9576000547f6cfd2920fc1b19a4032d9fb000de18a1de26ca5ca9a396432c775df392c26bb1336040516100bc9190610164565b60405180910390a2610151565b811561010e576000547f74fcd4df5a6ff651f30d4df5cff3d69f973979dbd7d0ec2e51a12fb6763b3f4c336040516101019190610164565b60405180910390a2610150565b801561014f576000547f14494f1b7e2a2a6d4d3f4c086e538dcb9054fc58e9e5b35b04a36754a31e466c336040516101469190610164565b60405180910390a25b5b5b5050565b61015e8161017f565b82525050565b60006020820190506101796000830184610155565b92915050565b600061018a82610191565b9050919050565b600073ffffffffffffffffffffffffffffffffffffffff82169050919050565b6000819050919050565b60006101c6826101b1565b91507fffffffffffffffffffffffffffffffffffffffffffffffffffffffffffffffff8214156101f9576101f8610235565b5b600182019050919050565b600061020f826101b1565b915061021a836101b1565b92508261022a57610229610264565b5b828206905092915050565b7f4e487b7100000000000000000000000000000000000000000000000000000000600052601160045260246000fd5b7f4e487b7100000000000000000000000000000000000000000000000000000000600052601260045260246000fdfea2646970667358221220a5483b9713a84f60dcc86c2a078f306d81fdc16858f5f97b61c76a5dcf742f4864736f6c63430008070033",
					"opcodes": "PUSH1 0x80 PUSH1 0x40 MSTORE CALLVALUE DUP1 ISZERO PUSH2 0x10 JUMPI PUSH1 0x0 DUP1 REVERT JUMPDEST POP PUSH2 0x2C9 DUP1 PUSH2 0x20 PUSH1 0x0 CODECOPY PUSH1 0x0 RETURN INVALID PUSH1 0x80 PUSH1 0x40 MSTORE CALLVALUE DUP1 ISZERO PUSH2 0x10 JUMPI PUSH1 0x0 DUP1 REVERT JUMPDEST POP PUSH1 0x4 CALLDATASIZE LT PUSH2 0x2B JUMPI PUSH1 0x0 CALLDATALOAD PUSH1 0xE0 SHR DUP1 PUSH4 0xD09DE08A EQ PUSH2 0x30 JUMPI JUMPDEST PUSH1 0x0 DUP1 REVERT JUMPDEST PUSH2 0x38 PUSH2 0x3A JUMP JUMPDEST STOP JUMPDEST PUSH1 0x0 DUP1 DUP2 SLOAD DUP1 SWAP3 SWAP2 SWAP1 PUSH2 0x4C SWAP1 PUSH2 0x1BB JUMP JUMPDEST SWAP2 SWAP1 POP SSTORE POP PUSH1 0x0 DUP1 PUSH1 0x3 PUSH1 0x0 SLOAD PUSH2 0x63 SWAP2 SWAP1 PUSH2 0x204 JUMP JUMPDEST EQ SWAP1 POP PUSH1 0x0 DUP1 PUSH1 0x5 PUSH1 0x0 SLOAD PUSH2 0x78 SWAP2 SWAP1 PUSH2 0x204 JUMP JUMPDEST EQ SWAP1 POP DUP2 DUP1 ISZERO PUSH2 0x85 JUMPI POP DUP1 JUMPDEST ISZERO PUSH2 0xC9 JUMPI PUSH1 0x0 SLOAD PUSH32 0x6CFD2920FC1B19A4032D9FB000DE18A1DE26CA5CA9A396432C775DF392C26BB1 CALLER PUSH1 0x40 MLOAD PUSH2 0xBC SWAP2 SWAP1 PUSH2 0x164 JUMP JUMPDEST PUSH1 0x40 MLOAD DUP1 SWAP2 SUB SWAP1 LOG2 PUSH2 0x151 JUMP JUMPDEST DUP2 ISZERO PUSH2 0x10E JUMPI PUSH1 0x0 SLOAD PUSH32 0x74FCD4DF5A6FF651F30D4DF5CFF3D69F973979DBD7D0EC2E51A12FB6763B3F4C CALLER PUSH1 0x40 MLOAD PUSH2 0x101 SWAP2 SWAP1 PUSH2 0x164 JUMP JUMPDEST PUSH1 0x40 MLOAD DUP1 SWAP2 SUB SWAP1 LOG2 PUSH2 0x150 JUMP JUMPDEST DUP1 ISZERO PUSH2 0x14F JUMPI PUSH1 0x0 SLOAD PUSH32 0x14494F1B7E2A2A6D4D3F4C086E538DCB9054FC58E9E5B35B04A36754A31E466C CALLER PUSH1 0x40 MLOAD PUSH2 0x146 SWAP2 SWAP1 PUSH2 0x164 JUMP JUMPDEST PUSH1 0x40 MLOAD DUP1 SWAP2 SUB SWAP1 LOG2 JUMPDEST JUMPDEST JUMPDEST POP POP JUMP JUMPDEST PUSH2 0x15E DUP2 PUSH2 0x17F JUMP JUMPDEST DUP3 MSTORE POP POP JUMP JUMPDEST PUSH1 0x0 PUSH1 0x20 DUP3 ADD SWAP1 POP PUSH2 0x179 PUSH1 0x0 DUP4 ADD DUP5 PUSH2 0x155 JUMP JUMPDEST SWAP3 SWAP2 POP POP JUMP JUMPDEST PUSH1 0x0 PUSH2 0x18A DUP3 PUSH2 0x191 JUMP JUMPDEST SWAP1 POP SWAP2 SWAP1 POP JUMP JUMPDEST PUSH1 0x0 PUSH20 0xFFFFFFFFFFFFFFFFFFFFFFFFFFFFFFFFFFFFFFFF DUP3 AND SWAP1 POP SWAP2 SWAP1 POP JUMP JUMPDEST PUSH1 0x0 DUP2 SWAP1 POP SWAP2 SWAP1 POP JUMP JUMPDEST PUSH1 0x0 PUSH2 0x1C6 DUP3 PUSH2 0x1B1 JUMP JUMPDEST SWAP2 POP PUSH32 0xFFFFFFFFFFFFFFFFFFFFFFFFFFFFFFFFFFFFFFFFFFFFFFFFFFFFFFFFFFFFFFFF DUP3 EQ ISZERO PUSH2 0x1F9 JUMPI PUSH2 0x1F8 PUSH2 0x235 JUMP JUMPDEST JUMPDEST PUSH1 0x1 DUP3 ADD SWAP1 POP SWAP2 SWAP1 POP JUMP JUMPDEST PUSH1 0x0 PUSH2 0x20F DUP3 PUSH2 0x1B1 JUMP JUMPDEST SWAP2 POP PUSH2 0x21A DUP4 PUSH2 0x1B1 JUMP JUMPDEST SWAP3 POP DUP3 PUSH2 0x22A JUMPI PUSH2 0x229 PUSH2 0x264 JUMP JUMPDEST JUMPDEST DUP3 DUP3 MOD SWAP1 POP SWAP3 SWAP2 POP POP JUMP JUMPDEST PUSH32 0x4E487B7100000000000000000000000000000000000000000000000000000000 PUSH1 0x0 MSTORE PUSH1 0x11 PUSH1 0x4 MSTORE PUSH1 0x24 PUSH1 0x0 REVERT JUMPDEST PUSH32 0x4E487B7100000000000000000000000000000000000000000000000000000000 PUSH1 0x0 MSTORE PUSH1 0x12 PUSH1 0x4 MSTORE PUSH1 0x24 PUSH1 0x0 REVERT INVALID LOG2 PUSH5 0x6970667358 0x22 SLT KECCAK256 0xA5 BASEFEE EXTCODESIZE SWAP8 SGT 0xA8 0x4F PUSH1 0xDC 0xC8 PUSH13 0x2A078F306D81FDC16858F5F97B PUSH2 0xC76A 0x5D 0xCF PUSH21 0x2F4864736F6C634300080700330000000000000000 "
				},
				"gasEstimates": {
					"creation": {
						"codeDepositCost": "142600",
						"executionCost": "190",
						"totalCost": "142790"
					},
					"external": {
						"increment()": "infinite"
					}
				},
				"methodIdentifiers": {
					"increment()": "d09de08a"
				}
			},
			"storageLayout": {
				"storage": [
					{
						"astId": 3,
						"contract": "contracts/FizzBuzz.sol:FizzBuzz",
						"label": "count",
						"offset": 0,
						"slot": "0",
						"type": "t_uint256"
					}
				],
				"types": {
					"t_uint256": {
						"encoding": "inplace",
						"label": "uint256",
						"numberOfBytes": "32"
					}
				}
			},
			"userdoc": {
				"kind": "user",
				"methods": {},
				"version": 1
			}
		}
	}
}