{
	"contracts/EmployeeAndManager.sol": {
		"Employee": {
			"abi": [
				{
					"inputs": [
						{
							"internalType": "string",
							"name": "_firstName",
							"type": "string"
						},
						{
							"internalType": "string",
							"name": "_lastName",
							"type": "string"
						},
						{
							"internalType": "uint256",
							"name": "_hourlyPay",
							"type": "uint256"
						},
						{
							"internalType": "enum Employee.Department",
							"name": "_department",
							"type": "uint8"
						}
					],
					"stateMutability": "nonpayable",
					"type": "constructor"
				},
				{
					"inputs": [],
					"name": "getFirstName",
					"outputs": [
						{
							"internalType": "string",
							"name": "",
							"type": "string"
						}
					],
					"stateMutability": "view",
					"type": "function"
				},
				{
					"inputs": [
						{
							"internalType": "uint256",
							"name": "hoursWorked",
							"type": "uint256"
						}
					],
					"name": "getWeeklyPay",
					"outputs": [
						{
							"internalType": "uint256",
							"name": "",
							"type": "uint256"
						}
					],
					"stateMutability": "view",
					"type": "function"
				}
			],
			"devdoc": {
				"kind": "dev",
				"methods": {},
				"version": 1
			},
			"evm": {
				"assembly": "    /* \"contracts/EmployeeAndManager.sol\":36:931  contract Employee {... */\n  mstore(0x40, 0x80)\n    /* \"contracts/EmployeeAndManager.sol\":262:542  constructor(... */\n  callvalue\n  dup1\n  iszero\n  tag_1\n  jumpi\n  0x00\n  dup1\n  revert\ntag_1:\n  pop\n  mload(0x40)\n  sub(codesize, bytecodeSize)\n  dup1\n  bytecodeSize\n  dup4\n  codecopy\n  dup2\n  dup2\n  add\n  0x40\n  mstore\n  dup2\n  add\n  swap1\n  tag_2\n  swap2\n  swap1\n  tag_3\n  jump\t// in\ntag_2:\n    /* \"contracts/EmployeeAndManager.sol\":429:439  _firstName */\n  dup4\n    /* \"contracts/EmployeeAndManager.sol\":417:426  firstName */\n  0x00\n    /* \"contracts/EmployeeAndManager.sol\":417:439  firstName = _firstName */\n  swap1\n  dup1\n  mload\n  swap1\n  0x20\n  add\n  swap1\n  tag_6\n  swap3\n  swap2\n  swap1\n  tag_7\n  jump\t// in\ntag_6:\n  pop\n    /* \"contracts/EmployeeAndManager.sol\":460:469  _lastName */\n  dup3\n    /* \"contracts/EmployeeAndManager.sol\":449:457  lastName */\n  0x01\n    /* \"contracts/EmployeeAndManager.sol\":449:469  lastName = _lastName */\n  swap1\n  dup1\n  mload\n  swap1\n  0x20\n  add\n  swap1\n  tag_8\n  swap3\n  swap2\n  swap1\n  tag_7\n  jump\t// in\ntag_8:\n  pop\n    /* \"contracts/EmployeeAndManager.sol\":491:501  _hourlyPay */\n  dup2\n    /* \"contracts/EmployeeAndManager.sol\":479:488  hourlyPay */\n  0x02\n    /* \"contracts/EmployeeAndManager.sol\":479:501  hourlyPay = _hourlyPay */\n  dup2\n  swap1\n  sstore\n  pop\n    /* \"contracts/EmployeeAndManager.sol\":524:535  _department */\n  dup1\n    /* \"contracts/EmployeeAndManager.sol\":511:521  department */\n  0x03\n  0x00\n    /* \"contracts/EmployeeAndManager.sol\":511:535  department = _department */\n  0x0100\n  exp\n  dup2\n  sload\n  dup2\n  0xff\n  mul\n  not\n  and\n  swap1\n  dup4\n  0x02\n  dup2\n  gt\n  iszero\n  tag_9\n  jumpi\n  tag_10\n  tag_11\n  jump\t// in\ntag_10:\ntag_9:\n  mul\n  or\n  swap1\n  sstore\n  pop\n    /* \"contracts/EmployeeAndManager.sol\":262:542  constructor(... */\n  pop\n  pop\n  pop\n  pop\n    /* \"contracts/EmployeeAndManager.sol\":36:931  contract Employee {... */\n  jump(tag_12)\ntag_7:\n  dup3\n  dup1\n  sload\n  tag_13\n  swap1\n  tag_14\n  jump\t// in\ntag_13:\n  swap1\n  0x00\n  mstore\n  keccak256(0x00, 0x20)\n  swap1\n  0x1f\n  add\n  0x20\n  swap1\n  div\n  dup2\n  add\n  swap3\n  dup3\n  tag_16\n  jumpi\n  0x00\n  dup6\n  sstore\n  jump(tag_15)\ntag_16:\n  dup3\n  0x1f\n  lt\n  tag_17\n  jumpi\n  dup1\n  mload\n  not(0xff)\n  and\n  dup4\n  dup1\n  add\n  or\n  dup6\n  sstore\n  jump(tag_15)\ntag_17:\n  dup3\n  dup1\n  add\n  0x01\n  add\n  dup6\n  sstore\n  dup3\n  iszero\n  tag_15\n  jumpi\n  swap2\n  dup3\n  add\ntag_18:\n  dup3\n  dup2\n  gt\n  iszero\n  tag_19\n  jumpi\n  dup3\n  mload\n  dup3\n  sstore\n  swap2\n  0x20\n  add\n  swap2\n  swap1\n  0x01\n  add\n  swap1\n  jump(tag_18)\ntag_19:\ntag_15:\n  pop\n  swap1\n  pop\n  tag_20\n  swap2\n  swap1\n  tag_21\n  jump\t// in\ntag_20:\n  pop\n  swap1\n  jump\t// out\ntag_21:\ntag_22:\n  dup1\n  dup3\n  gt\n  iszero\n  tag_23\n  jumpi\n  0x00\n  dup2\n  0x00\n  swap1\n  sstore\n  pop\n  0x01\n  add\n  jump(tag_22)\ntag_23:\n  pop\n  swap1\n  jump\t// out\n    /* \"#utility.yul\":7:428   */\ntag_25:\n    /* \"#utility.yul\":96:101   */\n  0x00\n    /* \"#utility.yul\":121:187   */\n  tag_27\n    /* \"#utility.yul\":137:186   */\n  tag_28\n    /* \"#utility.yul\":179:185   */\n  dup5\n    /* \"#utility.yul\":137:186   */\n  tag_29\n  jump\t// in\ntag_28:\n    /* \"#utility.yul\":121:187   */\n  tag_30\n  jump\t// in\ntag_27:\n    /* \"#utility.yul\":112:187   */\n  swap1\n  pop\n    /* \"#utility.yul\":210:216   */\n  dup3\n    /* \"#utility.yul\":203:208   */\n  dup2\n    /* \"#utility.yul\":196:217   */\n  mstore\n    /* \"#utility.yul\":248:252   */\n  0x20\n    /* \"#utility.yul\":241:246   */\n  dup2\n    /* \"#utility.yul\":237:253   */\n  add\n    /* \"#utility.yul\":286:289   */\n  dup5\n    /* \"#utility.yul\":277:283   */\n  dup5\n    /* \"#utility.yul\":272:275   */\n  dup5\n    /* \"#utility.yul\":268:284   */\n  add\n    /* \"#utility.yul\":265:290   */\n  gt\n    /* \"#utility.yul\":262:374   */\n  iszero\n  tag_31\n  jumpi\n    /* \"#utility.yul\":293:372   */\n  tag_32\n  tag_33\n  jump\t// in\ntag_32:\n    /* \"#utility.yul\":262:374   */\ntag_31:\n    /* \"#utility.yul\":383:422   */\n  tag_34\n    /* \"#utility.yul\":415:421   */\n  dup5\n    /* \"#utility.yul\":410:413   */\n  dup3\n    /* \"#utility.yul\":405:408   */\n  dup6\n    /* \"#utility.yul\":383:422   */\n  tag_35\n  jump\t// in\ntag_34:\n    /* \"#utility.yul\":102:428   */\n  pop\n    /* \"#utility.yul\":7:428   */\n  swap4\n  swap3\n  pop\n  pop\n  pop\n  jump\t// out\n    /* \"#utility.yul\":434:601   */\ntag_36:\n    /* \"#utility.yul\":503:508   */\n  0x00\n    /* \"#utility.yul\":534:540   */\n  dup2\n    /* \"#utility.yul\":528:541   */\n  mload\n    /* \"#utility.yul\":519:541   */\n  swap1\n  pop\n    /* \"#utility.yul\":550:595   */\n  tag_38\n    /* \"#utility.yul\":589:594   */\n  dup2\n    /* \"#utility.yul\":550:595   */\n  tag_39\n  jump\t// in\ntag_38:\n    /* \"#utility.yul\":434:601   */\n  swap3\n  swap2\n  pop\n  pop\n  jump\t// out\n    /* \"#utility.yul\":621:976   */\ntag_40:\n    /* \"#utility.yul\":688:693   */\n  0x00\n    /* \"#utility.yul\":737:740   */\n  dup3\n    /* \"#utility.yul\":730:734   */\n  0x1f\n    /* \"#utility.yul\":722:728   */\n  dup4\n    /* \"#utility.yul\":718:735   */\n  add\n    /* \"#utility.yul\":714:741   */\n  slt\n    /* \"#utility.yul\":704:826   */\n  tag_42\n  jumpi\n    /* \"#utility.yul\":745:824   */\n  tag_43\n  tag_44\n  jump\t// in\ntag_43:\n    /* \"#utility.yul\":704:826   */\ntag_42:\n    /* \"#utility.yul\":855:861   */\n  dup2\n    /* \"#utility.yul\":849:862   */\n  mload\n    /* \"#utility.yul\":880:970   */\n  tag_45\n    /* \"#utility.yul\":966:969   */\n  dup5\n    /* \"#utility.yul\":958:964   */\n  dup3\n    /* \"#utility.yul\":951:955   */\n  0x20\n    /* \"#utility.yul\":943:949   */\n  dup7\n    /* \"#utility.yul\":939:956   */\n  add\n    /* \"#utility.yul\":880:970   */\n  tag_25\n  jump\t// in\ntag_45:\n    /* \"#utility.yul\":871:970   */\n  swap2\n  pop\n    /* \"#utility.yul\":694:976   */\n  pop\n    /* \"#utility.yul\":621:976   */\n  swap3\n  swap2\n  pop\n  pop\n  jump\t// out\n    /* \"#utility.yul\":982:1125   */\ntag_46:\n    /* \"#utility.yul\":1039:1044   */\n  0x00\n    /* \"#utility.yul\":1070:1076   */\n  dup2\n    /* \"#utility.yul\":1064:1077   */\n  mload\n    /* \"#utility.yul\":1055:1077   */\n  swap1\n  pop\n    /* \"#utility.yul\":1086:1119   */\n  tag_48\n    /* \"#utility.yul\":1113:1118   */\n  dup2\n    /* \"#utility.yul\":1086:1119   */\n  tag_49\n  jump\t// in\ntag_48:\n    /* \"#utility.yul\":982:1125   */\n  swap3\n  swap2\n  pop\n  pop\n  jump\t// out\n    /* \"#utility.yul\":1131:2321   */\ntag_3:\n    /* \"#utility.yul\":1260:1266   */\n  0x00\n    /* \"#utility.yul\":1268:1274   */\n  dup1\n    /* \"#utility.yul\":1276:1282   */\n  0x00\n    /* \"#utility.yul\":1284:1290   */\n  dup1\n    /* \"#utility.yul\":1333:1336   */\n  0x80\n    /* \"#utility.yul\":1321:1330   */\n  dup6\n    /* \"#utility.yul\":1312:1319   */\n  dup8\n    /* \"#utility.yul\":1308:1331   */\n  sub\n    /* \"#utility.yul\":1304:1337   */\n  slt\n    /* \"#utility.yul\":1301:1421   */\n  iszero\n  tag_51\n  jumpi\n    /* \"#utility.yul\":1340:1419   */\n  tag_52\n  tag_53\n  jump\t// in\ntag_52:\n    /* \"#utility.yul\":1301:1421   */\ntag_51:\n    /* \"#utility.yul\":1481:1482   */\n  0x00\n    /* \"#utility.yul\":1470:1479   */\n  dup6\n    /* \"#utility.yul\":1466:1483   */\n  add\n    /* \"#utility.yul\":1460:1484   */\n  mload\n    /* \"#utility.yul\":1511:1529   */\n  0xffffffffffffffff\n    /* \"#utility.yul\":1503:1509   */\n  dup2\n    /* \"#utility.yul\":1500:1530   */\n  gt\n    /* \"#utility.yul\":1497:1614   */\n  iszero\n  tag_54\n  jumpi\n    /* \"#utility.yul\":1533:1612   */\n  tag_55\n  tag_56\n  jump\t// in\ntag_55:\n    /* \"#utility.yul\":1497:1614   */\ntag_54:\n    /* \"#utility.yul\":1638:1712   */\n  tag_57\n    /* \"#utility.yul\":1704:1711   */\n  dup8\n    /* \"#utility.yul\":1695:1701   */\n  dup3\n    /* \"#utility.yul\":1684:1693   */\n  dup9\n    /* \"#utility.yul\":1680:1702   */\n  add\n    /* \"#utility.yul\":1638:1712   */\n  tag_40\n  jump\t// in\ntag_57:\n    /* \"#utility.yul\":1628:1712   */\n  swap5\n  pop\n    /* \"#utility.yul\":1431:1722   */\n  pop\n    /* \"#utility.yul\":1782:1784   */\n  0x20\n    /* \"#utility.yul\":1771:1780   */\n  dup6\n    /* \"#utility.yul\":1767:1785   */\n  add\n    /* \"#utility.yul\":1761:1786   */\n  mload\n    /* \"#utility.yul\":1813:1831   */\n  0xffffffffffffffff\n    /* \"#utility.yul\":1805:1811   */\n  dup2\n    /* \"#utility.yul\":1802:1832   */\n  gt\n    /* \"#utility.yul\":1799:1916   */\n  iszero\n  tag_58\n  jumpi\n    /* \"#utility.yul\":1835:1914   */\n  tag_59\n  tag_56\n  jump\t// in\ntag_59:\n    /* \"#utility.yul\":1799:1916   */\ntag_58:\n    /* \"#utility.yul\":1940:2014   */\n  tag_60\n    /* \"#utility.yul\":2006:2013   */\n  dup8\n    /* \"#utility.yul\":1997:2003   */\n  dup3\n    /* \"#utility.yul\":1986:1995   */\n  dup9\n    /* \"#utility.yul\":1982:2004   */\n  add\n    /* \"#utility.yul\":1940:2014   */\n  tag_40\n  jump\t// in\ntag_60:\n    /* \"#utility.yul\":1930:2014   */\n  swap4\n  pop\n    /* \"#utility.yul\":1732:2024   */\n  pop\n    /* \"#utility.yul\":2063:2065   */\n  0x40\n    /* \"#utility.yul\":2089:2153   */\n  tag_61\n    /* \"#utility.yul\":2145:2152   */\n  dup8\n    /* \"#utility.yul\":2136:2142   */\n  dup3\n    /* \"#utility.yul\":2125:2134   */\n  dup9\n    /* \"#utility.yul\":2121:2143   */\n  add\n    /* \"#utility.yul\":2089:2153   */\n  tag_46\n  jump\t// in\ntag_61:\n    /* \"#utility.yul\":2079:2153   */\n  swap3\n  pop\n    /* \"#utility.yul\":2034:2163   */\n  pop\n    /* \"#utility.yul\":2202:2204   */\n  0x60\n    /* \"#utility.yul\":2228:2304   */\n  tag_62\n    /* \"#utility.yul\":2296:2303   */\n  dup8\n    /* \"#utility.yul\":2287:2293   */\n  dup3\n    /* \"#utility.yul\":2276:2285   */\n  dup9\n    /* \"#utility.yul\":2272:2294   */\n  add\n    /* \"#utility.yul\":2228:2304   */\n  tag_36\n  jump\t// in\ntag_62:\n    /* \"#utility.yul\":2218:2304   */\n  swap2\n  pop\n    /* \"#utility.yul\":2173:2314   */\n  pop\n    /* \"#utility.yul\":1131:2321   */\n  swap3\n  swap6\n  swap2\n  swap5\n  pop\n  swap3\n  pop\n  jump\t// out\n    /* \"#utility.yul\":2327:2456   */\ntag_30:\n    /* \"#utility.yul\":2361:2367   */\n  0x00\n    /* \"#utility.yul\":2388:2408   */\n  tag_64\n  tag_65\n  jump\t// in\ntag_64:\n    /* \"#utility.yul\":2378:2408   */\n  swap1\n  pop\n    /* \"#utility.yul\":2417:2450   */\n  tag_66\n    /* \"#utility.yul\":2445:2449   */\n  dup3\n    /* \"#utility.yul\":2437:2443   */\n  dup3\n    /* \"#utility.yul\":2417:2450   */\n  tag_67\n  jump\t// in\ntag_66:\n    /* \"#utility.yul\":2327:2456   */\n  swap2\n  swap1\n  pop\n  jump\t// out\n    /* \"#utility.yul\":2462:2537   */\ntag_65:\n    /* \"#utility.yul\":2495:2501   */\n  0x00\n    /* \"#utility.yul\":2528:2530   */\n  0x40\n    /* \"#utility.yul\":2522:2531   */\n  mload\n    /* \"#utility.yul\":2512:2531   */\n  swap1\n  pop\n    /* \"#utility.yul\":2462:2537   */\n  swap1\n  jump\t// out\n    /* \"#utility.yul\":2543:2851   */\ntag_29:\n    /* \"#utility.yul\":2605:2609   */\n  0x00\n    /* \"#utility.yul\":2695:2713   */\n  0xffffffffffffffff\n    /* \"#utility.yul\":2687:2693   */\n  dup3\n    /* \"#utility.yul\":2684:2714   */\n  gt\n    /* \"#utility.yul\":2681:2737   */\n  iszero\n  tag_70\n  jumpi\n    /* \"#utility.yul\":2717:2735   */\n  tag_71\n  tag_72\n  jump\t// in\ntag_71:\n    /* \"#utility.yul\":2681:2737   */\ntag_70:\n    /* \"#utility.yul\":2755:2784   */\n  tag_73\n    /* \"#utility.yul\":2777:2783   */\n  dup3\n    /* \"#utility.yul\":2755:2784   */\n  tag_74\n  jump\t// in\ntag_73:\n    /* \"#utility.yul\":2747:2784   */\n  swap1\n  pop\n    /* \"#utility.yul\":2839:2843   */\n  0x20\n    /* \"#utility.yul\":2833:2837   */\n  dup2\n    /* \"#utility.yul\":2829:2844   */\n  add\n    /* \"#utility.yul\":2821:2844   */\n  swap1\n  pop\n    /* \"#utility.yul\":2543:2851   */\n  swap2\n  swap1\n  pop\n  jump\t// out\n    /* \"#utility.yul\":2857:2934   */\ntag_75:\n    /* \"#utility.yul\":2894:2901   */\n  0x00\n    /* \"#utility.yul\":2923:2928   */\n  dup2\n    /* \"#utility.yul\":2912:2928   */\n  swap1\n  pop\n    /* \"#utility.yul\":2857:2934   */\n  swap2\n  swap1\n  pop\n  jump\t// out\n    /* \"#utility.yul\":2940:3247   */\ntag_35:\n    /* \"#utility.yul\":3008:3009   */\n  0x00\n    /* \"#utility.yul\":3018:3131   */\ntag_78:\n    /* \"#utility.yul\":3032:3038   */\n  dup4\n    /* \"#utility.yul\":3029:3030   */\n  dup2\n    /* \"#utility.yul\":3026:3039   */\n  lt\n    /* \"#utility.yul\":3018:3131   */\n  iszero\n  tag_80\n  jumpi\n    /* \"#utility.yul\":3117:3118   */\n  dup1\n    /* \"#utility.yul\":3112:3115   */\n  dup3\n    /* \"#utility.yul\":3108:3119   */\n  add\n    /* \"#utility.yul\":3102:3120   */\n  mload\n    /* \"#utility.yul\":3098:3099   */\n  dup2\n    /* \"#utility.yul\":3093:3096   */\n  dup5\n    /* \"#utility.yul\":3089:3100   */\n  add\n    /* \"#utility.yul\":3082:3121   */\n  mstore\n    /* \"#utility.yul\":3054:3056   */\n  0x20\n    /* \"#utility.yul\":3051:3052   */\n  dup2\n    /* \"#utility.yul\":3047:3057   */\n  add\n    /* \"#utility.yul\":3042:3057   */\n  swap1\n  pop\n    /* \"#utility.yul\":3018:3131   */\n  jump(tag_78)\ntag_80:\n    /* \"#utility.yul\":3149:3155   */\n  dup4\n    /* \"#utility.yul\":3146:3147   */\n  dup2\n    /* \"#utility.yul\":3143:3156   */\n  gt\n    /* \"#utility.yul\":3140:3241   */\n  iszero\n  tag_81\n  jumpi\n    /* \"#utility.yul\":3229:3230   */\n  0x00\n    /* \"#utility.yul\":3220:3226   */\n  dup5\n    /* \"#utility.yul\":3215:3218   */\n  dup5\n    /* \"#utility.yul\":3211:3227   */\n  add\n    /* \"#utility.yul\":3204:3231   */\n  mstore\n    /* \"#utility.yul\":3140:3241   */\ntag_81:\n    /* \"#utility.yul\":2989:3247   */\n  pop\n    /* \"#utility.yul\":2940:3247   */\n  pop\n  pop\n  pop\n  jump\t// out\n    /* \"#utility.yul\":3253:3573   */\ntag_14:\n    /* \"#utility.yul\":3297:3303   */\n  0x00\n    /* \"#utility.yul\":3334:3335   */\n  0x02\n    /* \"#utility.yul\":3328:3332   */\n  dup3\n    /* \"#utility.yul\":3324:3336   */\n  div\n    /* \"#utility.yul\":3314:3336   */\n  swap1\n  pop\n    /* \"#utility.yul\":3381:3382   */\n  0x01\n    /* \"#utility.yul\":3375:3379   */\n  dup3\n    /* \"#utility.yul\":3371:3383   */\n  and\n    /* \"#utility.yul\":3402:3420   */\n  dup1\n    /* \"#utility.yul\":3392:3473   */\n  tag_83\n  jumpi\n    /* \"#utility.yul\":3458:3462   */\n  0x7f\n    /* \"#utility.yul\":3450:3456   */\n  dup3\n    /* \"#utility.yul\":3446:3463   */\n  and\n    /* \"#utility.yul\":3436:3463   */\n  swap2\n  pop\n    /* \"#utility.yul\":3392:3473   */\ntag_83:\n    /* \"#utility.yul\":3520:3522   */\n  0x20\n    /* \"#utility.yul\":3512:3518   */\n  dup3\n    /* \"#utility.yul\":3509:3523   */\n  lt\n    /* \"#utility.yul\":3489:3507   */\n  dup2\n    /* \"#utility.yul\":3486:3524   */\n  eq\n    /* \"#utility.yul\":3483:3567   */\n  iszero\n  tag_84\n  jumpi\n    /* \"#utility.yul\":3539:3557   */\n  tag_85\n  tag_86\n  jump\t// in\ntag_85:\n    /* \"#utility.yul\":3483:3567   */\ntag_84:\n    /* \"#utility.yul\":3304:3573   */\n  pop\n    /* \"#utility.yul\":3253:3573   */\n  swap2\n  swap1\n  pop\n  jump\t// out\n    /* \"#utility.yul\":3579:3860   */\ntag_67:\n    /* \"#utility.yul\":3662:3689   */\n  tag_88\n    /* \"#utility.yul\":3684:3688   */\n  dup3\n    /* \"#utility.yul\":3662:3689   */\n  tag_74\n  jump\t// in\ntag_88:\n    /* \"#utility.yul\":3654:3660   */\n  dup2\n    /* \"#utility.yul\":3650:3690   */\n  add\n    /* \"#utility.yul\":3792:3798   */\n  dup2\n    /* \"#utility.yul\":3780:3790   */\n  dup2\n    /* \"#utility.yul\":3777:3799   */\n  lt\n    /* \"#utility.yul\":3756:3774   */\n  0xffffffffffffffff\n    /* \"#utility.yul\":3744:3754   */\n  dup3\n    /* \"#utility.yul\":3741:3775   */\n  gt\n    /* \"#utility.yul\":3738:3800   */\n  or\n    /* \"#utility.yul\":3735:3823   */\n  iszero\n  tag_89\n  jumpi\n    /* \"#utility.yul\":3803:3821   */\n  tag_90\n  tag_72\n  jump\t// in\ntag_90:\n    /* \"#utility.yul\":3735:3823   */\ntag_89:\n    /* \"#utility.yul\":3843:3853   */\n  dup1\n    /* \"#utility.yul\":3839:3841   */\n  0x40\n    /* \"#utility.yul\":3832:3854   */\n  mstore\n    /* \"#utility.yul\":3622:3860   */\n  pop\n    /* \"#utility.yul\":3579:3860   */\n  pop\n  pop\n  jump\t// out\n    /* \"#utility.yul\":3866:4046   */\ntag_11:\n    /* \"#utility.yul\":3914:3991   */\n  0x4e487b7100000000000000000000000000000000000000000000000000000000\n    /* \"#utility.yul\":3911:3912   */\n  0x00\n    /* \"#utility.yul\":3904:3992   */\n  mstore\n    /* \"#utility.yul\":4011:4015   */\n  0x21\n    /* \"#utility.yul\":4008:4009   */\n  0x04\n    /* \"#utility.yul\":4001:4016   */\n  mstore\n    /* \"#utility.yul\":4035:4039   */\n  0x24\n    /* \"#utility.yul\":4032:4033   */\n  0x00\n    /* \"#utility.yul\":4025:4040   */\n  revert\n    /* \"#utility.yul\":4052:4232   */\ntag_86:\n    /* \"#utility.yul\":4100:4177   */\n  0x4e487b7100000000000000000000000000000000000000000000000000000000\n    /* \"#utility.yul\":4097:4098   */\n  0x00\n    /* \"#utility.yul\":4090:4178   */\n  mstore\n    /* \"#utility.yul\":4197:4201   */\n  0x22\n    /* \"#utility.yul\":4194:4195   */\n  0x04\n    /* \"#utility.yul\":4187:4202   */\n  mstore\n    /* \"#utility.yul\":4221:4225   */\n  0x24\n    /* \"#utility.yul\":4218:4219   */\n  0x00\n    /* \"#utility.yul\":4211:4226   */\n  revert\n    /* \"#utility.yul\":4238:4418   */\ntag_72:\n    /* \"#utility.yul\":4286:4363   */\n  0x4e487b7100000000000000000000000000000000000000000000000000000000\n    /* \"#utility.yul\":4283:4284   */\n  0x00\n    /* \"#utility.yul\":4276:4364   */\n  mstore\n    /* \"#utility.yul\":4383:4387   */\n  0x41\n    /* \"#utility.yul\":4380:4381   */\n  0x04\n    /* \"#utility.yul\":4373:4388   */\n  mstore\n    /* \"#utility.yul\":4407:4411   */\n  0x24\n    /* \"#utility.yul\":4404:4405   */\n  0x00\n    /* \"#utility.yul\":4397:4412   */\n  revert\n    /* \"#utility.yul\":4424:4541   */\ntag_44:\n    /* \"#utility.yul\":4533:4534   */\n  0x00\n    /* \"#utility.yul\":4530:4531   */\n  dup1\n    /* \"#utility.yul\":4523:4535   */\n  revert\n    /* \"#utility.yul\":4547:4664   */\ntag_33:\n    /* \"#utility.yul\":4656:4657   */\n  0x00\n    /* \"#utility.yul\":4653:4654   */\n  dup1\n    /* \"#utility.yul\":4646:4658   */\n  revert\n    /* \"#utility.yul\":4670:4787   */\ntag_56:\n    /* \"#utility.yul\":4779:4780   */\n  0x00\n    /* \"#utility.yul\":4776:4777   */\n  dup1\n    /* \"#utility.yul\":4769:4781   */\n  revert\n    /* \"#utility.yul\":4793:4910   */\ntag_53:\n    /* \"#utility.yul\":4902:4903   */\n  0x00\n    /* \"#utility.yul\":4899:4900   */\n  dup1\n    /* \"#utility.yul\":4892:4904   */\n  revert\n    /* \"#utility.yul\":4916:5018   */\ntag_74:\n    /* \"#utility.yul\":4957:4963   */\n  0x00\n    /* \"#utility.yul\":5008:5010   */\n  0x1f\n    /* \"#utility.yul\":5004:5011   */\n  not\n    /* \"#utility.yul\":4999:5001   */\n  0x1f\n    /* \"#utility.yul\":4992:4997   */\n  dup4\n    /* \"#utility.yul\":4988:5002   */\n  add\n    /* \"#utility.yul\":4984:5012   */\n  and\n    /* \"#utility.yul\":4974:5012   */\n  swap1\n  pop\n    /* \"#utility.yul\":4916:5018   */\n  swap2\n  swap1\n  pop\n  jump\t// out\n    /* \"#utility.yul\":5024:5135   */\ntag_39:\n    /* \"#utility.yul\":5109:5110   */\n  0x03\n    /* \"#utility.yul\":5102:5107   */\n  dup2\n    /* \"#utility.yul\":5099:5111   */\n  lt\n    /* \"#utility.yul\":5089:5129   */\n  tag_100\n  jumpi\n    /* \"#utility.yul\":5125:5126   */\n  0x00\n    /* \"#utility.yul\":5122:5123   */\n  dup1\n    /* \"#utility.yul\":5115:5127   */\n  revert\n    /* \"#utility.yul\":5089:5129   */\ntag_100:\n    /* \"#utility.yul\":5024:5135   */\n  pop\n  jump\t// out\n    /* \"#utility.yul\":5141:5263   */\ntag_49:\n    /* \"#utility.yul\":5214:5238   */\n  tag_102\n    /* \"#utility.yul\":5232:5237   */\n  dup2\n    /* \"#utility.yul\":5214:5238   */\n  tag_75\n  jump\t// in\ntag_102:\n    /* \"#utility.yul\":5207:5212   */\n  dup2\n    /* \"#utility.yul\":5204:5239   */\n  eq\n    /* \"#utility.yul\":5194:5257   */\n  tag_103\n  jumpi\n    /* \"#utility.yul\":5253:5254   */\n  0x00\n    /* \"#utility.yul\":5250:5251   */\n  dup1\n    /* \"#utility.yul\":5243:5255   */\n  revert\n    /* \"#utility.yul\":5194:5257   */\ntag_103:\n    /* \"#utility.yul\":5141:5263   */\n  pop\n  jump\t// out\n    /* \"contracts/EmployeeAndManager.sol\":36:931  contract Employee {... */\ntag_12:\n  dataSize(sub_0)\n  dup1\n  dataOffset(sub_0)\n  0x00\n  codecopy\n  0x00\n  return\nstop\n\nsub_0: assembly {\n        /* \"contracts/EmployeeAndManager.sol\":36:931  contract Employee {... */\n      mstore(0x40, 0x80)\n      callvalue\n      dup1\n      iszero\n      tag_1\n      jumpi\n      0x00\n      dup1\n      revert\n    tag_1:\n      pop\n      jumpi(tag_2, lt(calldatasize, 0x04))\n      shr(0xe0, calldataload(0x00))\n      dup1\n      0x932997f1\n      eq\n      tag_3\n      jumpi\n      dup1\n      0xa79488a4\n      eq\n      tag_4\n      jumpi\n    tag_2:\n      0x00\n      dup1\n      revert\n        /* \"contracts/EmployeeAndManager.sol\":836:929  function getFirstName() public view returns (string memory) {... */\n    tag_3:\n      tag_5\n      tag_6\n      jump\t// in\n    tag_5:\n      mload(0x40)\n      tag_7\n      swap2\n      swap1\n      tag_8\n      jump\t// in\n    tag_7:\n      mload(0x40)\n      dup1\n      swap2\n      sub\n      swap1\n      return\n        /* \"contracts/EmployeeAndManager.sol\":548:830  function getWeeklyPay(uint256 hoursWorked) public view returns (uint256) {... */\n    tag_4:\n      tag_9\n      0x04\n      dup1\n      calldatasize\n      sub\n      dup2\n      add\n      swap1\n      tag_10\n      swap2\n      swap1\n      tag_11\n      jump\t// in\n    tag_10:\n      tag_12\n      jump\t// in\n    tag_9:\n      mload(0x40)\n      tag_13\n      swap2\n      swap1\n      tag_14\n      jump\t// in\n    tag_13:\n      mload(0x40)\n      dup1\n      swap2\n      sub\n      swap1\n      return\n        /* \"contracts/EmployeeAndManager.sol\":836:929  function getFirstName() public view returns (string memory) {... */\n    tag_6:\n        /* \"contracts/EmployeeAndManager.sol\":881:894  string memory */\n      0x60\n        /* \"contracts/EmployeeAndManager.sol\":913:922  firstName */\n      0x00\n        /* \"contracts/EmployeeAndManager.sol\":906:922  return firstName */\n      dup1\n      sload\n      tag_16\n      swap1\n      tag_17\n      jump\t// in\n    tag_16:\n      dup1\n      0x1f\n      add\n      0x20\n      dup1\n      swap2\n      div\n      mul\n      0x20\n      add\n      mload(0x40)\n      swap1\n      dup2\n      add\n      0x40\n      mstore\n      dup1\n      swap3\n      swap2\n      swap1\n      dup2\n      dup2\n      mstore\n      0x20\n      add\n      dup3\n      dup1\n      sload\n      tag_18\n      swap1\n      tag_17\n      jump\t// in\n    tag_18:\n      dup1\n      iszero\n      tag_19\n      jumpi\n      dup1\n      0x1f\n      lt\n      tag_20\n      jumpi\n      0x0100\n      dup1\n      dup4\n      sload\n      div\n      mul\n      dup4\n      mstore\n      swap2\n      0x20\n      add\n      swap2\n      jump(tag_19)\n    tag_20:\n      dup3\n      add\n      swap2\n      swap1\n      0x00\n      mstore\n      keccak256(0x00, 0x20)\n      swap1\n    tag_21:\n      dup2\n      sload\n      dup2\n      mstore\n      swap1\n      0x01\n      add\n      swap1\n      0x20\n      add\n      dup1\n      dup4\n      gt\n      tag_21\n      jumpi\n      dup3\n      swap1\n      sub\n      0x1f\n      and\n      dup3\n      add\n      swap2\n    tag_19:\n      pop\n      pop\n      pop\n      pop\n      pop\n      swap1\n      pop\n        /* \"contracts/EmployeeAndManager.sol\":836:929  function getFirstName() public view returns (string memory) {... */\n      swap1\n      jump\t// out\n        /* \"contracts/EmployeeAndManager.sol\":548:830  function getWeeklyPay(uint256 hoursWorked) public view returns (uint256) {... */\n    tag_12:\n        /* \"contracts/EmployeeAndManager.sol\":612:619  uint256 */\n      0x00\n        /* \"contracts/EmployeeAndManager.sol\":650:652  40 */\n      0x28\n        /* \"contracts/EmployeeAndManager.sol\":635:646  hoursWorked */\n      dup3\n        /* \"contracts/EmployeeAndManager.sol\":635:652  hoursWorked <= 40 */\n      gt\n        /* \"contracts/EmployeeAndManager.sol\":631:709  if (hoursWorked <= 40) {... */\n      tag_23\n      jumpi\n        /* \"contracts/EmployeeAndManager.sol\":687:698  hoursWorked */\n      dup2\n        /* \"contracts/EmployeeAndManager.sol\":675:684  hourlyPay */\n      sload(0x02)\n        /* \"contracts/EmployeeAndManager.sol\":675:698  hourlyPay * hoursWorked */\n      tag_24\n      swap2\n      swap1\n      tag_25\n      jump\t// in\n    tag_24:\n        /* \"contracts/EmployeeAndManager.sol\":668:698  return hourlyPay * hoursWorked */\n      swap1\n      pop\n      jump(tag_22)\n        /* \"contracts/EmployeeAndManager.sol\":631:709  if (hoursWorked <= 40) {... */\n    tag_23:\n        /* \"contracts/EmployeeAndManager.sol\":718:739  uint256 overtimeHours */\n      0x00\n        /* \"contracts/EmployeeAndManager.sol\":756:758  40 */\n      0x28\n        /* \"contracts/EmployeeAndManager.sol\":742:753  hoursWorked */\n      dup4\n        /* \"contracts/EmployeeAndManager.sol\":742:758  hoursWorked - 40 */\n      tag_26\n      swap2\n      swap1\n      tag_27\n      jump\t// in\n    tag_26:\n        /* \"contracts/EmployeeAndManager.sol\":718:758  uint256 overtimeHours = hoursWorked - 40 */\n      swap1\n      pop\n        /* \"contracts/EmployeeAndManager.sol\":813:822  hourlyPay */\n      sload(0x02)\n        /* \"contracts/EmployeeAndManager.sol\":809:810  2 */\n      0x02\n        /* \"contracts/EmployeeAndManager.sol\":793:806  overtimeHours */\n      dup3\n        /* \"contracts/EmployeeAndManager.sol\":793:810  overtimeHours * 2 */\n      tag_28\n      swap2\n      swap1\n      tag_25\n      jump\t// in\n    tag_28:\n        /* \"contracts/EmployeeAndManager.sol\":793:822  overtimeHours * 2 * hourlyPay */\n      tag_29\n      swap2\n      swap1\n      tag_25\n      jump\t// in\n    tag_29:\n        /* \"contracts/EmployeeAndManager.sol\":780:789  hourlyPay */\n      sload(0x02)\n        /* \"contracts/EmployeeAndManager.sol\":775:777  40 */\n      0x28\n        /* \"contracts/EmployeeAndManager.sol\":775:789  40 * hourlyPay */\n      tag_30\n      swap2\n      swap1\n      tag_25\n      jump\t// in\n    tag_30:\n        /* \"contracts/EmployeeAndManager.sol\":775:823  40 * hourlyPay + (overtimeHours * 2 * hourlyPay) */\n      tag_31\n      swap2\n      swap1\n      tag_32\n      jump\t// in\n    tag_31:\n        /* \"contracts/EmployeeAndManager.sol\":768:823  return 40 * hourlyPay + (overtimeHours * 2 * hourlyPay) */\n      swap2\n      pop\n      pop\n        /* \"contracts/EmployeeAndManager.sol\":548:830  function getWeeklyPay(uint256 hoursWorked) public view returns (uint256) {... */\n    tag_22:\n      swap2\n      swap1\n      pop\n      jump\t// out\n        /* \"#utility.yul\":7:146   */\n    tag_34:\n        /* \"#utility.yul\":53:58   */\n      0x00\n        /* \"#utility.yul\":91:97   */\n      dup2\n        /* \"#utility.yul\":78:98   */\n      calldataload\n        /* \"#utility.yul\":69:98   */\n      swap1\n      pop\n        /* \"#utility.yul\":107:140   */\n      tag_36\n        /* \"#utility.yul\":134:139   */\n      dup2\n        /* \"#utility.yul\":107:140   */\n      tag_37\n      jump\t// in\n    tag_36:\n        /* \"#utility.yul\":7:146   */\n      swap3\n      swap2\n      pop\n      pop\n      jump\t// out\n        /* \"#utility.yul\":152:481   */\n    tag_11:\n        /* \"#utility.yul\":211:217   */\n      0x00\n        /* \"#utility.yul\":260:262   */\n      0x20\n        /* \"#utility.yul\":248:257   */\n      dup3\n        /* \"#utility.yul\":239:246   */\n      dup5\n        /* \"#utility.yul\":235:258   */\n      sub\n        /* \"#utility.yul\":231:263   */\n      slt\n        /* \"#utility.yul\":228:347   */\n      iszero\n      tag_39\n      jumpi\n        /* \"#utility.yul\":266:345   */\n      tag_40\n      tag_41\n      jump\t// in\n    tag_40:\n        /* \"#utility.yul\":228:347   */\n    tag_39:\n        /* \"#utility.yul\":386:387   */\n      0x00\n        /* \"#utility.yul\":411:464   */\n      tag_42\n        /* \"#utility.yul\":456:463   */\n      dup5\n        /* \"#utility.yul\":447:453   */\n      dup3\n        /* \"#utility.yul\":436:445   */\n      dup6\n        /* \"#utility.yul\":432:454   */\n      add\n        /* \"#utility.yul\":411:464   */\n      tag_34\n      jump\t// in\n    tag_42:\n        /* \"#utility.yul\":401:464   */\n      swap2\n      pop\n        /* \"#utility.yul\":357:474   */\n      pop\n        /* \"#utility.yul\":152:481   */\n      swap3\n      swap2\n      pop\n      pop\n      jump\t// out\n        /* \"#utility.yul\":487:851   */\n    tag_43:\n        /* \"#utility.yul\":575:578   */\n      0x00\n        /* \"#utility.yul\":603:642   */\n      tag_45\n        /* \"#utility.yul\":636:641   */\n      dup3\n        /* \"#utility.yul\":603:642   */\n      tag_46\n      jump\t// in\n    tag_45:\n        /* \"#utility.yul\":658:729   */\n      tag_47\n        /* \"#utility.yul\":722:728   */\n      dup2\n        /* \"#utility.yul\":717:720   */\n      dup6\n        /* \"#utility.yul\":658:729   */\n      tag_48\n      jump\t// in\n    tag_47:\n        /* \"#utility.yul\":651:729   */\n      swap4\n      pop\n        /* \"#utility.yul\":738:790   */\n      tag_49\n        /* \"#utility.yul\":783:789   */\n      dup2\n        /* \"#utility.yul\":778:781   */\n      dup6\n        /* \"#utility.yul\":771:775   */\n      0x20\n        /* \"#utility.yul\":764:769   */\n      dup7\n        /* \"#utility.yul\":760:776   */\n      add\n        /* \"#utility.yul\":738:790   */\n      tag_50\n      jump\t// in\n    tag_49:\n        /* \"#utility.yul\":815:844   */\n      tag_51\n        /* \"#utility.yul\":837:843   */\n      dup2\n        /* \"#utility.yul\":815:844   */\n      tag_52\n      jump\t// in\n    tag_51:\n        /* \"#utility.yul\":810:813   */\n      dup5\n        /* \"#utility.yul\":806:845   */\n      add\n        /* \"#utility.yul\":799:845   */\n      swap2\n      pop\n        /* \"#utility.yul\":579:851   */\n      pop\n        /* \"#utility.yul\":487:851   */\n      swap3\n      swap2\n      pop\n      pop\n      jump\t// out\n        /* \"#utility.yul\":857:975   */\n    tag_53:\n        /* \"#utility.yul\":944:968   */\n      tag_55\n        /* \"#utility.yul\":962:967   */\n      dup2\n        /* \"#utility.yul\":944:968   */\n      tag_56\n      jump\t// in\n    tag_55:\n        /* \"#utility.yul\":939:942   */\n      dup3\n        /* \"#utility.yul\":932:969   */\n      mstore\n        /* \"#utility.yul\":857:975   */\n      pop\n      pop\n      jump\t// out\n        /* \"#utility.yul\":981:1294   */\n    tag_8:\n        /* \"#utility.yul\":1094:1098   */\n      0x00\n        /* \"#utility.yul\":1132:1134   */\n      0x20\n        /* \"#utility.yul\":1121:1130   */\n      dup3\n        /* \"#utility.yul\":1117:1135   */\n      add\n        /* \"#utility.yul\":1109:1135   */\n      swap1\n      pop\n        /* \"#utility.yul\":1181:1190   */\n      dup2\n        /* \"#utility.yul\":1175:1179   */\n      dup2\n        /* \"#utility.yul\":1171:1191   */\n      sub\n        /* \"#utility.yul\":1167:1168   */\n      0x00\n        /* \"#utility.yul\":1156:1165   */\n      dup4\n        /* \"#utility.yul\":1152:1169   */\n      add\n        /* \"#utility.yul\":1145:1192   */\n      mstore\n        /* \"#utility.yul\":1209:1287   */\n      tag_58\n        /* \"#utility.yul\":1282:1286   */\n      dup2\n        /* \"#utility.yul\":1273:1279   */\n      dup5\n        /* \"#utility.yul\":1209:1287   */\n      tag_43\n      jump\t// in\n    tag_58:\n        /* \"#utility.yul\":1201:1287   */\n      swap1\n      pop\n        /* \"#utility.yul\":981:1294   */\n      swap3\n      swap2\n      pop\n      pop\n      jump\t// out\n        /* \"#utility.yul\":1300:1522   */\n    tag_14:\n        /* \"#utility.yul\":1393:1397   */\n      0x00\n        /* \"#utility.yul\":1431:1433   */\n      0x20\n        /* \"#utility.yul\":1420:1429   */\n      dup3\n        /* \"#utility.yul\":1416:1434   */\n      add\n        /* \"#utility.yul\":1408:1434   */\n      swap1\n      pop\n        /* \"#utility.yul\":1444:1515   */\n      tag_60\n        /* \"#utility.yul\":1512:1513   */\n      0x00\n        /* \"#utility.yul\":1501:1510   */\n      dup4\n        /* \"#utility.yul\":1497:1514   */\n      add\n        /* \"#utility.yul\":1488:1494   */\n      dup5\n        /* \"#utility.yul\":1444:1515   */\n      tag_53\n      jump\t// in\n    tag_60:\n        /* \"#utility.yul\":1300:1522   */\n      swap3\n      swap2\n      pop\n      pop\n      jump\t// out\n        /* \"#utility.yul\":1609:1708   */\n    tag_46:\n        /* \"#utility.yul\":1661:1667   */\n      0x00\n        /* \"#utility.yul\":1695:1700   */\n      dup2\n        /* \"#utility.yul\":1689:1701   */\n      mload\n        /* \"#utility.yul\":1679:1701   */\n      swap1\n      pop\n        /* \"#utility.yul\":1609:1708   */\n      swap2\n      swap1\n      pop\n      jump\t// out\n        /* \"#utility.yul\":1714:1883   */\n    tag_48:\n        /* \"#utility.yul\":1798:1809   */\n      0x00\n        /* \"#utility.yul\":1832:1838   */\n      dup3\n        /* \"#utility.yul\":1827:1830   */\n      dup3\n        /* \"#utility.yul\":1820:1839   */\n      mstore\n        /* \"#utility.yul\":1872:1876   */\n      0x20\n        /* \"#utility.yul\":1867:1870   */\n      dup3\n        /* \"#utility.yul\":1863:1877   */\n      add\n        /* \"#utility.yul\":1848:1877   */\n      swap1\n      pop\n        /* \"#utility.yul\":1714:1883   */\n      swap3\n      swap2\n      pop\n      pop\n      jump\t// out\n        /* \"#utility.yul\":1889:2194   */\n    tag_32:\n        /* \"#utility.yul\":1929:1932   */\n      0x00\n        /* \"#utility.yul\":1948:1968   */\n      tag_66\n        /* \"#utility.yul\":1966:1967   */\n      dup3\n        /* \"#utility.yul\":1948:1968   */\n      tag_56\n      jump\t// in\n    tag_66:\n        /* \"#utility.yul\":1943:1968   */\n      swap2\n      pop\n        /* \"#utility.yul\":1982:2002   */\n      tag_67\n        /* \"#utility.yul\":2000:2001   */\n      dup4\n        /* \"#utility.yul\":1982:2002   */\n      tag_56\n      jump\t// in\n    tag_67:\n        /* \"#utility.yul\":1977:2002   */\n      swap3\n      pop\n        /* \"#utility.yul\":2136:2137   */\n      dup3\n        /* \"#utility.yul\":2068:2134   */\n      0xffffffffffffffffffffffffffffffffffffffffffffffffffffffffffffffff\n        /* \"#utility.yul\":2064:2138   */\n      sub\n        /* \"#utility.yul\":2061:2062   */\n      dup3\n        /* \"#utility.yul\":2058:2139   */\n      gt\n        /* \"#utility.yul\":2055:2162   */\n      iszero\n      tag_68\n      jumpi\n        /* \"#utility.yul\":2142:2160   */\n      tag_69\n      tag_70\n      jump\t// in\n    tag_69:\n        /* \"#utility.yul\":2055:2162   */\n    tag_68:\n        /* \"#utility.yul\":2186:2187   */\n      dup3\n        /* \"#utility.yul\":2183:2184   */\n      dup3\n        /* \"#utility.yul\":2179:2188   */\n      add\n        /* \"#utility.yul\":2172:2188   */\n      swap1\n      pop\n        /* \"#utility.yul\":1889:2194   */\n      swap3\n      swap2\n      pop\n      pop\n      jump\t// out\n        /* \"#utility.yul\":2200:2548   */\n    tag_25:\n        /* \"#utility.yul\":2240:2247   */\n      0x00\n        /* \"#utility.yul\":2263:2283   */\n      tag_72\n        /* \"#utility.yul\":2281:2282   */\n      dup3\n        /* \"#utility.yul\":2263:2283   */\n      tag_56\n      jump\t// in\n    tag_72:\n        /* \"#utility.yul\":2258:2283   */\n      swap2\n      pop\n        /* \"#utility.yul\":2297:2317   */\n      tag_73\n        /* \"#utility.yul\":2315:2316   */\n      dup4\n        /* \"#utility.yul\":2297:2317   */\n      tag_56\n      jump\t// in\n    tag_73:\n        /* \"#utility.yul\":2292:2317   */\n      swap3\n      pop\n        /* \"#utility.yul\":2485:2486   */\n      dup2\n        /* \"#utility.yul\":2417:2483   */\n      0xffffffffffffffffffffffffffffffffffffffffffffffffffffffffffffffff\n        /* \"#utility.yul\":2413:2487   */\n      div\n        /* \"#utility.yul\":2410:2411   */\n      dup4\n        /* \"#utility.yul\":2407:2488   */\n      gt\n        /* \"#utility.yul\":2402:2403   */\n      dup3\n        /* \"#utility.yul\":2395:2404   */\n      iszero\n        /* \"#utility.yul\":2388:2405   */\n      iszero\n        /* \"#utility.yul\":2384:2489   */\n      and\n        /* \"#utility.yul\":2381:2512   */\n      iszero\n      tag_74\n      jumpi\n        /* \"#utility.yul\":2492:2510   */\n      tag_75\n      tag_70\n      jump\t// in\n    tag_75:\n        /* \"#utility.yul\":2381:2512   */\n    tag_74:\n        /* \"#utility.yul\":2540:2541   */\n      dup3\n        /* \"#utility.yul\":2537:2538   */\n      dup3\n        /* \"#utility.yul\":2533:2542   */\n      mul\n        /* \"#utility.yul\":2522:2542   */\n      swap1\n      pop\n        /* \"#utility.yul\":2200:2548   */\n      swap3\n      swap2\n      pop\n      pop\n      jump\t// out\n        /* \"#utility.yul\":2554:2745   */\n    tag_27:\n        /* \"#utility.yul\":2594:2598   */\n      0x00\n        /* \"#utility.yul\":2614:2634   */\n      tag_77\n        /* \"#utility.yul\":2632:2633   */\n      dup3\n        /* \"#utility.yul\":2614:2634   */\n      tag_56\n      jump\t// in\n    tag_77:\n        /* \"#utility.yul\":2609:2634   */\n      swap2\n      pop\n        /* \"#utility.yul\":2648:2668   */\n      tag_78\n        /* \"#utility.yul\":2666:2667   */\n      dup4\n        /* \"#utility.yul\":2648:2668   */\n      tag_56\n      jump\t// in\n    tag_78:\n        /* \"#utility.yul\":2643:2668   */\n      swap3\n      pop\n        /* \"#utility.yul\":2687:2688   */\n      dup3\n        /* \"#utility.yul\":2684:2685   */\n      dup3\n        /* \"#utility.yul\":2681:2689   */\n      lt\n        /* \"#utility.yul\":2678:2712   */\n      iszero\n      tag_79\n      jumpi\n        /* \"#utility.yul\":2692:2710   */\n      tag_80\n      tag_70\n      jump\t// in\n    tag_80:\n        /* \"#utility.yul\":2678:2712   */\n    tag_79:\n        /* \"#utility.yul\":2737:2738   */\n      dup3\n        /* \"#utility.yul\":2734:2735   */\n      dup3\n        /* \"#utility.yul\":2730:2739   */\n      sub\n        /* \"#utility.yul\":2722:2739   */\n      swap1\n      pop\n        /* \"#utility.yul\":2554:2745   */\n      swap3\n      swap2\n      pop\n      pop\n      jump\t// out\n        /* \"#utility.yul\":2751:2828   */\n    tag_56:\n        /* \"#utility.yul\":2788:2795   */\n      0x00\n        /* \"#utility.yul\":2817:2822   */\n      dup2\n        /* \"#utility.yul\":2806:2822   */\n      swap1\n      pop\n        /* \"#utility.yul\":2751:2828   */\n      swap2\n      swap1\n      pop\n      jump\t// out\n        /* \"#utility.yul\":2834:3141   */\n    tag_50:\n        /* \"#utility.yul\":2902:2903   */\n      0x00\n        /* \"#utility.yul\":2912:3025   */\n    tag_83:\n        /* \"#utility.yul\":2926:2932   */\n      dup4\n        /* \"#utility.yul\":2923:2924   */\n      dup2\n        /* \"#utility.yul\":2920:2933   */\n      lt\n        /* \"#utility.yul\":2912:3025   */\n      iszero\n      tag_85\n      jumpi\n        /* \"#utility.yul\":3011:3012   */\n      dup1\n        /* \"#utility.yul\":3006:3009   */\n      dup3\n        /* \"#utility.yul\":3002:3013   */\n      add\n        /* \"#utility.yul\":2996:3014   */\n      mload\n        /* \"#utility.yul\":2992:2993   */\n      dup2\n        /* \"#utility.yul\":2987:2990   */\n      dup5\n        /* \"#utility.yul\":2983:2994   */\n      add\n        /* \"#utility.yul\":2976:3015   */\n      mstore\n        /* \"#utility.yul\":2948:2950   */\n      0x20\n        /* \"#utility.yul\":2945:2946   */\n      dup2\n        /* \"#utility.yul\":2941:2951   */\n      add\n        /* \"#utility.yul\":2936:2951   */\n      swap1\n      pop\n        /* \"#utility.yul\":2912:3025   */\n      jump(tag_83)\n    tag_85:\n        /* \"#utility.yul\":3043:3049   */\n      dup4\n        /* \"#utility.yul\":3040:3041   */\n      dup2\n        /* \"#utility.yul\":3037:3050   */\n      gt\n        /* \"#utility.yul\":3034:3135   */\n      iszero\n      tag_86\n      jumpi\n        /* \"#utility.yul\":3123:3124   */\n      0x00\n        /* \"#utility.yul\":3114:3120   */\n      dup5\n        /* \"#utility.yul\":3109:3112   */\n      dup5\n        /* \"#utility.yul\":3105:3121   */\n      add\n        /* \"#utility.yul\":3098:3125   */\n      mstore\n        /* \"#utility.yul\":3034:3135   */\n    tag_86:\n        /* \"#utility.yul\":2883:3141   */\n      pop\n        /* \"#utility.yul\":2834:3141   */\n      pop\n      pop\n      pop\n      jump\t// out\n        /* \"#utility.yul\":3147:3467   */\n    tag_17:\n        /* \"#utility.yul\":3191:3197   */\n      0x00\n        /* \"#utility.yul\":3228:3229   */\n      0x02\n        /* \"#utility.yul\":3222:3226   */\n      dup3\n        /* \"#utility.yul\":3218:3230   */\n      div\n        /* \"#utility.yul\":3208:3230   */\n      swap1\n      pop\n        /* \"#utility.yul\":3275:3276   */\n      0x01\n        /* \"#utility.yul\":3269:3273   */\n      dup3\n        /* \"#utility.yul\":3265:3277   */\n      and\n        /* \"#utility.yul\":3296:3314   */\n      dup1\n        /* \"#utility.yul\":3286:3367   */\n      tag_88\n      jumpi\n        /* \"#utility.yul\":3352:3356   */\n      0x7f\n        /* \"#utility.yul\":3344:3350   */\n      dup3\n        /* \"#utility.yul\":3340:3357   */\n      and\n        /* \"#utility.yul\":3330:3357   */\n      swap2\n      pop\n        /* \"#utility.yul\":3286:3367   */\n    tag_88:\n        /* \"#utility.yul\":3414:3416   */\n      0x20\n        /* \"#utility.yul\":3406:3412   */\n      dup3\n        /* \"#utility.yul\":3403:3417   */\n      lt\n        /* \"#utility.yul\":3383:3401   */\n      dup2\n        /* \"#utility.yul\":3380:3418   */\n      eq\n        /* \"#utility.yul\":3377:3461   */\n      iszero\n      tag_89\n      jumpi\n        /* \"#utility.yul\":3433:3451   */\n      tag_90\n      tag_91\n      jump\t// in\n    tag_90:\n        /* \"#utility.yul\":3377:3461   */\n    tag_89:\n        /* \"#utility.yul\":3198:3467   */\n      pop\n        /* \"#utility.yul\":3147:3467   */\n      swap2\n      swap1\n      pop\n      jump\t// out\n        /* \"#utility.yul\":3473:3653   */\n    tag_70:\n        /* \"#utility.yul\":3521:3598   */\n      0x4e487b7100000000000000000000000000000000000000000000000000000000\n        /* \"#utility.yul\":3518:3519   */\n      0x00\n        /* \"#utility.yul\":3511:3599   */\n      mstore\n        /* \"#utility.yul\":3618:3622   */\n      0x11\n        /* \"#utility.yul\":3615:3616   */\n      0x04\n        /* \"#utility.yul\":3608:3623   */\n      mstore\n        /* \"#utility.yul\":3642:3646   */\n      0x24\n        /* \"#utility.yul\":3639:3640   */\n      0x00\n        /* \"#utility.yul\":3632:3647   */\n      revert\n        /* \"#utility.yul\":3659:3839   */\n    tag_91:\n        /* \"#utility.yul\":3707:3784   */\n      0x4e487b7100000000000000000000000000000000000000000000000000000000\n        /* \"#utility.yul\":3704:3705   */\n      0x00\n        /* \"#utility.yul\":3697:3785   */\n      mstore\n        /* \"#utility.yul\":3804:3808   */\n      0x22\n        /* \"#utility.yul\":3801:3802   */\n      0x04\n        /* \"#utility.yul\":3794:3809   */\n      mstore\n        /* \"#utility.yul\":3828:3832   */\n      0x24\n        /* \"#utility.yul\":3825:3826   */\n      0x00\n        /* \"#utility.yul\":3818:3833   */\n      revert\n        /* \"#utility.yul\":3968:4085   */\n    tag_41:\n        /* \"#utility.yul\":4077:4078   */\n      0x00\n        /* \"#utility.yul\":4074:4075   */\n      dup1\n        /* \"#utility.yul\":4067:4079   */\n      revert\n        /* \"#utility.yul\":4091:4193   */\n    tag_52:\n        /* \"#utility.yul\":4132:4138   */\n      0x00\n        /* \"#utility.yul\":4183:4185   */\n      0x1f\n        /* \"#utility.yul\":4179:4186   */\n      not\n        /* \"#utility.yul\":4174:4176   */\n      0x1f\n        /* \"#utility.yul\":4167:4172   */\n      dup4\n        /* \"#utility.yul\":4163:4177   */\n      add\n        /* \"#utility.yul\":4159:4187   */\n      and\n        /* \"#utility.yul\":4149:4187   */\n      swap1\n      pop\n        /* \"#utility.yul\":4091:4193   */\n      swap2\n      swap1\n      pop\n      jump\t// out\n        /* \"#utility.yul\":4199:4321   */\n    tag_37:\n        /* \"#utility.yul\":4272:4296   */\n      tag_99\n        /* \"#utility.yul\":4290:4295   */\n      dup2\n        /* \"#utility.yul\":4272:4296   */\n      tag_56\n      jump\t// in\n    tag_99:\n        /* \"#utility.yul\":4265:4270   */\n      dup2\n        /* \"#utility.yul\":4262:4297   */\n      eq\n        /* \"#utility.yul\":4252:4315   */\n      tag_100\n      jumpi\n        /* \"#utility.yul\":4311:4312   */\n      0x00\n        /* \"#utility.yul\":4308:4309   */\n      dup1\n        /* \"#utility.yul\":4301:4313   */\n      revert\n        /* \"#utility.yul\":4252:4315   */\n    tag_100:\n        /* \"#utility.yul\":4199:4321   */\n      pop\n      jump\t// out\n\n    auxdata: 0xa2646970667358221220017f0b7ab3a45dd2bbfaf6eda81af46687a8443f1dba897984fda59d67c9773764736f6c63430008070033\n}\n",
				"bytecode": {
					"linkReferences": {},
					"object": "60806040523480156200001157600080fd5b506040516200092938038062000929833981810160405281019062000037919062000203565b83600090805190602001906200004f929190620000a7565b50826001908051906020019062000068929190620000a7565b508160028190555080600360006101000a81548160ff02191690836002811115620000985762000097620003be565b5b0217905550505050506200049b565b828054620000b59062000352565b90600052602060002090601f016020900481019282620000d9576000855562000125565b82601f10620000f457805160ff191683800117855562000125565b8280016001018555821562000125579182015b828111156200012457825182559160200191906001019062000107565b5b50905062000134919062000138565b5090565b5b808211156200015357600081600090555060010162000139565b5090565b60006200016e6200016884620002dc565b620002b3565b9050828152602081018484840111156200018d576200018c62000450565b5b6200019a8482856200031c565b509392505050565b600081519050620001b38162000470565b92915050565b600082601f830112620001d157620001d06200044b565b5b8151620001e384826020860162000157565b91505092915050565b600081519050620001fd8162000481565b92915050565b6000806000806080858703121562000220576200021f6200045a565b5b600085015167ffffffffffffffff81111562000241576200024062000455565b5b6200024f87828801620001b9565b945050602085015167ffffffffffffffff81111562000273576200027262000455565b5b6200028187828801620001b9565b93505060406200029487828801620001ec565b9250506060620002a787828801620001a2565b91505092959194509250565b6000620002bf620002d2565b9050620002cd828262000388565b919050565b6000604051905090565b600067ffffffffffffffff821115620002fa57620002f96200041c565b5b62000305826200045f565b9050602081019050919050565b6000819050919050565b60005b838110156200033c5780820151818401526020810190506200031f565b838111156200034c576000848401525b50505050565b600060028204905060018216806200036b57607f821691505b60208210811415620003825762000381620003ed565b5b50919050565b62000393826200045f565b810181811067ffffffffffffffff82111715620003b557620003b46200041c565b5b80604052505050565b7f4e487b7100000000000000000000000000000000000000000000000000000000600052602160045260246000fd5b7f4e487b7100000000000000000000000000000000000000000000000000000000600052602260045260246000fd5b7f4e487b7100000000000000000000000000000000000000000000000000000000600052604160045260246000fd5b600080fd5b600080fd5b600080fd5b600080fd5b6000601f19601f8301169050919050565b600381106200047e57600080fd5b50565b6200048c8162000312565b81146200049857600080fd5b50565b61047e80620004ab6000396000f3fe608060405234801561001057600080fd5b50600436106100365760003560e01c8063932997f11461003b578063a79488a414610059575b600080fd5b610043610089565b6040516100509190610211565b60405180910390f35b610073600480360381019061006e919061019c565b61011b565b6040516100809190610233565b60405180910390f35b6060600080546100989061038b565b80601f01602080910402602001604051908101604052809291908181526020018280546100c49061038b565b80156101115780601f106100e657610100808354040283529160200191610111565b820191906000526020600020905b8154815290600101906020018083116100f457829003601f168201915b5050505050905090565b60006028821161013a578160025461013391906102c0565b9050610182565b6000602883610149919061031a565b905060025460028261015b91906102c0565b61016591906102c0565b600254602861017491906102c0565b61017e919061026a565b9150505b919050565b60008135905061019681610431565b92915050565b6000602082840312156101b2576101b161041b565b5b60006101c084828501610187565b91505092915050565b60006101d48261024e565b6101de8185610259565b93506101ee818560208601610358565b6101f781610420565b840191505092915050565b61020b8161034e565b82525050565b6000602082019050818103600083015261022b81846101c9565b905092915050565b60006020820190506102486000830184610202565b92915050565b600081519050919050565b600082825260208201905092915050565b60006102758261034e565b91506102808361034e565b9250827fffffffffffffffffffffffffffffffffffffffffffffffffffffffffffffffff038211156102b5576102b46103bd565b5b828201905092915050565b60006102cb8261034e565b91506102d68361034e565b9250817fffffffffffffffffffffffffffffffffffffffffffffffffffffffffffffffff048311821515161561030f5761030e6103bd565b5b828202905092915050565b60006103258261034e565b91506103308361034e565b925082821015610343576103426103bd565b5b828203905092915050565b6000819050919050565b60005b8381101561037657808201518184015260208101905061035b565b83811115610385576000848401525b50505050565b600060028204905060018216806103a357607f821691505b602082108114156103b7576103b66103ec565b5b50919050565b7f4e487b7100000000000000000000000000000000000000000000000000000000600052601160045260246000fd5b7f4e487b7100000000000000000000000000000000000000000000000000000000600052602260045260246000fd5b600080fd5b6000601f19601f8301169050919050565b61043a8161034e565b811461044557600080fd5b5056fea2646970667358221220017f0b7ab3a45dd2bbfaf6eda81af46687a8443f1dba897984fda59d67c9773764736f6c63430008070033",
					"opcodes": "PUSH1 0x80 PUSH1 0x40 MSTORE CALLVALUE DUP1 ISZERO PUSH3 0x11 JUMPI PUSH1 0x0 DUP1 REVERT JUMPDEST POP PUSH1 0x40 MLOAD PUSH3 0x929 CODESIZE SUB DUP1 PUSH3 0x929 DUP4 CODECOPY DUP2 DUP2 ADD PUSH1 0x40 MSTORE DUP2 ADD SWAP1 PUSH3 0x37 SWAP2 SWAP1 PUSH3 0x203 JUMP JUMPDEST DUP4 PUSH1 0x0 SWAP1 DUP1 MLOAD SWAP1 PUSH1 0x20 ADD SWAP1 PUSH3 0x4F SWAP3 SWAP2 SWAP1 PUSH3 0xA7 JUMP JUMPDEST POP DUP3 PUSH1 0x1 SWAP1 DUP1 MLOAD SWAP1 PUSH1 0x20 ADD SWAP1 PUSH3 0x68 SWAP3 SWAP2 SWAP1 PUSH3 0xA7 JUMP JUMPDEST POP DUP2 PUSH1 0x2 DUP2 SWAP1 SSTORE POP DUP1 PUSH1 0x3 PUSH1 0x0 PUSH2 0x100 EXP DUP2 SLOAD DUP2 PUSH1 0xFF MUL NOT AND SWAP1 DUP4 PUSH1 0x2 DUP2 GT ISZERO PUSH3 0x98 JUMPI PUSH3 0x97 PUSH3 0x3BE JUMP JUMPDEST JUMPDEST MUL OR SWAP1 SSTORE POP POP POP POP POP PUSH3 0x49B JUMP JUMPDEST DUP3 DUP1 SLOAD PUSH3 0xB5 SWAP1 PUSH3 0x352 JUMP JUMPDEST SWAP1 PUSH1 0x0 MSTORE PUSH1 0x20 PUSH1 0x0 KECCAK256 SWAP1 PUSH1 0x1F ADD PUSH1 0x20 SWAP1 DIV DUP2 ADD SWAP3 DUP3 PUSH3 0xD9 JUMPI PUSH1 0x0 DUP6 SSTORE PUSH3 0x125 JUMP JUMPDEST DUP3 PUSH1 0x1F LT PUSH3 0xF4 JUMPI DUP1 MLOAD PUSH1 0xFF NOT AND DUP4 DUP1 ADD OR DUP6 SSTORE PUSH3 0x125 JUMP JUMPDEST DUP3 DUP1 ADD PUSH1 0x1 ADD DUP6 SSTORE DUP3 ISZERO PUSH3 0x125 JUMPI SWAP2 DUP3 ADD JUMPDEST DUP3 DUP2 GT ISZERO PUSH3 0x124 JUMPI DUP3 MLOAD DUP3 SSTORE SWAP2 PUSH1 0x20 ADD SWAP2 SWAP1 PUSH1 0x1 ADD SWAP1 PUSH3 0x107 JUMP JUMPDEST JUMPDEST POP SWAP1 POP PUSH3 0x134 SWAP2 SWAP1 PUSH3 0x138 JUMP JUMPDEST POP SWAP1 JUMP JUMPDEST JUMPDEST DUP1 DUP3 GT ISZERO PUSH3 0x153 JUMPI PUSH1 0x0 DUP2 PUSH1 0x0 SWAP1 SSTORE POP PUSH1 0x1 ADD PUSH3 0x139 JUMP JUMPDEST POP SWAP1 JUMP JUMPDEST PUSH1 0x0 PUSH3 0x16E PUSH3 0x168 DUP5 PUSH3 0x2DC JUMP JUMPDEST PUSH3 0x2B3 JUMP JUMPDEST SWAP1 POP DUP3 DUP2 MSTORE PUSH1 0x20 DUP2 ADD DUP5 DUP5 DUP5 ADD GT ISZERO PUSH3 0x18D JUMPI PUSH3 0x18C PUSH3 0x450 JUMP JUMPDEST JUMPDEST PUSH3 0x19A DUP5 DUP3 DUP6 PUSH3 0x31C JUMP JUMPDEST POP SWAP4 SWAP3 POP POP POP JUMP JUMPDEST PUSH1 0x0 DUP2 MLOAD SWAP1 POP PUSH3 0x1B3 DUP2 PUSH3 0x470 JUMP JUMPDEST SWAP3 SWAP2 POP POP JUMP JUMPDEST PUSH1 0x0 DUP3 PUSH1 0x1F DUP4 ADD SLT PUSH3 0x1D1 JUMPI PUSH3 0x1D0 PUSH3 0x44B JUMP JUMPDEST JUMPDEST DUP2 MLOAD PUSH3 0x1E3 DUP5 DUP3 PUSH1 0x20 DUP7 ADD PUSH3 0x157 JUMP JUMPDEST SWAP2 POP POP SWAP3 SWAP2 POP POP JUMP JUMPDEST PUSH1 0x0 DUP2 MLOAD SWAP1 POP PUSH3 0x1FD DUP2 PUSH3 0x481 JUMP JUMPDEST SWAP3 SWAP2 POP POP JUMP JUMPDEST PUSH1 0x0 DUP1 PUSH1 0x0 DUP1 PUSH1 0x80 DUP6 DUP8 SUB SLT ISZERO PUSH3 0x220 JUMPI PUSH3 0x21F PUSH3 0x45A JUMP JUMPDEST JUMPDEST PUSH1 0x0 DUP6 ADD MLOAD PUSH8 0xFFFFFFFFFFFFFFFF DUP2 GT ISZERO PUSH3 0x241 JUMPI PUSH3 0x240 PUSH3 0x455 JUMP JUMPDEST JUMPDEST PUSH3 0x24F DUP8 DUP3 DUP9 ADD PUSH3 0x1B9 JUMP JUMPDEST SWAP5 POP POP PUSH1 0x20 DUP6 ADD MLOAD PUSH8 0xFFFFFFFFFFFFFFFF DUP2 GT ISZERO PUSH3 0x273 JUMPI PUSH3 0x272 PUSH3 0x455 JUMP JUMPDEST JUMPDEST PUSH3 0x281 DUP8 DUP3 DUP9 ADD PUSH3 0x1B9 JUMP JUMPDEST SWAP4 POP POP PUSH1 0x40 PUSH3 0x294 DUP8 DUP3 DUP9 ADD PUSH3 0x1EC JUMP JUMPDEST SWAP3 POP POP PUSH1 0x60 PUSH3 0x2A7 DUP8 DUP3 DUP9 ADD PUSH3 0x1A2 JUMP JUMPDEST SWAP2 POP POP SWAP3 SWAP6 SWAP2 SWAP5 POP SWAP3 POP JUMP JUMPDEST PUSH1 0x0 PUSH3 0x2BF PUSH3 0x2D2 JUMP JUMPDEST SWAP1 POP PUSH3 0x2CD DUP3 DUP3 PUSH3 0x388 JUMP JUMPDEST SWAP2 SWAP1 POP JUMP JUMPDEST PUSH1 0x0 PUSH1 0x40 MLOAD SWAP1 POP SWAP1 JUMP JUMPDEST PUSH1 0x0 PUSH8 0xFFFFFFFFFFFFFFFF DUP3 GT ISZERO PUSH3 0x2FA JUMPI PUSH3 0x2F9 PUSH3 0x41C JUMP JUMPDEST JUMPDEST PUSH3 0x305 DUP3 PUSH3 0x45F JUMP JUMPDEST SWAP1 POP PUSH1 0x20 DUP2 ADD SWAP1 POP SWAP2 SWAP1 POP JUMP JUMPDEST PUSH1 0x0 DUP2 SWAP1 POP SWAP2 SWAP1 POP JUMP JUMPDEST PUSH1 0x0 JUMPDEST DUP4 DUP2 LT ISZERO PUSH3 0x33C JUMPI DUP1 DUP3 ADD MLOAD DUP2 DUP5 ADD MSTORE PUSH1 0x20 DUP2 ADD SWAP1 POP PUSH3 0x31F JUMP JUMPDEST DUP4 DUP2 GT ISZERO PUSH3 0x34C JUMPI PUSH1 0x0 DUP5 DUP5 ADD MSTORE JUMPDEST POP POP POP POP JUMP JUMPDEST PUSH1 0x0 PUSH1 0x2 DUP3 DIV SWAP1 POP PUSH1 0x1 DUP3 AND DUP1 PUSH3 0x36B JUMPI PUSH1 0x7F DUP3 AND SWAP2 POP JUMPDEST PUSH1 0x20 DUP3 LT DUP2 EQ ISZERO PUSH3 0x382 JUMPI PUSH3 0x381 PUSH3 0x3ED JUMP JUMPDEST JUMPDEST POP SWAP2 SWAP1 POP JUMP JUMPDEST PUSH3 0x393 DUP3 PUSH3 0x45F JUMP JUMPDEST DUP2 ADD DUP2 DUP2 LT PUSH8 0xFFFFFFFFFFFFFFFF DUP3 GT OR ISZERO PUSH3 0x3B5 JUMPI PUSH3 0x3B4 PUSH3 0x41C JUMP JUMPDEST JUMPDEST DUP1 PUSH1 0x40 MSTORE POP POP POP JUMP JUMPDEST PUSH32 0x4E487B7100000000000000000000000000000000000000000000000000000000 PUSH1 0x0 MSTORE PUSH1 0x21 PUSH1 0x4 MSTORE PUSH1 0x24 PUSH1 0x0 REVERT JUMPDEST PUSH32 0x4E487B7100000000000000000000000000000000000000000000000000000000 PUSH1 0x0 MSTORE PUSH1 0x22 PUSH1 0x4 MSTORE PUSH1 0x24 PUSH1 0x0 REVERT JUMPDEST PUSH32 0x4E487B7100000000000000000000000000000000000000000000000000000000 PUSH1 0x0 MSTORE PUSH1 0x41 PUSH1 0x4 MSTORE PUSH1 0x24 PUSH1 0x0 REVERT JUMPDEST PUSH1 0x0 DUP1 REVERT JUMPDEST PUSH1 0x0 DUP1 REVERT JUMPDEST PUSH1 0x0 DUP1 REVERT JUMPDEST PUSH1 0x0 DUP1 REVERT JUMPDEST PUSH1 0x0 PUSH1 0x1F NOT PUSH1 0x1F DUP4 ADD AND SWAP1 POP SWAP2 SWAP1 POP JUMP JUMPDEST PUSH1 0x3 DUP2 LT PUSH3 0x47E JUMPI PUSH1 0x0 DUP1 REVERT JUMPDEST POP JUMP JUMPDEST PUSH3 0x48C DUP2 PUSH3 0x312 JUMP JUMPDEST DUP2 EQ PUSH3 0x498 JUMPI PUSH1 0x0 DUP1 REVERT JUMPDEST POP JUMP JUMPDEST PUSH2 0x47E DUP1 PUSH3 0x4AB PUSH1 0x0 CODECOPY PUSH1 0x0 RETURN INVALID PUSH1 0x80 PUSH1 0x40 MSTORE CALLVALUE DUP1 ISZERO PUSH2 0x10 JUMPI PUSH1 0x0 DUP1 REVERT JUMPDEST POP PUSH1 0x4 CALLDATASIZE LT PUSH2 0x36 JUMPI PUSH1 0x0 CALLDATALOAD PUSH1 0xE0 SHR DUP1 PUSH4 0x932997F1 EQ PUSH2 0x3B JUMPI DUP1 PUSH4 0xA79488A4 EQ PUSH2 0x59 JUMPI JUMPDEST PUSH1 0x0 DUP1 REVERT JUMPDEST PUSH2 0x43 PUSH2 0x89 JUMP JUMPDEST PUSH1 0x40 MLOAD PUSH2 0x50 SWAP2 SWAP1 PUSH2 0x211 JUMP JUMPDEST PUSH1 0x40 MLOAD DUP1 SWAP2 SUB SWAP1 RETURN JUMPDEST PUSH2 0x73 PUSH1 0x4 DUP1 CALLDATASIZE SUB DUP2 ADD SWAP1 PUSH2 0x6E SWAP2 SWAP1 PUSH2 0x19C JUMP JUMPDEST PUSH2 0x11B JUMP JUMPDEST PUSH1 0x40 MLOAD PUSH2 0x80 SWAP2 SWAP1 PUSH2 0x233 JUMP JUMPDEST PUSH1 0x40 MLOAD DUP1 SWAP2 SUB SWAP1 RETURN JUMPDEST PUSH1 0x60 PUSH1 0x0 DUP1 SLOAD PUSH2 0x98 SWAP1 PUSH2 0x38B JUMP JUMPDEST DUP1 PUSH1 0x1F ADD PUSH1 0x20 DUP1 SWAP2 DIV MUL PUSH1 0x20 ADD PUSH1 0x40 MLOAD SWAP1 DUP2 ADD PUSH1 0x40 MSTORE DUP1 SWAP3 SWAP2 SWAP1 DUP2 DUP2 MSTORE PUSH1 0x20 ADD DUP3 DUP1 SLOAD PUSH2 0xC4 SWAP1 PUSH2 0x38B JUMP JUMPDEST DUP1 ISZERO PUSH2 0x111 JUMPI DUP1 PUSH1 0x1F LT PUSH2 0xE6 JUMPI PUSH2 0x100 DUP1 DUP4 SLOAD DIV MUL DUP4 MSTORE SWAP2 PUSH1 0x20 ADD SWAP2 PUSH2 0x111 JUMP JUMPDEST DUP3 ADD SWAP2 SWAP1 PUSH1 0x0 MSTORE PUSH1 0x20 PUSH1 0x0 KECCAK256 SWAP1 JUMPDEST DUP2 SLOAD DUP2 MSTORE SWAP1 PUSH1 0x1 ADD SWAP1 PUSH1 0x20 ADD DUP1 DUP4 GT PUSH2 0xF4 JUMPI DUP3 SWAP1 SUB PUSH1 0x1F AND DUP3 ADD SWAP2 JUMPDEST POP POP POP POP POP SWAP1 POP SWAP1 JUMP JUMPDEST PUSH1 0x0 PUSH1 0x28 DUP3 GT PUSH2 0x13A JUMPI DUP2 PUSH1 0x2 SLOAD PUSH2 0x133 SWAP2 SWAP1 PUSH2 0x2C0 JUMP JUMPDEST SWAP1 POP PUSH2 0x182 JUMP JUMPDEST PUSH1 0x0 PUSH1 0x28 DUP4 PUSH2 0x149 SWAP2 SWAP1 PUSH2 0x31A JUMP JUMPDEST SWAP1 POP PUSH1 0x2 SLOAD PUSH1 0x2 DUP3 PUSH2 0x15B SWAP2 SWAP1 PUSH2 0x2C0 JUMP JUMPDEST PUSH2 0x165 SWAP2 SWAP1 PUSH2 0x2C0 JUMP JUMPDEST PUSH1 0x2 SLOAD PUSH1 0x28 PUSH2 0x174 SWAP2 SWAP1 PUSH2 0x2C0 JUMP JUMPDEST PUSH2 0x17E SWAP2 SWAP1 PUSH2 0x26A JUMP JUMPDEST SWAP2 POP POP JUMPDEST SWAP2 SWAP1 POP JUMP JUMPDEST PUSH1 0x0 DUP2 CALLDATALOAD SWAP1 POP PUSH2 0x196 DUP2 PUSH2 0x431 JUMP JUMPDEST SWAP3 SWAP2 POP POP JUMP JUMPDEST PUSH1 0x0 PUSH1 0x20 DUP3 DUP5 SUB SLT ISZERO PUSH2 0x1B2 JUMPI PUSH2 0x1B1 PUSH2 0x41B JUMP JUMPDEST JUMPDEST PUSH1 0x0 PUSH2 0x1C0 DUP5 DUP3 DUP6 ADD PUSH2 0x187 JUMP JUMPDEST SWAP2 POP POP SWAP3 SWAP2 POP POP JUMP JUMPDEST PUSH1 0x0 PUSH2 0x1D4 DUP3 PUSH2 0x24E JUMP JUMPDEST PUSH2 0x1DE DUP2 DUP6 PUSH2 0x259 JUMP JUMPDEST SWAP4 POP PUSH2 0x1EE DUP2 DUP6 PUSH1 0x20 DUP7 ADD PUSH2 0x358 JUMP JUMPDEST PUSH2 0x1F7 DUP2 PUSH2 0x420 JUMP JUMPDEST DUP5 ADD SWAP2 POP POP SWAP3 SWAP2 POP POP JUMP JUMPDEST PUSH2 0x20B DUP2 PUSH2 0x34E JUMP JUMPDEST DUP3 MSTORE POP POP JUMP JUMPDEST PUSH1 0x0 PUSH1 0x20 DUP3 ADD SWAP1 POP DUP2 DUP2 SUB PUSH1 0x0 DUP4 ADD MSTORE PUSH2 0x22B DUP2 DUP5 PUSH2 0x1C9 JUMP JUMPDEST SWAP1 POP SWAP3 SWAP2 POP POP JUMP JUMPDEST PUSH1 0x0 PUSH1 0x20 DUP3 ADD SWAP1 POP PUSH2 0x248 PUSH1 0x0 DUP4 ADD DUP5 PUSH2 0x202 JUMP JUMPDEST SWAP3 SWAP2 POP POP JUMP JUMPDEST PUSH1 0x0 DUP2 MLOAD SWAP1 POP SWAP2 SWAP1 POP JUMP JUMPDEST PUSH1 0x0 DUP3 DUP3 MSTORE PUSH1 0x20 DUP3 ADD SWAP1 POP SWAP3 SWAP2 POP POP JUMP JUMPDEST PUSH1 0x0 PUSH2 0x275 DUP3 PUSH2 0x34E JUMP JUMPDEST SWAP2 POP PUSH2 0x280 DUP4 PUSH2 0x34E JUMP JUMPDEST SWAP3 POP DUP3 PUSH32 0xFFFFFFFFFFFFFFFFFFFFFFFFFFFFFFFFFFFFFFFFFFFFFFFFFFFFFFFFFFFFFFFF SUB DUP3 GT ISZERO PUSH2 0x2B5 JUMPI PUSH2 0x2B4 PUSH2 0x3BD JUMP JUMPDEST JUMPDEST DUP3 DUP3 ADD SWAP1 POP SWAP3 SWAP2 POP POP JUMP JUMPDEST PUSH1 0x0 PUSH2 0x2CB DUP3 PUSH2 0x34E JUMP JUMPDEST SWAP2 POP PUSH2 0x2D6 DUP4 PUSH2 0x34E JUMP JUMPDEST SWAP3 POP DUP2 PUSH32 0xFFFFFFFFFFFFFFFFFFFFFFFFFFFFFFFFFFFFFFFFFFFFFFFFFFFFFFFFFFFFFFFF DIV DUP4 GT DUP3 ISZERO ISZERO AND ISZERO PUSH2 0x30F JUMPI PUSH2 0x30E PUSH2 0x3BD JUMP JUMPDEST JUMPDEST DUP3 DUP3 MUL SWAP1 POP SWAP3 SWAP2 POP POP JUMP JUMPDEST PUSH1 0x0 PUSH2 0x325 DUP3 PUSH2 0x34E JUMP JUMPDEST SWAP2 POP PUSH2 0x330 DUP4 PUSH2 0x34E JUMP JUMPDEST SWAP3 POP DUP3 DUP3 LT ISZERO PUSH2 0x343 JUMPI PUSH2 0x342 PUSH2 0x3BD JUMP JUMPDEST JUMPDEST DUP3 DUP3 SUB SWAP1 POP SWAP3 SWAP2 POP POP JUMP JUMPDEST PUSH1 0x0 DUP2 SWAP1 POP SWAP2 SWAP1 POP JUMP JUMPDEST PUSH1 0x0 JUMPDEST DUP4 DUP2 LT ISZERO PUSH2 0x376 JUMPI DUP1 DUP3 ADD MLOAD DUP2 DUP5 ADD MSTORE PUSH1 0x20 DUP2 ADD SWAP1 POP PUSH2 0x35B JUMP JUMPDEST DUP4 DUP2 GT ISZERO PUSH2 0x385 JUMPI PUSH1 0x0 DUP5 DUP5 ADD MSTORE JUMPDEST POP POP POP POP JUMP JUMPDEST PUSH1 0x0 PUSH1 0x2 DUP3 DIV SWAP1 POP PUSH1 0x1 DUP3 AND DUP1 PUSH2 0x3A3 JUMPI PUSH1 0x7F DUP3 AND SWAP2 POP JUMPDEST PUSH1 0x20 DUP3 LT DUP2 EQ ISZERO PUSH2 0x3B7 JUMPI PUSH2 0x3B6 PUSH2 0x3EC JUMP JUMPDEST JUMPDEST POP SWAP2 SWAP1 POP JUMP JUMPDEST PUSH32 0x4E487B7100000000000000000000000000000000000000000000000000000000 PUSH1 0x0 MSTORE PUSH1 0x11 PUSH1 0x4 MSTORE PUSH1 0x24 PUSH1 0x0 REVERT JUMPDEST PUSH32 0x4E487B7100000000000000000000000000000000000000000000000000000000 PUSH1 0x0 MSTORE PUSH1 0x22 PUSH1 0x4 MSTORE PUSH1 0x24 PUSH1 0x0 REVERT JUMPDEST PUSH1 0x0 DUP1 REVERT JUMPDEST PUSH1 0x0 PUSH1 0x1F NOT PUSH1 0x1F DUP4 ADD AND SWAP1 POP SWAP2 SWAP1 POP JUMP JUMPDEST PUSH2 0x43A DUP2 PUSH2 0x34E JUMP JUMPDEST DUP2 EQ PUSH2 0x445 JUMPI PUSH1 0x0 DUP1 REVERT JUMPDEST POP JUMP INVALID LOG2 PUSH5 0x6970667358 0x22 SLT KECCAK256 ADD PUSH32 0xB7AB3A45DD2BBFAF6EDA81AF46687A8443F1DBA897984FDA59D67C977376473 PUSH16 0x6C634300080700330000000000000000 "
				},
				"gasEstimates": {
					"creation": {
						"codeDepositCost": "230000",
						"executionCost": "infinite",
						"totalCost": "infinite"
					},
					"external": {
						"getFirstName()": "infinite",
						"getWeeklyPay(uint256)": "infinite"
					}
				},
				"methodIdentifiers": {
					"getFirstName()": "932997f1",
					"getWeeklyPay(uint256)": "a79488a4"
				}
			},
			"storageLayout": {
				"storage": [
					{
						"astId": 7,
						"contract": "contracts/EmployeeAndManager.sol:Employee",
						"label": "firstName",
						"offset": 0,
						"slot": "0",
						"type": "t_string_storage"
					},
					{
						"astId": 9,
						"contract": "contracts/EmployeeAndManager.sol:Employee",
						"label": "lastName",
						"offset": 0,
						"slot": "1",
						"type": "t_string_storage"
					},
					{
						"astId": 11,
						"contract": "contracts/EmployeeAndManager.sol:Employee",
						"label": "hourlyPay",
						"offset": 0,
						"slot": "2",
						"type": "t_uint256"
					},
					{
						"astId": 14,
						"contract": "contracts/EmployeeAndManager.sol:Employee",
						"label": "department",
						"offset": 0,
						"slot": "3",
						"type": "t_enum(Department)5"
					}
				],
				"types": {
					"t_enum(Department)5": {
						"encoding": "inplace",
						"label": "enum Employee.Department",
						"numberOfBytes": "1"
					},
					"t_string_storage": {
						"encoding": "bytes",
						"label": "string",
						"numberOfBytes": "32"
					},
					"t_uint256": {
						"encoding": "inplace",
						"label": "uint256",
						"numberOfBytes": "32"
					}
				}
			},
			"userdoc": {
				"kind": "user",
				"methods": {},
				"version": 1
			}
		}
	}
}