{
	"data": {
		"bytecode": {
			"linkReferences": {},
			"object": "610626610053600b82828239805160001a607314610046577f4e487b7100000000000000000000000000000000000000000000000000000000600052600060045260246000fd5b30600052607381538281f3fe730000000000000000000000000000000000000000301460806040526004361061004b5760003560e01c80633410e3f81461005057806360cb66d0146100805780636f5735fc146100b0575b600080fd5b61006a60048036038101906100659190610304565b6100e0565b604051610077919061037e565b60405180910390f35b61009a600480360381019061009591906102bb565b610156565b6040516100a7919061037e565b60405180910390f35b6100ca60048036038101906100c59190610304565b6101aa565b6040516100d79190610399565b60405180910390f35b6000805b835181101561012b578284828151811061010157610100610556565b5b602002602001015114156101185780915050610150565b8080610123906104de565b9150506100e4565b507fffffffffffffffffffffffffffffffffffffffffffffffffffffffffffffffff90505b92915050565b60008060005b83518110156101a05783818151811061017857610177610556565b5b60200260200101518261018b9190610405565b91508080610198906104de565b91505061015c565b5080915050919050565b60008060005b84518110156101fd57838582815181106101cd576101cc610556565b5b602002602001015114156101ea5781806101e6906104de565b9250505b80806101f5906104de565b9150506101b0565b508091505092915050565b600061021b610216846103d9565b6103b4565b9050808382526020820190508285602086028201111561023e5761023d6105b9565b5b60005b8581101561026e578161025488826102a6565b845260208401935060208301925050600181019050610241565b5050509392505050565b600082601f83011261028d5761028c6105b4565b5b813561029d848260208601610208565b91505092915050565b6000813590506102b5816105d9565b92915050565b6000602082840312156102d1576102d06105c3565b5b600082013567ffffffffffffffff8111156102ef576102ee6105be565b5b6102fb84828501610278565b91505092915050565b6000806040838503121561031b5761031a6105c3565b5b600083013567ffffffffffffffff811115610339576103386105be565b5b61034585828601610278565b9250506020610356858286016102a6565b9150509250929050565b61036981610499565b82525050565b610378816104a3565b82525050565b60006020820190506103936000830184610360565b92915050565b60006020820190506103ae600083018461036f565b92915050565b60006103be6103cf565b90506103ca82826104ad565b919050565b6000604051905090565b600067ffffffffffffffff8211156103f4576103f3610585565b5b602082029050602081019050919050565b600061041082610499565b915061041b83610499565b9250817f7fffffffffffffffffffffffffffffffffffffffffffffffffffffffffffffff0383136000831215161561045657610455610527565b5b817f800000000000000000000000000000000000000000000000000000000000000003831260008312161561048e5761048d610527565b5b828201905092915050565b6000819050919050565b6000819050919050565b6104b6826105c8565b810181811067ffffffffffffffff821117156104d5576104d4610585565b5b80604052505050565b60006104e9826104a3565b91507fffffffffffffffffffffffffffffffffffffffffffffffffffffffffffffffff82141561051c5761051b610527565b5b600182019050919050565b7f4e487b7100000000000000000000000000000000000000000000000000000000600052601160045260246000fd5b7f4e487b7100000000000000000000000000000000000000000000000000000000600052603260045260246000fd5b7f4e487b7100000000000000000000000000000000000000000000000000000000600052604160045260246000fd5b600080fd5b600080fd5b600080fd5b600080fd5b6000601f19601f8301169050919050565b6105e281610499565b81146105ed57600080fd5b5056fea26469706673582212207d0fc619cd36cc1ddf22b1fb91fe80675901fbb11c14d4f7360711bb0c8ecc0a64736f6c63430008070033",
			"opcodes": "PUSH2 0x626 PUSH2 0x53 PUSH1 0xB DUP3 DUP3 DUP3 CODECOPY DUP1 MLOAD PUSH1 0x0 BYTE PUSH1 0x73 EQ PUSH2 0x46 JUMPI PUSH32 0x4E487B7100000000000000000000000000000000000000000000000000000000 PUSH1 0x0 MSTORE PUSH1 0x0 PUSH1 0x4 MSTORE PUSH1 0x24 PUSH1 0x0 REVERT JUMPDEST ADDRESS PUSH1 0x0 MSTORE PUSH1 0x73 DUP2 MSTORE8 DUP3 DUP2 RETURN INVALID PUSH20 0x0 ADDRESS EQ PUSH1 0x80 PUSH1 0x40 MSTORE PUSH1 0x4 CALLDATASIZE LT PUSH2 0x4B JUMPI PUSH1 0x0 CALLDATALOAD PUSH1 0xE0 SHR DUP1 PUSH4 0x3410E3F8 EQ PUSH2 0x50 JUMPI DUP1 PUSH4 0x60CB66D0 EQ PUSH2 0x80 JUMPI DUP1 PUSH4 0x6F5735FC EQ PUSH2 0xB0 JUMPI JUMPDEST PUSH1 0x0 DUP1 REVERT JUMPDEST PUSH2 0x6A PUSH1 0x4 DUP1 CALLDATASIZE SUB DUP2 ADD SWAP1 PUSH2 0x65 SWAP2 SWAP1 PUSH2 0x304 JUMP JUMPDEST PUSH2 0xE0 JUMP JUMPDEST PUSH1 0x40 MLOAD PUSH2 0x77 SWAP2 SWAP1 PUSH2 0x37E JUMP JUMPDEST PUSH1 0x40 MLOAD DUP1 SWAP2 SUB SWAP1 RETURN JUMPDEST PUSH2 0x9A PUSH1 0x4 DUP1 CALLDATASIZE SUB DUP2 ADD SWAP1 PUSH2 0x95 SWAP2 SWAP1 PUSH2 0x2BB JUMP JUMPDEST PUSH2 0x156 JUMP JUMPDEST PUSH1 0x40 MLOAD PUSH2 0xA7 SWAP2 SWAP1 PUSH2 0x37E JUMP JUMPDEST PUSH1 0x40 MLOAD DUP1 SWAP2 SUB SWAP1 RETURN JUMPDEST PUSH2 0xCA PUSH1 0x4 DUP1 CALLDATASIZE SUB DUP2 ADD SWAP1 PUSH2 0xC5 SWAP2 SWAP1 PUSH2 0x304 JUMP JUMPDEST PUSH2 0x1AA JUMP JUMPDEST PUSH1 0x40 MLOAD PUSH2 0xD7 SWAP2 SWAP1 PUSH2 0x399 JUMP JUMPDEST PUSH1 0x40 MLOAD DUP1 SWAP2 SUB SWAP1 RETURN JUMPDEST PUSH1 0x0 DUP1 JUMPDEST DUP4 MLOAD DUP2 LT ISZERO PUSH2 0x12B JUMPI DUP3 DUP5 DUP3 DUP2 MLOAD DUP2 LT PUSH2 0x101 JUMPI PUSH2 0x100 PUSH2 0x556 JUMP JUMPDEST JUMPDEST PUSH1 0x20 MUL PUSH1 0x20 ADD ADD MLOAD EQ ISZERO PUSH2 0x118 JUMPI DUP1 SWAP2 POP POP PUSH2 0x150 JUMP JUMPDEST DUP1 DUP1 PUSH2 0x123 SWAP1 PUSH2 0x4DE JUMP JUMPDEST SWAP2 POP POP PUSH2 0xE4 JUMP JUMPDEST POP PUSH32 0xFFFFFFFFFFFFFFFFFFFFFFFFFFFFFFFFFFFFFFFFFFFFFFFFFFFFFFFFFFFFFFFF SWAP1 POP JUMPDEST SWAP3 SWAP2 POP POP JUMP JUMPDEST PUSH1 0x0 DUP1 PUSH1 0x0 JUMPDEST DUP4 MLOAD DUP2 LT ISZERO PUSH2 0x1A0 JUMPI DUP4 DUP2 DUP2 MLOAD DUP2 LT PUSH2 0x178 JUMPI PUSH2 0x177 PUSH2 0x556 JUMP JUMPDEST JUMPDEST PUSH1 0x20 MUL PUSH1 0x20 ADD ADD MLOAD DUP3 PUSH2 0x18B SWAP2 SWAP1 PUSH2 0x405 JUMP JUMPDEST SWAP2 POP DUP1 DUP1 PUSH2 0x198 SWAP1 PUSH2 0x4DE JUMP JUMPDEST SWAP2 POP POP PUSH2 0x15C JUMP JUMPDEST POP DUP1 SWAP2 POP POP SWAP2 SWAP1 POP JUMP JUMPDEST PUSH1 0x0 DUP1 PUSH1 0x0 JUMPDEST DUP5 MLOAD DUP2 LT ISZERO PUSH2 0x1FD JUMPI DUP4 DUP6 DUP3 DUP2 MLOAD DUP2 LT PUSH2 0x1CD JUMPI PUSH2 0x1CC PUSH2 0x556 JUMP JUMPDEST JUMPDEST PUSH1 0x20 MUL PUSH1 0x20 ADD ADD MLOAD EQ ISZERO PUSH2 0x1EA JUMPI DUP2 DUP1 PUSH2 0x1E6 SWAP1 PUSH2 0x4DE JUMP JUMPDEST SWAP3 POP POP JUMPDEST DUP1 DUP1 PUSH2 0x1F5 SWAP1 PUSH2 0x4DE JUMP JUMPDEST SWAP2 POP POP PUSH2 0x1B0 JUMP JUMPDEST POP DUP1 SWAP2 POP POP SWAP3 SWAP2 POP POP JUMP JUMPDEST PUSH1 0x0 PUSH2 0x21B PUSH2 0x216 DUP5 PUSH2 0x3D9 JUMP JUMPDEST PUSH2 0x3B4 JUMP JUMPDEST SWAP1 POP DUP1 DUP4 DUP3 MSTORE PUSH1 0x20 DUP3 ADD SWAP1 POP DUP3 DUP6 PUSH1 0x20 DUP7 MUL DUP3 ADD GT ISZERO PUSH2 0x23E JUMPI PUSH2 0x23D PUSH2 0x5B9 JUMP JUMPDEST JUMPDEST PUSH1 0x0 JUMPDEST DUP6 DUP2 LT ISZERO PUSH2 0x26E JUMPI DUP2 PUSH2 0x254 DUP9 DUP3 PUSH2 0x2A6 JUMP JUMPDEST DUP5 MSTORE PUSH1 0x20 DUP5 ADD SWAP4 POP PUSH1 0x20 DUP4 ADD SWAP3 POP POP PUSH1 0x1 DUP2 ADD SWAP1 POP PUSH2 0x241 JUMP JUMPDEST POP POP POP SWAP4 SWAP3 POP POP POP JUMP JUMPDEST PUSH1 0x0 DUP3 PUSH1 0x1F DUP4 ADD SLT PUSH2 0x28D JUMPI PUSH2 0x28C PUSH2 0x5B4 JUMP JUMPDEST JUMPDEST DUP2 CALLDATALOAD PUSH2 0x29D DUP5 DUP3 PUSH1 0x20 DUP7 ADD PUSH2 0x208 JUMP JUMPDEST SWAP2 POP POP SWAP3 SWAP2 POP POP JUMP JUMPDEST PUSH1 0x0 DUP2 CALLDATALOAD SWAP1 POP PUSH2 0x2B5 DUP2 PUSH2 0x5D9 JUMP JUMPDEST SWAP3 SWAP2 POP POP JUMP JUMPDEST PUSH1 0x0 PUSH1 0x20 DUP3 DUP5 SUB SLT ISZERO PUSH2 0x2D1 JUMPI PUSH2 0x2D0 PUSH2 0x5C3 JUMP JUMPDEST JUMPDEST PUSH1 0x0 DUP3 ADD CALLDATALOAD PUSH8 0xFFFFFFFFFFFFFFFF DUP2 GT ISZERO PUSH2 0x2EF JUMPI PUSH2 0x2EE PUSH2 0x5BE JUMP JUMPDEST JUMPDEST PUSH2 0x2FB DUP5 DUP3 DUP6 ADD PUSH2 0x278 JUMP JUMPDEST SWAP2 POP POP SWAP3 SWAP2 POP POP JUMP JUMPDEST PUSH1 0x0 DUP1 PUSH1 0x40 DUP4 DUP6 SUB SLT ISZERO PUSH2 0x31B JUMPI PUSH2 0x31A PUSH2 0x5C3 JUMP JUMPDEST JUMPDEST PUSH1 0x0 DUP4 ADD CALLDATALOAD PUSH8 0xFFFFFFFFFFFFFFFF DUP2 GT ISZERO PUSH2 0x339 JUMPI PUSH2 0x338 PUSH2 0x5BE JUMP JUMPDEST JUMPDEST PUSH2 0x345 DUP6 DUP3 DUP7 ADD PUSH2 0x278 JUMP JUMPDEST SWAP3 POP POP PUSH1 0x20 PUSH2 0x356 DUP6 DUP3 DUP7 ADD PUSH2 0x2A6 JUMP JUMPDEST SWAP2 POP POP SWAP3 POP SWAP3 SWAP1 POP JUMP JUMPDEST PUSH2 0x369 DUP2 PUSH2 0x499 JUMP JUMPDEST DUP3 MSTORE POP POP JUMP JUMPDEST PUSH2 0x378 DUP2 PUSH2 0x4A3 JUMP JUMPDEST DUP3 MSTORE POP POP JUMP JUMPDEST PUSH1 0x0 PUSH1 0x20 DUP3 ADD SWAP1 POP PUSH2 0x393 PUSH1 0x0 DUP4 ADD DUP5 PUSH2 0x360 JUMP JUMPDEST SWAP3 SWAP2 POP POP JUMP JUMPDEST PUSH1 0x0 PUSH1 0x20 DUP3 ADD SWAP1 POP PUSH2 0x3AE PUSH1 0x0 DUP4 ADD DUP5 PUSH2 0x36F JUMP JUMPDEST SWAP3 SWAP2 POP POP JUMP JUMPDEST PUSH1 0x0 PUSH2 0x3BE PUSH2 0x3CF JUMP JUMPDEST SWAP1 POP PUSH2 0x3CA DUP3 DUP3 PUSH2 0x4AD JUMP JUMPDEST SWAP2 SWAP1 POP JUMP JUMPDEST PUSH1 0x0 PUSH1 0x40 MLOAD SWAP1 POP SWAP1 JUMP JUMPDEST PUSH1 0x0 PUSH8 0xFFFFFFFFFFFFFFFF DUP3 GT ISZERO PUSH2 0x3F4 JUMPI PUSH2 0x3F3 PUSH2 0x585 JUMP JUMPDEST JUMPDEST PUSH1 0x20 DUP3 MUL SWAP1 POP PUSH1 0x20 DUP2 ADD SWAP1 POP SWAP2 SWAP1 POP JUMP JUMPDEST PUSH1 0x0 PUSH2 0x410 DUP3 PUSH2 0x499 JUMP JUMPDEST SWAP2 POP PUSH2 0x41B DUP4 PUSH2 0x499 JUMP JUMPDEST SWAP3 POP DUP2 PUSH32 0x7FFFFFFFFFFFFFFFFFFFFFFFFFFFFFFFFFFFFFFFFFFFFFFFFFFFFFFFFFFFFFFF SUB DUP4 SGT PUSH1 0x0 DUP4 SLT ISZERO AND ISZERO PUSH2 0x456 JUMPI PUSH2 0x455 PUSH2 0x527 JUMP JUMPDEST JUMPDEST DUP2 PUSH32 0x8000000000000000000000000000000000000000000000000000000000000000 SUB DUP4 SLT PUSH1 0x0 DUP4 SLT AND ISZERO PUSH2 0x48E JUMPI PUSH2 0x48D PUSH2 0x527 JUMP JUMPDEST JUMPDEST DUP3 DUP3 ADD SWAP1 POP SWAP3 SWAP2 POP POP JUMP JUMPDEST PUSH1 0x0 DUP2 SWAP1 POP SWAP2 SWAP1 POP JUMP JUMPDEST PUSH1 0x0 DUP2 SWAP1 POP SWAP2 SWAP1 POP JUMP JUMPDEST PUSH2 0x4B6 DUP3 PUSH2 0x5C8 JUMP JUMPDEST DUP2 ADD DUP2 DUP2 LT PUSH8 0xFFFFFFFFFFFFFFFF DUP3 GT OR ISZERO PUSH2 0x4D5 JUMPI PUSH2 0x4D4 PUSH2 0x585 JUMP JUMPDEST JUMPDEST DUP1 PUSH1 0x40 MSTORE POP POP POP JUMP JUMPDEST PUSH1 0x0 PUSH2 0x4E9 DUP3 PUSH2 0x4A3 JUMP JUMPDEST SWAP2 POP PUSH32 0xFFFFFFFFFFFFFFFFFFFFFFFFFFFFFFFFFFFFFFFFFFFFFFFFFFFFFFFFFFFFFFFF DUP3 EQ ISZERO PUSH2 0x51C JUMPI PUSH2 0x51B PUSH2 0x527 JUMP JUMPDEST JUMPDEST PUSH1 0x1 DUP3 ADD SWAP1 POP SWAP2 SWAP1 POP JUMP JUMPDEST PUSH32 0x4E487B7100000000000000000000000000000000000000000000000000000000 PUSH1 0x0 MSTORE PUSH1 0x11 PUSH1 0x4 MSTORE PUSH1 0x24 PUSH1 0x0 REVERT JUMPDEST PUSH32 0x4E487B7100000000000000000000000000000000000000000000000000000000 PUSH1 0x0 MSTORE PUSH1 0x32 PUSH1 0x4 MSTORE PUSH1 0x24 PUSH1 0x0 REVERT JUMPDEST PUSH32 0x4E487B7100000000000000000000000000000000000000000000000000000000 PUSH1 0x0 MSTORE PUSH1 0x41 PUSH1 0x4 MSTORE PUSH1 0x24 PUSH1 0x0 REVERT JUMPDEST PUSH1 0x0 DUP1 REVERT JUMPDEST PUSH1 0x0 DUP1 REVERT JUMPDEST PUSH1 0x0 DUP1 REVERT JUMPDEST PUSH1 0x0 DUP1 REVERT JUMPDEST PUSH1 0x0 PUSH1 0x1F NOT PUSH1 0x1F DUP4 ADD AND SWAP1 POP SWAP2 SWAP1 POP JUMP JUMPDEST PUSH2 0x5E2 DUP2 PUSH2 0x499 JUMP JUMPDEST DUP2 EQ PUSH2 0x5ED JUMPI PUSH1 0x0 DUP1 REVERT JUMPDEST POP JUMP INVALID LOG2 PUSH5 0x6970667358 0x22 SLT KECCAK256 PUSH30 0xFC619CD36CC1DDF22B1FB91FE80675901FBB11C14D4F7360711BB0C8ECC EXP PUSH5 0x736F6C6343 STOP ADDMOD SMOD STOP CALLER "
		},
		"gasEstimates": {
			"creation": {
				"codeDepositCost": "314800",
				"executionCost": "380",
				"totalCost": "315180"
			},
			"external": {
				"count(int256[],int256)": "infinite",
				"indexOf(int256[],int256)": "infinite",
				"sum(int256[])": "infinite"
			}
		},
		"methodIdentifiers": {
			"count(int256[],int256)": "6f5735fc",
			"indexOf(int256[],int256)": "3410e3f8",
			"sum(int256[])": "60cb66d0"
		}
	},
	"abi": [
		{
			"inputs": [
				{
					"internalType": "int256[]",
					"name": "numbers",
					"type": "int256[]"
				},
				{
					"internalType": "int256",
					"name": "target",
					"type": "int256"
				}
			],
			"name": "count",
			"outputs": [
				{
					"internalType": "uint256",
					"name": "",
					"type": "uint256"
				}
			],
			"stateMutability": "pure",
			"type": "function"
		},
		{
			"inputs": [
				{
					"internalType": "int256[]",
					"name": "numbers",
					"type": "int256[]"
				},
				{
					"internalType": "int256",
					"name": "target",
					"type": "int256"
				}
			],
			"name": "indexOf",
			"outputs": [
				{
					"internalType": "int256",
					"name": "",
					"type": "int256"
				}
			],
			"stateMutability": "pure",
			"type": "function"
		},
		{
			"inputs": [
				{
					"internalType": "int256[]",
					"name": "numbers",
					"type": "int256[]"
				}
			],
			"name": "sum",
			"outputs": [
				{
					"internalType": "int256",
					"name": "",
					"type": "int256"
				}
			],
			"stateMutability": "pure",
			"type": "function"
		}
	]
}