{
	"data": {
		"bytecode": {
			"linkReferences": {},
			"object": "60806040523480156200001157600080fd5b5060405162001ae238038062001ae283398181016040528101906200003791906200020b565b83838383836000908051906020019062000053929190620000af565b5082600190805190602001906200006c929190620000af565b508160028190555080600360006101000a81548160ff021916908360028111156200009c576200009b620003c6565b5b02179055505050505050505050620004a3565b828054620000bd906200035a565b90600052602060002090601f016020900481019282620000e157600085556200012d565b82601f10620000fc57805160ff19168380011785556200012d565b828001600101855582156200012d579182015b828111156200012c5782518255916020019190600101906200010f565b5b5090506200013c919062000140565b5090565b5b808211156200015b57600081600090555060010162000141565b5090565b6000620001766200017084620002e4565b620002bb565b90508281526020810184848401111562000195576200019462000458565b5b620001a284828562000324565b509392505050565b600081519050620001bb8162000478565b92915050565b600082601f830112620001d957620001d862000453565b5b8151620001eb8482602086016200015f565b91505092915050565b600081519050620002058162000489565b92915050565b6000806000806080858703121562000228576200022762000462565b5b600085015167ffffffffffffffff8111156200024957620002486200045d565b5b6200025787828801620001c1565b945050602085015167ffffffffffffffff8111156200027b576200027a6200045d565b5b6200028987828801620001c1565b93505060406200029c87828801620001f4565b9250506060620002af87828801620001aa565b91505092959194509250565b6000620002c7620002da565b9050620002d5828262000390565b919050565b6000604051905090565b600067ffffffffffffffff82111562000302576200030162000424565b5b6200030d8262000467565b9050602081019050919050565b6000819050919050565b60005b838110156200034457808201518184015260208101905062000327565b8381111562000354576000848401525b50505050565b600060028204905060018216806200037357607f821691505b602082108114156200038a5762000389620003f5565b5b50919050565b6200039b8262000467565b810181811067ffffffffffffffff82111715620003bd57620003bc62000424565b5b80604052505050565b7f4e487b7100000000000000000000000000000000000000000000000000000000600052602160045260246000fd5b7f4e487b7100000000000000000000000000000000000000000000000000000000600052602260045260246000fd5b7f4e487b7100000000000000000000000000000000000000000000000000000000600052604160045260246000fd5b600080fd5b600080fd5b600080fd5b600080fd5b6000601f19601f8301169050919050565b600381106200048657600080fd5b50565b62000494816200031a565b8114620004a057600080fd5b50565b61162f80620004b36000396000f3fe60806040523480156200001157600080fd5b5060043610620000525760003560e01c8063932997f11462000057578063a79488a41462000079578063acdd0b4b14620000af578063e9086e5a14620000cf575b600080fd5b62000061620000f1565b604051620000709190620007f2565b60405180910390f35b62000097600480360381019062000091919062000661565b6200018b565b604051620000a6919062000871565b60405180910390f35b620000cd6004803603810190620000c79190620005b1565b62000205565b005b620000d9620002b2565b604051620000e89190620007ce565b60405180910390f35b606060008054620001029062000ac4565b80601f0160208091040260200160405190810160405280929190818152602001828054620001309062000ac4565b8015620001815780601f10620001555761010080835404028352916020019162000181565b820191906000526020600020905b8154815290600101906020018083116200016357829003601f168201915b5050505050905090565b600060288211620001ae5781600254620001a69190620009b0565b905062000200565b6000602883620001bf919062000a11565b9050600254600282620001d39190620009b0565b620001df9190620009b0565b6002546028620001f09190620009b0565b620001fc919062000953565b9150505b919050565b600084848484604051620002199062000428565b62000228949392919062000816565b604051809103906000f08015801562000245573d6000803e3d6000fd5b5090506004819080600181540180825580915050600190039060005260206000200160009091909190916101000a81548173ffffffffffffffffffffffffffffffffffffffff021916908373ffffffffffffffffffffffffffffffffffffffff1602179055505050505050565b6060600060048054905067ffffffffffffffff811115620002d857620002d762000c3a565b5b6040519080825280602002602001820160405280156200030d57816020015b6060815260200190600190039081620002f75790505b50905060005b60048054905081101562000420576004818154811062000338576200033762000c0b565b5b9060005260206000200160009054906101000a900473ffffffffffffffffffffffffffffffffffffffff1673ffffffffffffffffffffffffffffffffffffffff1663932997f16040518163ffffffff1660e01b815260040160006040518083038186803b158015620003a957600080fd5b505afa158015620003be573d6000803e3d6000fd5b505050506040513d6000823e3d601f19601f82011682018060405250810190620003e9919062000560565b828281518110620003ff57620003fe62000c0b565b5b60200260200101819052508080620004179062000b30565b91505062000313565b508091505090565b6109298062000cd183390190565b60006200044d6200044784620008b7565b6200088e565b9050828152602081018484840111156200046c576200046b62000c6e565b5b6200047984828562000a7f565b509392505050565b6000620004986200049284620008b7565b6200088e565b905082815260208101848484011115620004b757620004b662000c6e565b5b620004c484828562000a8e565b509392505050565b600081359050620004dd8162000ca5565b92915050565b600082601f830112620004fb57620004fa62000c69565b5b81356200050d84826020860162000436565b91505092915050565b600082601f8301126200052e576200052d62000c69565b5b81516200054084826020860162000481565b91505092915050565b6000813590506200055a8162000cb6565b92915050565b60006020828403121562000579576200057862000c78565b5b600082015167ffffffffffffffff8111156200059a576200059962000c73565b5b620005a88482850162000516565b91505092915050565b60008060008060808587031215620005ce57620005cd62000c78565b5b600085013567ffffffffffffffff811115620005ef57620005ee62000c73565b5b620005fd87828801620004e3565b945050602085013567ffffffffffffffff81111562000621576200062062000c73565b5b6200062f87828801620004e3565b9350506040620006428782880162000549565b92505060606200065587828801620004cc565b91505092959194509250565b6000602082840312156200067a576200067962000c78565b5b60006200068a8482850162000549565b91505092915050565b6000620006a183836200073b565b905092915050565b6000620006b682620008fd565b620006c2818562000920565b935083602082028501620006d685620008ed565b8060005b85811015620007185784840389528151620006f6858262000693565b9450620007038362000913565b925060208a01995050600181019050620006da565b50829750879550505050505092915050565b620007358162000a6b565b82525050565b6000620007488262000908565b62000754818562000931565b93506200076681856020860162000a8e565b620007718162000c7d565b840191505092915050565b6000620007898262000908565b62000795818562000942565b9350620007a781856020860162000a8e565b620007b28162000c7d565b840191505092915050565b620007c88162000a61565b82525050565b60006020820190508181036000830152620007ea8184620006a9565b905092915050565b600060208201905081810360008301526200080e81846200077c565b905092915050565b600060808201905081810360008301526200083281876200077c565b905081810360208301526200084881866200077c565b9050620008596040830185620007bd565b6200086860608301846200072a565b95945050505050565b6000602082019050620008886000830184620007bd565b92915050565b60006200089a620008ad565b9050620008a8828262000afa565b919050565b6000604051905090565b600067ffffffffffffffff821115620008d557620008d462000c3a565b5b620008e08262000c7d565b9050602081019050919050565b6000819050602082019050919050565b600081519050919050565b600081519050919050565b6000602082019050919050565b600082825260208201905092915050565b600082825260208201905092915050565b600082825260208201905092915050565b6000620009608262000a61565b91506200096d8362000a61565b9250827fffffffffffffffffffffffffffffffffffffffffffffffffffffffffffffffff03821115620009a557620009a462000b7e565b5b828201905092915050565b6000620009bd8262000a61565b9150620009ca8362000a61565b9250817fffffffffffffffffffffffffffffffffffffffffffffffffffffffffffffffff048311821515161562000a065762000a0562000b7e565b5b828202905092915050565b600062000a1e8262000a61565b915062000a2b8362000a61565b92508282101562000a415762000a4062000b7e565b5b828203905092915050565b600081905062000a5c8262000c8e565b919050565b6000819050919050565b600062000a788262000a4c565b9050919050565b82818337600083830152505050565b60005b8381101562000aae57808201518184015260208101905062000a91565b8381111562000abe576000848401525b50505050565b6000600282049050600182168062000add57607f821691505b6020821081141562000af45762000af362000bdc565b5b50919050565b62000b058262000c7d565b810181811067ffffffffffffffff8211171562000b275762000b2662000c3a565b5b80604052505050565b600062000b3d8262000a61565b91507fffffffffffffffffffffffffffffffffffffffffffffffffffffffffffffffff82141562000b735762000b7262000b7e565b5b600182019050919050565b7f4e487b7100000000000000000000000000000000000000000000000000000000600052601160045260246000fd5b7f4e487b7100000000000000000000000000000000000000000000000000000000600052602160045260246000fd5b7f4e487b7100000000000000000000000000000000000000000000000000000000600052602260045260246000fd5b7f4e487b7100000000000000000000000000000000000000000000000000000000600052603260045260246000fd5b7f4e487b7100000000000000000000000000000000000000000000000000000000600052604160045260246000fd5b600080fd5b600080fd5b600080fd5b600080fd5b6000601f19601f8301169050919050565b6003811062000ca25762000ca162000bad565b5b50565b6003811062000cb357600080fd5b50565b62000cc18162000a61565b811462000ccd57600080fd5b5056fe60806040523480156200001157600080fd5b506040516200092938038062000929833981810160405281019062000037919062000203565b83600090805190602001906200004f929190620000a7565b50826001908051906020019062000068929190620000a7565b508160028190555080600360006101000a81548160ff02191690836002811115620000985762000097620003be565b5b0217905550505050506200049b565b828054620000b59062000352565b90600052602060002090601f016020900481019282620000d9576000855562000125565b82601f10620000f457805160ff191683800117855562000125565b8280016001018555821562000125579182015b828111156200012457825182559160200191906001019062000107565b5b50905062000134919062000138565b5090565b5b808211156200015357600081600090555060010162000139565b5090565b60006200016e6200016884620002dc565b620002b3565b9050828152602081018484840111156200018d576200018c62000450565b5b6200019a8482856200031c565b509392505050565b600081519050620001b38162000470565b92915050565b600082601f830112620001d157620001d06200044b565b5b8151620001e384826020860162000157565b91505092915050565b600081519050620001fd8162000481565b92915050565b6000806000806080858703121562000220576200021f6200045a565b5b600085015167ffffffffffffffff81111562000241576200024062000455565b5b6200024f87828801620001b9565b945050602085015167ffffffffffffffff81111562000273576200027262000455565b5b6200028187828801620001b9565b93505060406200029487828801620001ec565b9250506060620002a787828801620001a2565b91505092959194509250565b6000620002bf620002d2565b9050620002cd828262000388565b919050565b6000604051905090565b600067ffffffffffffffff821115620002fa57620002f96200041c565b5b62000305826200045f565b9050602081019050919050565b6000819050919050565b60005b838110156200033c5780820151818401526020810190506200031f565b838111156200034c576000848401525b50505050565b600060028204905060018216806200036b57607f821691505b60208210811415620003825762000381620003ed565b5b50919050565b62000393826200045f565b810181811067ffffffffffffffff82111715620003b557620003b46200041c565b5b80604052505050565b7f4e487b7100000000000000000000000000000000000000000000000000000000600052602160045260246000fd5b7f4e487b7100000000000000000000000000000000000000000000000000000000600052602260045260246000fd5b7f4e487b7100000000000000000000000000000000000000000000000000000000600052604160045260246000fd5b600080fd5b600080fd5b600080fd5b600080fd5b6000601f19601f8301169050919050565b600381106200047e57600080fd5b50565b6200048c8162000312565b81146200049857600080fd5b50565b61047e80620004ab6000396000f3fe608060405234801561001057600080fd5b50600436106100365760003560e01c8063932997f11461003b578063a79488a414610059575b600080fd5b610043610089565b6040516100509190610211565b60405180910390f35b610073600480360381019061006e919061019c565b61011b565b6040516100809190610233565b60405180910390f35b6060600080546100989061038b565b80601f01602080910402602001604051908101604052809291908181526020018280546100c49061038b565b80156101115780601f106100e657610100808354040283529160200191610111565b820191906000526020600020905b8154815290600101906020018083116100f457829003601f168201915b5050505050905090565b60006028821161013a578160025461013391906102c0565b9050610182565b6000602883610149919061031a565b905060025460028261015b91906102c0565b61016591906102c0565b600254602861017491906102c0565b61017e919061026a565b9150505b919050565b60008135905061019681610431565b92915050565b6000602082840312156101b2576101b161041b565b5b60006101c084828501610187565b91505092915050565b60006101d48261024e565b6101de8185610259565b93506101ee818560208601610358565b6101f781610420565b840191505092915050565b61020b8161034e565b82525050565b6000602082019050818103600083015261022b81846101c9565b905092915050565b60006020820190506102486000830184610202565b92915050565b600081519050919050565b600082825260208201905092915050565b60006102758261034e565b91506102808361034e565b9250827fffffffffffffffffffffffffffffffffffffffffffffffffffffffffffffffff038211156102b5576102b46103bd565b5b828201905092915050565b60006102cb8261034e565b91506102d68361034e565b9250817fffffffffffffffffffffffffffffffffffffffffffffffffffffffffffffffff048311821515161561030f5761030e6103bd565b5b828202905092915050565b60006103258261034e565b91506103308361034e565b925082821015610343576103426103bd565b5b828203905092915050565b6000819050919050565b60005b8381101561037657808201518184015260208101905061035b565b83811115610385576000848401525b50505050565b600060028204905060018216806103a357607f821691505b602082108114156103b7576103b66103ec565b5b50919050565b7f4e487b7100000000000000000000000000000000000000000000000000000000600052601160045260246000fd5b7f4e487b7100000000000000000000000000000000000000000000000000000000600052602260045260246000fd5b600080fd5b6000601f19601f8301169050919050565b61043a8161034e565b811461044557600080fd5b5056fea2646970667358221220017f0b7ab3a45dd2bbfaf6eda81af46687a8443f1dba897984fda59d67c9773764736f6c63430008070033a2646970667358221220d25d6ed6f86167a8d929fcb5adcd8d368d5adcf2e96ae8ceb71de5864e8e7c5464736f6c63430008070033",
			"opcodes": "PUSH1 0x80 PUSH1 0x40 MSTORE CALLVALUE DUP1 ISZERO PUSH3 0x11 JUMPI PUSH1 0x0 DUP1 REVERT JUMPDEST POP PUSH1 0x40 MLOAD PUSH3 0x1AE2 CODESIZE SUB DUP1 PUSH3 0x1AE2 DUP4 CODECOPY DUP2 DUP2 ADD PUSH1 0x40 MSTORE DUP2 ADD SWAP1 PUSH3 0x37 SWAP2 SWAP1 PUSH3 0x20B JUMP JUMPDEST DUP4 DUP4 DUP4 DUP4 DUP4 PUSH1 0x0 SWAP1 DUP1 MLOAD SWAP1 PUSH1 0x20 ADD SWAP1 PUSH3 0x53 SWAP3 SWAP2 SWAP1 PUSH3 0xAF JUMP JUMPDEST POP DUP3 PUSH1 0x1 SWAP1 DUP1 MLOAD SWAP1 PUSH1 0x20 ADD SWAP1 PUSH3 0x6C SWAP3 SWAP2 SWAP1 PUSH3 0xAF JUMP JUMPDEST POP DUP2 PUSH1 0x2 DUP2 SWAP1 SSTORE POP DUP1 PUSH1 0x3 PUSH1 0x0 PUSH2 0x100 EXP DUP2 SLOAD DUP2 PUSH1 0xFF MUL NOT AND SWAP1 DUP4 PUSH1 0x2 DUP2 GT ISZERO PUSH3 0x9C JUMPI PUSH3 0x9B PUSH3 0x3C6 JUMP JUMPDEST JUMPDEST MUL OR SWAP1 SSTORE POP POP POP POP POP POP POP POP POP PUSH3 0x4A3 JUMP JUMPDEST DUP3 DUP1 SLOAD PUSH3 0xBD SWAP1 PUSH3 0x35A JUMP JUMPDEST SWAP1 PUSH1 0x0 MSTORE PUSH1 0x20 PUSH1 0x0 KECCAK256 SWAP1 PUSH1 0x1F ADD PUSH1 0x20 SWAP1 DIV DUP2 ADD SWAP3 DUP3 PUSH3 0xE1 JUMPI PUSH1 0x0 DUP6 SSTORE PUSH3 0x12D JUMP JUMPDEST DUP3 PUSH1 0x1F LT PUSH3 0xFC JUMPI DUP1 MLOAD PUSH1 0xFF NOT AND DUP4 DUP1 ADD OR DUP6 SSTORE PUSH3 0x12D JUMP JUMPDEST DUP3 DUP1 ADD PUSH1 0x1 ADD DUP6 SSTORE DUP3 ISZERO PUSH3 0x12D JUMPI SWAP2 DUP3 ADD JUMPDEST DUP3 DUP2 GT ISZERO PUSH3 0x12C JUMPI DUP3 MLOAD DUP3 SSTORE SWAP2 PUSH1 0x20 ADD SWAP2 SWAP1 PUSH1 0x1 ADD SWAP1 PUSH3 0x10F JUMP JUMPDEST JUMPDEST POP SWAP1 POP PUSH3 0x13C SWAP2 SWAP1 PUSH3 0x140 JUMP JUMPDEST POP SWAP1 JUMP JUMPDEST JUMPDEST DUP1 DUP3 GT ISZERO PUSH3 0x15B JUMPI PUSH1 0x0 DUP2 PUSH1 0x0 SWAP1 SSTORE POP PUSH1 0x1 ADD PUSH3 0x141 JUMP JUMPDEST POP SWAP1 JUMP JUMPDEST PUSH1 0x0 PUSH3 0x176 PUSH3 0x170 DUP5 PUSH3 0x2E4 JUMP JUMPDEST PUSH3 0x2BB JUMP JUMPDEST SWAP1 POP DUP3 DUP2 MSTORE PUSH1 0x20 DUP2 ADD DUP5 DUP5 DUP5 ADD GT ISZERO PUSH3 0x195 JUMPI PUSH3 0x194 PUSH3 0x458 JUMP JUMPDEST JUMPDEST PUSH3 0x1A2 DUP5 DUP3 DUP6 PUSH3 0x324 JUMP JUMPDEST POP SWAP4 SWAP3 POP POP POP JUMP JUMPDEST PUSH1 0x0 DUP2 MLOAD SWAP1 POP PUSH3 0x1BB DUP2 PUSH3 0x478 JUMP JUMPDEST SWAP3 SWAP2 POP POP JUMP JUMPDEST PUSH1 0x0 DUP3 PUSH1 0x1F DUP4 ADD SLT PUSH3 0x1D9 JUMPI PUSH3 0x1D8 PUSH3 0x453 JUMP JUMPDEST JUMPDEST DUP2 MLOAD PUSH3 0x1EB DUP5 DUP3 PUSH1 0x20 DUP7 ADD PUSH3 0x15F JUMP JUMPDEST SWAP2 POP POP SWAP3 SWAP2 POP POP JUMP JUMPDEST PUSH1 0x0 DUP2 MLOAD SWAP1 POP PUSH3 0x205 DUP2 PUSH3 0x489 JUMP JUMPDEST SWAP3 SWAP2 POP POP JUMP JUMPDEST PUSH1 0x0 DUP1 PUSH1 0x0 DUP1 PUSH1 0x80 DUP6 DUP8 SUB SLT ISZERO PUSH3 0x228 JUMPI PUSH3 0x227 PUSH3 0x462 JUMP JUMPDEST JUMPDEST PUSH1 0x0 DUP6 ADD MLOAD PUSH8 0xFFFFFFFFFFFFFFFF DUP2 GT ISZERO PUSH3 0x249 JUMPI PUSH3 0x248 PUSH3 0x45D JUMP JUMPDEST JUMPDEST PUSH3 0x257 DUP8 DUP3 DUP9 ADD PUSH3 0x1C1 JUMP JUMPDEST SWAP5 POP POP PUSH1 0x20 DUP6 ADD MLOAD PUSH8 0xFFFFFFFFFFFFFFFF DUP2 GT ISZERO PUSH3 0x27B JUMPI PUSH3 0x27A PUSH3 0x45D JUMP JUMPDEST JUMPDEST PUSH3 0x289 DUP8 DUP3 DUP9 ADD PUSH3 0x1C1 JUMP JUMPDEST SWAP4 POP POP PUSH1 0x40 PUSH3 0x29C DUP8 DUP3 DUP9 ADD PUSH3 0x1F4 JUMP JUMPDEST SWAP3 POP POP PUSH1 0x60 PUSH3 0x2AF DUP8 DUP3 DUP9 ADD PUSH3 0x1AA JUMP JUMPDEST SWAP2 POP POP SWAP3 SWAP6 SWAP2 SWAP5 POP SWAP3 POP JUMP JUMPDEST PUSH1 0x0 PUSH3 0x2C7 PUSH3 0x2DA JUMP JUMPDEST SWAP1 POP PUSH3 0x2D5 DUP3 DUP3 PUSH3 0x390 JUMP JUMPDEST SWAP2 SWAP1 POP JUMP JUMPDEST PUSH1 0x0 PUSH1 0x40 MLOAD SWAP1 POP SWAP1 JUMP JUMPDEST PUSH1 0x0 PUSH8 0xFFFFFFFFFFFFFFFF DUP3 GT ISZERO PUSH3 0x302 JUMPI PUSH3 0x301 PUSH3 0x424 JUMP JUMPDEST JUMPDEST PUSH3 0x30D DUP3 PUSH3 0x467 JUMP JUMPDEST SWAP1 POP PUSH1 0x20 DUP2 ADD SWAP1 POP SWAP2 SWAP1 POP JUMP JUMPDEST PUSH1 0x0 DUP2 SWAP1 POP SWAP2 SWAP1 POP JUMP JUMPDEST PUSH1 0x0 JUMPDEST DUP4 DUP2 LT ISZERO PUSH3 0x344 JUMPI DUP1 DUP3 ADD MLOAD DUP2 DUP5 ADD MSTORE PUSH1 0x20 DUP2 ADD SWAP1 POP PUSH3 0x327 JUMP JUMPDEST DUP4 DUP2 GT ISZERO PUSH3 0x354 JUMPI PUSH1 0x0 DUP5 DUP5 ADD MSTORE JUMPDEST POP POP POP POP JUMP JUMPDEST PUSH1 0x0 PUSH1 0x2 DUP3 DIV SWAP1 POP PUSH1 0x1 DUP3 AND DUP1 PUSH3 0x373 JUMPI PUSH1 0x7F DUP3 AND SWAP2 POP JUMPDEST PUSH1 0x20 DUP3 LT DUP2 EQ ISZERO PUSH3 0x38A JUMPI PUSH3 0x389 PUSH3 0x3F5 JUMP JUMPDEST JUMPDEST POP SWAP2 SWAP1 POP JUMP JUMPDEST PUSH3 0x39B DUP3 PUSH3 0x467 JUMP JUMPDEST DUP2 ADD DUP2 DUP2 LT PUSH8 0xFFFFFFFFFFFFFFFF DUP3 GT OR ISZERO PUSH3 0x3BD JUMPI PUSH3 0x3BC PUSH3 0x424 JUMP JUMPDEST JUMPDEST DUP1 PUSH1 0x40 MSTORE POP POP POP JUMP JUMPDEST PUSH32 0x4E487B7100000000000000000000000000000000000000000000000000000000 PUSH1 0x0 MSTORE PUSH1 0x21 PUSH1 0x4 MSTORE PUSH1 0x24 PUSH1 0x0 REVERT JUMPDEST PUSH32 0x4E487B7100000000000000000000000000000000000000000000000000000000 PUSH1 0x0 MSTORE PUSH1 0x22 PUSH1 0x4 MSTORE PUSH1 0x24 PUSH1 0x0 REVERT JUMPDEST PUSH32 0x4E487B7100000000000000000000000000000000000000000000000000000000 PUSH1 0x0 MSTORE PUSH1 0x41 PUSH1 0x4 MSTORE PUSH1 0x24 PUSH1 0x0 REVERT JUMPDEST PUSH1 0x0 DUP1 REVERT JUMPDEST PUSH1 0x0 DUP1 REVERT JUMPDEST PUSH1 0x0 DUP1 REVERT JUMPDEST PUSH1 0x0 DUP1 REVERT JUMPDEST PUSH1 0x0 PUSH1 0x1F NOT PUSH1 0x1F DUP4 ADD AND SWAP1 POP SWAP2 SWAP1 POP JUMP JUMPDEST PUSH1 0x3 DUP2 LT PUSH3 0x486 JUMPI PUSH1 0x0 DUP1 REVERT JUMPDEST POP JUMP JUMPDEST PUSH3 0x494 DUP2 PUSH3 0x31A JUMP JUMPDEST DUP2 EQ PUSH3 0x4A0 JUMPI PUSH1 0x0 DUP1 REVERT JUMPDEST POP JUMP JUMPDEST PUSH2 0x162F DUP1 PUSH3 0x4B3 PUSH1 0x0 CODECOPY PUSH1 0x0 RETURN INVALID PUSH1 0x80 PUSH1 0x40 MSTORE CALLVALUE DUP1 ISZERO PUSH3 0x11 JUMPI PUSH1 0x0 DUP1 REVERT JUMPDEST POP PUSH1 0x4 CALLDATASIZE LT PUSH3 0x52 JUMPI PUSH1 0x0 CALLDATALOAD PUSH1 0xE0 SHR DUP1 PUSH4 0x932997F1 EQ PUSH3 0x57 JUMPI DUP1 PUSH4 0xA79488A4 EQ PUSH3 0x79 JUMPI DUP1 PUSH4 0xACDD0B4B EQ PUSH3 0xAF JUMPI DUP1 PUSH4 0xE9086E5A EQ PUSH3 0xCF JUMPI JUMPDEST PUSH1 0x0 DUP1 REVERT JUMPDEST PUSH3 0x61 PUSH3 0xF1 JUMP JUMPDEST PUSH1 0x40 MLOAD PUSH3 0x70 SWAP2 SWAP1 PUSH3 0x7F2 JUMP JUMPDEST PUSH1 0x40 MLOAD DUP1 SWAP2 SUB SWAP1 RETURN JUMPDEST PUSH3 0x97 PUSH1 0x4 DUP1 CALLDATASIZE SUB DUP2 ADD SWAP1 PUSH3 0x91 SWAP2 SWAP1 PUSH3 0x661 JUMP JUMPDEST PUSH3 0x18B JUMP JUMPDEST PUSH1 0x40 MLOAD PUSH3 0xA6 SWAP2 SWAP1 PUSH3 0x871 JUMP JUMPDEST PUSH1 0x40 MLOAD DUP1 SWAP2 SUB SWAP1 RETURN JUMPDEST PUSH3 0xCD PUSH1 0x4 DUP1 CALLDATASIZE SUB DUP2 ADD SWAP1 PUSH3 0xC7 SWAP2 SWAP1 PUSH3 0x5B1 JUMP JUMPDEST PUSH3 0x205 JUMP JUMPDEST STOP JUMPDEST PUSH3 0xD9 PUSH3 0x2B2 JUMP JUMPDEST PUSH1 0x40 MLOAD PUSH3 0xE8 SWAP2 SWAP1 PUSH3 0x7CE JUMP JUMPDEST PUSH1 0x40 MLOAD DUP1 SWAP2 SUB SWAP1 RETURN JUMPDEST PUSH1 0x60 PUSH1 0x0 DUP1 SLOAD PUSH3 0x102 SWAP1 PUSH3 0xAC4 JUMP JUMPDEST DUP1 PUSH1 0x1F ADD PUSH1 0x20 DUP1 SWAP2 DIV MUL PUSH1 0x20 ADD PUSH1 0x40 MLOAD SWAP1 DUP2 ADD PUSH1 0x40 MSTORE DUP1 SWAP3 SWAP2 SWAP1 DUP2 DUP2 MSTORE PUSH1 0x20 ADD DUP3 DUP1 SLOAD PUSH3 0x130 SWAP1 PUSH3 0xAC4 JUMP JUMPDEST DUP1 ISZERO PUSH3 0x181 JUMPI DUP1 PUSH1 0x1F LT PUSH3 0x155 JUMPI PUSH2 0x100 DUP1 DUP4 SLOAD DIV MUL DUP4 MSTORE SWAP2 PUSH1 0x20 ADD SWAP2 PUSH3 0x181 JUMP JUMPDEST DUP3 ADD SWAP2 SWAP1 PUSH1 0x0 MSTORE PUSH1 0x20 PUSH1 0x0 KECCAK256 SWAP1 JUMPDEST DUP2 SLOAD DUP2 MSTORE SWAP1 PUSH1 0x1 ADD SWAP1 PUSH1 0x20 ADD DUP1 DUP4 GT PUSH3 0x163 JUMPI DUP3 SWAP1 SUB PUSH1 0x1F AND DUP3 ADD SWAP2 JUMPDEST POP POP POP POP POP SWAP1 POP SWAP1 JUMP JUMPDEST PUSH1 0x0 PUSH1 0x28 DUP3 GT PUSH3 0x1AE JUMPI DUP2 PUSH1 0x2 SLOAD PUSH3 0x1A6 SWAP2 SWAP1 PUSH3 0x9B0 JUMP JUMPDEST SWAP1 POP PUSH3 0x200 JUMP JUMPDEST PUSH1 0x0 PUSH1 0x28 DUP4 PUSH3 0x1BF SWAP2 SWAP1 PUSH3 0xA11 JUMP JUMPDEST SWAP1 POP PUSH1 0x2 SLOAD PUSH1 0x2 DUP3 PUSH3 0x1D3 SWAP2 SWAP1 PUSH3 0x9B0 JUMP JUMPDEST PUSH3 0x1DF SWAP2 SWAP1 PUSH3 0x9B0 JUMP JUMPDEST PUSH1 0x2 SLOAD PUSH1 0x28 PUSH3 0x1F0 SWAP2 SWAP1 PUSH3 0x9B0 JUMP JUMPDEST PUSH3 0x1FC SWAP2 SWAP1 PUSH3 0x953 JUMP JUMPDEST SWAP2 POP POP JUMPDEST SWAP2 SWAP1 POP JUMP JUMPDEST PUSH1 0x0 DUP5 DUP5 DUP5 DUP5 PUSH1 0x40 MLOAD PUSH3 0x219 SWAP1 PUSH3 0x428 JUMP JUMPDEST PUSH3 0x228 SWAP5 SWAP4 SWAP3 SWAP2 SWAP1 PUSH3 0x816 JUMP JUMPDEST PUSH1 0x40 MLOAD DUP1 SWAP2 SUB SWAP1 PUSH1 0x0 CREATE DUP1 ISZERO DUP1 ISZERO PUSH3 0x245 JUMPI RETURNDATASIZE PUSH1 0x0 DUP1 RETURNDATACOPY RETURNDATASIZE PUSH1 0x0 REVERT JUMPDEST POP SWAP1 POP PUSH1 0x4 DUP2 SWAP1 DUP1 PUSH1 0x1 DUP2 SLOAD ADD DUP1 DUP3 SSTORE DUP1 SWAP2 POP POP PUSH1 0x1 SWAP1 SUB SWAP1 PUSH1 0x0 MSTORE PUSH1 0x20 PUSH1 0x0 KECCAK256 ADD PUSH1 0x0 SWAP1 SWAP2 SWAP1 SWAP2 SWAP1 SWAP2 PUSH2 0x100 EXP DUP2 SLOAD DUP2 PUSH20 0xFFFFFFFFFFFFFFFFFFFFFFFFFFFFFFFFFFFFFFFF MUL NOT AND SWAP1 DUP4 PUSH20 0xFFFFFFFFFFFFFFFFFFFFFFFFFFFFFFFFFFFFFFFF AND MUL OR SWAP1 SSTORE POP POP POP POP POP POP JUMP JUMPDEST PUSH1 0x60 PUSH1 0x0 PUSH1 0x4 DUP1 SLOAD SWAP1 POP PUSH8 0xFFFFFFFFFFFFFFFF DUP2 GT ISZERO PUSH3 0x2D8 JUMPI PUSH3 0x2D7 PUSH3 0xC3A JUMP JUMPDEST JUMPDEST PUSH1 0x40 MLOAD SWAP1 DUP1 DUP3 MSTORE DUP1 PUSH1 0x20 MUL PUSH1 0x20 ADD DUP3 ADD PUSH1 0x40 MSTORE DUP1 ISZERO PUSH3 0x30D JUMPI DUP2 PUSH1 0x20 ADD JUMPDEST PUSH1 0x60 DUP2 MSTORE PUSH1 0x20 ADD SWAP1 PUSH1 0x1 SWAP1 SUB SWAP1 DUP2 PUSH3 0x2F7 JUMPI SWAP1 POP JUMPDEST POP SWAP1 POP PUSH1 0x0 JUMPDEST PUSH1 0x4 DUP1 SLOAD SWAP1 POP DUP2 LT ISZERO PUSH3 0x420 JUMPI PUSH1 0x4 DUP2 DUP2 SLOAD DUP2 LT PUSH3 0x338 JUMPI PUSH3 0x337 PUSH3 0xC0B JUMP JUMPDEST JUMPDEST SWAP1 PUSH1 0x0 MSTORE PUSH1 0x20 PUSH1 0x0 KECCAK256 ADD PUSH1 0x0 SWAP1 SLOAD SWAP1 PUSH2 0x100 EXP SWAP1 DIV PUSH20 0xFFFFFFFFFFFFFFFFFFFFFFFFFFFFFFFFFFFFFFFF AND PUSH20 0xFFFFFFFFFFFFFFFFFFFFFFFFFFFFFFFFFFFFFFFF AND PUSH4 0x932997F1 PUSH1 0x40 MLOAD DUP2 PUSH4 0xFFFFFFFF AND PUSH1 0xE0 SHL DUP2 MSTORE PUSH1 0x4 ADD PUSH1 0x0 PUSH1 0x40 MLOAD DUP1 DUP4 SUB DUP2 DUP7 DUP1 EXTCODESIZE ISZERO DUP1 ISZERO PUSH3 0x3A9 JUMPI PUSH1 0x0 DUP1 REVERT JUMPDEST POP GAS STATICCALL ISZERO DUP1 ISZERO PUSH3 0x3BE JUMPI RETURNDATASIZE PUSH1 0x0 DUP1 RETURNDATACOPY RETURNDATASIZE PUSH1 0x0 REVERT JUMPDEST POP POP POP POP PUSH1 0x40 MLOAD RETURNDATASIZE PUSH1 0x0 DUP3 RETURNDATACOPY RETURNDATASIZE PUSH1 0x1F NOT PUSH1 0x1F DUP3 ADD AND DUP3 ADD DUP1 PUSH1 0x40 MSTORE POP DUP2 ADD SWAP1 PUSH3 0x3E9 SWAP2 SWAP1 PUSH3 0x560 JUMP JUMPDEST DUP3 DUP3 DUP2 MLOAD DUP2 LT PUSH3 0x3FF JUMPI PUSH3 0x3FE PUSH3 0xC0B JUMP JUMPDEST JUMPDEST PUSH1 0x20 MUL PUSH1 0x20 ADD ADD DUP2 SWAP1 MSTORE POP DUP1 DUP1 PUSH3 0x417 SWAP1 PUSH3 0xB30 JUMP JUMPDEST SWAP2 POP POP PUSH3 0x313 JUMP JUMPDEST POP DUP1 SWAP2 POP POP SWAP1 JUMP JUMPDEST PUSH2 0x929 DUP1 PUSH3 0xCD1 DUP4 CODECOPY ADD SWAP1 JUMP JUMPDEST PUSH1 0x0 PUSH3 0x44D PUSH3 0x447 DUP5 PUSH3 0x8B7 JUMP JUMPDEST PUSH3 0x88E JUMP JUMPDEST SWAP1 POP DUP3 DUP2 MSTORE PUSH1 0x20 DUP2 ADD DUP5 DUP5 DUP5 ADD GT ISZERO PUSH3 0x46C JUMPI PUSH3 0x46B PUSH3 0xC6E JUMP JUMPDEST JUMPDEST PUSH3 0x479 DUP5 DUP3 DUP6 PUSH3 0xA7F JUMP JUMPDEST POP SWAP4 SWAP3 POP POP POP JUMP JUMPDEST PUSH1 0x0 PUSH3 0x498 PUSH3 0x492 DUP5 PUSH3 0x8B7 JUMP JUMPDEST PUSH3 0x88E JUMP JUMPDEST SWAP1 POP DUP3 DUP2 MSTORE PUSH1 0x20 DUP2 ADD DUP5 DUP5 DUP5 ADD GT ISZERO PUSH3 0x4B7 JUMPI PUSH3 0x4B6 PUSH3 0xC6E JUMP JUMPDEST JUMPDEST PUSH3 0x4C4 DUP5 DUP3 DUP6 PUSH3 0xA8E JUMP JUMPDEST POP SWAP4 SWAP3 POP POP POP JUMP JUMPDEST PUSH1 0x0 DUP2 CALLDATALOAD SWAP1 POP PUSH3 0x4DD DUP2 PUSH3 0xCA5 JUMP JUMPDEST SWAP3 SWAP2 POP POP JUMP JUMPDEST PUSH1 0x0 DUP3 PUSH1 0x1F DUP4 ADD SLT PUSH3 0x4FB JUMPI PUSH3 0x4FA PUSH3 0xC69 JUMP JUMPDEST JUMPDEST DUP2 CALLDATALOAD PUSH3 0x50D DUP5 DUP3 PUSH1 0x20 DUP7 ADD PUSH3 0x436 JUMP JUMPDEST SWAP2 POP POP SWAP3 SWAP2 POP POP JUMP JUMPDEST PUSH1 0x0 DUP3 PUSH1 0x1F DUP4 ADD SLT PUSH3 0x52E JUMPI PUSH3 0x52D PUSH3 0xC69 JUMP JUMPDEST JUMPDEST DUP2 MLOAD PUSH3 0x540 DUP5 DUP3 PUSH1 0x20 DUP7 ADD PUSH3 0x481 JUMP JUMPDEST SWAP2 POP POP SWAP3 SWAP2 POP POP JUMP JUMPDEST PUSH1 0x0 DUP2 CALLDATALOAD SWAP1 POP PUSH3 0x55A DUP2 PUSH3 0xCB6 JUMP JUMPDEST SWAP3 SWAP2 POP POP JUMP JUMPDEST PUSH1 0x0 PUSH1 0x20 DUP3 DUP5 SUB SLT ISZERO PUSH3 0x579 JUMPI PUSH3 0x578 PUSH3 0xC78 JUMP JUMPDEST JUMPDEST PUSH1 0x0 DUP3 ADD MLOAD PUSH8 0xFFFFFFFFFFFFFFFF DUP2 GT ISZERO PUSH3 0x59A JUMPI PUSH3 0x599 PUSH3 0xC73 JUMP JUMPDEST JUMPDEST PUSH3 0x5A8 DUP5 DUP3 DUP6 ADD PUSH3 0x516 JUMP JUMPDEST SWAP2 POP POP SWAP3 SWAP2 POP POP JUMP JUMPDEST PUSH1 0x0 DUP1 PUSH1 0x0 DUP1 PUSH1 0x80 DUP6 DUP8 SUB SLT ISZERO PUSH3 0x5CE JUMPI PUSH3 0x5CD PUSH3 0xC78 JUMP JUMPDEST JUMPDEST PUSH1 0x0 DUP6 ADD CALLDATALOAD PUSH8 0xFFFFFFFFFFFFFFFF DUP2 GT ISZERO PUSH3 0x5EF JUMPI PUSH3 0x5EE PUSH3 0xC73 JUMP JUMPDEST JUMPDEST PUSH3 0x5FD DUP8 DUP3 DUP9 ADD PUSH3 0x4E3 JUMP JUMPDEST SWAP5 POP POP PUSH1 0x20 DUP6 ADD CALLDATALOAD PUSH8 0xFFFFFFFFFFFFFFFF DUP2 GT ISZERO PUSH3 0x621 JUMPI PUSH3 0x620 PUSH3 0xC73 JUMP JUMPDEST JUMPDEST PUSH3 0x62F DUP8 DUP3 DUP9 ADD PUSH3 0x4E3 JUMP JUMPDEST SWAP4 POP POP PUSH1 0x40 PUSH3 0x642 DUP8 DUP3 DUP9 ADD PUSH3 0x549 JUMP JUMPDEST SWAP3 POP POP PUSH1 0x60 PUSH3 0x655 DUP8 DUP3 DUP9 ADD PUSH3 0x4CC JUMP JUMPDEST SWAP2 POP POP SWAP3 SWAP6 SWAP2 SWAP5 POP SWAP3 POP JUMP JUMPDEST PUSH1 0x0 PUSH1 0x20 DUP3 DUP5 SUB SLT ISZERO PUSH3 0x67A JUMPI PUSH3 0x679 PUSH3 0xC78 JUMP JUMPDEST JUMPDEST PUSH1 0x0 PUSH3 0x68A DUP5 DUP3 DUP6 ADD PUSH3 0x549 JUMP JUMPDEST SWAP2 POP POP SWAP3 SWAP2 POP POP JUMP JUMPDEST PUSH1 0x0 PUSH3 0x6A1 DUP4 DUP4 PUSH3 0x73B JUMP JUMPDEST SWAP1 POP SWAP3 SWAP2 POP POP JUMP JUMPDEST PUSH1 0x0 PUSH3 0x6B6 DUP3 PUSH3 0x8FD JUMP JUMPDEST PUSH3 0x6C2 DUP2 DUP6 PUSH3 0x920 JUMP JUMPDEST SWAP4 POP DUP4 PUSH1 0x20 DUP3 MUL DUP6 ADD PUSH3 0x6D6 DUP6 PUSH3 0x8ED JUMP JUMPDEST DUP1 PUSH1 0x0 JUMPDEST DUP6 DUP2 LT ISZERO PUSH3 0x718 JUMPI DUP5 DUP5 SUB DUP10 MSTORE DUP2 MLOAD PUSH3 0x6F6 DUP6 DUP3 PUSH3 0x693 JUMP JUMPDEST SWAP5 POP PUSH3 0x703 DUP4 PUSH3 0x913 JUMP JUMPDEST SWAP3 POP PUSH1 0x20 DUP11 ADD SWAP10 POP POP PUSH1 0x1 DUP2 ADD SWAP1 POP PUSH3 0x6DA JUMP JUMPDEST POP DUP3 SWAP8 POP DUP8 SWAP6 POP POP POP POP POP POP SWAP3 SWAP2 POP POP JUMP JUMPDEST PUSH3 0x735 DUP2 PUSH3 0xA6B JUMP JUMPDEST DUP3 MSTORE POP POP JUMP JUMPDEST PUSH1 0x0 PUSH3 0x748 DUP3 PUSH3 0x908 JUMP JUMPDEST PUSH3 0x754 DUP2 DUP6 PUSH3 0x931 JUMP JUMPDEST SWAP4 POP PUSH3 0x766 DUP2 DUP6 PUSH1 0x20 DUP7 ADD PUSH3 0xA8E JUMP JUMPDEST PUSH3 0x771 DUP2 PUSH3 0xC7D JUMP JUMPDEST DUP5 ADD SWAP2 POP POP SWAP3 SWAP2 POP POP JUMP JUMPDEST PUSH1 0x0 PUSH3 0x789 DUP3 PUSH3 0x908 JUMP JUMPDEST PUSH3 0x795 DUP2 DUP6 PUSH3 0x942 JUMP JUMPDEST SWAP4 POP PUSH3 0x7A7 DUP2 DUP6 PUSH1 0x20 DUP7 ADD PUSH3 0xA8E JUMP JUMPDEST PUSH3 0x7B2 DUP2 PUSH3 0xC7D JUMP JUMPDEST DUP5 ADD SWAP2 POP POP SWAP3 SWAP2 POP POP JUMP JUMPDEST PUSH3 0x7C8 DUP2 PUSH3 0xA61 JUMP JUMPDEST DUP3 MSTORE POP POP JUMP JUMPDEST PUSH1 0x0 PUSH1 0x20 DUP3 ADD SWAP1 POP DUP2 DUP2 SUB PUSH1 0x0 DUP4 ADD MSTORE PUSH3 0x7EA DUP2 DUP5 PUSH3 0x6A9 JUMP JUMPDEST SWAP1 POP SWAP3 SWAP2 POP POP JUMP JUMPDEST PUSH1 0x0 PUSH1 0x20 DUP3 ADD SWAP1 POP DUP2 DUP2 SUB PUSH1 0x0 DUP4 ADD MSTORE PUSH3 0x80E DUP2 DUP5 PUSH3 0x77C JUMP JUMPDEST SWAP1 POP SWAP3 SWAP2 POP POP JUMP JUMPDEST PUSH1 0x0 PUSH1 0x80 DUP3 ADD SWAP1 POP DUP2 DUP2 SUB PUSH1 0x0 DUP4 ADD MSTORE PUSH3 0x832 DUP2 DUP8 PUSH3 0x77C JUMP JUMPDEST SWAP1 POP DUP2 DUP2 SUB PUSH1 0x20 DUP4 ADD MSTORE PUSH3 0x848 DUP2 DUP7 PUSH3 0x77C JUMP JUMPDEST SWAP1 POP PUSH3 0x859 PUSH1 0x40 DUP4 ADD DUP6 PUSH3 0x7BD JUMP JUMPDEST PUSH3 0x868 PUSH1 0x60 DUP4 ADD DUP5 PUSH3 0x72A JUMP JUMPDEST SWAP6 SWAP5 POP POP POP POP POP JUMP JUMPDEST PUSH1 0x0 PUSH1 0x20 DUP3 ADD SWAP1 POP PUSH3 0x888 PUSH1 0x0 DUP4 ADD DUP5 PUSH3 0x7BD JUMP JUMPDEST SWAP3 SWAP2 POP POP JUMP JUMPDEST PUSH1 0x0 PUSH3 0x89A PUSH3 0x8AD JUMP JUMPDEST SWAP1 POP PUSH3 0x8A8 DUP3 DUP3 PUSH3 0xAFA JUMP JUMPDEST SWAP2 SWAP1 POP JUMP JUMPDEST PUSH1 0x0 PUSH1 0x40 MLOAD SWAP1 POP SWAP1 JUMP JUMPDEST PUSH1 0x0 PUSH8 0xFFFFFFFFFFFFFFFF DUP3 GT ISZERO PUSH3 0x8D5 JUMPI PUSH3 0x8D4 PUSH3 0xC3A JUMP JUMPDEST JUMPDEST PUSH3 0x8E0 DUP3 PUSH3 0xC7D JUMP JUMPDEST SWAP1 POP PUSH1 0x20 DUP2 ADD SWAP1 POP SWAP2 SWAP1 POP JUMP JUMPDEST PUSH1 0x0 DUP2 SWAP1 POP PUSH1 0x20 DUP3 ADD SWAP1 POP SWAP2 SWAP1 POP JUMP JUMPDEST PUSH1 0x0 DUP2 MLOAD SWAP1 POP SWAP2 SWAP1 POP JUMP JUMPDEST PUSH1 0x0 DUP2 MLOAD SWAP1 POP SWAP2 SWAP1 POP JUMP JUMPDEST PUSH1 0x0 PUSH1 0x20 DUP3 ADD SWAP1 POP SWAP2 SWAP1 POP JUMP JUMPDEST PUSH1 0x0 DUP3 DUP3 MSTORE PUSH1 0x20 DUP3 ADD SWAP1 POP SWAP3 SWAP2 POP POP JUMP JUMPDEST PUSH1 0x0 DUP3 DUP3 MSTORE PUSH1 0x20 DUP3 ADD SWAP1 POP SWAP3 SWAP2 POP POP JUMP JUMPDEST PUSH1 0x0 DUP3 DUP3 MSTORE PUSH1 0x20 DUP3 ADD SWAP1 POP SWAP3 SWAP2 POP POP JUMP JUMPDEST PUSH1 0x0 PUSH3 0x960 DUP3 PUSH3 0xA61 JUMP JUMPDEST SWAP2 POP PUSH3 0x96D DUP4 PUSH3 0xA61 JUMP JUMPDEST SWAP3 POP DUP3 PUSH32 0xFFFFFFFFFFFFFFFFFFFFFFFFFFFFFFFFFFFFFFFFFFFFFFFFFFFFFFFFFFFFFFFF SUB DUP3 GT ISZERO PUSH3 0x9A5 JUMPI PUSH3 0x9A4 PUSH3 0xB7E JUMP JUMPDEST JUMPDEST DUP3 DUP3 ADD SWAP1 POP SWAP3 SWAP2 POP POP JUMP JUMPDEST PUSH1 0x0 PUSH3 0x9BD DUP3 PUSH3 0xA61 JUMP JUMPDEST SWAP2 POP PUSH3 0x9CA DUP4 PUSH3 0xA61 JUMP JUMPDEST SWAP3 POP DUP2 PUSH32 0xFFFFFFFFFFFFFFFFFFFFFFFFFFFFFFFFFFFFFFFFFFFFFFFFFFFFFFFFFFFFFFFF DIV DUP4 GT DUP3 ISZERO ISZERO AND ISZERO PUSH3 0xA06 JUMPI PUSH3 0xA05 PUSH3 0xB7E JUMP JUMPDEST JUMPDEST DUP3 DUP3 MUL SWAP1 POP SWAP3 SWAP2 POP POP JUMP JUMPDEST PUSH1 0x0 PUSH3 0xA1E DUP3 PUSH3 0xA61 JUMP JUMPDEST SWAP2 POP PUSH3 0xA2B DUP4 PUSH3 0xA61 JUMP JUMPDEST SWAP3 POP DUP3 DUP3 LT ISZERO PUSH3 0xA41 JUMPI PUSH3 0xA40 PUSH3 0xB7E JUMP JUMPDEST JUMPDEST DUP3 DUP3 SUB SWAP1 POP SWAP3 SWAP2 POP POP JUMP JUMPDEST PUSH1 0x0 DUP2 SWAP1 POP PUSH3 0xA5C DUP3 PUSH3 0xC8E JUMP JUMPDEST SWAP2 SWAP1 POP JUMP JUMPDEST PUSH1 0x0 DUP2 SWAP1 POP SWAP2 SWAP1 POP JUMP JUMPDEST PUSH1 0x0 PUSH3 0xA78 DUP3 PUSH3 0xA4C JUMP JUMPDEST SWAP1 POP SWAP2 SWAP1 POP JUMP JUMPDEST DUP3 DUP2 DUP4 CALLDATACOPY PUSH1 0x0 DUP4 DUP4 ADD MSTORE POP POP POP JUMP JUMPDEST PUSH1 0x0 JUMPDEST DUP4 DUP2 LT ISZERO PUSH3 0xAAE JUMPI DUP1 DUP3 ADD MLOAD DUP2 DUP5 ADD MSTORE PUSH1 0x20 DUP2 ADD SWAP1 POP PUSH3 0xA91 JUMP JUMPDEST DUP4 DUP2 GT ISZERO PUSH3 0xABE JUMPI PUSH1 0x0 DUP5 DUP5 ADD MSTORE JUMPDEST POP POP POP POP JUMP JUMPDEST PUSH1 0x0 PUSH1 0x2 DUP3 DIV SWAP1 POP PUSH1 0x1 DUP3 AND DUP1 PUSH3 0xADD JUMPI PUSH1 0x7F DUP3 AND SWAP2 POP JUMPDEST PUSH1 0x20 DUP3 LT DUP2 EQ ISZERO PUSH3 0xAF4 JUMPI PUSH3 0xAF3 PUSH3 0xBDC JUMP JUMPDEST JUMPDEST POP SWAP2 SWAP1 POP JUMP JUMPDEST PUSH3 0xB05 DUP3 PUSH3 0xC7D JUMP JUMPDEST DUP2 ADD DUP2 DUP2 LT PUSH8 0xFFFFFFFFFFFFFFFF DUP3 GT OR ISZERO PUSH3 0xB27 JUMPI PUSH3 0xB26 PUSH3 0xC3A JUMP JUMPDEST JUMPDEST DUP1 PUSH1 0x40 MSTORE POP POP POP JUMP JUMPDEST PUSH1 0x0 PUSH3 0xB3D DUP3 PUSH3 0xA61 JUMP JUMPDEST SWAP2 POP PUSH32 0xFFFFFFFFFFFFFFFFFFFFFFFFFFFFFFFFFFFFFFFFFFFFFFFFFFFFFFFFFFFFFFFF DUP3 EQ ISZERO PUSH3 0xB73 JUMPI PUSH3 0xB72 PUSH3 0xB7E JUMP JUMPDEST JUMPDEST PUSH1 0x1 DUP3 ADD SWAP1 POP SWAP2 SWAP1 POP JUMP JUMPDEST PUSH32 0x4E487B7100000000000000000000000000000000000000000000000000000000 PUSH1 0x0 MSTORE PUSH1 0x11 PUSH1 0x4 MSTORE PUSH1 0x24 PUSH1 0x0 REVERT JUMPDEST PUSH32 0x4E487B7100000000000000000000000000000000000000000000000000000000 PUSH1 0x0 MSTORE PUSH1 0x21 PUSH1 0x4 MSTORE PUSH1 0x24 PUSH1 0x0 REVERT JUMPDEST PUSH32 0x4E487B7100000000000000000000000000000000000000000000000000000000 PUSH1 0x0 MSTORE PUSH1 0x22 PUSH1 0x4 MSTORE PUSH1 0x24 PUSH1 0x0 REVERT JUMPDEST PUSH32 0x4E487B7100000000000000000000000000000000000000000000000000000000 PUSH1 0x0 MSTORE PUSH1 0x32 PUSH1 0x4 MSTORE PUSH1 0x24 PUSH1 0x0 REVERT JUMPDEST PUSH32 0x4E487B7100000000000000000000000000000000000000000000000000000000 PUSH1 0x0 MSTORE PUSH1 0x41 PUSH1 0x4 MSTORE PUSH1 0x24 PUSH1 0x0 REVERT JUMPDEST PUSH1 0x0 DUP1 REVERT JUMPDEST PUSH1 0x0 DUP1 REVERT JUMPDEST PUSH1 0x0 DUP1 REVERT JUMPDEST PUSH1 0x0 DUP1 REVERT JUMPDEST PUSH1 0x0 PUSH1 0x1F NOT PUSH1 0x1F DUP4 ADD AND SWAP1 POP SWAP2 SWAP1 POP JUMP JUMPDEST PUSH1 0x3 DUP2 LT PUSH3 0xCA2 JUMPI PUSH3 0xCA1 PUSH3 0xBAD JUMP JUMPDEST JUMPDEST POP JUMP JUMPDEST PUSH1 0x3 DUP2 LT PUSH3 0xCB3 JUMPI PUSH1 0x0 DUP1 REVERT JUMPDEST POP JUMP JUMPDEST PUSH3 0xCC1 DUP2 PUSH3 0xA61 JUMP JUMPDEST DUP2 EQ PUSH3 0xCCD JUMPI PUSH1 0x0 DUP1 REVERT JUMPDEST POP JUMP INVALID PUSH1 0x80 PUSH1 0x40 MSTORE CALLVALUE DUP1 ISZERO PUSH3 0x11 JUMPI PUSH1 0x0 DUP1 REVERT JUMPDEST POP PUSH1 0x40 MLOAD PUSH3 0x929 CODESIZE SUB DUP1 PUSH3 0x929 DUP4 CODECOPY DUP2 DUP2 ADD PUSH1 0x40 MSTORE DUP2 ADD SWAP1 PUSH3 0x37 SWAP2 SWAP1 PUSH3 0x203 JUMP JUMPDEST DUP4 PUSH1 0x0 SWAP1 DUP1 MLOAD SWAP1 PUSH1 0x20 ADD SWAP1 PUSH3 0x4F SWAP3 SWAP2 SWAP1 PUSH3 0xA7 JUMP JUMPDEST POP DUP3 PUSH1 0x1 SWAP1 DUP1 MLOAD SWAP1 PUSH1 0x20 ADD SWAP1 PUSH3 0x68 SWAP3 SWAP2 SWAP1 PUSH3 0xA7 JUMP JUMPDEST POP DUP2 PUSH1 0x2 DUP2 SWAP1 SSTORE POP DUP1 PUSH1 0x3 PUSH1 0x0 PUSH2 0x100 EXP DUP2 SLOAD DUP2 PUSH1 0xFF MUL NOT AND SWAP1 DUP4 PUSH1 0x2 DUP2 GT ISZERO PUSH3 0x98 JUMPI PUSH3 0x97 PUSH3 0x3BE JUMP JUMPDEST JUMPDEST MUL OR SWAP1 SSTORE POP POP POP POP POP PUSH3 0x49B JUMP JUMPDEST DUP3 DUP1 SLOAD PUSH3 0xB5 SWAP1 PUSH3 0x352 JUMP JUMPDEST SWAP1 PUSH1 0x0 MSTORE PUSH1 0x20 PUSH1 0x0 KECCAK256 SWAP1 PUSH1 0x1F ADD PUSH1 0x20 SWAP1 DIV DUP2 ADD SWAP3 DUP3 PUSH3 0xD9 JUMPI PUSH1 0x0 DUP6 SSTORE PUSH3 0x125 JUMP JUMPDEST DUP3 PUSH1 0x1F LT PUSH3 0xF4 JUMPI DUP1 MLOAD PUSH1 0xFF NOT AND DUP4 DUP1 ADD OR DUP6 SSTORE PUSH3 0x125 JUMP JUMPDEST DUP3 DUP1 ADD PUSH1 0x1 ADD DUP6 SSTORE DUP3 ISZERO PUSH3 0x125 JUMPI SWAP2 DUP3 ADD JUMPDEST DUP3 DUP2 GT ISZERO PUSH3 0x124 JUMPI DUP3 MLOAD DUP3 SSTORE SWAP2 PUSH1 0x20 ADD SWAP2 SWAP1 PUSH1 0x1 ADD SWAP1 PUSH3 0x107 JUMP JUMPDEST JUMPDEST POP SWAP1 POP PUSH3 0x134 SWAP2 SWAP1 PUSH3 0x138 JUMP JUMPDEST POP SWAP1 JUMP JUMPDEST JUMPDEST DUP1 DUP3 GT ISZERO PUSH3 0x153 JUMPI PUSH1 0x0 DUP2 PUSH1 0x0 SWAP1 SSTORE POP PUSH1 0x1 ADD PUSH3 0x139 JUMP JUMPDEST POP SWAP1 JUMP JUMPDEST PUSH1 0x0 PUSH3 0x16E PUSH3 0x168 DUP5 PUSH3 0x2DC JUMP JUMPDEST PUSH3 0x2B3 JUMP JUMPDEST SWAP1 POP DUP3 DUP2 MSTORE PUSH1 0x20 DUP2 ADD DUP5 DUP5 DUP5 ADD GT ISZERO PUSH3 0x18D JUMPI PUSH3 0x18C PUSH3 0x450 JUMP JUMPDEST JUMPDEST PUSH3 0x19A DUP5 DUP3 DUP6 PUSH3 0x31C JUMP JUMPDEST POP SWAP4 SWAP3 POP POP POP JUMP JUMPDEST PUSH1 0x0 DUP2 MLOAD SWAP1 POP PUSH3 0x1B3 DUP2 PUSH3 0x470 JUMP JUMPDEST SWAP3 SWAP2 POP POP JUMP JUMPDEST PUSH1 0x0 DUP3 PUSH1 0x1F DUP4 ADD SLT PUSH3 0x1D1 JUMPI PUSH3 0x1D0 PUSH3 0x44B JUMP JUMPDEST JUMPDEST DUP2 MLOAD PUSH3 0x1E3 DUP5 DUP3 PUSH1 0x20 DUP7 ADD PUSH3 0x157 JUMP JUMPDEST SWAP2 POP POP SWAP3 SWAP2 POP POP JUMP JUMPDEST PUSH1 0x0 DUP2 MLOAD SWAP1 POP PUSH3 0x1FD DUP2 PUSH3 0x481 JUMP JUMPDEST SWAP3 SWAP2 POP POP JUMP JUMPDEST PUSH1 0x0 DUP1 PUSH1 0x0 DUP1 PUSH1 0x80 DUP6 DUP8 SUB SLT ISZERO PUSH3 0x220 JUMPI PUSH3 0x21F PUSH3 0x45A JUMP JUMPDEST JUMPDEST PUSH1 0x0 DUP6 ADD MLOAD PUSH8 0xFFFFFFFFFFFFFFFF DUP2 GT ISZERO PUSH3 0x241 JUMPI PUSH3 0x240 PUSH3 0x455 JUMP JUMPDEST JUMPDEST PUSH3 0x24F DUP8 DUP3 DUP9 ADD PUSH3 0x1B9 JUMP JUMPDEST SWAP5 POP POP PUSH1 0x20 DUP6 ADD MLOAD PUSH8 0xFFFFFFFFFFFFFFFF DUP2 GT ISZERO PUSH3 0x273 JUMPI PUSH3 0x272 PUSH3 0x455 JUMP JUMPDEST JUMPDEST PUSH3 0x281 DUP8 DUP3 DUP9 ADD PUSH3 0x1B9 JUMP JUMPDEST SWAP4 POP POP PUSH1 0x40 PUSH3 0x294 DUP8 DUP3 DUP9 ADD PUSH3 0x1EC JUMP JUMPDEST SWAP3 POP POP PUSH1 0x60 PUSH3 0x2A7 DUP8 DUP3 DUP9 ADD PUSH3 0x1A2 JUMP JUMPDEST SWAP2 POP POP SWAP3 SWAP6 SWAP2 SWAP5 POP SWAP3 POP JUMP JUMPDEST PUSH1 0x0 PUSH3 0x2BF PUSH3 0x2D2 JUMP JUMPDEST SWAP1 POP PUSH3 0x2CD DUP3 DUP3 PUSH3 0x388 JUMP JUMPDEST SWAP2 SWAP1 POP JUMP JUMPDEST PUSH1 0x0 PUSH1 0x40 MLOAD SWAP1 POP SWAP1 JUMP JUMPDEST PUSH1 0x0 PUSH8 0xFFFFFFFFFFFFFFFF DUP3 GT ISZERO PUSH3 0x2FA JUMPI PUSH3 0x2F9 PUSH3 0x41C JUMP JUMPDEST JUMPDEST PUSH3 0x305 DUP3 PUSH3 0x45F JUMP JUMPDEST SWAP1 POP PUSH1 0x20 DUP2 ADD SWAP1 POP SWAP2 SWAP1 POP JUMP JUMPDEST PUSH1 0x0 DUP2 SWAP1 POP SWAP2 SWAP1 POP JUMP JUMPDEST PUSH1 0x0 JUMPDEST DUP4 DUP2 LT ISZERO PUSH3 0x33C JUMPI DUP1 DUP3 ADD MLOAD DUP2 DUP5 ADD MSTORE PUSH1 0x20 DUP2 ADD SWAP1 POP PUSH3 0x31F JUMP JUMPDEST DUP4 DUP2 GT ISZERO PUSH3 0x34C JUMPI PUSH1 0x0 DUP5 DUP5 ADD MSTORE JUMPDEST POP POP POP POP JUMP JUMPDEST PUSH1 0x0 PUSH1 0x2 DUP3 DIV SWAP1 POP PUSH1 0x1 DUP3 AND DUP1 PUSH3 0x36B JUMPI PUSH1 0x7F DUP3 AND SWAP2 POP JUMPDEST PUSH1 0x20 DUP3 LT DUP2 EQ ISZERO PUSH3 0x382 JUMPI PUSH3 0x381 PUSH3 0x3ED JUMP JUMPDEST JUMPDEST POP SWAP2 SWAP1 POP JUMP JUMPDEST PUSH3 0x393 DUP3 PUSH3 0x45F JUMP JUMPDEST DUP2 ADD DUP2 DUP2 LT PUSH8 0xFFFFFFFFFFFFFFFF DUP3 GT OR ISZERO PUSH3 0x3B5 JUMPI PUSH3 0x3B4 PUSH3 0x41C JUMP JUMPDEST JUMPDEST DUP1 PUSH1 0x40 MSTORE POP POP POP JUMP JUMPDEST PUSH32 0x4E487B7100000000000000000000000000000000000000000000000000000000 PUSH1 0x0 MSTORE PUSH1 0x21 PUSH1 0x4 MSTORE PUSH1 0x24 PUSH1 0x0 REVERT JUMPDEST PUSH32 0x4E487B7100000000000000000000000000000000000000000000000000000000 PUSH1 0x0 MSTORE PUSH1 0x22 PUSH1 0x4 MSTORE PUSH1 0x24 PUSH1 0x0 REVERT JUMPDEST PUSH32 0x4E487B7100000000000000000000000000000000000000000000000000000000 PUSH1 0x0 MSTORE PUSH1 0x41 PUSH1 0x4 MSTORE PUSH1 0x24 PUSH1 0x0 REVERT JUMPDEST PUSH1 0x0 DUP1 REVERT JUMPDEST PUSH1 0x0 DUP1 REVERT JUMPDEST PUSH1 0x0 DUP1 REVERT JUMPDEST PUSH1 0x0 DUP1 REVERT JUMPDEST PUSH1 0x0 PUSH1 0x1F NOT PUSH1 0x1F DUP4 ADD AND SWAP1 POP SWAP2 SWAP1 POP JUMP JUMPDEST PUSH1 0x3 DUP2 LT PUSH3 0x47E JUMPI PUSH1 0x0 DUP1 REVERT JUMPDEST POP JUMP JUMPDEST PUSH3 0x48C DUP2 PUSH3 0x312 JUMP JUMPDEST DUP2 EQ PUSH3 0x498 JUMPI PUSH1 0x0 DUP1 REVERT JUMPDEST POP JUMP JUMPDEST PUSH2 0x47E DUP1 PUSH3 0x4AB PUSH1 0x0 CODECOPY PUSH1 0x0 RETURN INVALID PUSH1 0x80 PUSH1 0x40 MSTORE CALLVALUE DUP1 ISZERO PUSH2 0x10 JUMPI PUSH1 0x0 DUP1 REVERT JUMPDEST POP PUSH1 0x4 CALLDATASIZE LT PUSH2 0x36 JUMPI PUSH1 0x0 CALLDATALOAD PUSH1 0xE0 SHR DUP1 PUSH4 0x932997F1 EQ PUSH2 0x3B JUMPI DUP1 PUSH4 0xA79488A4 EQ PUSH2 0x59 JUMPI JUMPDEST PUSH1 0x0 DUP1 REVERT JUMPDEST PUSH2 0x43 PUSH2 0x89 JUMP JUMPDEST PUSH1 0x40 MLOAD PUSH2 0x50 SWAP2 SWAP1 PUSH2 0x211 JUMP JUMPDEST PUSH1 0x40 MLOAD DUP1 SWAP2 SUB SWAP1 RETURN JUMPDEST PUSH2 0x73 PUSH1 0x4 DUP1 CALLDATASIZE SUB DUP2 ADD SWAP1 PUSH2 0x6E SWAP2 SWAP1 PUSH2 0x19C JUMP JUMPDEST PUSH2 0x11B JUMP JUMPDEST PUSH1 0x40 MLOAD PUSH2 0x80 SWAP2 SWAP1 PUSH2 0x233 JUMP JUMPDEST PUSH1 0x40 MLOAD DUP1 SWAP2 SUB SWAP1 RETURN JUMPDEST PUSH1 0x60 PUSH1 0x0 DUP1 SLOAD PUSH2 0x98 SWAP1 PUSH2 0x38B JUMP JUMPDEST DUP1 PUSH1 0x1F ADD PUSH1 0x20 DUP1 SWAP2 DIV MUL PUSH1 0x20 ADD PUSH1 0x40 MLOAD SWAP1 DUP2 ADD PUSH1 0x40 MSTORE DUP1 SWAP3 SWAP2 SWAP1 DUP2 DUP2 MSTORE PUSH1 0x20 ADD DUP3 DUP1 SLOAD PUSH2 0xC4 SWAP1 PUSH2 0x38B JUMP JUMPDEST DUP1 ISZERO PUSH2 0x111 JUMPI DUP1 PUSH1 0x1F LT PUSH2 0xE6 JUMPI PUSH2 0x100 DUP1 DUP4 SLOAD DIV MUL DUP4 MSTORE SWAP2 PUSH1 0x20 ADD SWAP2 PUSH2 0x111 JUMP JUMPDEST DUP3 ADD SWAP2 SWAP1 PUSH1 0x0 MSTORE PUSH1 0x20 PUSH1 0x0 KECCAK256 SWAP1 JUMPDEST DUP2 SLOAD DUP2 MSTORE SWAP1 PUSH1 0x1 ADD SWAP1 PUSH1 0x20 ADD DUP1 DUP4 GT PUSH2 0xF4 JUMPI DUP3 SWAP1 SUB PUSH1 0x1F AND DUP3 ADD SWAP2 JUMPDEST POP POP POP POP POP SWAP1 POP SWAP1 JUMP JUMPDEST PUSH1 0x0 PUSH1 0x28 DUP3 GT PUSH2 0x13A JUMPI DUP2 PUSH1 0x2 SLOAD PUSH2 0x133 SWAP2 SWAP1 PUSH2 0x2C0 JUMP JUMPDEST SWAP1 POP PUSH2 0x182 JUMP JUMPDEST PUSH1 0x0 PUSH1 0x28 DUP4 PUSH2 0x149 SWAP2 SWAP1 PUSH2 0x31A JUMP JUMPDEST SWAP1 POP PUSH1 0x2 SLOAD PUSH1 0x2 DUP3 PUSH2 0x15B SWAP2 SWAP1 PUSH2 0x2C0 JUMP JUMPDEST PUSH2 0x165 SWAP2 SWAP1 PUSH2 0x2C0 JUMP JUMPDEST PUSH1 0x2 SLOAD PUSH1 0x28 PUSH2 0x174 SWAP2 SWAP1 PUSH2 0x2C0 JUMP JUMPDEST PUSH2 0x17E SWAP2 SWAP1 PUSH2 0x26A JUMP JUMPDEST SWAP2 POP POP JUMPDEST SWAP2 SWAP1 POP JUMP JUMPDEST PUSH1 0x0 DUP2 CALLDATALOAD SWAP1 POP PUSH2 0x196 DUP2 PUSH2 0x431 JUMP JUMPDEST SWAP3 SWAP2 POP POP JUMP JUMPDEST PUSH1 0x0 PUSH1 0x20 DUP3 DUP5 SUB SLT ISZERO PUSH2 0x1B2 JUMPI PUSH2 0x1B1 PUSH2 0x41B JUMP JUMPDEST JUMPDEST PUSH1 0x0 PUSH2 0x1C0 DUP5 DUP3 DUP6 ADD PUSH2 0x187 JUMP JUMPDEST SWAP2 POP POP SWAP3 SWAP2 POP POP JUMP JUMPDEST PUSH1 0x0 PUSH2 0x1D4 DUP3 PUSH2 0x24E JUMP JUMPDEST PUSH2 0x1DE DUP2 DUP6 PUSH2 0x259 JUMP JUMPDEST SWAP4 POP PUSH2 0x1EE DUP2 DUP6 PUSH1 0x20 DUP7 ADD PUSH2 0x358 JUMP JUMPDEST PUSH2 0x1F7 DUP2 PUSH2 0x420 JUMP JUMPDEST DUP5 ADD SWAP2 POP POP SWAP3 SWAP2 POP POP JUMP JUMPDEST PUSH2 0x20B DUP2 PUSH2 0x34E JUMP JUMPDEST DUP3 MSTORE POP POP JUMP JUMPDEST PUSH1 0x0 PUSH1 0x20 DUP3 ADD SWAP1 POP DUP2 DUP2 SUB PUSH1 0x0 DUP4 ADD MSTORE PUSH2 0x22B DUP2 DUP5 PUSH2 0x1C9 JUMP JUMPDEST SWAP1 POP SWAP3 SWAP2 POP POP JUMP JUMPDEST PUSH1 0x0 PUSH1 0x20 DUP3 ADD SWAP1 POP PUSH2 0x248 PUSH1 0x0 DUP4 ADD DUP5 PUSH2 0x202 JUMP JUMPDEST SWAP3 SWAP2 POP POP JUMP JUMPDEST PUSH1 0x0 DUP2 MLOAD SWAP1 POP SWAP2 SWAP1 POP JUMP JUMPDEST PUSH1 0x0 DUP3 DUP3 MSTORE PUSH1 0x20 DUP3 ADD SWAP1 POP SWAP3 SWAP2 POP POP JUMP JUMPDEST PUSH1 0x0 PUSH2 0x275 DUP3 PUSH2 0x34E JUMP JUMPDEST SWAP2 POP PUSH2 0x280 DUP4 PUSH2 0x34E JUMP JUMPDEST SWAP3 POP DUP3 PUSH32 0xFFFFFFFFFFFFFFFFFFFFFFFFFFFFFFFFFFFFFFFFFFFFFFFFFFFFFFFFFFFFFFFF SUB DUP3 GT ISZERO PUSH2 0x2B5 JUMPI PUSH2 0x2B4 PUSH2 0x3BD JUMP JUMPDEST JUMPDEST DUP3 DUP3 ADD SWAP1 POP SWAP3 SWAP2 POP POP JUMP JUMPDEST PUSH1 0x0 PUSH2 0x2CB DUP3 PUSH2 0x34E JUMP JUMPDEST SWAP2 POP PUSH2 0x2D6 DUP4 PUSH2 0x34E JUMP JUMPDEST SWAP3 POP DUP2 PUSH32 0xFFFFFFFFFFFFFFFFFFFFFFFFFFFFFFFFFFFFFFFFFFFFFFFFFFFFFFFFFFFFFFFF DIV DUP4 GT DUP3 ISZERO ISZERO AND ISZERO PUSH2 0x30F JUMPI PUSH2 0x30E PUSH2 0x3BD JUMP JUMPDEST JUMPDEST DUP3 DUP3 MUL SWAP1 POP SWAP3 SWAP2 POP POP JUMP JUMPDEST PUSH1 0x0 PUSH2 0x325 DUP3 PUSH2 0x34E JUMP JUMPDEST SWAP2 POP PUSH2 0x330 DUP4 PUSH2 0x34E JUMP JUMPDEST SWAP3 POP DUP3 DUP3 LT ISZERO PUSH2 0x343 JUMPI PUSH2 0x342 PUSH2 0x3BD JUMP JUMPDEST JUMPDEST DUP3 DUP3 SUB SWAP1 POP SWAP3 SWAP2 POP POP JUMP JUMPDEST PUSH1 0x0 DUP2 SWAP1 POP SWAP2 SWAP1 POP JUMP JUMPDEST PUSH1 0x0 JUMPDEST DUP4 DUP2 LT ISZERO PUSH2 0x376 JUMPI DUP1 DUP3 ADD MLOAD DUP2 DUP5 ADD MSTORE PUSH1 0x20 DUP2 ADD SWAP1 POP PUSH2 0x35B JUMP JUMPDEST DUP4 DUP2 GT ISZERO PUSH2 0x385 JUMPI PUSH1 0x0 DUP5 DUP5 ADD MSTORE JUMPDEST POP POP POP POP JUMP JUMPDEST PUSH1 0x0 PUSH1 0x2 DUP3 DIV SWAP1 POP PUSH1 0x1 DUP3 AND DUP1 PUSH2 0x3A3 JUMPI PUSH1 0x7F DUP3 AND SWAP2 POP JUMPDEST PUSH1 0x20 DUP3 LT DUP2 EQ ISZERO PUSH2 0x3B7 JUMPI PUSH2 0x3B6 PUSH2 0x3EC JUMP JUMPDEST JUMPDEST POP SWAP2 SWAP1 POP JUMP JUMPDEST PUSH32 0x4E487B7100000000000000000000000000000000000000000000000000000000 PUSH1 0x0 MSTORE PUSH1 0x11 PUSH1 0x4 MSTORE PUSH1 0x24 PUSH1 0x0 REVERT JUMPDEST PUSH32 0x4E487B7100000000000000000000000000000000000000000000000000000000 PUSH1 0x0 MSTORE PUSH1 0x22 PUSH1 0x4 MSTORE PUSH1 0x24 PUSH1 0x0 REVERT JUMPDEST PUSH1 0x0 DUP1 REVERT JUMPDEST PUSH1 0x0 PUSH1 0x1F NOT PUSH1 0x1F DUP4 ADD AND SWAP1 POP SWAP2 SWAP1 POP JUMP JUMPDEST PUSH2 0x43A DUP2 PUSH2 0x34E JUMP JUMPDEST DUP2 EQ PUSH2 0x445 JUMPI PUSH1 0x0 DUP1 REVERT JUMPDEST POP JUMP INVALID LOG2 PUSH5 0x6970667358 0x22 SLT KECCAK256 ADD PUSH32 0xB7AB3A45DD2BBFAF6EDA81AF46687A8443F1DBA897984FDA59D67C977376473 PUSH16 0x6C63430008070033A264697066735822 SLT KECCAK256 0xD2 0x5D PUSH15 0xD6F86167A8D929FCB5ADCD8D368D5A 0xDC CALLCODE 0xE9 PUSH11 0xE8CEB71DE5864E8E7C5464 PUSH20 0x6F6C634300080700330000000000000000000000 "
		},
		"gasEstimates": {
			"creation": {
				"codeDepositCost": "1135800",
				"executionCost": "infinite",
				"totalCost": "infinite"
			},
			"external": {
				"addSubordinate(string,string,uint256,uint8)": "infinite",
				"getFirstName()": "infinite",
				"getSubordinates()": "infinite",
				"getWeeklyPay(uint256)": "infinite"
			}
		},
		"methodIdentifiers": {
			"addSubordinate(string,string,uint256,uint8)": "acdd0b4b",
			"getFirstName()": "932997f1",
			"getSubordinates()": "e9086e5a",
			"getWeeklyPay(uint256)": "a79488a4"
		}
	},
	"abi": [
		{
			"inputs": [
				{
					"internalType": "string",
					"name": "_firstName",
					"type": "string"
				},
				{
					"internalType": "string",
					"name": "_lastName",
					"type": "string"
				},
				{
					"internalType": "uint256",
					"name": "_hourlyPay",
					"type": "uint256"
				},
				{
					"internalType": "enum Employee.Department",
					"name": "_department",
					"type": "uint8"
				}
			],
			"stateMutability": "nonpayable",
			"type": "constructor"
		},
		{
			"inputs": [
				{
					"internalType": "string",
					"name": "_firstName",
					"type": "string"
				},
				{
					"internalType": "string",
					"name": "_lastName",
					"type": "string"
				},
				{
					"internalType": "uint256",
					"name": "_hourlyPay",
					"type": "uint256"
				},
				{
					"internalType": "enum Employee.Department",
					"name": "_department",
					"type": "uint8"
				}
			],
			"name": "addSubordinate",
			"outputs": [],
			"stateMutability": "nonpayable",
			"type": "function"
		},
		{
			"inputs": [],
			"name": "getFirstName",
			"outputs": [
				{
					"internalType": "string",
					"name": "",
					"type": "string"
				}
			],
			"stateMutability": "view",
			"type": "function"
		},
		{
			"inputs": [],
			"name": "getSubordinates",
			"outputs": [
				{
					"internalType": "string[]",
					"name": "",
					"type": "string[]"
				}
			],
			"stateMutability": "view",
			"type": "function"
		},
		{
			"inputs": [
				{
					"internalType": "uint256",
					"name": "hoursWorked",
					"type": "uint256"
				}
			],
			"name": "getWeeklyPay",
			"outputs": [
				{
					"internalType": "uint256",
					"name": "",
					"type": "uint256"
				}
			],
			"stateMutability": "view",
			"type": "function"
		}
	]
}