{
	"data": {
		"bytecode": {
			"linkReferences": {},
			"object": "608060405234801561001057600080fd5b5061076e806100206000396000f3fe608060405234801561001057600080fd5b50600436106100415760003560e01c806342fba7ae14610046578063a0447e5514610076578063da3ff648146100a6575b600080fd5b610060600480360381019061005b9190610324565b6100d6565b60405161006d9190610360565b60405180910390f35b610090600480360381019061008b91906102c8565b610144565b60405161009d9190610360565b60405180910390f35b6100c060048036038101906100bb9190610324565b6101da565b6040516100cd9190610360565b60405180910390f35b600080600a836100e691906105f8565b905060008113156101115780600a6100fe91906104ca565b8361010991906103cc565b91505061013f565b6000811415610123578291505061013f565b80600a8461013191906104ca565b61013b91906104ca565b9150505b919050565b6000808351141561015857600090506101d4565b6000805b84518110156101a05784818151811061017857610177610687565b5b60200260200101518261018b91906103cc565b91508080610198906105af565b91505061015c565b5060008451826101b09190610460565b9050836101c5576101c0816100d6565b6101cf565b6101ce816101da565b5b925050505b92915050565b600080600a836101ea91906105f8565b905080836101f891906104ca565b915050919050565b600061021361020e846103a0565b61037b565b90508083825260208201905082856020860282011115610236576102356106ea565b5b60005b85811015610266578161024c88826102b3565b845260208401935060208301925050600181019050610239565b5050509392505050565b600082601f830112610285576102846106e5565b5b8135610295848260208601610200565b91505092915050565b6000813590506102ad8161070a565b92915050565b6000813590506102c281610721565b92915050565b600080604083850312156102df576102de6106f4565b5b600083013567ffffffffffffffff8111156102fd576102fc6106ef565b5b61030985828601610270565b925050602061031a8582860161029e565b9150509250929050565b60006020828403121561033a576103396106f4565b5b6000610348848285016102b3565b91505092915050565b61035a8161056a565b82525050565b60006020820190506103756000830184610351565b92915050565b6000610385610396565b9050610391828261057e565b919050565b6000604051905090565b600067ffffffffffffffff8211156103bb576103ba6106b6565b5b602082029050602081019050919050565b60006103d78261056a565b91506103e28361056a565b9250817f7fffffffffffffffffffffffffffffffffffffffffffffffffffffffffffffff0383136000831215161561041d5761041c610629565b5b817f800000000000000000000000000000000000000000000000000000000000000003831260008312161561045557610454610629565b5b828201905092915050565b600061046b8261056a565b91506104768361056a565b92508261048657610485610658565b5b600160000383147f8000000000000000000000000000000000000000000000000000000000000000831416156104bf576104be610629565b5b828205905092915050565b60006104d58261056a565b91506104e08361056a565b9250827f80000000000000000000000000000000000000000000000000000000000000000182126000841215161561051b5761051a610629565b5b827f7fffffffffffffffffffffffffffffffffffffffffffffffffffffffffffffff01821360008412161561055357610552610629565b5b828203905092915050565b60008115159050919050565b6000819050919050565b6000819050919050565b610587826106f9565b810181811067ffffffffffffffff821117156105a6576105a56106b6565b5b80604052505050565b60006105ba82610574565b91507fffffffffffffffffffffffffffffffffffffffffffffffffffffffffffffffff8214156105ed576105ec610629565b5b600182019050919050565b60006106038261056a565b915061060e8361056a565b92508261061e5761061d610658565b5b828207905092915050565b7f4e487b7100000000000000000000000000000000000000000000000000000000600052601160045260246000fd5b7f4e487b7100000000000000000000000000000000000000000000000000000000600052601260045260246000fd5b7f4e487b7100000000000000000000000000000000000000000000000000000000600052603260045260246000fd5b7f4e487b7100000000000000000000000000000000000000000000000000000000600052604160045260246000fd5b600080fd5b600080fd5b600080fd5b600080fd5b6000601f19601f8301169050919050565b6107138161055e565b811461071e57600080fd5b50565b61072a8161056a565b811461073557600080fd5b5056fea264697066735822122026144e3fc770ea9336bf424a975e81610bce7adc56784072ae957e7e961f058a64736f6c63430008070033",
			"opcodes": "PUSH1 0x80 PUSH1 0x40 MSTORE CALLVALUE DUP1 ISZERO PUSH2 0x10 JUMPI PUSH1 0x0 DUP1 REVERT JUMPDEST POP PUSH2 0x76E DUP1 PUSH2 0x20 PUSH1 0x0 CODECOPY PUSH1 0x0 RETURN INVALID PUSH1 0x80 PUSH1 0x40 MSTORE CALLVALUE DUP1 ISZERO PUSH2 0x10 JUMPI PUSH1 0x0 DUP1 REVERT JUMPDEST POP PUSH1 0x4 CALLDATASIZE LT PUSH2 0x41 JUMPI PUSH1 0x0 CALLDATALOAD PUSH1 0xE0 SHR DUP1 PUSH4 0x42FBA7AE EQ PUSH2 0x46 JUMPI DUP1 PUSH4 0xA0447E55 EQ PUSH2 0x76 JUMPI DUP1 PUSH4 0xDA3FF648 EQ PUSH2 0xA6 JUMPI JUMPDEST PUSH1 0x0 DUP1 REVERT JUMPDEST PUSH2 0x60 PUSH1 0x4 DUP1 CALLDATASIZE SUB DUP2 ADD SWAP1 PUSH2 0x5B SWAP2 SWAP1 PUSH2 0x324 JUMP JUMPDEST PUSH2 0xD6 JUMP JUMPDEST PUSH1 0x40 MLOAD PUSH2 0x6D SWAP2 SWAP1 PUSH2 0x360 JUMP JUMPDEST PUSH1 0x40 MLOAD DUP1 SWAP2 SUB SWAP1 RETURN JUMPDEST PUSH2 0x90 PUSH1 0x4 DUP1 CALLDATASIZE SUB DUP2 ADD SWAP1 PUSH2 0x8B SWAP2 SWAP1 PUSH2 0x2C8 JUMP JUMPDEST PUSH2 0x144 JUMP JUMPDEST PUSH1 0x40 MLOAD PUSH2 0x9D SWAP2 SWAP1 PUSH2 0x360 JUMP JUMPDEST PUSH1 0x40 MLOAD DUP1 SWAP2 SUB SWAP1 RETURN JUMPDEST PUSH2 0xC0 PUSH1 0x4 DUP1 CALLDATASIZE SUB DUP2 ADD SWAP1 PUSH2 0xBB SWAP2 SWAP1 PUSH2 0x324 JUMP JUMPDEST PUSH2 0x1DA JUMP JUMPDEST PUSH1 0x40 MLOAD PUSH2 0xCD SWAP2 SWAP1 PUSH2 0x360 JUMP JUMPDEST PUSH1 0x40 MLOAD DUP1 SWAP2 SUB SWAP1 RETURN JUMPDEST PUSH1 0x0 DUP1 PUSH1 0xA DUP4 PUSH2 0xE6 SWAP2 SWAP1 PUSH2 0x5F8 JUMP JUMPDEST SWAP1 POP PUSH1 0x0 DUP2 SGT ISZERO PUSH2 0x111 JUMPI DUP1 PUSH1 0xA PUSH2 0xFE SWAP2 SWAP1 PUSH2 0x4CA JUMP JUMPDEST DUP4 PUSH2 0x109 SWAP2 SWAP1 PUSH2 0x3CC JUMP JUMPDEST SWAP2 POP POP PUSH2 0x13F JUMP JUMPDEST PUSH1 0x0 DUP2 EQ ISZERO PUSH2 0x123 JUMPI DUP3 SWAP2 POP POP PUSH2 0x13F JUMP JUMPDEST DUP1 PUSH1 0xA DUP5 PUSH2 0x131 SWAP2 SWAP1 PUSH2 0x4CA JUMP JUMPDEST PUSH2 0x13B SWAP2 SWAP1 PUSH2 0x4CA JUMP JUMPDEST SWAP2 POP POP JUMPDEST SWAP2 SWAP1 POP JUMP JUMPDEST PUSH1 0x0 DUP1 DUP4 MLOAD EQ ISZERO PUSH2 0x158 JUMPI PUSH1 0x0 SWAP1 POP PUSH2 0x1D4 JUMP JUMPDEST PUSH1 0x0 DUP1 JUMPDEST DUP5 MLOAD DUP2 LT ISZERO PUSH2 0x1A0 JUMPI DUP5 DUP2 DUP2 MLOAD DUP2 LT PUSH2 0x178 JUMPI PUSH2 0x177 PUSH2 0x687 JUMP JUMPDEST JUMPDEST PUSH1 0x20 MUL PUSH1 0x20 ADD ADD MLOAD DUP3 PUSH2 0x18B SWAP2 SWAP1 PUSH2 0x3CC JUMP JUMPDEST SWAP2 POP DUP1 DUP1 PUSH2 0x198 SWAP1 PUSH2 0x5AF JUMP JUMPDEST SWAP2 POP POP PUSH2 0x15C JUMP JUMPDEST POP PUSH1 0x0 DUP5 MLOAD DUP3 PUSH2 0x1B0 SWAP2 SWAP1 PUSH2 0x460 JUMP JUMPDEST SWAP1 POP DUP4 PUSH2 0x1C5 JUMPI PUSH2 0x1C0 DUP2 PUSH2 0xD6 JUMP JUMPDEST PUSH2 0x1CF JUMP JUMPDEST PUSH2 0x1CE DUP2 PUSH2 0x1DA JUMP JUMPDEST JUMPDEST SWAP3 POP POP POP JUMPDEST SWAP3 SWAP2 POP POP JUMP JUMPDEST PUSH1 0x0 DUP1 PUSH1 0xA DUP4 PUSH2 0x1EA SWAP2 SWAP1 PUSH2 0x5F8 JUMP JUMPDEST SWAP1 POP DUP1 DUP4 PUSH2 0x1F8 SWAP2 SWAP1 PUSH2 0x4CA JUMP JUMPDEST SWAP2 POP POP SWAP2 SWAP1 POP JUMP JUMPDEST PUSH1 0x0 PUSH2 0x213 PUSH2 0x20E DUP5 PUSH2 0x3A0 JUMP JUMPDEST PUSH2 0x37B JUMP JUMPDEST SWAP1 POP DUP1 DUP4 DUP3 MSTORE PUSH1 0x20 DUP3 ADD SWAP1 POP DUP3 DUP6 PUSH1 0x20 DUP7 MUL DUP3 ADD GT ISZERO PUSH2 0x236 JUMPI PUSH2 0x235 PUSH2 0x6EA JUMP JUMPDEST JUMPDEST PUSH1 0x0 JUMPDEST DUP6 DUP2 LT ISZERO PUSH2 0x266 JUMPI DUP2 PUSH2 0x24C DUP9 DUP3 PUSH2 0x2B3 JUMP JUMPDEST DUP5 MSTORE PUSH1 0x20 DUP5 ADD SWAP4 POP PUSH1 0x20 DUP4 ADD SWAP3 POP POP PUSH1 0x1 DUP2 ADD SWAP1 POP PUSH2 0x239 JUMP JUMPDEST POP POP POP SWAP4 SWAP3 POP POP POP JUMP JUMPDEST PUSH1 0x0 DUP3 PUSH1 0x1F DUP4 ADD SLT PUSH2 0x285 JUMPI PUSH2 0x284 PUSH2 0x6E5 JUMP JUMPDEST JUMPDEST DUP2 CALLDATALOAD PUSH2 0x295 DUP5 DUP3 PUSH1 0x20 DUP7 ADD PUSH2 0x200 JUMP JUMPDEST SWAP2 POP POP SWAP3 SWAP2 POP POP JUMP JUMPDEST PUSH1 0x0 DUP2 CALLDATALOAD SWAP1 POP PUSH2 0x2AD DUP2 PUSH2 0x70A JUMP JUMPDEST SWAP3 SWAP2 POP POP JUMP JUMPDEST PUSH1 0x0 DUP2 CALLDATALOAD SWAP1 POP PUSH2 0x2C2 DUP2 PUSH2 0x721 JUMP JUMPDEST SWAP3 SWAP2 POP POP JUMP JUMPDEST PUSH1 0x0 DUP1 PUSH1 0x40 DUP4 DUP6 SUB SLT ISZERO PUSH2 0x2DF JUMPI PUSH2 0x2DE PUSH2 0x6F4 JUMP JUMPDEST JUMPDEST PUSH1 0x0 DUP4 ADD CALLDATALOAD PUSH8 0xFFFFFFFFFFFFFFFF DUP2 GT ISZERO PUSH2 0x2FD JUMPI PUSH2 0x2FC PUSH2 0x6EF JUMP JUMPDEST JUMPDEST PUSH2 0x309 DUP6 DUP3 DUP7 ADD PUSH2 0x270 JUMP JUMPDEST SWAP3 POP POP PUSH1 0x20 PUSH2 0x31A DUP6 DUP3 DUP7 ADD PUSH2 0x29E JUMP JUMPDEST SWAP2 POP POP SWAP3 POP SWAP3 SWAP1 POP JUMP JUMPDEST PUSH1 0x0 PUSH1 0x20 DUP3 DUP5 SUB SLT ISZERO PUSH2 0x33A JUMPI PUSH2 0x339 PUSH2 0x6F4 JUMP JUMPDEST JUMPDEST PUSH1 0x0 PUSH2 0x348 DUP5 DUP3 DUP6 ADD PUSH2 0x2B3 JUMP JUMPDEST SWAP2 POP POP SWAP3 SWAP2 POP POP JUMP JUMPDEST PUSH2 0x35A DUP2 PUSH2 0x56A JUMP JUMPDEST DUP3 MSTORE POP POP JUMP JUMPDEST PUSH1 0x0 PUSH1 0x20 DUP3 ADD SWAP1 POP PUSH2 0x375 PUSH1 0x0 DUP4 ADD DUP5 PUSH2 0x351 JUMP JUMPDEST SWAP3 SWAP2 POP POP JUMP JUMPDEST PUSH1 0x0 PUSH2 0x385 PUSH2 0x396 JUMP JUMPDEST SWAP1 POP PUSH2 0x391 DUP3 DUP3 PUSH2 0x57E JUMP JUMPDEST SWAP2 SWAP1 POP JUMP JUMPDEST PUSH1 0x0 PUSH1 0x40 MLOAD SWAP1 POP SWAP1 JUMP JUMPDEST PUSH1 0x0 PUSH8 0xFFFFFFFFFFFFFFFF DUP3 GT ISZERO PUSH2 0x3BB JUMPI PUSH2 0x3BA PUSH2 0x6B6 JUMP JUMPDEST JUMPDEST PUSH1 0x20 DUP3 MUL SWAP1 POP PUSH1 0x20 DUP2 ADD SWAP1 POP SWAP2 SWAP1 POP JUMP JUMPDEST PUSH1 0x0 PUSH2 0x3D7 DUP3 PUSH2 0x56A JUMP JUMPDEST SWAP2 POP PUSH2 0x3E2 DUP4 PUSH2 0x56A JUMP JUMPDEST SWAP3 POP DUP2 PUSH32 0x7FFFFFFFFFFFFFFFFFFFFFFFFFFFFFFFFFFFFFFFFFFFFFFFFFFFFFFFFFFFFFFF SUB DUP4 SGT PUSH1 0x0 DUP4 SLT ISZERO AND ISZERO PUSH2 0x41D JUMPI PUSH2 0x41C PUSH2 0x629 JUMP JUMPDEST JUMPDEST DUP2 PUSH32 0x8000000000000000000000000000000000000000000000000000000000000000 SUB DUP4 SLT PUSH1 0x0 DUP4 SLT AND ISZERO PUSH2 0x455 JUMPI PUSH2 0x454 PUSH2 0x629 JUMP JUMPDEST JUMPDEST DUP3 DUP3 ADD SWAP1 POP SWAP3 SWAP2 POP POP JUMP JUMPDEST PUSH1 0x0 PUSH2 0x46B DUP3 PUSH2 0x56A JUMP JUMPDEST SWAP2 POP PUSH2 0x476 DUP4 PUSH2 0x56A JUMP JUMPDEST SWAP3 POP DUP3 PUSH2 0x486 JUMPI PUSH2 0x485 PUSH2 0x658 JUMP JUMPDEST JUMPDEST PUSH1 0x1 PUSH1 0x0 SUB DUP4 EQ PUSH32 0x8000000000000000000000000000000000000000000000000000000000000000 DUP4 EQ AND ISZERO PUSH2 0x4BF JUMPI PUSH2 0x4BE PUSH2 0x629 JUMP JUMPDEST JUMPDEST DUP3 DUP3 SDIV SWAP1 POP SWAP3 SWAP2 POP POP JUMP JUMPDEST PUSH1 0x0 PUSH2 0x4D5 DUP3 PUSH2 0x56A JUMP JUMPDEST SWAP2 POP PUSH2 0x4E0 DUP4 PUSH2 0x56A JUMP JUMPDEST SWAP3 POP DUP3 PUSH32 0x8000000000000000000000000000000000000000000000000000000000000000 ADD DUP3 SLT PUSH1 0x0 DUP5 SLT ISZERO AND ISZERO PUSH2 0x51B JUMPI PUSH2 0x51A PUSH2 0x629 JUMP JUMPDEST JUMPDEST DUP3 PUSH32 0x7FFFFFFFFFFFFFFFFFFFFFFFFFFFFFFFFFFFFFFFFFFFFFFFFFFFFFFFFFFFFFFF ADD DUP3 SGT PUSH1 0x0 DUP5 SLT AND ISZERO PUSH2 0x553 JUMPI PUSH2 0x552 PUSH2 0x629 JUMP JUMPDEST JUMPDEST DUP3 DUP3 SUB SWAP1 POP SWAP3 SWAP2 POP POP JUMP JUMPDEST PUSH1 0x0 DUP2 ISZERO ISZERO SWAP1 POP SWAP2 SWAP1 POP JUMP JUMPDEST PUSH1 0x0 DUP2 SWAP1 POP SWAP2 SWAP1 POP JUMP JUMPDEST PUSH1 0x0 DUP2 SWAP1 POP SWAP2 SWAP1 POP JUMP JUMPDEST PUSH2 0x587 DUP3 PUSH2 0x6F9 JUMP JUMPDEST DUP2 ADD DUP2 DUP2 LT PUSH8 0xFFFFFFFFFFFFFFFF DUP3 GT OR ISZERO PUSH2 0x5A6 JUMPI PUSH2 0x5A5 PUSH2 0x6B6 JUMP JUMPDEST JUMPDEST DUP1 PUSH1 0x40 MSTORE POP POP POP JUMP JUMPDEST PUSH1 0x0 PUSH2 0x5BA DUP3 PUSH2 0x574 JUMP JUMPDEST SWAP2 POP PUSH32 0xFFFFFFFFFFFFFFFFFFFFFFFFFFFFFFFFFFFFFFFFFFFFFFFFFFFFFFFFFFFFFFFF DUP3 EQ ISZERO PUSH2 0x5ED JUMPI PUSH2 0x5EC PUSH2 0x629 JUMP JUMPDEST JUMPDEST PUSH1 0x1 DUP3 ADD SWAP1 POP SWAP2 SWAP1 POP JUMP JUMPDEST PUSH1 0x0 PUSH2 0x603 DUP3 PUSH2 0x56A JUMP JUMPDEST SWAP2 POP PUSH2 0x60E DUP4 PUSH2 0x56A JUMP JUMPDEST SWAP3 POP DUP3 PUSH2 0x61E JUMPI PUSH2 0x61D PUSH2 0x658 JUMP JUMPDEST JUMPDEST DUP3 DUP3 SMOD SWAP1 POP SWAP3 SWAP2 POP POP JUMP JUMPDEST PUSH32 0x4E487B7100000000000000000000000000000000000000000000000000000000 PUSH1 0x0 MSTORE PUSH1 0x11 PUSH1 0x4 MSTORE PUSH1 0x24 PUSH1 0x0 REVERT JUMPDEST PUSH32 0x4E487B7100000000000000000000000000000000000000000000000000000000 PUSH1 0x0 MSTORE PUSH1 0x12 PUSH1 0x4 MSTORE PUSH1 0x24 PUSH1 0x0 REVERT JUMPDEST PUSH32 0x4E487B7100000000000000000000000000000000000000000000000000000000 PUSH1 0x0 MSTORE PUSH1 0x32 PUSH1 0x4 MSTORE PUSH1 0x24 PUSH1 0x0 REVERT JUMPDEST PUSH32 0x4E487B7100000000000000000000000000000000000000000000000000000000 PUSH1 0x0 MSTORE PUSH1 0x41 PUSH1 0x4 MSTORE PUSH1 0x24 PUSH1 0x0 REVERT JUMPDEST PUSH1 0x0 DUP1 REVERT JUMPDEST PUSH1 0x0 DUP1 REVERT JUMPDEST PUSH1 0x0 DUP1 REVERT JUMPDEST PUSH1 0x0 DUP1 REVERT JUMPDEST PUSH1 0x0 PUSH1 0x1F NOT PUSH1 0x1F DUP4 ADD AND SWAP1 POP SWAP2 SWAP1 POP JUMP JUMPDEST PUSH2 0x713 DUP2 PUSH2 0x55E JUMP JUMPDEST DUP2 EQ PUSH2 0x71E JUMPI PUSH1 0x0 DUP1 REVERT JUMPDEST POP JUMP JUMPDEST PUSH2 0x72A DUP2 PUSH2 0x56A JUMP JUMPDEST DUP2 EQ PUSH2 0x735 JUMPI PUSH1 0x0 DUP1 REVERT JUMPDEST POP JUMP INVALID LOG2 PUSH5 0x6970667358 0x22 SLT KECCAK256 0x26 EQ 0x4E EXTCODEHASH 0xC7 PUSH17 0xEA9336BF424A975E81610BCE7ADC567840 PUSH19 0xAE957E7E961F058A64736F6C63430008070033 "
		},
		"gasEstimates": {
			"creation": {
				"codeDepositCost": "380400",
				"executionCost": "418",
				"totalCost": "380818"
			},
			"external": {
				"average(int256[],bool)": "infinite",
				"ceil(int256)": "infinite",
				"floor(int256)": "infinite"
			}
		},
		"methodIdentifiers": {
			"average(int256[],bool)": "a0447e55",
			"ceil(int256)": "42fba7ae",
			"floor(int256)": "da3ff648"
		}
	},
	"abi": [
		{
			"inputs": [
				{
					"internalType": "int256[]",
					"name": "values",
					"type": "int256[]"
				},
				{
					"internalType": "bool",
					"name": "down",
					"type": "bool"
				}
			],
			"name": "average",
			"outputs": [
				{
					"internalType": "int256",
					"name": "",
					"type": "int256"
				}
			],
			"stateMutability": "pure",
			"type": "function"
		},
		{
			"inputs": [
				{
					"internalType": "int256",
					"name": "value",
					"type": "int256"
				}
			],
			"name": "ceil",
			"outputs": [
				{
					"internalType": "int256",
					"name": "",
					"type": "int256"
				}
			],
			"stateMutability": "pure",
			"type": "function"
		},
		{
			"inputs": [
				{
					"internalType": "int256",
					"name": "value",
					"type": "int256"
				}
			],
			"name": "floor",
			"outputs": [
				{
					"internalType": "int256",
					"name": "",
					"type": "int256"
				}
			],
			"stateMutability": "pure",
			"type": "function"
		}
	]
}